{
  "contractName": "AgmOwner",
  "abi": [
    {
      "constant": true,
      "inputs": [],
      "name": "role",
      "outputs": [
        {
          "name": "",
          "type": "uint256"
        }
      ],
      "payable": false,
      "stateMutability": "view",
      "type": "function"
    },
    {
      "constant": true,
      "inputs": [],
      "name": "isRegistered",
      "outputs": [
        {
          "name": "",
          "type": "bool"
        }
      ],
      "payable": false,
      "stateMutability": "view",
      "type": "function"
    },
    {
      "constant": true,
      "inputs": [
        {
          "name": "",
          "type": "address"
        }
      ],
      "name": "userId",
      "outputs": [
        {
          "name": "",
          "type": "uint256"
        }
      ],
      "payable": false,
      "stateMutability": "view",
      "type": "function"
    },
    {
      "constant": true,
      "inputs": [],
      "name": "meetingPlace",
      "outputs": [
        {
          "name": "",
          "type": "string"
        }
      ],
      "payable": false,
      "stateMutability": "view",
      "type": "function"
    },
    {
      "constant": true,
      "inputs": [],
      "name": "meetingEndTime",
      "outputs": [
        {
          "name": "",
          "type": "string"
        }
      ],
      "payable": false,
      "stateMutability": "view",
      "type": "function"
    },
    {
      "constant": true,
      "inputs": [],
      "name": "meetingStartTime",
      "outputs": [
        {
          "name": "",
          "type": "string"
        }
      ],
      "payable": false,
      "stateMutability": "view",
      "type": "function"
    },
    {
      "constant": false,
      "inputs": [
        {
          "name": "reg",
          "type": "bool"
        }
      ],
      "name": "setIsRegistered",
      "outputs": [],
      "payable": false,
      "stateMutability": "nonpayable",
      "type": "function"
    },
    {
      "constant": true,
      "inputs": [],
      "name": "fac",
      "outputs": [
        {
          "name": "",
          "type": "address"
        }
      ],
      "payable": false,
      "stateMutability": "view",
      "type": "function"
    },
    {
      "constant": true,
      "inputs": [],
      "name": "agenda",
      "outputs": [
        {
          "name": "",
          "type": "string"
        }
      ],
      "payable": false,
      "stateMutability": "view",
      "type": "function"
    },
    {
      "constant": true,
      "inputs": [],
      "name": "meetingName",
      "outputs": [
        {
          "name": "",
          "type": "string"
        }
      ],
      "payable": false,
      "stateMutability": "view",
      "type": "function"
    },
    {
      "constant": true,
      "inputs": [],
      "name": "userAddress",
      "outputs": [
        {
          "name": "",
          "type": "address"
        }
      ],
      "payable": false,
      "stateMutability": "view",
      "type": "function"
    },
    {
      "inputs": [
        {
          "name": "_userAddress",
          "type": "address"
        },
        {
          "name": "_fac",
          "type": "address"
        }
      ],
      "payable": false,
      "stateMutability": "nonpayable",
      "type": "constructor"
    },
    {
      "anonymous": false,
      "inputs": [
        {
          "indexed": false,
          "name": "isExecuted",
          "type": "bool"
        },
        {
          "indexed": false,
          "name": "propId",
          "type": "uint256"
        },
        {
          "indexed": false,
          "name": "winnOptCount",
          "type": "uint256"
        }
      ],
      "name": "ProposalExecuted",
      "type": "event"
    },
    {
      "anonymous": false,
      "inputs": [
        {
          "indexed": false,
          "name": "propId",
          "type": "uint256"
        },
        {
          "indexed": false,
          "name": "creator",
          "type": "address"
        }
      ],
      "name": "ProposalCreated",
      "type": "event"
    },
    {
      "anonymous": false,
      "inputs": [
        {
          "indexed": false,
          "name": "userAddress",
          "type": "address"
        },
        {
          "indexed": false,
          "name": "proposalId",
          "type": "uint256"
        },
        {
          "indexed": false,
          "name": "votingOption",
          "type": "string"
        }
      ],
      "name": "Voted",
      "type": "event"
    },
    {
      "anonymous": false,
      "inputs": [
        {
          "indexed": false,
          "name": "isFinished",
          "type": "bool"
        }
      ],
      "name": "AgmFinished",
      "type": "event"
    },
    {
      "anonymous": false,
      "inputs": [
        {
          "indexed": false,
          "name": "caller",
          "type": "address"
        },
        {
          "indexed": false,
          "name": "newOwner",
          "type": "address"
        }
      ],
      "name": "OwnershipSharedTo",
      "type": "event"
    },
    {
      "anonymous": false,
      "inputs": [
        {
          "indexed": false,
          "name": "userId",
          "type": "uint256"
        },
        {
          "indexed": false,
          "name": "userAddress",
          "type": "address"
        },
        {
          "indexed": false,
          "name": "role",
          "type": "string"
        }
      ],
      "name": "UserCreated",
      "type": "event"
    },
    {
      "anonymous": false,
      "inputs": [
        {
          "indexed": false,
          "name": "userId",
          "type": "uint256"
        },
        {
          "indexed": false,
          "name": "userAddress",
          "type": "address"
        },
        {
          "indexed": false,
          "name": "role",
          "type": "uint256"
        }
      ],
      "name": "UserRemoved",
      "type": "event"
    },
    {
      "anonymous": false,
      "inputs": [
        {
          "indexed": false,
          "name": "isAnnounced",
          "type": "bool"
        }
      ],
      "name": "AgmAnnounced",
      "type": "event"
    },
    {
      "anonymous": false,
      "inputs": [
        {
          "indexed": false,
          "name": "adr",
          "type": "address"
        }
      ],
      "name": "AgmOwnerCreated",
      "type": "event"
    },
    {
      "constant": false,
      "inputs": [
        {
          "name": "_agenda",
          "type": "string"
        }
      ],
      "name": "setAgenda",
      "outputs": [],
      "payable": false,
      "stateMutability": "nonpayable",
      "type": "function"
    },
    {
      "constant": false,
      "inputs": [
        {
          "name": "_meetingPlace",
          "type": "string"
        }
      ],
      "name": "setMeetingPlace",
      "outputs": [],
      "payable": false,
      "stateMutability": "nonpayable",
      "type": "function"
    },
    {
      "constant": false,
      "inputs": [
        {
          "name": "_meetingStartTime",
          "type": "string"
        }
      ],
      "name": "setMeetingStartTime",
      "outputs": [],
      "payable": false,
      "stateMutability": "nonpayable",
      "type": "function"
    },
    {
      "constant": false,
      "inputs": [
        {
          "name": "_meetingEndTime",
          "type": "string"
        }
      ],
      "name": "setMeetingEndTime",
      "outputs": [],
      "payable": false,
      "stateMutability": "nonpayable",
      "type": "function"
    },
    {
      "constant": false,
      "inputs": [
        {
          "name": "_meetingName",
          "type": "string"
        }
      ],
      "name": "setMeetingName",
      "outputs": [],
      "payable": false,
      "stateMutability": "nonpayable",
      "type": "function"
    },
    {
      "constant": true,
      "inputs": [],
      "name": "getOwnerAddress",
      "outputs": [
        {
          "name": "ownerAdr",
          "type": "address"
        }
      ],
      "payable": false,
      "stateMutability": "view",
      "type": "function"
    },
    {
      "constant": true,
      "inputs": [],
      "name": "getOwners",
      "outputs": [
        {
          "name": "ownerAdr",
          "type": "address[]"
        }
      ],
      "payable": false,
      "stateMutability": "view",
      "type": "function"
    },
    {
      "constant": true,
      "inputs": [],
      "name": "getIsFinished",
      "outputs": [
        {
          "name": "finished",
          "type": "bool"
        }
      ],
      "payable": false,
      "stateMutability": "view",
      "type": "function"
    },
    {
      "constant": true,
      "inputs": [],
      "name": "getIsAnnounced",
      "outputs": [
        {
          "name": "announced",
          "type": "bool"
        }
      ],
      "payable": false,
      "stateMutability": "view",
      "type": "function"
    },
    {
      "constant": true,
      "inputs": [],
      "name": "getNumOfUsers",
      "outputs": [
        {
          "name": "length",
          "type": "uint256"
        }
      ],
      "payable": false,
      "stateMutability": "view",
      "type": "function"
    },
    {
      "constant": true,
      "inputs": [
        {
          "name": "_userAddress",
          "type": "address"
        }
      ],
      "name": "getUser",
      "outputs": [
        {
          "name": "adr",
          "type": "address"
        },
        {
          "name": "role",
          "type": "uint256"
        },
        {
          "name": "isReg",
          "type": "bool"
        }
      ],
      "payable": false,
      "stateMutability": "view",
      "type": "function"
    },
    {
      "constant": true,
      "inputs": [],
      "name": "getUserList",
      "outputs": [
        {
          "name": "userList",
          "type": "address[]"
        }
      ],
      "payable": false,
      "stateMutability": "view",
      "type": "function"
    },
    {
      "constant": false,
      "inputs": [
        {
          "name": "_owner",
          "type": "address"
        }
      ],
      "name": "transferOwnership",
      "outputs": [],
      "payable": false,
      "stateMutability": "nonpayable",
      "type": "function"
    },
    {
      "constant": false,
      "inputs": [
        {
          "name": "_userAddress",
          "type": "address"
        },
        {
          "name": "role",
          "type": "uint8"
        },
        {
          "name": "votingWeight",
          "type": "uint256"
        },
        {
          "name": "qa",
          "type": "address"
        }
      ],
      "name": "addUser",
      "outputs": [],
      "payable": false,
      "stateMutability": "nonpayable",
      "type": "function"
    },
    {
      "constant": false,
      "inputs": [
        {
          "name": "_userAddress",
          "type": "address"
        }
      ],
      "name": "removeUser",
      "outputs": [],
      "payable": false,
      "stateMutability": "nonpayable",
      "type": "function"
    },
    {
      "constant": false,
      "inputs": [],
      "name": "registerUser",
      "outputs": [],
      "payable": false,
      "stateMutability": "nonpayable",
      "type": "function"
    },
    {
      "constant": false,
      "inputs": [],
      "name": "finishAGM",
      "outputs": [],
      "payable": false,
      "stateMutability": "nonpayable",
      "type": "function"
    },
    {
      "constant": false,
      "inputs": [],
      "name": "announceAGM",
      "outputs": [],
      "payable": false,
      "stateMutability": "nonpayable",
      "type": "function"
    },
    {
      "constant": false,
      "inputs": [
        {
          "name": "_name",
          "type": "string"
        },
        {
          "name": "description",
          "type": "string"
        },
        {
          "name": "_options",
          "type": "string"
        }
      ],
      "name": "createProposal",
      "outputs": [
        {
          "name": "propId",
          "type": "uint256"
        }
      ],
      "payable": false,
      "stateMutability": "nonpayable",
      "type": "function"
    },
    {
      "constant": false,
      "inputs": [
        {
          "name": "proposalId",
          "type": "uint256"
        }
      ],
      "name": "executeProposal",
      "outputs": [
        {
          "name": "isExecuted",
          "type": "bool"
        }
      ],
      "payable": false,
      "stateMutability": "nonpayable",
      "type": "function"
    }
  ],
  "bytecode": "0x60806040526000600760006101000a81548160ff0219169083151502179055506000600760016101000a81548160ff02191690831515021790555034801561004657600080fd5b506040516040806200458683398101806040528101908080519060200190929190805190602001909291905050508160006001826000806101000a81548173ffffffffffffffffffffffffffffffffffffffff021916908373ffffffffffffffffffffffffffffffffffffffff1602179055508160028111156100c557fe5b60018190555080600260006101000a81548160ff02191690831515021790555050505080600260016101000a81548173ffffffffffffffffffffffffffffffffffffffff021916908373ffffffffffffffffffffffffffffffffffffffff16021790555060068290806001815401808255809150509060018203906000526020600020016000909192909190916101000a81548173ffffffffffffffffffffffffffffffffffffffff021916908373ffffffffffffffffffffffffffffffffffffffff1602179055505060043090806001815401808255809150509060018203906000526020600020016000909192909190916101000a81548173ffffffffffffffffffffffffffffffffffffffff021916908373ffffffffffffffffffffffffffffffffffffffff160217905550506000600560008473ffffffffffffffffffffffffffffffffffffffff1673ffffffffffffffffffffffffffffffffffffffff168152602001908152602001600020819055507f085243c41dfdfa8f24f1a43000cd59f6187d056d179e5681574e5331336e37f682604051808273ffffffffffffffffffffffffffffffffffffffff1673ffffffffffffffffffffffffffffffffffffffff16815260200191505060405180910390a150506142d780620002af6000396000f30060806040526004361061018b576000357c0100000000000000000000000000000000000000000000000000000000900463ffffffff1680630c4f65bd146101905780630c65cd44146101e75780630d61b5191461025057806310055c1d1461029557806311330152146102c057806322366844146103295780632fea656914610358578063376fe102146103c15780634d3820eb14610418578063548bfbd31461042f578063583cf379146104a95780636c15c919146105b25780636f77926b146105e1578063880e97a0146106765780639627ee52146106a1578063985751881461073157806398850d5714610774578063a0e67e2b14610804578063a760e0a114610870578063aaac9489146108d9578063ae2dac1a14610969578063b852204314610998578063c3b3147214610a04578063d3af0e8214610a5b578063dd4c33ee14610a8a578063dd73283d14610b1a578063e049421f14610baa578063e4128fb314610bc1578063f086621014610c18578063f2fde38b14610c2f578063fd1f4ba514610c72575b600080fd5b34801561019c57600080fd5b506101a5610cdb565b604051808273ffffffffffffffffffffffffffffffffffffffff1673ffffffffffffffffffffffffffffffffffffffff16815260200191505060405180910390f35b3480156101f357600080fd5b5061024e600480360381019080803590602001908201803590602001908080601f0160208091040260200160405190810160405280939291908181526020018383808284378201915050505050509192919290505050610d04565b005b34801561025c57600080fd5b5061027b60048036038101908080359060200190929190505050610f95565b604051808215151515815260200191505060405180910390f35b3480156102a157600080fd5b506102aa61127c565b6040518082815260200191505060405180910390f35b3480156102cc57600080fd5b50610327600480360381019080803590602001908201803590602001908080601f0160208091040260200160405190810160405280939291908181526020018383808284378201915050505050509192919290505050611282565b005b34801561033557600080fd5b5061033e611513565b604051808215151515815260200191505060405180910390f35b34801561036457600080fd5b506103bf600480360381019080803590602001908201803590602001908080601f0160208091040260200160405190810160405280939291908181526020018383808284378201915050505050509192919290505050611526565b005b3480156103cd57600080fd5b50610402600480360381019080803573ffffffffffffffffffffffffffffffffffffffff1690602001909291905050506117b7565b6040518082815260200191505060405180910390f35b34801561042457600080fd5b5061042d6117cf565b005b34801561043b57600080fd5b506104a7600480360381019080803573ffffffffffffffffffffffffffffffffffffffff169060200190929190803560ff16906020019092919080359060200190929190803573ffffffffffffffffffffffffffffffffffffffff169060200190929190505050611ab9565b005b3480156104b557600080fd5b5061059c600480360381019080803590602001908201803590602001908080601f0160208091040260200160405190810160405280939291908181526020018383808284378201915050505050509192919290803590602001908201803590602001908080601f0160208091040260200160405190810160405280939291908181526020018383808284378201915050505050509192919290803590602001908201803590602001908080601f016020809104026020016040519081016040528093929190818152602001838380828437820191505050505050919291929050505061243a565b6040518082815260200191505060405180910390f35b3480156105be57600080fd5b506105c76127f9565b604051808215151515815260200191505060405180910390f35b3480156105ed57600080fd5b50610622600480360381019080803573ffffffffffffffffffffffffffffffffffffffff169060200190929190505050612810565b604051808473ffffffffffffffffffffffffffffffffffffffff1673ffffffffffffffffffffffffffffffffffffffff16815260200183815260200182151515158152602001935050505060405180910390f35b34801561068257600080fd5b5061068b612af9565b6040518082815260200191505060405180910390f35b3480156106ad57600080fd5b506106b6612b06565b6040518080602001828103825283818151815260200191508051906020019080838360005b838110156106f65780820151818401526020810190506106db565b50505050905090810190601f1680156107235780820380516001836020036101000a031916815260200191505b509250505060405180910390f35b34801561073d57600080fd5b50610772600480360381019080803573ffffffffffffffffffffffffffffffffffffffff169060200190929190505050612ba4565b005b34801561078057600080fd5b50610789613161565b6040518080602001828103825283818151815260200191508051906020019080838360005b838110156107c95780820151818401526020810190506107ae565b50505050905090810190601f1680156107f65780820380516001836020036101000a031916815260200191505b509250505060405180910390f35b34801561081057600080fd5b506108196131ff565b6040518080602001828103825283818151815260200191508051906020019060200280838360005b8381101561085c578082015181840152602081019050610841565b505050509050019250505060405180910390f35b34801561087c57600080fd5b506108d7600480360381019080803590602001908201803590602001908080601f016020809104026020016040519081016040528093929190818152602001838380828437820191505050505050919291929050505061328d565b005b3480156108e557600080fd5b506108ee61351e565b6040518080602001828103825283818151815260200191508051906020019080838360005b8381101561092e578082015181840152602081019050610913565b50505050905090810190601f16801561095b5780820380516001836020036101000a031916815260200191505b509250505060405180910390f35b34801561097557600080fd5b506109966004803603810190808035151590602001909291905050506135bc565b005b3480156109a457600080fd5b506109ad6135d9565b6040518080602001828103825283818151815260200191508051906020019060200280838360005b838110156109f05780820151818401526020810190506109d5565b505050509050019250505060405180910390f35b348015610a1057600080fd5b50610a19613667565b604051808273ffffffffffffffffffffffffffffffffffffffff1673ffffffffffffffffffffffffffffffffffffffff16815260200191505060405180910390f35b348015610a6757600080fd5b50610a7061368d565b604051808215151515815260200191505060405180910390f35b348015610a9657600080fd5b50610a9f6136a4565b6040518080602001828103825283818151815260200191508051906020019080838360005b83811015610adf578082015181840152602081019050610ac4565b50505050905090810190601f168015610b0c5780820380516001836020036101000a031916815260200191505b509250505060405180910390f35b348015610b2657600080fd5b50610b2f613742565b6040518080602001828103825283818151815260200191508051906020019080838360005b83811015610b6f578082015181840152602081019050610b54565b50505050905090810190601f168015610b9c5780820380516001836020036101000a031916815260200191505b509250505060405180910390f35b348015610bb657600080fd5b50610bbf6137e0565b005b348015610bcd57600080fd5b50610bd6613a08565b604051808273ffffffffffffffffffffffffffffffffffffffff1673ffffffffffffffffffffffffffffffffffffffff16815260200191505060405180910390f35b348015610c2457600080fd5b50610c2d613a2d565b005b348015610c3b57600080fd5b50610c70600480360381019080803573ffffffffffffffffffffffffffffffffffffffff169060200190929190505050613c55565b005b348015610c7e57600080fd5b50610cd9600480360381019080803590602001908201803590602001908080601f0160208091040260200160405190810160405280939291908181526020018383808284378201915050505050509192919290505050613f49565b005b60008060009054906101000a900473ffffffffffffffffffffffffffffffffffffffff16905090565b60008060009150600090505b600680549050811015610d9c573373ffffffffffffffffffffffffffffffffffffffff16600682815481101515610d4357fe5b9060005260206000200160009054906101000a900473ffffffffffffffffffffffffffffffffffffffff1673ffffffffffffffffffffffffffffffffffffffff161415610d8f57600191505b8080600101915050610d10565b60011515821515141515610e3e576040517f08c379a000000000000000000000000000000000000000000000000000000000815260040180806020018281038252602b8152602001807f4f6e6c7920616e2041474d206f776e65722063616e206163636573732074686981526020017f732066756e6374696f6e2100000000000000000000000000000000000000000081525060400191505060405180910390fd5b600a8054600181600116156101000203166002900480601f016020809104026020016040519081016040528092919081815260200182805460018160011615610100020316600290048015610ed45780601f10610ea957610100808354040283529160200191610ed4565b820191906000526020600020905b815481529060010190602001808311610eb757829003601f168201915b505050505060008151141515610f78576040517f08c379a00000000000000000000000000000000000000000000000000000000081526004018080602001828103825260228152602001807f54686520706172616d657465722068617320616c7265616479206265656e207381526020017f657400000000000000000000000000000000000000000000000000000000000081525060400191505060405180910390fd5b83600a9080519060200190610f8e9291906141da565b5050505050565b60008060008060009150600090505b600680549050811015611030573373ffffffffffffffffffffffffffffffffffffffff16600682815481101515610fd757fe5b9060005260206000200160009054906101000a900473ffffffffffffffffffffffffffffffffffffffff1673ffffffffffffffffffffffffffffffffffffffff16141561102357600191505b8080600101915050610fa4565b600115158215151415156110d2576040517f08c379a000000000000000000000000000000000000000000000000000000000815260040180806020018281038252602b8152602001807f4f6e6c7920616e2041474d206f776e65722063616e206163636573732074686981526020017f732066756e6374696f6e2100000000000000000000000000000000000000000081525060400191505060405180910390fd5b600760009054906101000a900460ff161515611156576040517f08c379a000000000000000000000000000000000000000000000000000000000815260040180806020018281038252601c8152602001807f41474d2068617320746f2062652066696e69736865642066697273740000000081525060200191505060405180910390fd5b600260019054906101000a900473ffffffffffffffffffffffffffffffffffffffff1673ffffffffffffffffffffffffffffffffffffffff1663cf83ea75866040518263ffffffff167c010000000000000000000000000000000000000000000000000000000002815260040180828152602001915050602060405180830381600087803b1580156111e757600080fd5b505af11580156111fb573d6000803e3d6000fd5b505050506040513d602081101561121157600080fd5b810190808051906020019092919050505092507ff43bd5bf2f56f5b0b2c632a7c745bb35de3d842f76f7d3e7b42e6e82847bad6b600186856040518084151515158152602001838152602001828152602001935050505060405180910390a160019350505050919050565b60015481565b60008060009150600090505b60068054905081101561131a573373ffffffffffffffffffffffffffffffffffffffff166006828154811015156112c157fe5b9060005260206000200160009054906101000a900473ffffffffffffffffffffffffffffffffffffffff1673ffffffffffffffffffffffffffffffffffffffff16141561130d57600191505b808060010191505061128e565b600115158215151415156113bc576040517f08c379a000000000000000000000000000000000000000000000000000000000815260040180806020018281038252602b8152602001807f4f6e6c7920616e2041474d206f776e65722063616e206163636573732074686981526020017f732066756e6374696f6e2100000000000000000000000000000000000000000081525060400191505060405180910390fd5b60088054600181600116156101000203166002900480601f0160208091040260200160405190810160405280929190818152602001828054600181600116156101000203166002900480156114525780601f1061142757610100808354040283529160200191611452565b820191906000526020600020905b81548152906001019060200180831161143557829003601f168201915b5050505050600081511415156114f6576040517f08c379a00000000000000000000000000000000000000000000000000000000081526004018080602001828103825260228152602001807f54686520706172616d657465722068617320616c7265616479206265656e207381526020017f657400000000000000000000000000000000000000000000000000000000000081525060400191505060405180910390fd5b836008908051906020019061150c9291906141da565b5050505050565b600260009054906101000a900460ff1681565b60008060009150600090505b6006805490508110156115be573373ffffffffffffffffffffffffffffffffffffffff1660068281548110151561156557fe5b9060005260206000200160009054906101000a900473ffffffffffffffffffffffffffffffffffffffff1673ffffffffffffffffffffffffffffffffffffffff1614156115b157600191505b8080600101915050611532565b60011515821515141515611660576040517f08c379a000000000000000000000000000000000000000000000000000000000815260040180806020018281038252602b8152602001807f4f6e6c7920616e2041474d206f776e65722063616e206163636573732074686981526020017f732066756e6374696f6e2100000000000000000000000000000000000000000081525060400191505060405180910390fd5b600b8054600181600116156101000203166002900480601f0160208091040260200160405190810160405280929190818152602001828054600181600116156101000203166002900480156116f65780601f106116cb576101008083540402835291602001916116f6565b820191906000526020600020905b8154815290600101906020018083116116d957829003601f168201915b50505050506000815114151561179a576040517f08c379a00000000000000000000000000000000000000000000000000000000081526004018080602001828103825260228152602001807f54686520706172616d657465722068617320616c7265616479206265656e207381526020017f657400000000000000000000000000000000000000000000000000000000000081525060400191505060405180910390fd5b83600b90805190602001906117b09291906141da565b5050505050565b60056020528060005260406000206000915090505481565b600080600560003373ffffffffffffffffffffffffffffffffffffffff1673ffffffffffffffffffffffffffffffffffffffff168152602001908152602001600020549150600082141515156118b3576040517f08c379a00000000000000000000000000000000000000000000000000000000081526004018080602001828103825260288152602001807f5573657220686173206e6f74206265656e20616464656420746f20746865207581526020017f736572206c69737400000000000000000000000000000000000000000000000081525060400191505060405180910390fd5b6004828154811015156118c257fe5b9060005260206000200160009054906101000a900473ffffffffffffffffffffffffffffffffffffffff1690508073ffffffffffffffffffffffffffffffffffffffff1663223668446040518163ffffffff167c0100000000000000000000000000000000000000000000000000000000028152600401602060405180830381600087803b15801561195357600080fd5b505af1158015611967573d6000803e3d6000fd5b505050506040513d602081101561197d57600080fd5b8101908080519060200190929190505050151515611a29576040517f08c379a00000000000000000000000000000000000000000000000000000000081526004018080602001828103825260258152602001807f54686520757365722068617320616c7265616479206265656e2072656769737481526020017f657265642100000000000000000000000000000000000000000000000000000081525060400191505060405180910390fd5b8073ffffffffffffffffffffffffffffffffffffffff1663ae2dac1a60016040518263ffffffff167c01000000000000000000000000000000000000000000000000000000000281526004018082151515158152602001915050600060405180830381600087803b158015611a9d57600080fd5b505af1158015611ab1573d6000803e3d6000fd5b505050505050565b60008060008060008060009150600090505b600680549050811015611b57573373ffffffffffffffffffffffffffffffffffffffff16600682815481101515611afe57fe5b9060005260206000200160009054906101000a900473ffffffffffffffffffffffffffffffffffffffff1673ffffffffffffffffffffffffffffffffffffffff161415611b4a57600191505b8080600101915050611acb565b60011515821515141515611bf9576040517f08c379a000000000000000000000000000000000000000000000000000000000815260040180806020018281038252602b8152602001807f4f6e6c7920616e2041474d206f776e65722063616e206163636573732074686981526020017f732066756e6374696f6e2100000000000000000000000000000000000000000081525060400191505060405180910390fd5b600560008b73ffffffffffffffffffffffffffffffffffffffff1673ffffffffffffffffffffffffffffffffffffffff168152602001908152602001600020549550600086141515611cd9576040517f08c379a00000000000000000000000000000000000000000000000000000000081526004018080602001828103825260278152602001807f557365722068617320616c7265616479206265656e20616464656420746f207481526020017f68652041474d210000000000000000000000000000000000000000000000000081525060400191505060405180910390fd5b60048054809190600101611ced919061425a565b955085600560008c73ffffffffffffffffffffffffffffffffffffffff1673ffffffffffffffffffffffffffffffffffffffff168152602001908152602001600020819055506000896002811115611d4157fe5b1415611f8357600260019054906101000a900473ffffffffffffffffffffffffffffffffffffffff1673ffffffffffffffffffffffffffffffffffffffff1663faa4ea4e8b60018a6040518463ffffffff167c0100000000000000000000000000000000000000000000000000000000028152600401808473ffffffffffffffffffffffffffffffffffffffff1673ffffffffffffffffffffffffffffffffffffffff168152602001831515151581526020018273ffffffffffffffffffffffffffffffffffffffff1673ffffffffffffffffffffffffffffffffffffffff1681526020019350505050602060405180830381600087803b158015611e4557600080fd5b505af1158015611e59573d6000803e3d6000fd5b505050506040513d6020811015611e6f57600080fd5b8101908080519060200190929190505050945084600487815481101515611e9257fe5b9060005260206000200160006101000a81548173ffffffffffffffffffffffffffffffffffffffff021916908373ffffffffffffffffffffffffffffffffffffffff1602179055507f7df725c7d23205e36bcd4b1a3ea204869ab4b2ce886d5f1f454a818d26663c37868b604051808381526020018273ffffffffffffffffffffffffffffffffffffffff1673ffffffffffffffffffffffffffffffffffffffff16815260200180602001828103825260088152602001807f41676d4f776e6572000000000000000000000000000000000000000000000000815250602001935050505060405180910390a161241c565b6001896002811115611f9157fe5b14156121d357600260019054906101000a900473ffffffffffffffffffffffffffffffffffffffff1673ffffffffffffffffffffffffffffffffffffffff1663faa4ea4e8b60008a6040518463ffffffff167c0100000000000000000000000000000000000000000000000000000000028152600401808473ffffffffffffffffffffffffffffffffffffffff1673ffffffffffffffffffffffffffffffffffffffff168152602001831515151581526020018273ffffffffffffffffffffffffffffffffffffffff1673ffffffffffffffffffffffffffffffffffffffff1681526020019350505050602060405180830381600087803b15801561209557600080fd5b505af11580156120a9573d6000803e3d6000fd5b505050506040513d60208110156120bf57600080fd5b81019080805190602001909291905050509350836004878154811015156120e257fe5b9060005260206000200160006101000a81548173ffffffffffffffffffffffffffffffffffffffff021916908373ffffffffffffffffffffffffffffffffffffffff1602179055507f7df725c7d23205e36bcd4b1a3ea204869ab4b2ce886d5f1f454a818d26663c37868b604051808381526020018273ffffffffffffffffffffffffffffffffffffffff1673ffffffffffffffffffffffffffffffffffffffff16815260200180602001828103825260088152602001807f4469726563746f72000000000000000000000000000000000000000000000000815250602001935050505060405180910390a161241b565b60028960028111156121e157fe5b141561241a57600260019054906101000a900473ffffffffffffffffffffffffffffffffffffffff1673ffffffffffffffffffffffffffffffffffffffff1663973163188b8a8a6040518463ffffffff167c0100000000000000000000000000000000000000000000000000000000028152600401808473ffffffffffffffffffffffffffffffffffffffff1673ffffffffffffffffffffffffffffffffffffffff1681526020018381526020018273ffffffffffffffffffffffffffffffffffffffff1673ffffffffffffffffffffffffffffffffffffffff1681526020019350505050602060405180830381600087803b1580156122e057600080fd5b505af11580156122f4573d6000803e3d6000fd5b505050506040513d602081101561230a57600080fd5b810190808051906020019092919050505092508260048781548110151561232d57fe5b9060005260206000200160006101000a81548173ffffffffffffffffffffffffffffffffffffffff021916908373ffffffffffffffffffffffffffffffffffffffff1602179055507f7df725c7d23205e36bcd4b1a3ea204869ab4b2ce886d5f1f454a818d26663c37868b604051808381526020018273ffffffffffffffffffffffffffffffffffffffff1673ffffffffffffffffffffffffffffffffffffffff168152602001806020018281038252600b8152602001807f5368617265686f6c646572000000000000000000000000000000000000000000815250602001935050505060405180910390a15b5b5b60036000815480929190600101919050555050505050505050505050565b6000806000809150600090505b6006805490508110156124d3573373ffffffffffffffffffffffffffffffffffffffff1660068281548110151561247a57fe5b9060005260206000200160009054906101000a900473ffffffffffffffffffffffffffffffffffffffff1673ffffffffffffffffffffffffffffffffffffffff1614156124c657600191505b8080600101915050612447565b60011515821515141515612575576040517f08c379a000000000000000000000000000000000000000000000000000000000815260040180806020018281038252602b8152602001807f4f6e6c7920616e2041474d206f776e65722063616e206163636573732074686981526020017f732066756e6374696f6e2100000000000000000000000000000000000000000081525060400191505060405180910390fd5b600260019054906101000a900473ffffffffffffffffffffffffffffffffffffffff1673ffffffffffffffffffffffffffffffffffffffff1663806c08608787876040518463ffffffff167c010000000000000000000000000000000000000000000000000000000002815260040180806020018060200180602001848103845287818151815260200191508051906020019080838360005b8381101561262957808201518184015260208101905061260e565b50505050905090810190601f1680156126565780820380516001836020036101000a031916815260200191505b50848103835286818151815260200191508051906020019080838360005b8381101561268f578082015181840152602081019050612674565b50505050905090810190601f1680156126bc5780820380516001836020036101000a031916815260200191505b50848103825285818151815260200191508051906020019080838360005b838110156126f55780820151818401526020810190506126da565b50505050905090810190601f1680156127225780820380516001836020036101000a031916815260200191505b509650505050505050602060405180830381600087803b15801561274557600080fd5b505af1158015612759573d6000803e3d6000fd5b505050506040513d602081101561276f57600080fd5b810190808051906020019092919050505092507fcd423cc1203c0af96b9b3d68d73b3064a69de2d14450bb7181c5e5df2132b3588333604051808381526020018273ffffffffffffffffffffffffffffffffffffffff1673ffffffffffffffffffffffffffffffffffffffff1681526020019250505060405180910390a182925050509392505050565b6000600760009054906101000a900460ff16905090565b6000806000806000600560008773ffffffffffffffffffffffffffffffffffffffff1673ffffffffffffffffffffffffffffffffffffffff1681526020019081526020016000205491506000821480156128b757506000809054906101000a900473ffffffffffffffffffffffffffffffffffffffff1673ffffffffffffffffffffffffffffffffffffffff168673ffffffffffffffffffffffffffffffffffffffff1614155b156128d057600060036000819150945094509450612af0565b6004828154811015156128df57fe5b9060005260206000200160009054906101000a900473ffffffffffffffffffffffffffffffffffffffff1690508073ffffffffffffffffffffffffffffffffffffffff1663e4128fb36040518163ffffffff167c0100000000000000000000000000000000000000000000000000000000028152600401602060405180830381600087803b15801561297057600080fd5b505af1158015612984573d6000803e3d6000fd5b505050506040513d602081101561299a57600080fd5b81019080805190602001909291905050508173ffffffffffffffffffffffffffffffffffffffff166310055c1d6040518163ffffffff167c0100000000000000000000000000000000000000000000000000000000028152600401602060405180830381600087803b158015612a0f57600080fd5b505af1158015612a23573d6000803e3d6000fd5b505050506040513d6020811015612a3957600080fd5b81019080805190602001909291905050508273ffffffffffffffffffffffffffffffffffffffff1663223668446040518163ffffffff167c0100000000000000000000000000000000000000000000000000000000028152600401602060405180830381600087803b158015612aae57600080fd5b505af1158015612ac2573d6000803e3d6000fd5b505050506040513d6020811015612ad857600080fd5b81019080805190602001909291905050509450945094505b50509193909250565b6000600480549050905090565b600a8054600181600116156101000203166002900480601f016020809104026020016040519081016040528092919081815260200182805460018160011615610100020316600290048015612b9c5780601f10612b7157610100808354040283529160200191612b9c565b820191906000526020600020905b815481529060010190602001808311612b7f57829003601f168201915b505050505081565b60008060008060009150600090505b600680549050811015612c3f573373ffffffffffffffffffffffffffffffffffffffff16600682815481101515612be657fe5b9060005260206000200160009054906101000a900473ffffffffffffffffffffffffffffffffffffffff1673ffffffffffffffffffffffffffffffffffffffff161415612c3257600191505b8080600101915050612bb3565b60011515821515141515612ce1576040517f08c379a000000000000000000000000000000000000000000000000000000000815260040180806020018281038252602b8152602001807f4f6e6c7920616e2041474d206f776e65722063616e206163636573732074686981526020017f732066756e6374696f6e2100000000000000000000000000000000000000000081525060400191505060405180910390fd5b6000600560008773ffffffffffffffffffffffffffffffffffffffff1673ffffffffffffffffffffffffffffffffffffffff1681526020019081526020016000205414151515612d99576040517f08c379a00000000000000000000000000000000000000000000000000000000081526004018080602001828103825260138152602001807f5573657220646f6573206e6f742065786973740000000000000000000000000081525060200191505060405180910390fd5b600560008673ffffffffffffffffffffffffffffffffffffffff1673ffffffffffffffffffffffffffffffffffffffff168152602001908152602001600020549350600484815481101515612dea57fe5b9060005260206000200160009054906101000a900473ffffffffffffffffffffffffffffffffffffffff169250600484815481101515612e2657fe5b9060005260206000200160006101000a81549073ffffffffffffffffffffffffffffffffffffffff02191690555b60016004805490500384101561302057600460018501815481101515612e7657fe5b9060005260206000200160009054906101000a900473ffffffffffffffffffffffffffffffffffffffff16600485815481101515612eb057fe5b9060005260206000200160006101000a81548173ffffffffffffffffffffffffffffffffffffffff021916908373ffffffffffffffffffffffffffffffffffffffff1602179055508360056000600487815481101515612f0c57fe5b9060005260206000200160009054906101000a900473ffffffffffffffffffffffffffffffffffffffff1673ffffffffffffffffffffffffffffffffffffffff1663e4128fb36040518163ffffffff167c0100000000000000000000000000000000000000000000000000000000028152600401602060405180830381600087803b158015612f9a57600080fd5b505af1158015612fae573d6000803e3d6000fd5b505050506040513d6020811015612fc457600080fd5b810190808051906020019092919050505073ffffffffffffffffffffffffffffffffffffffff1673ffffffffffffffffffffffffffffffffffffffff168152602001908152602001600020819055508380600101945050612e54565b6004805480919060019003613035919061425a565b50600360008154809291906001900391905055507f772cd6a5e17d238e7f8a859b13f23ccd3c4e21afb7ec4a33e9b19de1c09a7dac84868573ffffffffffffffffffffffffffffffffffffffff166310055c1d6040518163ffffffff167c0100000000000000000000000000000000000000000000000000000000028152600401602060405180830381600087803b1580156130d057600080fd5b505af11580156130e4573d6000803e3d6000fd5b505050506040513d60208110156130fa57600080fd5b8101908080519060200190929190505050604051808481526020018373ffffffffffffffffffffffffffffffffffffffff1673ffffffffffffffffffffffffffffffffffffffff168152602001828152602001935050505060405180910390a15050505050565b600c8054600181600116156101000203166002900480601f0160208091040260200160405190810160405280929190818152602001828054600181600116156101000203166002900480156131f75780601f106131cc576101008083540402835291602001916131f7565b820191906000526020600020905b8154815290600101906020018083116131da57829003601f168201915b505050505081565b6060600680548060200260200160405190810160405280929190818152602001828054801561328357602002820191906000526020600020905b8160009054906101000a900473ffffffffffffffffffffffffffffffffffffffff1673ffffffffffffffffffffffffffffffffffffffff1681526020019060010190808311613239575b5050505050905090565b60008060009150600090505b600680549050811015613325573373ffffffffffffffffffffffffffffffffffffffff166006828154811015156132cc57fe5b9060005260206000200160009054906101000a900473ffffffffffffffffffffffffffffffffffffffff1673ffffffffffffffffffffffffffffffffffffffff16141561331857600191505b8080600101915050613299565b600115158215151415156133c7576040517f08c379a000000000000000000000000000000000000000000000000000000000815260040180806020018281038252602b8152602001807f4f6e6c7920616e2041474d206f776e65722063616e206163636573732074686981526020017f732066756e6374696f6e2100000000000000000000000000000000000000000081525060400191505060405180910390fd5b600c8054600181600116156101000203166002900480601f01602080910402602001604051908101604052809291908181526020018280546001816001161561010002031660029004801561345d5780601f106134325761010080835404028352916020019161345d565b820191906000526020600020905b81548152906001019060200180831161344057829003601f168201915b505050505060008151141515613501576040517f08c379a00000000000000000000000000000000000000000000000000000000081526004018080602001828103825260228152602001807f54686520706172616d657465722068617320616c7265616479206265656e207381526020017f657400000000000000000000000000000000000000000000000000000000000081525060400191505060405180910390fd5b83600c90805190602001906135179291906141da565b5050505050565b600b8054600181600116156101000203166002900480601f0160208091040260200160405190810160405280929190818152602001828054600181600116156101000203166002900480156135b45780601f10613589576101008083540402835291602001916135b4565b820191906000526020600020905b81548152906001019060200180831161359757829003601f168201915b505050505081565b80600260006101000a81548160ff02191690831515021790555050565b6060600480548060200260200160405190810160405280929190818152602001828054801561365d57602002820191906000526020600020905b8160009054906101000a900473ffffffffffffffffffffffffffffffffffffffff1673ffffffffffffffffffffffffffffffffffffffff1681526020019060010190808311613613575b5050505050905090565b600260019054906101000a900473ffffffffffffffffffffffffffffffffffffffff1681565b6000600760019054906101000a900460ff16905090565b60098054600181600116156101000203166002900480601f01602080910402602001604051908101604052809291908181526020018280546001816001161561010002031660029004801561373a5780601f1061370f5761010080835404028352916020019161373a565b820191906000526020600020905b81548152906001019060200180831161371d57829003601f168201915b505050505081565b60088054600181600116156101000203166002900480601f0160208091040260200160405190810160405280929190818152602001828054600181600116156101000203166002900480156137d85780601f106137ad576101008083540402835291602001916137d8565b820191906000526020600020905b8154815290600101906020018083116137bb57829003601f168201915b505050505081565b60008060009150600090505b600680549050811015613878573373ffffffffffffffffffffffffffffffffffffffff1660068281548110151561381f57fe5b9060005260206000200160009054906101000a900473ffffffffffffffffffffffffffffffffffffffff1673ffffffffffffffffffffffffffffffffffffffff16141561386b57600191505b80806001019150506137ec565b6001151582151514151561391a576040517f08c379a000000000000000000000000000000000000000000000000000000000815260040180806020018281038252602b8152602001807f4f6e6c7920616e2041474d206f776e65722063616e206163636573732074686981526020017f732066756e6374696f6e2100000000000000000000000000000000000000000081525060400191505060405180910390fd5b600760009054906101000a900460ff1615151561399f576040517f08c379a000000000000000000000000000000000000000000000000000000000815260040180806020018281038252601d8152602001807f41474d2068617320616c7265616479206265656e2066696e697368656400000081525060200191505060405180910390fd5b6001600760006101000a81548160ff0219169083151502179055507f8cd75a9c018fcf2df19a93d0c90440885504e4d100c03d546f17c3e9b781f0df600760009054906101000a900460ff16604051808215151515815260200191505060405180910390a15050565b6000809054906101000a900473ffffffffffffffffffffffffffffffffffffffff1681565b60008060009150600090505b600680549050811015613ac5573373ffffffffffffffffffffffffffffffffffffffff16600682815481101515613a6c57fe5b9060005260206000200160009054906101000a900473ffffffffffffffffffffffffffffffffffffffff1673ffffffffffffffffffffffffffffffffffffffff161415613ab857600191505b8080600101915050613a39565b60011515821515141515613b67576040517f08c379a000000000000000000000000000000000000000000000000000000000815260040180806020018281038252602b8152602001807f4f6e6c7920616e2041474d206f776e65722063616e206163636573732074686981526020017f732066756e6374696f6e2100000000000000000000000000000000000000000081525060400191505060405180910390fd5b600760019054906101000a900460ff16151515613bec576040517f08c379a000000000000000000000000000000000000000000000000000000000815260040180806020018281038252601e8152602001807f41474d2068617320616c7265616479206265656e20616e6e6f756e636564000081525060200191505060405180910390fd5b6001600760016101000a81548160ff0219169083151502179055507f78caa0c39f79d016b0b0f42573cf5acd73aa21dddc0d63a69bad5ce41b1608d1600760019054906101000a900460ff16604051808215151515815260200191505060405180910390a15050565b60008060009150600090505b600680549050811015613ced573373ffffffffffffffffffffffffffffffffffffffff16600682815481101515613c9457fe5b9060005260206000200160009054906101000a900473ffffffffffffffffffffffffffffffffffffffff1673ffffffffffffffffffffffffffffffffffffffff161415613ce057600191505b8080600101915050613c61565b60011515821515141515613d8f576040517f08c379a000000000000000000000000000000000000000000000000000000000815260040180806020018281038252602b8152602001807f4f6e6c7920616e2041474d206f776e65722063616e206163636573732074686981526020017f732066756e6374696f6e2100000000000000000000000000000000000000000081525060400191505060405180910390fd5b6000600560008573ffffffffffffffffffffffffffffffffffffffff1673ffffffffffffffffffffffffffffffffffffffff1681526020019081526020016000205414151515613e47576040517f08c379a000000000000000000000000000000000000000000000000000000000815260040180806020018281038252601c8152602001807f546865206e6577207573657220646f6573206e6f74206578697374210000000081525060200191505060405180910390fd5b60068390806001815401808255809150509060018203906000526020600020016000909192909190916101000a81548173ffffffffffffffffffffffffffffffffffffffff021916908373ffffffffffffffffffffffffffffffffffffffff160217905550507fab72103a2cbe67c5e3689499070d97ceed14b67fdbac1888dcbb3ca5294f93bf3384604051808373ffffffffffffffffffffffffffffffffffffffff1673ffffffffffffffffffffffffffffffffffffffff1681526020018273ffffffffffffffffffffffffffffffffffffffff1673ffffffffffffffffffffffffffffffffffffffff1681526020019250505060405180910390a1505050565b60008060009150600090505b600680549050811015613fe1573373ffffffffffffffffffffffffffffffffffffffff16600682815481101515613f8857fe5b9060005260206000200160009054906101000a900473ffffffffffffffffffffffffffffffffffffffff1673ffffffffffffffffffffffffffffffffffffffff161415613fd457600191505b8080600101915050613f55565b60011515821515141515614083576040517f08c379a000000000000000000000000000000000000000000000000000000000815260040180806020018281038252602b8152602001807f4f6e6c7920616e2041474d206f776e65722063616e206163636573732074686981526020017f732066756e6374696f6e2100000000000000000000000000000000000000000081525060400191505060405180910390fd5b60098054600181600116156101000203166002900480601f0160208091040260200160405190810160405280929190818152602001828054600181600116156101000203166002900480156141195780601f106140ee57610100808354040283529160200191614119565b820191906000526020600020905b8154815290600101906020018083116140fc57829003601f168201915b5050505050600081511415156141bd576040517f08c379a00000000000000000000000000000000000000000000000000000000081526004018080602001828103825260228152602001807f54686520706172616d657465722068617320616c7265616479206265656e207381526020017f657400000000000000000000000000000000000000000000000000000000000081525060400191505060405180910390fd5b83600990805190602001906141d39291906141da565b5050505050565b828054600181600116156101000203166002900490600052602060002090601f016020900481019282601f1061421b57805160ff1916838001178555614249565b82800160010185558215614249579182015b8281111561424857825182559160200191906001019061422d565b5b5090506142569190614286565b5090565b815481835581811115614281578183600052602060002091820191016142809190614286565b5b505050565b6142a891905b808211156142a457600081600090555060010161428c565b5090565b905600a165627a7a723058205dfc0f97e58e00c7acc4fa7bc4298a579569beda8f7d7993b832ebd29bb311c00029",
  "source": "pragma solidity ^0.4.23;\n\nimport \"./User.sol\";\nimport \"./Shareholder.sol\";\nimport \"./Director.sol\";\nimport \"./Factory.sol\";\n\n/**\n*    @title AgmOwner - is the superadmin of the AGM process and therefore, a singleton\n*/\ncontract AgmOwner is User {\n\n    // reference to proposal storage\n    Factory public fac;\n    // total number of users\n    uint private numberOfUsers;\n    // stores all users\n    User[] private users;\n    // stores user's address with corresponding id\n    mapping(address => uint) public userId;\n    // stores the owners who have permission to setup the AGM\n    address[] private owners;\n    // timers for AGM process\n    bool private isFinished = false;\n    bool private isAnnounced = false;\n    \n    // params for AGM setup\n    string public meetingName;\n    string public agenda;\n    string public meetingPlace;\n    string public meetingStartTime;\n    string public meetingEndTime;\n\n    /**\n    *    @dev checks whether the parameter is already set\n    */\n    modifier isSet(string param) {\n        require(bytes(param).length == 0, \"The parameter has already been set\");\n        _;\n    }\n\n    /**\n    *    @dev checks that the caller is an administrator (=AgmOwner)\n    */\n    modifier onlyOwner {\n        bool isOwner = false;\n        for (uint i = 0; i < owners.length; i++) {\n            if (owners[i] == msg.sender) {\n                isOwner = true;\n            }\n        }\n        require(isOwner == true, \"Only an AGM owner can access this function!\");\n        _;\n    }\n\n    /**\n    *    @dev events for testing and debugging\n    */\n    event ProposalExecuted(bool isExecuted, uint propId, uint winnOptCount);\n    event ProposalCreated(uint propId, address creator);\n    event Voted(address userAddress, uint proposalId, string votingOption);\n    event AgmFinished(bool isFinished);\n    event OwnershipSharedTo(address caller, address newOwner);\n    event UserCreated(uint userId, address userAddress, string role);\n    event UserRemoved(uint userId, address userAddress, uint role);\n    event AgmAnnounced(bool isAnnounced);\n    event AgmOwnerCreated(address adr);\n\n    /**\n    *    @dev the deployer of this contract is always appended as first user to the user list\n    */\n    constructor(\n        address _userAddress,\n        Factory _fac\n    ) User(_userAddress, Role.AGMOWNER, true) public {\n\n        fac = _fac;\n        owners.push(_userAddress);\n        users.push(User(address(this)));\n        userId[_userAddress] = 0;\n\n        emit AgmOwnerCreated(_userAddress);\n    }\n\n    /**\n    *    @dev setters for setting the AGM parameters and getters\n    */\n    function setAgenda(string _agenda) public onlyOwner isSet(agenda) {\n        agenda = _agenda;\n    }\n\n    function setMeetingPlace(string _meetingPlace) public onlyOwner isSet(meetingPlace) {\n        meetingPlace = _meetingPlace;\n    }\n\n    function setMeetingStartTime(string _meetingStartTime) public onlyOwner isSet(meetingStartTime) {\n        meetingStartTime = _meetingStartTime;\n    }\n\n    function setMeetingEndTime(string _meetingEndTime) public onlyOwner isSet(meetingEndTime) {\n        meetingEndTime = _meetingEndTime;\n    }\n\n    function setMeetingName(string _meetingName) public onlyOwner isSet(meetingName) {\n        meetingName = _meetingName;\n    }\n\n    function getOwnerAddress() public view returns (address ownerAdr) {\n        return userAddress;\n    }\n\n    function getOwners() public view returns (address[] ownerAdr) {\n        return owners;\n    }\n\n    function getIsFinished() public view returns (bool finished) {\n        return isFinished;\n    }\n\n    function getIsAnnounced() public view returns (bool announced) {\n        return isAnnounced;\n    }\n\n    function getNumOfUsers() public view returns (uint length) {\n        return users.length;\n    }\n\n    function getUser(address _userAddress) public view returns (address adr, uint role, bool isReg) {\n        uint userID = userId[_userAddress];\n        if (userID == 0 && _userAddress != userAddress) {\n            return (address(0), 3, false);\n        }\n        User u = users[userID];\n        return (u.userAddress(), u.role(), u.isRegistered());\n    }\n\n    function getUserList() public view returns (User[] userList) {\n        return users;\n    }\n\n    /**\n    *   @dev transfer admin rights to another user who has the AgmOwner role\n    *   @param _owner address of the user\n    */\n    function transferOwnership(address _owner) public onlyOwner {\n        require(userId[_owner] != 0, \"The new user does not exist!\");\n        owners.push(_owner);\n\n        emit OwnershipSharedTo(msg.sender, _owner);\n    }\n\n    /**\n    *   @dev adds a user to the user list\n    *   @param _userAddress address of the user\n    *   @param role role of the user\n    *   @param qa reference to the Q&A lists\n    */\n    function addUser(address _userAddress, Role role, uint votingWeight, QandA qa) public onlyOwner {\n        uint id = userId[_userAddress];\n        require(id == 0, \"User has already been added to the AGM!\");\n        \n        id = users.length++;\n        userId[_userAddress] = id;\n        if (uint(role) == 0) {\n            Director o = fac.createNewDirector(_userAddress, true, qa);\n            users[id] = o;\n\n            emit UserCreated(id, _userAddress, \"AgmOwner\");\n        }\n        else if (uint(role) == 1) {\n            Director d = fac.createNewDirector(_userAddress, false, qa);\n            users[id] = d;\n\n            emit UserCreated(id, _userAddress, \"Director\");\n\n        } else if(uint(role) == 2) {\n            Shareholder s = fac.createNewShareholder(_userAddress, votingWeight, qa);\n            users[id] = s;\n\n            emit UserCreated(id, _userAddress, \"Shareholder\");\n        }\n        numberOfUsers++;\n    }\n\n    /**\n    *   @dev remove a user from the user list thus, he cannot login into the app\n    *   @param _userAddress the address of the user who shall be removed \n    */\n    function removeUser(address _userAddress) public onlyOwner {\n        require(userId[_userAddress] != 0, \"User does not exist\");\n        uint i = userId[_userAddress];\n        User remUser = users[i];\n        delete users[i];\n\n        for (; i < users.length - 1; i++) {\n            users[i] = users[i+1];\n            userId[users[i].userAddress()] = i;\n        }\n\n        users.length--;\n        numberOfUsers--;\n\n        emit UserRemoved(i, _userAddress, remUser.role());\n    }\n\n    /**\n    *   @dev for authentication, if users are registered once they only need their private password to login\n    */\n    function registerUser() public {\n        uint usID = userId[msg.sender];\n        require(usID != 0, \"User has not been added to the user list\");\n        User u = users[usID];\n        require(!u.isRegistered(), \"The user has already been registered!\");\n        u.setIsRegistered(true);\n    }\n\n    /**\n    *   @dev set the finish flag which is required to show the statistics \n    */\n    function finishAGM() public onlyOwner {\n        require(!isFinished, \"AGM has already been finished\");\n        isFinished = true;\n\n        emit AgmFinished(isFinished);\n\n    }\n\n    /**\n    *   @dev announce the AGM, then all the AGM params are visible to the other users \n    */\n    function announceAGM() public onlyOwner {\n        require(!isAnnounced, \"AGM has already been announced\");\n        isAnnounced = true;\n\n        emit AgmAnnounced(isAnnounced);\n    }\n\n    /**\n    *   @dev create a new proposal\n    *   @param _name name of the proposal\n    *   @param description of the proposal\n    *   @param _options different voting options of the proposal\n    *   @return propId the id of the proposal  \n    */\n    function createProposal(string _name, string description, string _options)\n        public onlyOwner returns(uint propId) {\n\n        propId = fac.createNewProposal(_name, description, _options);\n        emit ProposalCreated(propId, msg.sender);\n\n        return propId;\n    }\n\n    /**\n    *   @dev executes a pending proposal, required to evaluate the proposals (vote tally etc.)\n    *   @param proposalId id of the proposal\n    *   @return isExecuted is true if the execution was successfull\n    */\n    function executeProposal(uint proposalId) public onlyOwner returns (bool isExecuted) {\n        require(isFinished, \"AGM has to be finished first\");\n        uint winnOptCount;\n        (winnOptCount) = fac.evaluateProposal(proposalId);\n        emit ProposalExecuted(true, proposalId, winnOptCount);\n        return true;\n    }\n}\n",
  "sourcePath": "/Users/christianmischok/git/ShareholderMeeting/solidity/contracts/AgmOwner.sol",
  "compiler": {
    "name": "solc",
    "version": "0.4.24+commit.e67f0147.Emscripten.clang"
  },
  "schemaVersion": "2.0.1",
  "updatedAt": "2018-10-17T21:12:29.565Z"
}