{
  "contractName": "AgmOwner",
  "abi": [
    {
      "constant": true,
      "inputs": [
        {
          "name": "",
          "type": "uint256"
        }
      ],
      "name": "owners",
      "outputs": [
        {
          "name": "",
          "type": "address"
        }
      ],
      "payable": false,
      "stateMutability": "view",
      "type": "function"
    },
    {
      "constant": true,
      "inputs": [],
      "name": "role",
      "outputs": [
        {
          "name": "",
          "type": "uint256"
        }
      ],
      "payable": false,
      "stateMutability": "view",
      "type": "function"
    },
    {
      "constant": true,
      "inputs": [],
      "name": "isRegistered",
      "outputs": [
        {
          "name": "",
          "type": "bool"
        }
      ],
      "payable": false,
      "stateMutability": "view",
      "type": "function"
    },
    {
      "constant": true,
      "inputs": [
        {
          "name": "",
          "type": "address"
        }
      ],
      "name": "secretPWs",
      "outputs": [
        {
          "name": "",
          "type": "string"
        }
      ],
      "payable": false,
      "stateMutability": "view",
      "type": "function"
    },
    {
      "constant": true,
      "inputs": [
        {
          "name": "",
          "type": "uint256"
        }
      ],
      "name": "users",
      "outputs": [
        {
          "name": "",
          "type": "address"
        }
      ],
      "payable": false,
      "stateMutability": "view",
      "type": "function"
    },
    {
      "constant": true,
      "inputs": [
        {
          "name": "",
          "type": "address"
        }
      ],
      "name": "userId",
      "outputs": [
        {
          "name": "",
          "type": "uint256"
        }
      ],
      "payable": false,
      "stateMutability": "view",
      "type": "function"
    },
    {
      "constant": true,
      "inputs": [],
      "name": "isAnnounced",
      "outputs": [
        {
          "name": "",
          "type": "bool"
        }
      ],
      "payable": false,
      "stateMutability": "view",
      "type": "function"
    },
    {
      "constant": true,
      "inputs": [],
      "name": "numberOfUsers",
      "outputs": [
        {
          "name": "",
          "type": "uint256"
        }
      ],
      "payable": false,
      "stateMutability": "view",
      "type": "function"
    },
    {
      "constant": true,
      "inputs": [],
      "name": "isFinished",
      "outputs": [
        {
          "name": "",
          "type": "bool"
        }
      ],
      "payable": false,
      "stateMutability": "view",
      "type": "function"
    },
    {
      "constant": true,
      "inputs": [],
      "name": "meetingPlace",
      "outputs": [
        {
          "name": "",
          "type": "string"
        }
      ],
      "payable": false,
      "stateMutability": "view",
      "type": "function"
    },
    {
      "constant": true,
      "inputs": [],
      "name": "meetingEndTime",
      "outputs": [
        {
          "name": "",
          "type": "string"
        }
      ],
      "payable": false,
      "stateMutability": "view",
      "type": "function"
    },
    {
      "constant": true,
      "inputs": [],
      "name": "meetingStartTime",
      "outputs": [
        {
          "name": "",
          "type": "string"
        }
      ],
      "payable": false,
      "stateMutability": "view",
      "type": "function"
    },
    {
      "constant": false,
      "inputs": [
        {
          "name": "reg",
          "type": "bool"
        }
      ],
      "name": "setIsRegistered",
      "outputs": [],
      "payable": false,
      "stateMutability": "nonpayable",
      "type": "function"
    },
    {
      "constant": true,
      "inputs": [],
      "name": "fac",
      "outputs": [
        {
          "name": "",
          "type": "address"
        }
      ],
      "payable": false,
      "stateMutability": "view",
      "type": "function"
    },
    {
      "constant": true,
      "inputs": [],
      "name": "agenda",
      "outputs": [
        {
          "name": "",
          "type": "string"
        }
      ],
      "payable": false,
      "stateMutability": "view",
      "type": "function"
    },
    {
      "constant": true,
      "inputs": [],
      "name": "meetingName",
      "outputs": [
        {
          "name": "",
          "type": "string"
        }
      ],
      "payable": false,
      "stateMutability": "view",
      "type": "function"
    },
    {
      "constant": true,
      "inputs": [],
      "name": "userAddress",
      "outputs": [
        {
          "name": "",
          "type": "address"
        }
      ],
      "payable": false,
      "stateMutability": "view",
      "type": "function"
    },
    {
      "inputs": [
        {
          "name": "_userAddress",
          "type": "address"
        },
        {
          "name": "_fac",
          "type": "address"
        }
      ],
      "payable": false,
      "stateMutability": "nonpayable",
      "type": "constructor"
    },
    {
      "anonymous": false,
      "inputs": [
        {
          "indexed": false,
          "name": "isExecuted",
          "type": "bool"
        },
        {
          "indexed": false,
          "name": "propId",
          "type": "uint256"
        },
        {
          "indexed": false,
          "name": "winnOptCount",
          "type": "uint256"
        }
      ],
      "name": "ProposalExecuted",
      "type": "event"
    },
    {
      "anonymous": false,
      "inputs": [
        {
          "indexed": false,
          "name": "propId",
          "type": "uint256"
        },
        {
          "indexed": false,
          "name": "creator",
          "type": "address"
        }
      ],
      "name": "ProposalCreated",
      "type": "event"
    },
    {
      "anonymous": false,
      "inputs": [
        {
          "indexed": false,
          "name": "userAddress",
          "type": "address"
        },
        {
          "indexed": false,
          "name": "proposalId",
          "type": "uint256"
        },
        {
          "indexed": false,
          "name": "votingOption",
          "type": "string"
        }
      ],
      "name": "Voted",
      "type": "event"
    },
    {
      "anonymous": false,
      "inputs": [
        {
          "indexed": false,
          "name": "isFinished",
          "type": "bool"
        }
      ],
      "name": "AgmFinished",
      "type": "event"
    },
    {
      "anonymous": false,
      "inputs": [
        {
          "indexed": false,
          "name": "caller",
          "type": "address"
        },
        {
          "indexed": false,
          "name": "newOwner",
          "type": "address"
        }
      ],
      "name": "OwnershipSharedTo",
      "type": "event"
    },
    {
      "anonymous": false,
      "inputs": [
        {
          "indexed": false,
          "name": "userId",
          "type": "uint256"
        },
        {
          "indexed": false,
          "name": "userAddress",
          "type": "address"
        },
        {
          "indexed": false,
          "name": "role",
          "type": "string"
        }
      ],
      "name": "UserCreated",
      "type": "event"
    },
    {
      "anonymous": false,
      "inputs": [
        {
          "indexed": false,
          "name": "userId",
          "type": "uint256"
        },
        {
          "indexed": false,
          "name": "userAddress",
          "type": "address"
        },
        {
          "indexed": false,
          "name": "role",
          "type": "uint256"
        }
      ],
      "name": "UserRemoved",
      "type": "event"
    },
    {
      "anonymous": false,
      "inputs": [
        {
          "indexed": false,
          "name": "isAnnounced",
          "type": "bool"
        }
      ],
      "name": "AgmAnnounced",
      "type": "event"
    },
    {
      "anonymous": false,
      "inputs": [
        {
          "indexed": false,
          "name": "adr",
          "type": "address"
        }
      ],
      "name": "AgmOwnerCreated",
      "type": "event"
    },
    {
      "anonymous": false,
      "inputs": [
        {
          "indexed": false,
          "name": "exists",
          "type": "bool"
        }
      ],
      "name": "UserExists",
      "type": "event"
    },
    {
      "constant": false,
      "inputs": [
        {
          "name": "_agenda",
          "type": "string"
        }
      ],
      "name": "setAgenda",
      "outputs": [],
      "payable": false,
      "stateMutability": "nonpayable",
      "type": "function"
    },
    {
      "constant": false,
      "inputs": [
        {
          "name": "_meetingPlace",
          "type": "string"
        }
      ],
      "name": "setMeetingPlace",
      "outputs": [],
      "payable": false,
      "stateMutability": "nonpayable",
      "type": "function"
    },
    {
      "constant": false,
      "inputs": [
        {
          "name": "_meetingStartTime",
          "type": "string"
        }
      ],
      "name": "setMeetingStartTime",
      "outputs": [],
      "payable": false,
      "stateMutability": "nonpayable",
      "type": "function"
    },
    {
      "constant": false,
      "inputs": [
        {
          "name": "_meetingEndTime",
          "type": "string"
        }
      ],
      "name": "setMeetingEndTime",
      "outputs": [],
      "payable": false,
      "stateMutability": "nonpayable",
      "type": "function"
    },
    {
      "constant": false,
      "inputs": [
        {
          "name": "_meetingName",
          "type": "string"
        }
      ],
      "name": "setMeetingName",
      "outputs": [],
      "payable": false,
      "stateMutability": "nonpayable",
      "type": "function"
    },
    {
      "constant": true,
      "inputs": [],
      "name": "getOwnerAddress",
      "outputs": [
        {
          "name": "ownerAdr",
          "type": "address"
        }
      ],
      "payable": false,
      "stateMutability": "view",
      "type": "function"
    },
    {
      "constant": true,
      "inputs": [],
      "name": "getOwners",
      "outputs": [
        {
          "name": "ownerAdr",
          "type": "address[]"
        }
      ],
      "payable": false,
      "stateMutability": "view",
      "type": "function"
    },
    {
      "constant": true,
      "inputs": [],
      "name": "getIsFinished",
      "outputs": [
        {
          "name": "finished",
          "type": "bool"
        }
      ],
      "payable": false,
      "stateMutability": "view",
      "type": "function"
    },
    {
      "constant": true,
      "inputs": [],
      "name": "getIsAnnounced",
      "outputs": [
        {
          "name": "announced",
          "type": "bool"
        }
      ],
      "payable": false,
      "stateMutability": "view",
      "type": "function"
    },
    {
      "constant": true,
      "inputs": [],
      "name": "getNumOfUsers",
      "outputs": [
        {
          "name": "length",
          "type": "uint256"
        }
      ],
      "payable": false,
      "stateMutability": "view",
      "type": "function"
    },
    {
      "constant": true,
      "inputs": [
        {
          "name": "_userAddress",
          "type": "address"
        }
      ],
      "name": "getUser",
      "outputs": [
        {
          "name": "adr",
          "type": "address"
        },
        {
          "name": "role",
          "type": "uint256"
        },
        {
          "name": "isReg",
          "type": "bool"
        }
      ],
      "payable": false,
      "stateMutability": "view",
      "type": "function"
    },
    {
      "constant": true,
      "inputs": [],
      "name": "getUserList",
      "outputs": [
        {
          "name": "userList",
          "type": "address[]"
        }
      ],
      "payable": false,
      "stateMutability": "view",
      "type": "function"
    },
    {
      "constant": false,
      "inputs": [
        {
          "name": "_owner",
          "type": "address"
        }
      ],
      "name": "transferOwnership",
      "outputs": [],
      "payable": false,
      "stateMutability": "nonpayable",
      "type": "function"
    },
    {
      "constant": false,
      "inputs": [
        {
          "name": "_userAddress",
          "type": "address"
        },
        {
          "name": "role",
          "type": "uint8"
        },
        {
          "name": "votingWeight",
          "type": "uint256"
        },
        {
          "name": "qa",
          "type": "address"
        }
      ],
      "name": "addUser",
      "outputs": [],
      "payable": false,
      "stateMutability": "nonpayable",
      "type": "function"
    },
    {
      "constant": false,
      "inputs": [
        {
          "name": "_userAddress",
          "type": "address"
        }
      ],
      "name": "removeUser",
      "outputs": [],
      "payable": false,
      "stateMutability": "nonpayable",
      "type": "function"
    },
    {
      "constant": false,
      "inputs": [
        {
          "name": "decrPW",
          "type": "string"
        }
      ],
      "name": "registerUser",
      "outputs": [],
      "payable": false,
      "stateMutability": "nonpayable",
      "type": "function"
    },
    {
      "constant": false,
      "inputs": [],
      "name": "finishAGM",
      "outputs": [],
      "payable": false,
      "stateMutability": "nonpayable",
      "type": "function"
    },
    {
      "constant": false,
      "inputs": [],
      "name": "announceAGM",
      "outputs": [],
      "payable": false,
      "stateMutability": "nonpayable",
      "type": "function"
    },
    {
      "constant": false,
      "inputs": [
        {
          "name": "_name",
          "type": "string"
        },
        {
          "name": "description",
          "type": "string"
        },
        {
          "name": "_options",
          "type": "string"
        }
      ],
      "name": "createProposal",
      "outputs": [
        {
          "name": "propId",
          "type": "uint256"
        }
      ],
      "payable": false,
      "stateMutability": "nonpayable",
      "type": "function"
    },
    {
      "constant": false,
      "inputs": [
        {
          "name": "proposalId",
          "type": "uint256"
        }
      ],
      "name": "executeProposal",
      "outputs": [
        {
          "name": "isExecuted",
          "type": "bool"
        }
      ],
      "payable": false,
      "stateMutability": "nonpayable",
      "type": "function"
    }
  ],
  "bytecode": "0x60806040526000600860006101000a81548160ff0219169083151502179055506000600860016101000a81548160ff02191690831515021790555034801561004657600080fd5b50604051604080620049e683398101806040528101908080519060200190929190805190602001909291905050508160006001826000806101000a81548173ffffffffffffffffffffffffffffffffffffffff021916908373ffffffffffffffffffffffffffffffffffffffff1602179055508160028111156100c557fe5b60018190555080600260006101000a81548160ff02191690831515021790555050505080600260016101000a81548173ffffffffffffffffffffffffffffffffffffffff021916908373ffffffffffffffffffffffffffffffffffffffff16021790555060078290806001815401808255809150509060018203906000526020600020016000909192909190916101000a81548173ffffffffffffffffffffffffffffffffffffffff021916908373ffffffffffffffffffffffffffffffffffffffff1602179055505060043090806001815401808255809150509060018203906000526020600020016000909192909190916101000a81548173ffffffffffffffffffffffffffffffffffffffff021916908373ffffffffffffffffffffffffffffffffffffffff160217905550506000600560008473ffffffffffffffffffffffffffffffffffffffff1673ffffffffffffffffffffffffffffffffffffffff168152602001908152602001600020819055507f085243c41dfdfa8f24f1a43000cd59f6187d056d179e5681574e5331336e37f682604051808273ffffffffffffffffffffffffffffffffffffffff1673ffffffffffffffffffffffffffffffffffffffff16815260200191505060405180910390a1505061473780620002af6000396000f3006080604052600436106101cd576000357c0100000000000000000000000000000000000000000000000000000000900463ffffffff168063025e7c27146101d25780630c4f65bd1461023f5780630c65cd44146102965780630d61b519146102ff57806310055c1d14610344578063113301521461036f57806322366844146103d857806329aa3e45146104075780632fea6569146104c3578063365b98b21461052c578063376fe10214610599578063548bfbd3146105f0578063583cf3791461066a5780636c15c919146107735780636d8893e5146107a25780636f77926b146107d1578063704f1b941461086657806375ce46a7146108cf5780637b352962146108fa578063880e97a0146109295780639627ee521461095457806398575188146109e457806398850d5714610a27578063a0e67e2b14610ab7578063a760e0a114610b23578063aaac948914610b8c578063ae2dac1a14610c1c578063b852204314610c4b578063c3b3147214610cb7578063d3af0e8214610d0e578063dd4c33ee14610d3d578063dd73283d14610dcd578063e049421f14610e5d578063e4128fb314610e74578063f086621014610ecb578063f2fde38b14610ee2578063fd1f4ba514610f25575b600080fd5b3480156101de57600080fd5b506101fd60048036038101908080359060200190929190505050610f8e565b604051808273ffffffffffffffffffffffffffffffffffffffff1673ffffffffffffffffffffffffffffffffffffffff16815260200191505060405180910390f35b34801561024b57600080fd5b50610254610fcc565b604051808273ffffffffffffffffffffffffffffffffffffffff1673ffffffffffffffffffffffffffffffffffffffff16815260200191505060405180910390f35b3480156102a257600080fd5b506102fd600480360381019080803590602001908201803590602001908080601f0160208091040260200160405190810160405280939291908181526020018383808284378201915050505050509192919290505050610ff5565b005b34801561030b57600080fd5b5061032a60048036038101908080359060200190929190505050611286565b604051808215151515815260200191505060405180910390f35b34801561035057600080fd5b5061035961156d565b6040518082815260200191505060405180910390f35b34801561037b57600080fd5b506103d6600480360381019080803590602001908201803590602001908080601f0160208091040260200160405190810160405280939291908181526020018383808284378201915050505050509192919290505050611573565b005b3480156103e457600080fd5b506103ed611804565b604051808215151515815260200191505060405180910390f35b34801561041357600080fd5b50610448600480360381019080803573ffffffffffffffffffffffffffffffffffffffff169060200190929190505050611817565b6040518080602001828103825283818151815260200191508051906020019080838360005b8381101561048857808201518184015260208101905061046d565b50505050905090810190601f1680156104b55780820380516001836020036101000a031916815260200191505b509250505060405180910390f35b3480156104cf57600080fd5b5061052a600480360381019080803590602001908201803590602001908080601f01602080910402602001604051908101604052809392919081815260200183838082843782019150505050505091929192905050506118c7565b005b34801561053857600080fd5b5061055760048036038101908080359060200190929190505050611b58565b604051808273ffffffffffffffffffffffffffffffffffffffff1673ffffffffffffffffffffffffffffffffffffffff16815260200191505060405180910390f35b3480156105a557600080fd5b506105da600480360381019080803573ffffffffffffffffffffffffffffffffffffffff169060200190929190505050611b96565b6040518082815260200191505060405180910390f35b3480156105fc57600080fd5b50610668600480360381019080803573ffffffffffffffffffffffffffffffffffffffff169060200190929190803560ff16906020019092919080359060200190929190803573ffffffffffffffffffffffffffffffffffffffff169060200190929190505050611bae565b005b34801561067657600080fd5b5061075d600480360381019080803590602001908201803590602001908080601f0160208091040260200160405190810160405280939291908181526020018383808284378201915050505050509192919290803590602001908201803590602001908080601f0160208091040260200160405190810160405280939291908181526020018383808284378201915050505050509192919290803590602001908201803590602001908080601f016020809104026020016040519081016040528093929190818152602001838380828437820191505050505050919291929050505061252f565b6040518082815260200191505060405180910390f35b34801561077f57600080fd5b506107886128ee565b604051808215151515815260200191505060405180910390f35b3480156107ae57600080fd5b506107b7612905565b604051808215151515815260200191505060405180910390f35b3480156107dd57600080fd5b50610812600480360381019080803573ffffffffffffffffffffffffffffffffffffffff169060200190929190505050612918565b604051808473ffffffffffffffffffffffffffffffffffffffff1673ffffffffffffffffffffffffffffffffffffffff16815260200183815260200182151515158152602001935050505060405180910390f35b34801561087257600080fd5b506108cd600480360381019080803590602001908201803590602001908080601f0160208091040260200160405190810160405280939291908181526020018383808284378201915050505050509192919290505050612c01565b005b3480156108db57600080fd5b506108e4612f40565b6040518082815260200191505060405180910390f35b34801561090657600080fd5b5061090f612f46565b604051808215151515815260200191505060405180910390f35b34801561093557600080fd5b5061093e612f59565b6040518082815260200191505060405180910390f35b34801561096057600080fd5b50610969612f66565b6040518080602001828103825283818151815260200191508051906020019080838360005b838110156109a957808201518184015260208101905061098e565b50505050905090810190601f1680156109d65780820380516001836020036101000a031916815260200191505b509250505060405180910390f35b3480156109f057600080fd5b50610a25600480360381019080803573ffffffffffffffffffffffffffffffffffffffff169060200190929190505050613004565b005b348015610a3357600080fd5b50610a3c6135c1565b6040518080602001828103825283818151815260200191508051906020019080838360005b83811015610a7c578082015181840152602081019050610a61565b50505050905090810190601f168015610aa95780820380516001836020036101000a031916815260200191505b509250505060405180910390f35b348015610ac357600080fd5b50610acc61365f565b6040518080602001828103825283818151815260200191508051906020019060200280838360005b83811015610b0f578082015181840152602081019050610af4565b505050509050019250505060405180910390f35b348015610b2f57600080fd5b50610b8a600480360381019080803590602001908201803590602001908080601f01602080910402602001604051908101604052809392919081815260200183838082843782019150505050505091929192905050506136ed565b005b348015610b9857600080fd5b50610ba161397e565b6040518080602001828103825283818151815260200191508051906020019080838360005b83811015610be1578082015181840152602081019050610bc6565b50505050905090810190601f168015610c0e5780820380516001836020036101000a031916815260200191505b509250505060405180910390f35b348015610c2857600080fd5b50610c49600480360381019080803515159060200190929190505050613a1c565b005b348015610c5757600080fd5b50610c60613a39565b6040518080602001828103825283818151815260200191508051906020019060200280838360005b83811015610ca3578082015181840152602081019050610c88565b505050509050019250505060405180910390f35b348015610cc357600080fd5b50610ccc613ac7565b604051808273ffffffffffffffffffffffffffffffffffffffff1673ffffffffffffffffffffffffffffffffffffffff16815260200191505060405180910390f35b348015610d1a57600080fd5b50610d23613aed565b604051808215151515815260200191505060405180910390f35b348015610d4957600080fd5b50610d52613b04565b6040518080602001828103825283818151815260200191508051906020019080838360005b83811015610d92578082015181840152602081019050610d77565b50505050905090810190601f168015610dbf5780820380516001836020036101000a031916815260200191505b509250505060405180910390f35b348015610dd957600080fd5b50610de2613ba2565b6040518080602001828103825283818151815260200191508051906020019080838360005b83811015610e22578082015181840152602081019050610e07565b50505050905090810190601f168015610e4f5780820380516001836020036101000a031916815260200191505b509250505060405180910390f35b348015610e6957600080fd5b50610e72613c40565b005b348015610e8057600080fd5b50610e89613e68565b604051808273ffffffffffffffffffffffffffffffffffffffff1673ffffffffffffffffffffffffffffffffffffffff16815260200191505060405180910390f35b348015610ed757600080fd5b50610ee0613e8d565b005b348015610eee57600080fd5b50610f23600480360381019080803573ffffffffffffffffffffffffffffffffffffffff1690602001909291905050506140b5565b005b348015610f3157600080fd5b50610f8c600480360381019080803590602001908201803590602001908080601f01602080910402602001604051908101604052809392919081815260200183838082843782019150505050505091929192905050506143a9565b005b600781815481101515610f9d57fe5b906000526020600020016000915054906101000a900473ffffffffffffffffffffffffffffffffffffffff1681565b60008060009054906101000a900473ffffffffffffffffffffffffffffffffffffffff16905090565b60008060009150600090505b60078054905081101561108d573373ffffffffffffffffffffffffffffffffffffffff1660078281548110151561103457fe5b9060005260206000200160009054906101000a900473ffffffffffffffffffffffffffffffffffffffff1673ffffffffffffffffffffffffffffffffffffffff16141561108057600191505b8080600101915050611001565b6001151582151514151561112f576040517f08c379a000000000000000000000000000000000000000000000000000000000815260040180806020018281038252602b8152602001807f4f6e6c7920616e2041474d206f776e65722063616e206163636573732074686981526020017f732066756e6374696f6e2100000000000000000000000000000000000000000081525060400191505060405180910390fd5b600b8054600181600116156101000203166002900480601f0160208091040260200160405190810160405280929190818152602001828054600181600116156101000203166002900480156111c55780601f1061119a576101008083540402835291602001916111c5565b820191906000526020600020905b8154815290600101906020018083116111a857829003601f168201915b505050505060008151141515611269576040517f08c379a00000000000000000000000000000000000000000000000000000000081526004018080602001828103825260228152602001807f54686520706172616d657465722068617320616c7265616479206265656e207381526020017f657400000000000000000000000000000000000000000000000000000000000081525060400191505060405180910390fd5b83600b908051906020019061127f92919061463a565b5050505050565b60008060008060009150600090505b600780549050811015611321573373ffffffffffffffffffffffffffffffffffffffff166007828154811015156112c857fe5b9060005260206000200160009054906101000a900473ffffffffffffffffffffffffffffffffffffffff1673ffffffffffffffffffffffffffffffffffffffff16141561131457600191505b8080600101915050611295565b600115158215151415156113c3576040517f08c379a000000000000000000000000000000000000000000000000000000000815260040180806020018281038252602b8152602001807f4f6e6c7920616e2041474d206f776e65722063616e206163636573732074686981526020017f732066756e6374696f6e2100000000000000000000000000000000000000000081525060400191505060405180910390fd5b600860009054906101000a900460ff161515611447576040517f08c379a000000000000000000000000000000000000000000000000000000000815260040180806020018281038252601c8152602001807f41474d2068617320746f2062652066696e69736865642066697273740000000081525060200191505060405180910390fd5b600260019054906101000a900473ffffffffffffffffffffffffffffffffffffffff1673ffffffffffffffffffffffffffffffffffffffff1663cf83ea75866040518263ffffffff167c010000000000000000000000000000000000000000000000000000000002815260040180828152602001915050602060405180830381600087803b1580156114d857600080fd5b505af11580156114ec573d6000803e3d6000fd5b505050506040513d602081101561150257600080fd5b810190808051906020019092919050505092507ff43bd5bf2f56f5b0b2c632a7c745bb35de3d842f76f7d3e7b42e6e82847bad6b600186856040518084151515158152602001838152602001828152602001935050505060405180910390a160019350505050919050565b60015481565b60008060009150600090505b60078054905081101561160b573373ffffffffffffffffffffffffffffffffffffffff166007828154811015156115b257fe5b9060005260206000200160009054906101000a900473ffffffffffffffffffffffffffffffffffffffff1673ffffffffffffffffffffffffffffffffffffffff1614156115fe57600191505b808060010191505061157f565b600115158215151415156116ad576040517f08c379a000000000000000000000000000000000000000000000000000000000815260040180806020018281038252602b8152602001807f4f6e6c7920616e2041474d206f776e65722063616e206163636573732074686981526020017f732066756e6374696f6e2100000000000000000000000000000000000000000081525060400191505060405180910390fd5b60098054600181600116156101000203166002900480601f0160208091040260200160405190810160405280929190818152602001828054600181600116156101000203166002900480156117435780601f1061171857610100808354040283529160200191611743565b820191906000526020600020905b81548152906001019060200180831161172657829003601f168201915b5050505050600081511415156117e7576040517f08c379a00000000000000000000000000000000000000000000000000000000081526004018080602001828103825260228152602001807f54686520706172616d657465722068617320616c7265616479206265656e207381526020017f657400000000000000000000000000000000000000000000000000000000000081525060400191505060405180910390fd5b83600990805190602001906117fd92919061463a565b5050505050565b600260009054906101000a900460ff1681565b60066020528060005260406000206000915090508054600181600116156101000203166002900480601f0160208091040260200160405190810160405280929190818152602001828054600181600116156101000203166002900480156118bf5780601f10611894576101008083540402835291602001916118bf565b820191906000526020600020905b8154815290600101906020018083116118a257829003601f168201915b505050505081565b60008060009150600090505b60078054905081101561195f573373ffffffffffffffffffffffffffffffffffffffff1660078281548110151561190657fe5b9060005260206000200160009054906101000a900473ffffffffffffffffffffffffffffffffffffffff1673ffffffffffffffffffffffffffffffffffffffff16141561195257600191505b80806001019150506118d3565b60011515821515141515611a01576040517f08c379a000000000000000000000000000000000000000000000000000000000815260040180806020018281038252602b8152602001807f4f6e6c7920616e2041474d206f776e65722063616e206163636573732074686981526020017f732066756e6374696f6e2100000000000000000000000000000000000000000081525060400191505060405180910390fd5b600c8054600181600116156101000203166002900480601f016020809104026020016040519081016040528092919081815260200182805460018160011615610100020316600290048015611a975780601f10611a6c57610100808354040283529160200191611a97565b820191906000526020600020905b815481529060010190602001808311611a7a57829003601f168201915b505050505060008151141515611b3b576040517f08c379a00000000000000000000000000000000000000000000000000000000081526004018080602001828103825260228152602001807f54686520706172616d657465722068617320616c7265616479206265656e207381526020017f657400000000000000000000000000000000000000000000000000000000000081525060400191505060405180910390fd5b83600c9080519060200190611b5192919061463a565b5050505050565b600481815481101515611b6757fe5b906000526020600020016000915054906101000a900473ffffffffffffffffffffffffffffffffffffffff1681565b60056020528060005260406000206000915090505481565b60008060008060008060009150600090505b600780549050811015611c4c573373ffffffffffffffffffffffffffffffffffffffff16600782815481101515611bf357fe5b9060005260206000200160009054906101000a900473ffffffffffffffffffffffffffffffffffffffff1673ffffffffffffffffffffffffffffffffffffffff161415611c3f57600191505b8080600101915050611bc0565b60011515821515141515611cee576040517f08c379a000000000000000000000000000000000000000000000000000000000815260040180806020018281038252602b8152602001807f4f6e6c7920616e2041474d206f776e65722063616e206163636573732074686981526020017f732066756e6374696f6e2100000000000000000000000000000000000000000081525060400191505060405180910390fd5b600560008b73ffffffffffffffffffffffffffffffffffffffff1673ffffffffffffffffffffffffffffffffffffffff168152602001908152602001600020549550600086141515611dce576040517f08c379a00000000000000000000000000000000000000000000000000000000081526004018080602001828103825260278152602001807f557365722068617320616c7265616479206265656e20616464656420746f207481526020017f68652041474d210000000000000000000000000000000000000000000000000081525060400191505060405180910390fd5b60048054809190600101611de291906146ba565b955085600560008c73ffffffffffffffffffffffffffffffffffffffff1673ffffffffffffffffffffffffffffffffffffffff168152602001908152602001600020819055506000896002811115611e3657fe5b141561207857600260019054906101000a900473ffffffffffffffffffffffffffffffffffffffff1673ffffffffffffffffffffffffffffffffffffffff1663faa4ea4e8b60018a6040518463ffffffff167c0100000000000000000000000000000000000000000000000000000000028152600401808473ffffffffffffffffffffffffffffffffffffffff1673ffffffffffffffffffffffffffffffffffffffff168152602001831515151581526020018273ffffffffffffffffffffffffffffffffffffffff1673ffffffffffffffffffffffffffffffffffffffff1681526020019350505050602060405180830381600087803b158015611f3a57600080fd5b505af1158015611f4e573d6000803e3d6000fd5b505050506040513d6020811015611f6457600080fd5b8101908080519060200190929190505050945084600487815481101515611f8757fe5b9060005260206000200160006101000a81548173ffffffffffffffffffffffffffffffffffffffff021916908373ffffffffffffffffffffffffffffffffffffffff1602179055507f7df725c7d23205e36bcd4b1a3ea204869ab4b2ce886d5f1f454a818d26663c37868b604051808381526020018273ffffffffffffffffffffffffffffffffffffffff1673ffffffffffffffffffffffffffffffffffffffff16815260200180602001828103825260088152602001807f41676d4f776e6572000000000000000000000000000000000000000000000000815250602001935050505060405180910390a1612511565b600189600281111561208657fe5b14156122c857600260019054906101000a900473ffffffffffffffffffffffffffffffffffffffff1673ffffffffffffffffffffffffffffffffffffffff1663faa4ea4e8b60008a6040518463ffffffff167c0100000000000000000000000000000000000000000000000000000000028152600401808473ffffffffffffffffffffffffffffffffffffffff1673ffffffffffffffffffffffffffffffffffffffff168152602001831515151581526020018273ffffffffffffffffffffffffffffffffffffffff1673ffffffffffffffffffffffffffffffffffffffff1681526020019350505050602060405180830381600087803b15801561218a57600080fd5b505af115801561219e573d6000803e3d6000fd5b505050506040513d60208110156121b457600080fd5b81019080805190602001909291905050509350836004878154811015156121d757fe5b9060005260206000200160006101000a81548173ffffffffffffffffffffffffffffffffffffffff021916908373ffffffffffffffffffffffffffffffffffffffff1602179055507f7df725c7d23205e36bcd4b1a3ea204869ab4b2ce886d5f1f454a818d26663c37868b604051808381526020018273ffffffffffffffffffffffffffffffffffffffff1673ffffffffffffffffffffffffffffffffffffffff16815260200180602001828103825260088152602001807f4469726563746f72000000000000000000000000000000000000000000000000815250602001935050505060405180910390a1612510565b60028960028111156122d657fe5b141561250f57600260019054906101000a900473ffffffffffffffffffffffffffffffffffffffff1673ffffffffffffffffffffffffffffffffffffffff1663973163188b8a8a6040518463ffffffff167c0100000000000000000000000000000000000000000000000000000000028152600401808473ffffffffffffffffffffffffffffffffffffffff1673ffffffffffffffffffffffffffffffffffffffff1681526020018381526020018273ffffffffffffffffffffffffffffffffffffffff1673ffffffffffffffffffffffffffffffffffffffff1681526020019350505050602060405180830381600087803b1580156123d557600080fd5b505af11580156123e9573d6000803e3d6000fd5b505050506040513d60208110156123ff57600080fd5b810190808051906020019092919050505092508260048781548110151561242257fe5b9060005260206000200160006101000a81548173ffffffffffffffffffffffffffffffffffffffff021916908373ffffffffffffffffffffffffffffffffffffffff1602179055507f7df725c7d23205e36bcd4b1a3ea204869ab4b2ce886d5f1f454a818d26663c37868b604051808381526020018273ffffffffffffffffffffffffffffffffffffffff1673ffffffffffffffffffffffffffffffffffffffff168152602001806020018281038252600b8152602001807f5368617265686f6c646572000000000000000000000000000000000000000000815250602001935050505060405180910390a15b5b5b60036000815480929190600101919050555050505050505050505050565b6000806000809150600090505b6007805490508110156125c8573373ffffffffffffffffffffffffffffffffffffffff1660078281548110151561256f57fe5b9060005260206000200160009054906101000a900473ffffffffffffffffffffffffffffffffffffffff1673ffffffffffffffffffffffffffffffffffffffff1614156125bb57600191505b808060010191505061253c565b6001151582151514151561266a576040517f08c379a000000000000000000000000000000000000000000000000000000000815260040180806020018281038252602b8152602001807f4f6e6c7920616e2041474d206f776e65722063616e206163636573732074686981526020017f732066756e6374696f6e2100000000000000000000000000000000000000000081525060400191505060405180910390fd5b600260019054906101000a900473ffffffffffffffffffffffffffffffffffffffff1673ffffffffffffffffffffffffffffffffffffffff1663806c08608787876040518463ffffffff167c010000000000000000000000000000000000000000000000000000000002815260040180806020018060200180602001848103845287818151815260200191508051906020019080838360005b8381101561271e578082015181840152602081019050612703565b50505050905090810190601f16801561274b5780820380516001836020036101000a031916815260200191505b50848103835286818151815260200191508051906020019080838360005b83811015612784578082015181840152602081019050612769565b50505050905090810190601f1680156127b15780820380516001836020036101000a031916815260200191505b50848103825285818151815260200191508051906020019080838360005b838110156127ea5780820151818401526020810190506127cf565b50505050905090810190601f1680156128175780820380516001836020036101000a031916815260200191505b509650505050505050602060405180830381600087803b15801561283a57600080fd5b505af115801561284e573d6000803e3d6000fd5b505050506040513d602081101561286457600080fd5b810190808051906020019092919050505092507fcd423cc1203c0af96b9b3d68d73b3064a69de2d14450bb7181c5e5df2132b3588333604051808381526020018273ffffffffffffffffffffffffffffffffffffffff1673ffffffffffffffffffffffffffffffffffffffff1681526020019250505060405180910390a182925050509392505050565b6000600860009054906101000a900460ff16905090565b600860019054906101000a900460ff1681565b6000806000806000600560008773ffffffffffffffffffffffffffffffffffffffff1673ffffffffffffffffffffffffffffffffffffffff1681526020019081526020016000205491506000821480156129bf57506000809054906101000a900473ffffffffffffffffffffffffffffffffffffffff1673ffffffffffffffffffffffffffffffffffffffff168673ffffffffffffffffffffffffffffffffffffffff1614155b156129d857600060036000819150945094509450612bf8565b6004828154811015156129e757fe5b9060005260206000200160009054906101000a900473ffffffffffffffffffffffffffffffffffffffff1690508073ffffffffffffffffffffffffffffffffffffffff1663e4128fb36040518163ffffffff167c0100000000000000000000000000000000000000000000000000000000028152600401602060405180830381600087803b158015612a7857600080fd5b505af1158015612a8c573d6000803e3d6000fd5b505050506040513d6020811015612aa257600080fd5b81019080805190602001909291905050508173ffffffffffffffffffffffffffffffffffffffff166310055c1d6040518163ffffffff167c0100000000000000000000000000000000000000000000000000000000028152600401602060405180830381600087803b158015612b1757600080fd5b505af1158015612b2b573d6000803e3d6000fd5b505050506040513d6020811015612b4157600080fd5b81019080805190602001909291905050508273ffffffffffffffffffffffffffffffffffffffff1663223668446040518163ffffffff167c0100000000000000000000000000000000000000000000000000000000028152600401602060405180830381600087803b158015612bb657600080fd5b505af1158015612bca573d6000803e3d6000fd5b505050506040513d6020811015612be057600080fd5b81019080805190602001909291905050509450945094505b50509193909250565b600080600560003373ffffffffffffffffffffffffffffffffffffffff1673ffffffffffffffffffffffffffffffffffffffff16815260200190815260200160002054915060008214151515612ce5576040517f08c379a00000000000000000000000000000000000000000000000000000000081526004018080602001828103825260288152602001807f5573657220686173206e6f74206265656e20616464656420746f20746865207581526020017f736572206c69737400000000000000000000000000000000000000000000000081525060400191505060405180910390fd5b600482815481101515612cf457fe5b9060005260206000200160009054906101000a900473ffffffffffffffffffffffffffffffffffffffff1690508073ffffffffffffffffffffffffffffffffffffffff1663223668446040518163ffffffff167c0100000000000000000000000000000000000000000000000000000000028152600401602060405180830381600087803b158015612d8557600080fd5b505af1158015612d99573d6000803e3d6000fd5b505050506040513d6020811015612daf57600080fd5b8101908080519060200190929190505050151515612e5b576040517f08c379a00000000000000000000000000000000000000000000000000000000081526004018080602001828103825260258152602001807f54686520757365722068617320616c7265616479206265656e2072656769737481526020017f657265642100000000000000000000000000000000000000000000000000000081525060400191505060405180910390fd5b8073ffffffffffffffffffffffffffffffffffffffff1663ae2dac1a60016040518263ffffffff167c01000000000000000000000000000000000000000000000000000000000281526004018082151515158152602001915050600060405180830381600087803b158015612ecf57600080fd5b505af1158015612ee3573d6000803e3d6000fd5b5050505082600660003373ffffffffffffffffffffffffffffffffffffffff1673ffffffffffffffffffffffffffffffffffffffff1681526020019081526020016000209080519060200190612f3a92919061463a565b50505050565b60035481565b600860009054906101000a900460ff1681565b6000600480549050905090565b600b8054600181600116156101000203166002900480601f016020809104026020016040519081016040528092919081815260200182805460018160011615610100020316600290048015612ffc5780601f10612fd157610100808354040283529160200191612ffc565b820191906000526020600020905b815481529060010190602001808311612fdf57829003601f168201915b505050505081565b60008060008060009150600090505b60078054905081101561309f573373ffffffffffffffffffffffffffffffffffffffff1660078281548110151561304657fe5b9060005260206000200160009054906101000a900473ffffffffffffffffffffffffffffffffffffffff1673ffffffffffffffffffffffffffffffffffffffff16141561309257600191505b8080600101915050613013565b60011515821515141515613141576040517f08c379a000000000000000000000000000000000000000000000000000000000815260040180806020018281038252602b8152602001807f4f6e6c7920616e2041474d206f776e65722063616e206163636573732074686981526020017f732066756e6374696f6e2100000000000000000000000000000000000000000081525060400191505060405180910390fd5b6000600560008773ffffffffffffffffffffffffffffffffffffffff1673ffffffffffffffffffffffffffffffffffffffff16815260200190815260200160002054141515156131f9576040517f08c379a00000000000000000000000000000000000000000000000000000000081526004018080602001828103825260138152602001807f5573657220646f6573206e6f742065786973740000000000000000000000000081525060200191505060405180910390fd5b600560008673ffffffffffffffffffffffffffffffffffffffff1673ffffffffffffffffffffffffffffffffffffffff16815260200190815260200160002054935060048481548110151561324a57fe5b9060005260206000200160009054906101000a900473ffffffffffffffffffffffffffffffffffffffff16925060048481548110151561328657fe5b9060005260206000200160006101000a81549073ffffffffffffffffffffffffffffffffffffffff02191690555b600160048054905003841015613480576004600185018154811015156132d657fe5b9060005260206000200160009054906101000a900473ffffffffffffffffffffffffffffffffffffffff1660048581548110151561331057fe5b9060005260206000200160006101000a81548173ffffffffffffffffffffffffffffffffffffffff021916908373ffffffffffffffffffffffffffffffffffffffff160217905550836005600060048781548110151561336c57fe5b9060005260206000200160009054906101000a900473ffffffffffffffffffffffffffffffffffffffff1673ffffffffffffffffffffffffffffffffffffffff1663e4128fb36040518163ffffffff167c0100000000000000000000000000000000000000000000000000000000028152600401602060405180830381600087803b1580156133fa57600080fd5b505af115801561340e573d6000803e3d6000fd5b505050506040513d602081101561342457600080fd5b810190808051906020019092919050505073ffffffffffffffffffffffffffffffffffffffff1673ffffffffffffffffffffffffffffffffffffffff1681526020019081526020016000208190555083806001019450506132b4565b600480548091906001900361349591906146ba565b50600360008154809291906001900391905055507f772cd6a5e17d238e7f8a859b13f23ccd3c4e21afb7ec4a33e9b19de1c09a7dac84868573ffffffffffffffffffffffffffffffffffffffff166310055c1d6040518163ffffffff167c0100000000000000000000000000000000000000000000000000000000028152600401602060405180830381600087803b15801561353057600080fd5b505af1158015613544573d6000803e3d6000fd5b505050506040513d602081101561355a57600080fd5b8101908080519060200190929190505050604051808481526020018373ffffffffffffffffffffffffffffffffffffffff1673ffffffffffffffffffffffffffffffffffffffff168152602001828152602001935050505060405180910390a15050505050565b600d8054600181600116156101000203166002900480601f0160208091040260200160405190810160405280929190818152602001828054600181600116156101000203166002900480156136575780601f1061362c57610100808354040283529160200191613657565b820191906000526020600020905b81548152906001019060200180831161363a57829003601f168201915b505050505081565b606060078054806020026020016040519081016040528092919081815260200182805480156136e357602002820191906000526020600020905b8160009054906101000a900473ffffffffffffffffffffffffffffffffffffffff1673ffffffffffffffffffffffffffffffffffffffff1681526020019060010190808311613699575b5050505050905090565b60008060009150600090505b600780549050811015613785573373ffffffffffffffffffffffffffffffffffffffff1660078281548110151561372c57fe5b9060005260206000200160009054906101000a900473ffffffffffffffffffffffffffffffffffffffff1673ffffffffffffffffffffffffffffffffffffffff16141561377857600191505b80806001019150506136f9565b60011515821515141515613827576040517f08c379a000000000000000000000000000000000000000000000000000000000815260040180806020018281038252602b8152602001807f4f6e6c7920616e2041474d206f776e65722063616e206163636573732074686981526020017f732066756e6374696f6e2100000000000000000000000000000000000000000081525060400191505060405180910390fd5b600d8054600181600116156101000203166002900480601f0160208091040260200160405190810160405280929190818152602001828054600181600116156101000203166002900480156138bd5780601f10613892576101008083540402835291602001916138bd565b820191906000526020600020905b8154815290600101906020018083116138a057829003601f168201915b505050505060008151141515613961576040517f08c379a00000000000000000000000000000000000000000000000000000000081526004018080602001828103825260228152602001807f54686520706172616d657465722068617320616c7265616479206265656e207381526020017f657400000000000000000000000000000000000000000000000000000000000081525060400191505060405180910390fd5b83600d908051906020019061397792919061463a565b5050505050565b600c8054600181600116156101000203166002900480601f016020809104026020016040519081016040528092919081815260200182805460018160011615610100020316600290048015613a145780601f106139e957610100808354040283529160200191613a14565b820191906000526020600020905b8154815290600101906020018083116139f757829003601f168201915b505050505081565b80600260006101000a81548160ff02191690831515021790555050565b60606004805480602002602001604051908101604052809291908181526020018280548015613abd57602002820191906000526020600020905b8160009054906101000a900473ffffffffffffffffffffffffffffffffffffffff1673ffffffffffffffffffffffffffffffffffffffff1681526020019060010190808311613a73575b5050505050905090565b600260019054906101000a900473ffffffffffffffffffffffffffffffffffffffff1681565b6000600860019054906101000a900460ff16905090565b600a8054600181600116156101000203166002900480601f016020809104026020016040519081016040528092919081815260200182805460018160011615610100020316600290048015613b9a5780601f10613b6f57610100808354040283529160200191613b9a565b820191906000526020600020905b815481529060010190602001808311613b7d57829003601f168201915b505050505081565b60098054600181600116156101000203166002900480601f016020809104026020016040519081016040528092919081815260200182805460018160011615610100020316600290048015613c385780601f10613c0d57610100808354040283529160200191613c38565b820191906000526020600020905b815481529060010190602001808311613c1b57829003601f168201915b505050505081565b60008060009150600090505b600780549050811015613cd8573373ffffffffffffffffffffffffffffffffffffffff16600782815481101515613c7f57fe5b9060005260206000200160009054906101000a900473ffffffffffffffffffffffffffffffffffffffff1673ffffffffffffffffffffffffffffffffffffffff161415613ccb57600191505b8080600101915050613c4c565b60011515821515141515613d7a576040517f08c379a000000000000000000000000000000000000000000000000000000000815260040180806020018281038252602b8152602001807f4f6e6c7920616e2041474d206f776e65722063616e206163636573732074686981526020017f732066756e6374696f6e2100000000000000000000000000000000000000000081525060400191505060405180910390fd5b600860009054906101000a900460ff16151515613dff576040517f08c379a000000000000000000000000000000000000000000000000000000000815260040180806020018281038252601d8152602001807f41474d2068617320616c7265616479206265656e2066696e697368656400000081525060200191505060405180910390fd5b6001600860006101000a81548160ff0219169083151502179055507f8cd75a9c018fcf2df19a93d0c90440885504e4d100c03d546f17c3e9b781f0df600860009054906101000a900460ff16604051808215151515815260200191505060405180910390a15050565b6000809054906101000a900473ffffffffffffffffffffffffffffffffffffffff1681565b60008060009150600090505b600780549050811015613f25573373ffffffffffffffffffffffffffffffffffffffff16600782815481101515613ecc57fe5b9060005260206000200160009054906101000a900473ffffffffffffffffffffffffffffffffffffffff1673ffffffffffffffffffffffffffffffffffffffff161415613f1857600191505b8080600101915050613e99565b60011515821515141515613fc7576040517f08c379a000000000000000000000000000000000000000000000000000000000815260040180806020018281038252602b8152602001807f4f6e6c7920616e2041474d206f776e65722063616e206163636573732074686981526020017f732066756e6374696f6e2100000000000000000000000000000000000000000081525060400191505060405180910390fd5b600860019054906101000a900460ff1615151561404c576040517f08c379a000000000000000000000000000000000000000000000000000000000815260040180806020018281038252601e8152602001807f41474d2068617320616c7265616479206265656e20616e6e6f756e636564000081525060200191505060405180910390fd5b6001600860016101000a81548160ff0219169083151502179055507f78caa0c39f79d016b0b0f42573cf5acd73aa21dddc0d63a69bad5ce41b1608d1600860019054906101000a900460ff16604051808215151515815260200191505060405180910390a15050565b60008060009150600090505b60078054905081101561414d573373ffffffffffffffffffffffffffffffffffffffff166007828154811015156140f457fe5b9060005260206000200160009054906101000a900473ffffffffffffffffffffffffffffffffffffffff1673ffffffffffffffffffffffffffffffffffffffff16141561414057600191505b80806001019150506140c1565b600115158215151415156141ef576040517f08c379a000000000000000000000000000000000000000000000000000000000815260040180806020018281038252602b8152602001807f4f6e6c7920616e2041474d206f776e65722063616e206163636573732074686981526020017f732066756e6374696f6e2100000000000000000000000000000000000000000081525060400191505060405180910390fd5b6000600560008573ffffffffffffffffffffffffffffffffffffffff1673ffffffffffffffffffffffffffffffffffffffff16815260200190815260200160002054141515156142a7576040517f08c379a000000000000000000000000000000000000000000000000000000000815260040180806020018281038252601c8152602001807f546865206e6577207573657220646f6573206e6f74206578697374210000000081525060200191505060405180910390fd5b60078390806001815401808255809150509060018203906000526020600020016000909192909190916101000a81548173ffffffffffffffffffffffffffffffffffffffff021916908373ffffffffffffffffffffffffffffffffffffffff160217905550507fab72103a2cbe67c5e3689499070d97ceed14b67fdbac1888dcbb3ca5294f93bf3384604051808373ffffffffffffffffffffffffffffffffffffffff1673ffffffffffffffffffffffffffffffffffffffff1681526020018273ffffffffffffffffffffffffffffffffffffffff1673ffffffffffffffffffffffffffffffffffffffff1681526020019250505060405180910390a1505050565b60008060009150600090505b600780549050811015614441573373ffffffffffffffffffffffffffffffffffffffff166007828154811015156143e857fe5b9060005260206000200160009054906101000a900473ffffffffffffffffffffffffffffffffffffffff1673ffffffffffffffffffffffffffffffffffffffff16141561443457600191505b80806001019150506143b5565b600115158215151415156144e3576040517f08c379a000000000000000000000000000000000000000000000000000000000815260040180806020018281038252602b8152602001807f4f6e6c7920616e2041474d206f776e65722063616e206163636573732074686981526020017f732066756e6374696f6e2100000000000000000000000000000000000000000081525060400191505060405180910390fd5b600a8054600181600116156101000203166002900480601f0160208091040260200160405190810160405280929190818152602001828054600181600116156101000203166002900480156145795780601f1061454e57610100808354040283529160200191614579565b820191906000526020600020905b81548152906001019060200180831161455c57829003601f168201915b50505050506000815114151561461d576040517f08c379a00000000000000000000000000000000000000000000000000000000081526004018080602001828103825260228152602001807f54686520706172616d657465722068617320616c7265616479206265656e207381526020017f657400000000000000000000000000000000000000000000000000000000000081525060400191505060405180910390fd5b83600a908051906020019061463392919061463a565b5050505050565b828054600181600116156101000203166002900490600052602060002090601f016020900481019282601f1061467b57805160ff19168380011785556146a9565b828001600101855582156146a9579182015b828111156146a857825182559160200191906001019061468d565b5b5090506146b691906146e6565b5090565b8154818355818111156146e1578183600052602060002091820191016146e091906146e6565b5b505050565b61470891905b808211156147045760008160009055506001016146ec565b5090565b905600a165627a7a72305820fb0f3e53bf2597e2222bdeea160d0ed52fa036bdd1f9f2c1422dadf6b824f8670029",
  "source": "pragma solidity ^0.4.23;\n\nimport \"./User.sol\";\nimport \"./Shareholder.sol\";\nimport \"./Director.sol\";\nimport \"./Factory.sol\";\n\n/**\n*    @title AgmOwner - is the superadmin of the AGM process and therefore, a singleton\n*/\ncontract AgmOwner is User {\n\n    // reference to proposal storage\n    Factory public fac;\n    // total number of users\n    uint public numberOfUsers;\n    // stores all users\n    User[] public users;\n    // stores user's address with corresponding id\n    mapping(address => uint) public userId;\n    // stores the decrypted password for any user\n    mapping(address => string) public secretPWs;\n    // stores the owners who have permission to setup the AGM\n    address[] public owners;\n    // timers for AGM process\n    bool public isFinished = false;\n    bool public isAnnounced = false;\n    \n    // params for AGM setup\n    string public meetingName;\n    string public agenda;\n    string public meetingPlace;\n    string public meetingStartTime;\n    string public meetingEndTime;\n\n    /**\n    *    @dev checks whether the parameter is already set\n    */\n    modifier isSet(string param) {\n        require(bytes(param).length == 0, \"The parameter has already been set\");\n        _;\n    }\n\n    /**\n    *    @dev checks that the caller is an administrator (=AgmOwner)\n    */\n    modifier onlyOwner {\n        bool isOwner = false;\n        for (uint i = 0; i < owners.length; i++) {\n            if (owners[i] == msg.sender) {\n                isOwner = true;\n            }\n        }\n        require(isOwner == true, \"Only an AGM owner can access this function!\");\n        _;\n    }\n\n    /**\n    *    @dev events for testing and debugging\n    */\n    event ProposalExecuted(bool isExecuted, uint propId, uint winnOptCount);\n    event ProposalCreated(uint propId, address creator);\n    event Voted(address userAddress, uint proposalId, string votingOption);\n    event AgmFinished(bool isFinished);\n    event OwnershipSharedTo(address caller, address newOwner);\n    event UserCreated(uint userId, address userAddress, string role);\n    event UserRemoved(uint userId, address userAddress, uint role);\n    event AgmAnnounced(bool isAnnounced);\n    event AgmOwnerCreated(address adr);\n\n    /**\n    *    @dev the deployer of this contract is always appended as first user to the user list\n    */\n    constructor(\n        address _userAddress,\n        Factory _fac\n    ) User(_userAddress, Role.AGMOWNER, true) public {\n\n        fac = _fac;\n        owners.push(_userAddress);\n        users.push(User(address(this)));\n        userId[_userAddress] = 0;\n\n        emit AgmOwnerCreated(_userAddress);\n    }\n\n    /**\n    *    @dev setters for setting the AGM parameters and getters\n    */\n    function setAgenda(string _agenda) public onlyOwner isSet(agenda) {\n        agenda = _agenda;\n    }\n\n    function setMeetingPlace(string _meetingPlace) public onlyOwner isSet(meetingPlace) {\n        meetingPlace = _meetingPlace;\n    }\n\n    function setMeetingStartTime(string _meetingStartTime) public onlyOwner isSet(meetingStartTime) {\n        meetingStartTime = _meetingStartTime;\n    }\n\n    function setMeetingEndTime(string _meetingEndTime) public onlyOwner isSet(meetingEndTime) {\n        meetingEndTime = _meetingEndTime;\n    }\n\n    function setMeetingName(string _meetingName) public onlyOwner isSet(meetingName) {\n        meetingName = _meetingName;\n    }\n\n    function getOwnerAddress() public view returns (address ownerAdr) {\n        return userAddress;\n    }\n\n    function getOwners() public view returns (address[] ownerAdr) {\n        return owners;\n    }\n\n    function getIsFinished() public view returns (bool finished) {\n        return isFinished;\n    }\n\n    function getIsAnnounced() public view returns (bool announced) {\n        return isAnnounced;\n    }\n\n    function getNumOfUsers() public view returns (uint length) {\n        return users.length;\n    }\n\n    function getUser(address _userAddress) public view returns (address adr, uint role, bool isReg) {\n        uint userID = userId[_userAddress];\n        if (userID == 0 && _userAddress != userAddress) {\n            return (address(0), 3, false);\n        }\n        User u = users[userID];\n        return (u.userAddress(), u.role(), u.isRegistered());\n    }\n\n    function getUserList() public view returns (User[] userList) {\n        return users;\n    }\n\n    /**\n    *   @dev transfer admin rights to another user who has the AgmOwner role\n    *   @param _owner address of the user\n    */\n    function transferOwnership(address _owner) public onlyOwner {\n        require(userId[_owner] != 0, \"The new user does not exist!\");\n        owners.push(_owner);\n\n        emit OwnershipSharedTo(msg.sender, _owner);\n    }\n\n    /**\n    *   @dev adds a user to the user list\n    *   @param _userAddress address of the user\n    *   @param role role of the user\n    *   @param qa reference to the Q&A lists\n    */\n    function addUser(address _userAddress, Role role, uint votingWeight, QandA qa) public onlyOwner {\n        uint id = userId[_userAddress];\n        require(id == 0, \"User has already been added to the AGM!\");\n        \n        id = users.length++;\n        userId[_userAddress] = id;\n        if (uint(role) == 0) {\n            Director o = fac.createNewDirector(_userAddress, true, qa);\n            users[id] = o;\n\n            emit UserCreated(id, _userAddress, \"AgmOwner\");\n        }\n        else if (uint(role) == 1) {\n            Director d = fac.createNewDirector(_userAddress, false, qa);\n            users[id] = d;\n\n            emit UserCreated(id, _userAddress, \"Director\");\n\n        } else if(uint(role) == 2) {\n            Shareholder s = fac.createNewShareholder(_userAddress, votingWeight, qa);\n            users[id] = s;\n\n            emit UserCreated(id, _userAddress, \"Shareholder\");\n        }\n        numberOfUsers++;\n    }\n\n    /**\n    *   @dev remove a user from the user list thus, he cannot login into the app\n    *   @param _userAddress the address of the user who shall be removed \n    */\n    function removeUser(address _userAddress) public onlyOwner {\n        require(userId[_userAddress] != 0, \"User does not exist\");\n        uint i = userId[_userAddress];\n        User remUser = users[i];\n        delete users[i];\n\n        for (; i < users.length - 1; i++) {\n            users[i] = users[i+1];\n            userId[users[i].userAddress()] = i;\n        }\n\n        users.length--;\n        numberOfUsers--;\n\n        emit UserRemoved(i, _userAddress, remUser.role());\n    }\n\n    /**\n    *   @dev for authentication, if users are registered once they only need their private password to login\n    *   @param decrPW - the randomly generated pw of the user which is stored in the address to pw mapping\n    */\n    function registerUser(string decrPW) public {\n        uint usID = userId[msg.sender];\n        require(usID != 0, \"User has not been added to the user list\");\n        User u = users[usID];\n        require(!u.isRegistered(), \"The user has already been registered!\");\n        u.setIsRegistered(true);\n        secretPWs[msg.sender] = decrPW;\n    }\n\n    /**\n    *   @dev set the finish flag which is required to show the statistics \n    */\n    function finishAGM() public onlyOwner {\n        require(!isFinished, \"AGM has already been finished\");\n        isFinished = true;\n\n        emit AgmFinished(isFinished);\n\n    }\n\n    /**\n    *   @dev announce the AGM, then all the AGM params are visible to the other users \n    */\n    function announceAGM() public onlyOwner {\n        require(!isAnnounced, \"AGM has already been announced\");\n        isAnnounced = true;\n\n        emit AgmAnnounced(isAnnounced);\n    }\n\n    /**\n    *   @dev create a new proposal\n    *   @param _name name of the proposal\n    *   @param description of the proposal\n    *   @param _options different voting options of the proposal\n    *   @return propId the id of the proposal  \n    */\n    function createProposal(string _name, string description, string _options)\n        public onlyOwner returns(uint propId) {\n\n        propId = fac.createNewProposal(_name, description, _options);\n        emit ProposalCreated(propId, msg.sender);\n\n        return propId;\n    }\n\n    /**\n    *   @dev executes a pending proposal, required to evaluate the proposals (vote tally etc.)\n    *   @param proposalId id of the proposal\n    *   @return isExecuted is true if the execution was successfull\n    */\n    function executeProposal(uint proposalId) public onlyOwner returns (bool isExecuted) {\n        require(isFinished, \"AGM has to be finished first\");\n        uint winnOptCount;\n        (winnOptCount) = fac.evaluateProposal(proposalId);\n        emit ProposalExecuted(true, proposalId, winnOptCount);\n        return true;\n    }\n}\n",
  "sourcePath": "/Users/christianmischok/git/ShareholderMeeting/solidity/contracts/AgmOwner.sol",
  "compiler": {
    "name": "solc",
    "version": "0.4.24+commit.e67f0147.Emscripten.clang"
  },
  "schemaVersion": "2.0.1",
  "updatedAt": "2018-10-14T12:24:19.682Z"
}