{
  "contractName": "Director",
  "abi": [
    {
      "constant": true,
      "inputs": [
        {
          "name": "_userAddress",
          "type": "address"
        }
      ],
      "name": "userExists",
      "outputs": [
        {
          "name": "exists",
          "type": "bool"
        }
      ],
      "payable": false,
      "stateMutability": "view",
      "type": "function"
    },
    {
      "constant": true,
      "inputs": [
        {
          "name": "",
          "type": "uint256"
        }
      ],
      "name": "answers",
      "outputs": [
        {
          "name": "answerId",
          "type": "uint256"
        },
        {
          "name": "questionId",
          "type": "uint256"
        },
        {
          "name": "answerCreator",
          "type": "address"
        },
        {
          "name": "content",
          "type": "string"
        },
        {
          "name": "timestamp",
          "type": "uint256"
        }
      ],
      "payable": false,
      "stateMutability": "view",
      "type": "function"
    },
    {
      "constant": true,
      "inputs": [],
      "name": "isDirector",
      "outputs": [
        {
          "name": "",
          "type": "bool"
        }
      ],
      "payable": false,
      "stateMutability": "view",
      "type": "function"
    },
    {
      "constant": true,
      "inputs": [
        {
          "name": "",
          "type": "uint256"
        }
      ],
      "name": "users",
      "outputs": [
        {
          "name": "",
          "type": "address"
        }
      ],
      "payable": false,
      "stateMutability": "view",
      "type": "function"
    },
    {
      "constant": true,
      "inputs": [
        {
          "name": "",
          "type": "address"
        }
      ],
      "name": "userId",
      "outputs": [
        {
          "name": "",
          "type": "uint256"
        }
      ],
      "payable": false,
      "stateMutability": "view",
      "type": "function"
    },
    {
      "constant": true,
      "inputs": [],
      "name": "userAddress",
      "outputs": [
        {
          "name": "",
          "type": "address"
        }
      ],
      "payable": false,
      "stateMutability": "view",
      "type": "function"
    },
    {
      "inputs": [
        {
          "name": "userAddress",
          "type": "address"
        }
      ],
      "payable": false,
      "stateMutability": "nonpayable",
      "type": "constructor"
    },
    {
      "anonymous": false,
      "inputs": [
        {
          "indexed": false,
          "name": "ansId",
          "type": "uint256"
        },
        {
          "indexed": false,
          "name": "creator",
          "type": "address"
        }
      ],
      "name": "AnswerCreated",
      "type": "event"
    },
    {
      "constant": false,
      "inputs": [
        {
          "name": "_questionId",
          "type": "uint256"
        },
        {
          "name": "_answerCreator",
          "type": "address"
        },
        {
          "name": "_content",
          "type": "string"
        }
      ],
      "name": "createAnswer",
      "outputs": [
        {
          "name": "answerId",
          "type": "uint256"
        }
      ],
      "payable": false,
      "stateMutability": "nonpayable",
      "type": "function"
    }
  ],
  "bytecode": "0x608060405234801561001057600080fd5b506040516020806109c58339810180604052810190808051906020019092919050505080600181600260006101000a81548173ffffffffffffffffffffffffffffffffffffffff021916908373ffffffffffffffffffffffffffffffffffffffff16021790555080600260146101000a81548160ff021916908315150217905550505050610922806100a36000396000f300608060405260043610610083576000357c0100000000000000000000000000000000000000000000000000000000900463ffffffff1680630e666e491461008857806317599cc5146100e35780631ad8af8d146101d1578063365b98b214610200578063376fe1021461026d578063573947d9146102c4578063e4128fb31461036b575b600080fd5b34801561009457600080fd5b506100c9600480360381019080803573ffffffffffffffffffffffffffffffffffffffff1690602001909291905050506103c2565b604051808215151515815260200191505060405180910390f35b3480156100ef57600080fd5b5061010e6004803603810190808035906020019092919050505061040e565b604051808681526020018581526020018473ffffffffffffffffffffffffffffffffffffffff1673ffffffffffffffffffffffffffffffffffffffff16815260200180602001838152602001828103825284818151815260200191508051906020019080838360005b83811015610192578082015181840152602081019050610177565b50505050905090810190601f1680156101bf5780820380516001836020036101000a031916815260200191505b50965050505050505060405180910390f35b3480156101dd57600080fd5b506101e661050b565b604051808215151515815260200191505060405180910390f35b34801561020c57600080fd5b5061022b6004803603810190808035906020019092919050505061051e565b604051808273ffffffffffffffffffffffffffffffffffffffff1673ffffffffffffffffffffffffffffffffffffffff16815260200191505060405180910390f35b34801561027957600080fd5b506102ae600480360381019080803573ffffffffffffffffffffffffffffffffffffffff16906020019092919050505061055c565b6040518082815260200191505060405180910390f35b3480156102d057600080fd5b5061035560048036038101908080359060200190929190803573ffffffffffffffffffffffffffffffffffffffff169060200190929190803590602001908201803590602001908080601f0160208091040260200160405190810160405280939291908181526020018383808284378201915050505050509192919290505050610574565b6040518082815260200191505060405180910390f35b34801561037757600080fd5b50610380610743565b604051808273ffffffffffffffffffffffffffffffffffffffff1673ffffffffffffffffffffffffffffffffffffffff16815260200191505060405180910390f35b600080600160008473ffffffffffffffffffffffffffffffffffffffff1673ffffffffffffffffffffffffffffffffffffffff1681526020019081526020016000205414159050919050565b60038181548110151561041d57fe5b90600052602060002090600502016000915090508060000154908060010154908060020160009054906101000a900473ffffffffffffffffffffffffffffffffffffffff1690806003018054600181600116156101000203166002900480601f0160208091040260200160405190810160405280929190818152602001828054600181600116156101000203166002900480156104fb5780601f106104d0576101008083540402835291602001916104fb565b820191906000526020600020905b8154815290600101906020018083116104de57829003601f168201915b5050505050908060040154905085565b600260149054906101000a900460ff1681565b60008181548110151561052d57fe5b906000526020600020016000915054906101000a900473ffffffffffffffffffffffffffffffffffffffff1681565b60016020528060005260406000206000915090505481565b60008060003073ffffffffffffffffffffffffffffffffffffffff16631ad8af8d6040518163ffffffff167c0100000000000000000000000000000000000000000000000000000000028152600401602060405180830381600087803b1580156105dd57600080fd5b505af11580156105f1573d6000803e3d6000fd5b505050506040513d602081101561060757600080fd5b8101908080519060200190929190505050151561062357600080fd5b600380548091906001016106379190610769565b915060038281548110151561064857fe5b90600052602060002090600502019050818160000181905550858160010181905550848160020160006101000a81548173ffffffffffffffffffffffffffffffffffffffff021916908373ffffffffffffffffffffffffffffffffffffffff160217905550838160030190805190602001906106c592919061079b565b504281600401819055507f1cce31feeb8b658498dbd740f9f2893f5950824526d859d079df34984d412d898333604051808381526020018273ffffffffffffffffffffffffffffffffffffffff1673ffffffffffffffffffffffffffffffffffffffff1681526020019250505060405180910390a150509392505050565b600260009054906101000a900473ffffffffffffffffffffffffffffffffffffffff1681565b81548183558181111561079657600502816005028360005260206000209182019101610795919061081b565b5b505050565b828054600181600116156101000203166002900490600052602060002090601f016020900481019282601f106107dc57805160ff191683800117855561080a565b8280016001018555821561080a579182015b828111156108095782518255916020019190600101906107ee565b5b5090506108179190610889565b5090565b61088691905b808211156108825760008082016000905560018201600090556002820160006101000a81549073ffffffffffffffffffffffffffffffffffffffff021916905560038201600061087191906108ae565b600482016000905550600501610821565b5090565b90565b6108ab91905b808211156108a757600081600090555060010161088f565b5090565b90565b50805460018160011615610100020316600290046000825580601f106108d457506108f3565b601f0160209004906000526020600020908101906108f29190610889565b5b505600a165627a7a72305820b44d115e31fcd2f15af0ac6e69f5754d9b8cc9f1a8937bf9232a67405c04c40a0029",
  "source": "pragma solidity ^0.4.23;\r\n\r\nimport \"./VotingStatistic.sol\";\r\nimport \"./User.sol\";\r\n\r\ncontract Director is User {\r\n\r\n    // storing the answers of directors\r\n    Answer[] public answers;\r\n   \r\n\r\n    // answer object used by the director\r\n    struct Answer {\r\n        uint answerId;\r\n        uint questionId;\r\n        address answerCreator;\r\n        string content;\r\n        uint timestamp; \r\n    }\r\n\r\n    event AnswerCreated(uint ansId, address creator);\r\n\r\n    modifier onlyDirector {\r\n        require(this.isDirector());\r\n        _;\r\n\r\n    }\r\n \r\n    constructor(address userAddress) \r\n        User(userAddress, true) public {\r\n    }\r\n\r\n    // only director is allowed to create an answer\r\n    function createAnswer(uint _questionId, address _answerCreator, string _content) \r\n        onlyDirector public returns (uint answerId)  {\r\n\r\n        uint id = answers.length++;\r\n        Answer storage answer = answers[id];\r\n        answer.answerId = id;\r\n        answer.questionId = _questionId;\r\n        answer.answerCreator = _answerCreator;\r\n        answer.content = _content;\r\n        answer.timestamp = now;\r\n\r\n        emit AnswerCreated(answerId, msg.sender);\r\n    }\r\n}",
  "sourcePath": "D:\\Git\\repo\\ShareholderMeeting\\solidity\\contracts\\Director.sol",
  "compiler": {
    "name": "solc",
    "version": "0.4.23+commit.124ca40d.Emscripten.clang"
  },
  "schemaVersion": "2.0.0",
  "updatedAt": "2018-07-12T10:36:59.925Z"
}