{
  "contractName": "Director",
  "abi": [
    {
      "constant": true,
      "inputs": [],
      "name": "role",
      "outputs": [
        {
          "name": "",
          "type": "uint256"
        }
      ],
      "payable": false,
      "stateMutability": "view",
      "type": "function"
    },
    {
      "constant": true,
      "inputs": [],
      "name": "isAdministrator",
      "outputs": [
        {
          "name": "",
          "type": "bool"
        }
      ],
      "payable": false,
      "stateMutability": "view",
      "type": "function"
    },
    {
      "constant": true,
      "inputs": [],
      "name": "isRegistered",
      "outputs": [
        {
          "name": "",
          "type": "bool"
        }
      ],
      "payable": false,
      "stateMutability": "view",
      "type": "function"
    },
    {
      "constant": true,
      "inputs": [],
      "name": "qa",
      "outputs": [
        {
          "name": "",
          "type": "address"
        }
      ],
      "payable": false,
      "stateMutability": "view",
      "type": "function"
    },
    {
      "constant": false,
      "inputs": [
        {
          "name": "reg",
          "type": "bool"
        }
      ],
      "name": "setIsRegistered",
      "outputs": [],
      "payable": false,
      "stateMutability": "nonpayable",
      "type": "function"
    },
    {
      "constant": true,
      "inputs": [],
      "name": "userAddress",
      "outputs": [
        {
          "name": "",
          "type": "address"
        }
      ],
      "payable": false,
      "stateMutability": "view",
      "type": "function"
    },
    {
      "inputs": [
        {
          "name": "userAddress",
          "type": "address"
        },
        {
          "name": "_isAdministrator",
          "type": "bool"
        },
        {
          "name": "_qa",
          "type": "address"
        },
        {
          "name": "_role",
          "type": "uint256"
        }
      ],
      "payable": false,
      "stateMutability": "nonpayable",
      "type": "constructor"
    },
    {
      "anonymous": false,
      "inputs": [
        {
          "indexed": false,
          "name": "ansId",
          "type": "uint256"
        },
        {
          "indexed": false,
          "name": "creator",
          "type": "string"
        }
      ],
      "name": "AnswerCreated",
      "type": "event"
    },
    {
      "anonymous": false,
      "inputs": [
        {
          "indexed": false,
          "name": "exists",
          "type": "bool"
        }
      ],
      "name": "UserExists",
      "type": "event"
    },
    {
      "constant": false,
      "inputs": [
        {
          "name": "_questionId",
          "type": "uint256"
        },
        {
          "name": "_ipfs_hash",
          "type": "string"
        },
        {
          "name": "sender",
          "type": "string"
        }
      ],
      "name": "createAnswer",
      "outputs": [
        {
          "name": "answerId",
          "type": "uint256"
        }
      ],
      "payable": false,
      "stateMutability": "nonpayable",
      "type": "function"
    }
  ],
  "bytecode": "0x608060405234801561001057600080fd5b50604051608080610823833981018060405281019080805190602001909291908051906020019092919080519060200190929190805190602001909291905050508381600281111561005e57fe5b6000826000806101000a81548173ffffffffffffffffffffffffffffffffffffffff021916908373ffffffffffffffffffffffffffffffffffffffff1602179055508160028111156100ac57fe5b60018190555080600260006101000a81548160ff02191690831515021790555050505082600260156101000a81548160ff02191690831515021790555081600260016101000a81548173ffffffffffffffffffffffffffffffffffffffff021916908373ffffffffffffffffffffffffffffffffffffffff160217905550505050506106e68061013d6000396000f300608060405260043610610083576000357c0100000000000000000000000000000000000000000000000000000000900463ffffffff16806310055c1d146100885780631aea6257146100b357806322366844146100e25780638af3fddf146101115780638f08356c14610168578063ae2dac1a14610235578063e4128fb314610264575b600080fd5b34801561009457600080fd5b5061009d6102bb565b6040518082815260200191505060405180910390f35b3480156100bf57600080fd5b506100c86102c1565b604051808215151515815260200191505060405180910390f35b3480156100ee57600080fd5b506100f76102d4565b604051808215151515815260200191505060405180910390f35b34801561011d57600080fd5b506101266102e7565b604051808273ffffffffffffffffffffffffffffffffffffffff1673ffffffffffffffffffffffffffffffffffffffff16815260200191505060405180910390f35b34801561017457600080fd5b5061021f60048036038101908080359060200190929190803590602001908201803590602001908080601f0160208091040260200160405190810160405280939291908181526020018383808284378201915050505050509192919290803590602001908201803590602001908080601f016020809104026020016040519081016040528093929190818152602001838380828437820191505050505050919291929050505061030d565b6040518082815260200191505060405180910390f35b34801561024157600080fd5b50610262600480360381019080803515159060200190929190505050610678565b005b34801561027057600080fd5b50610279610695565b604051808273ffffffffffffffffffffffffffffffffffffffff1673ffffffffffffffffffffffffffffffffffffffff16815260200191505060405180910390f35b60015481565b600260159054906101000a900460ff1681565b600260009054906101000a900460ff1681565b600260019054906101000a900473ffffffffffffffffffffffffffffffffffffffff1681565b600060013073ffffffffffffffffffffffffffffffffffffffff166310055c1d6040518163ffffffff167c0100000000000000000000000000000000000000000000000000000000028152600401602060405180830381600087803b15801561037557600080fd5b505af1158015610389573d6000803e3d6000fd5b505050506040513d602081101561039f57600080fd5b8101908080519060200190929190505050141515610425576040517f08c379a000000000000000000000000000000000000000000000000000000000815260040180806020018281038252601a8152602001807f5468652075736572206973206e6f742061206469726563746f7200000000000081525060200191505060405180910390fd5b600260019054906101000a900473ffffffffffffffffffffffffffffffffffffffff1673ffffffffffffffffffffffffffffffffffffffff16631eeb6f5c8585856040518463ffffffff167c0100000000000000000000000000000000000000000000000000000000028152600401808481526020018060200180602001838103835285818151815260200191508051906020019080838360005b838110156104db5780820151818401526020810190506104c0565b50505050905090810190601f1680156105085780820380516001836020036101000a031916815260200191505b50838103825284818151815260200191508051906020019080838360005b83811015610541578082015181840152602081019050610526565b50505050905090810190601f16801561056e5780820380516001836020036101000a031916815260200191505b5095505050505050602060405180830381600087803b15801561059057600080fd5b505af11580156105a4573d6000803e3d6000fd5b505050506040513d60208110156105ba57600080fd5b810190808051906020019092919050505090507fdd9e59769d67c812e02119ca036fd42212887b9d7873fd602296d02cf9dd52b481836040518083815260200180602001828103825283818151815260200191508051906020019080838360005b8381101561063657808201518184015260208101905061061b565b50505050905090810190601f1680156106635780820380516001836020036101000a031916815260200191505b50935050505060405180910390a19392505050565b80600260006101000a81548160ff02191690831515021790555050565b6000809054906101000a900473ffffffffffffffffffffffffffffffffffffffff16815600a165627a7a7230582041ceb59f1b2f8c048153a203683231d099a7957f052190f81e1a32f6707c39520029",
  "source": "pragma solidity ^0.4.23;\n\nimport \"./User.sol\";\nimport \"./QandA.sol\";\n\n/**\n* @title this contract represents a director (board member) of the corporation\n*/\ncontract Director is User {\n\n    // reference to the Q&A list\n    QandA public qa;\n    // internally directors with admin rights are just director objects who are indicated with this flag\n    bool public isAdministrator;\n\n    /**\n    *   @dev checks whether the caller has the director role \n    */\n    modifier onlyDirector {\n        require(this.role() == 1, \"The user is not a director\");\n        _;\n\n    }\n\n    event AnswerCreated(uint ansId, string creator);\n    \n    /**\n    *   @dev determines whether the director has admin rights\n    */\n    constructor(address userAddress, bool _isAdministrator, QandA _qa, uint _role)\n        User(userAddress, Role(_role), false) public {\n\n        isAdministrator = _isAdministrator;    \n        qa = _qa;\n    }\n\n    /**\n    *   @dev directors are able to create answers to a specific questions submitted by a shareholder\n    *   @param _questionId id of the question\n    *   @param _ipfs_hash hash where the answer description is stored\n    *   @param sender the creator of the answer \n    */\n    function createAnswer(uint _questionId, string _ipfs_hash, string sender) public onlyDirector returns (uint answerId)  {\n\n        answerId = qa.createNewAnswer(_questionId, _ipfs_hash, sender);\n\n        emit AnswerCreated(answerId, sender);\n    }\n}\n",
  "sourcePath": "/Users/christianmischok/git/ShareholderMeeting/solidity/contracts/Director.sol",
  "compiler": {
    "name": "solc",
    "version": "0.4.24+commit.e67f0147.Emscripten.clang"
  },
  "schemaVersion": "2.0.1",
  "updatedAt": "2018-10-14T12:24:22.098Z"
}