{
  "contractName": "Factory",
  "abi": [
    {
      "constant": true,
      "inputs": [
        {
          "name": "",
          "type": "address"
        }
      ],
      "name": "votingWeights",
      "outputs": [
        {
          "name": "",
          "type": "uint256"
        }
      ],
      "payable": false,
      "stateMutability": "view",
      "type": "function"
    },
    {
      "constant": false,
      "inputs": [
        {
          "name": "proposalId",
          "type": "uint256"
        },
        {
          "name": "votingOption",
          "type": "string"
        },
        {
          "name": "sender",
          "type": "address"
        }
      ],
      "name": "setVote",
      "outputs": [],
      "payable": false,
      "stateMutability": "nonpayable",
      "type": "function"
    },
    {
      "constant": false,
      "inputs": [
        {
          "name": "userAddress",
          "type": "address"
        },
        {
          "name": "weight",
          "type": "uint256"
        }
      ],
      "name": "setVotingWeight",
      "outputs": [],
      "payable": false,
      "stateMutability": "nonpayable",
      "type": "function"
    },
    {
      "constant": false,
      "inputs": [
        {
          "name": "quorum",
          "type": "uint256"
        }
      ],
      "name": "setMinimumVotingQuorum",
      "outputs": [],
      "payable": false,
      "stateMutability": "nonpayable",
      "type": "function"
    },
    {
      "constant": true,
      "inputs": [],
      "name": "getNumOfProposals",
      "outputs": [
        {
          "name": "length",
          "type": "uint256"
        }
      ],
      "payable": false,
      "stateMutability": "view",
      "type": "function"
    },
    {
      "constant": true,
      "inputs": [
        {
          "name": "proposalId",
          "type": "uint256"
        }
      ],
      "name": "getProposal",
      "outputs": [
        {
          "name": "_proposalId",
          "type": "uint256"
        },
        {
          "name": "_name",
          "type": "string"
        },
        {
          "name": "description",
          "type": "string"
        },
        {
          "name": "_options",
          "type": "string"
        },
        {
          "name": "_proposalPassed",
          "type": "bool"
        },
        {
          "name": "_passedPercent",
          "type": "uint256"
        },
        {
          "name": "_voteCount",
          "type": "uint256"
        }
      ],
      "payable": false,
      "stateMutability": "view",
      "type": "function"
    },
    {
      "constant": true,
      "inputs": [
        {
          "name": "proposalID",
          "type": "uint256"
        },
        {
          "name": "voteId",
          "type": "uint256"
        }
      ],
      "name": "getVote",
      "outputs": [
        {
          "name": "user",
          "type": "address"
        },
        {
          "name": "option",
          "type": "string"
        },
        {
          "name": "weight",
          "type": "uint256"
        }
      ],
      "payable": false,
      "stateMutability": "view",
      "type": "function"
    },
    {
      "constant": true,
      "inputs": [
        {
          "name": "proposalId",
          "type": "uint256"
        }
      ],
      "name": "getNumOfVotes",
      "outputs": [
        {
          "name": "length",
          "type": "uint256"
        }
      ],
      "payable": false,
      "stateMutability": "view",
      "type": "function"
    },
    {
      "constant": true,
      "inputs": [
        {
          "name": "shAdr",
          "type": "address"
        }
      ],
      "name": "getShareholder",
      "outputs": [
        {
          "name": "_userAddress",
          "type": "address"
        },
        {
          "name": "_role",
          "type": "uint256"
        },
        {
          "name": "_shares",
          "type": "uint256"
        }
      ],
      "payable": false,
      "stateMutability": "view",
      "type": "function"
    },
    {
      "constant": true,
      "inputs": [
        {
          "name": "optionId",
          "type": "uint256"
        }
      ],
      "name": "getVotingOption",
      "outputs": [
        {
          "name": "votingOption",
          "type": "string"
        },
        {
          "name": "votingCount",
          "type": "uint256"
        }
      ],
      "payable": false,
      "stateMutability": "view",
      "type": "function"
    },
    {
      "constant": true,
      "inputs": [],
      "name": "getNumOfVotingOptions",
      "outputs": [
        {
          "name": "length",
          "type": "uint256"
        }
      ],
      "payable": false,
      "stateMutability": "view",
      "type": "function"
    },
    {
      "constant": true,
      "inputs": [
        {
          "name": "shareholderId",
          "type": "uint256"
        }
      ],
      "name": "getWeightOfShareholder",
      "outputs": [
        {
          "name": "adr",
          "type": "address"
        },
        {
          "name": "weight",
          "type": "uint256"
        }
      ],
      "payable": false,
      "stateMutability": "view",
      "type": "function"
    },
    {
      "constant": true,
      "inputs": [],
      "name": "getNumOfVotingShareholders",
      "outputs": [
        {
          "name": "length",
          "type": "uint256"
        }
      ],
      "payable": false,
      "stateMutability": "view",
      "type": "function"
    },
    {
      "constant": true,
      "inputs": [
        {
          "name": "proposalId",
          "type": "uint256"
        }
      ],
      "name": "getOptionsLengthForProposal",
      "outputs": [
        {
          "name": "length",
          "type": "uint256"
        }
      ],
      "payable": false,
      "stateMutability": "view",
      "type": "function"
    },
    {
      "constant": true,
      "inputs": [
        {
          "name": "proposalId",
          "type": "uint256"
        },
        {
          "name": "optId",
          "type": "uint256"
        }
      ],
      "name": "getPropOptions",
      "outputs": [
        {
          "name": "opt",
          "type": "string"
        }
      ],
      "payable": false,
      "stateMutability": "view",
      "type": "function"
    },
    {
      "constant": false,
      "inputs": [
        {
          "name": "_userAddress",
          "type": "address"
        },
        {
          "name": "weight",
          "type": "uint256"
        },
        {
          "name": "qa",
          "type": "address"
        }
      ],
      "name": "createNewShareholder",
      "outputs": [
        {
          "name": "",
          "type": "address"
        }
      ],
      "payable": false,
      "stateMutability": "nonpayable",
      "type": "function"
    },
    {
      "constant": false,
      "inputs": [
        {
          "name": "_userAddress",
          "type": "address"
        },
        {
          "name": "isAdministrator",
          "type": "bool"
        },
        {
          "name": "qa",
          "type": "address"
        }
      ],
      "name": "createNewDirector",
      "outputs": [
        {
          "name": "",
          "type": "address"
        }
      ],
      "payable": false,
      "stateMutability": "nonpayable",
      "type": "function"
    },
    {
      "constant": false,
      "inputs": [
        {
          "name": "_name",
          "type": "string"
        },
        {
          "name": "_description",
          "type": "string"
        },
        {
          "name": "_options",
          "type": "string"
        }
      ],
      "name": "createNewProposal",
      "outputs": [
        {
          "name": "proposalId",
          "type": "uint256"
        }
      ],
      "payable": false,
      "stateMutability": "nonpayable",
      "type": "function"
    },
    {
      "constant": false,
      "inputs": [],
      "name": "incrementPropId",
      "outputs": [],
      "payable": false,
      "stateMutability": "nonpayable",
      "type": "function"
    },
    {
      "constant": false,
      "inputs": [
        {
          "name": "proposalId",
          "type": "uint256"
        },
        {
          "name": "opt",
          "type": "string"
        }
      ],
      "name": "appendVotingOptionToProposal",
      "outputs": [],
      "payable": false,
      "stateMutability": "nonpayable",
      "type": "function"
    },
    {
      "constant": false,
      "inputs": [
        {
          "name": "proposalId",
          "type": "uint256"
        }
      ],
      "name": "evaluateProposal",
      "outputs": [
        {
          "name": "winnCount",
          "type": "uint256"
        }
      ],
      "payable": false,
      "stateMutability": "nonpayable",
      "type": "function"
    },
    {
      "constant": true,
      "inputs": [
        {
          "name": "a",
          "type": "string"
        },
        {
          "name": "b",
          "type": "string"
        }
      ],
      "name": "utilCompareInternal",
      "outputs": [
        {
          "name": "isEqual",
          "type": "bool"
        }
      ],
      "payable": false,
      "stateMutability": "pure",
      "type": "function"
    }
  ],
  "bytecode": "0x6080604052600060075534801561001557600080fd5b50615552806100256000396000f3006080604052600436106200013f576000357c0100000000000000000000000000000000000000000000000000000000900463ffffffff1680630d66af7a146200014457806317bb51f014620001fa5780631f8a3b741462000228578063227d9f6514620002db57806334684e5c146200036f5780634289cefe14620003d7578063492ef9a0146200042757806349330cb8146200046b578063493da753146200055b5780634e13361c14620005b55780637a92b13714620005e5578063806c086014620006135780638c8e54fb14620006955780638ddbeb0714620006d95780638f8c4f6314620007a35780639731631814620007bd578063a556dfca146200086d578063c7f758a814620008e3578063cf83ea751462000a8d578063d328e84d1462000ad1578063ef2dccf01462000aff578063faa4ea4e1462000b76575b600080fd5b3480156200015157600080fd5b506200017c600480360381019080803590602001909291908035906020019092919050505062000c28565b6040518080602001828103825283818151815260200191508051906020019080838360005b83811015620001be578082015181840152602081019050620001a1565b50505050905090810190601f168015620001ec5780820380516001836020036101000a031916815260200191505b509250505060405180910390f35b3480156200020757600080fd5b506200021262000cfa565b6040518082815260200191505060405180910390f35b3480156200023557600080fd5b50620002566004803603810190808035906020019092919050505062000d07565b6040518080602001838152602001828103825284818151815260200191508051906020019080838360005b838110156200029e57808201518184015260208101905062000281565b50505050905090810190601f168015620002cc5780820380516001836020036101000a031916815260200191505b50935050505060405180910390f35b348015620002e857600080fd5b506200031f600480360381019080803573ffffffffffffffffffffffffffffffffffffffff16906020019092919050505062000ddf565b604051808473ffffffffffffffffffffffffffffffffffffffff1673ffffffffffffffffffffffffffffffffffffffff168152602001838152602001828152602001935050505060405180910390f35b3480156200037c57600080fd5b50620003d560048036038101908080359060200190929190803590602001908201803590602001919091929391929390803573ffffffffffffffffffffffffffffffffffffffff16906020019092919050505062001079565b005b348015620003e457600080fd5b5062000425600480360381019080803573ffffffffffffffffffffffffffffffffffffffff1690602001909291908035906020019092919050505062001394565b005b3480156200043457600080fd5b506200045560048036038101908080359060200190929190505050620013dc565b6040518082815260200191505060405180910390f35b3480156200047857600080fd5b50620004a36004803603810190808035906020019092919080359060200190929190505050620013fc565b604051808473ffffffffffffffffffffffffffffffffffffffff1673ffffffffffffffffffffffffffffffffffffffff16815260200180602001838152602001828103825284818151815260200191508051906020019080838360005b838110156200051d57808201518184015260208101905062000500565b50505050905090810190601f1680156200054b5780820380516001836020036101000a031916815260200191505b5094505050505060405180910390f35b3480156200056857600080fd5b506200059f600480360381019080803573ffffffffffffffffffffffffffffffffffffffff169060200190929190505050620015a3565b6040518082815260200191505060405180910390f35b348015620005c257600080fd5b50620005e360048036038101908080359060200190929190505050620015bb565b005b348015620005f257600080fd5b50620005fd620015c5565b6040518082815260200191505060405180910390f35b3480156200062057600080fd5b506200067f600480360381019080803590602001908201803590602001919091929391929390803590602001908201803590602001919091929391929390803590602001908201803590602001919091929391929390505050620015d2565b6040518082815260200191505060405180910390f35b348015620006a257600080fd5b50620006c36004803603810190808035906020019092919050505062001698565b6040518082815260200191505060405180910390f35b348015620006e657600080fd5b5062000789600480360381019080803590602001908201803590602001908080601f0160208091040260200160405190810160405280939291908181526020018383808284378201915050505050509192919290803590602001908201803590602001908080601f0160208091040260200160405190810160405280939291908181526020018383808284378201915050505050509192919290505050620016cb565b604051808215151515815260200191505060405180910390f35b348015620007b057600080fd5b50620007bb62001817565b005b348015620007ca57600080fd5b506200082b600480360381019080803573ffffffffffffffffffffffffffffffffffffffff16906020019092919080359060200190929190803573ffffffffffffffffffffffffffffffffffffffff1690602001909291905050506200182b565b604051808273ffffffffffffffffffffffffffffffffffffffff1673ffffffffffffffffffffffffffffffffffffffff16815260200191505060405180910390f35b3480156200087a57600080fd5b50620008e160048036038101908080359060200190929190803590602001908201803590602001908080601f016020809104026020016040519081016040528093929190818152602001838380828437820191505050505050919291929050505062001987565b005b348015620008f057600080fd5b506200091160048036038101908080359060200190929190505050620019dd565b604051808881526020018060200180602001806020018715151515815260200186815260200185815260200184810384528a818151815260200191508051906020019080838360005b83811015620009775780820151818401526020810190506200095a565b50505050905090810190601f168015620009a55780820380516001836020036101000a031916815260200191505b50848103835289818151815260200191508051906020019080838360005b83811015620009e0578082015181840152602081019050620009c3565b50505050905090810190601f16801562000a0e5780820380516001836020036101000a031916815260200191505b50848103825288818151815260200191508051906020019080838360005b8381101562000a4957808201518184015260208101905062000a2c565b50505050905090810190601f16801562000a775780820380516001836020036101000a031916815260200191505b509a505050505050505050505060405180910390f35b34801562000a9a57600080fd5b5062000abb6004803603810190808035906020019092919050505062001c31565b6040518082815260200191505060405180910390f35b34801562000ade57600080fd5b5062000ae9620020a1565b6040518082815260200191505060405180910390f35b34801562000b0c57600080fd5b5062000b2d60048036038101908080359060200190929190505050620020ae565b604051808373ffffffffffffffffffffffffffffffffffffffff1673ffffffffffffffffffffffffffffffffffffffff1681526020018281526020019250505060405180910390f35b34801562000b8357600080fd5b5062000be6600480360381019080803573ffffffffffffffffffffffffffffffffffffffff169060200190929190803515159060200190929190803573ffffffffffffffffffffffffffffffffffffffff1690602001909291905050506200216f565b604051808273ffffffffffffffffffffffffffffffffffffffff1673ffffffffffffffffffffffffffffffffffffffff16815260200191505060405180910390f35b6060600160008481526020019081526020016000208281548110151562000c4b57fe5b906000526020600020018054600181600116156101000203166002900480601f01602080910402602001604051908101604052809291908181526020018280546001816001161561010002031660029004801562000ced5780601f1062000cc15761010080835404028352916020019162000ced565b820191906000526020600020905b81548152906001019060200180831162000ccf57829003601f168201915b5050505050905092915050565b6000600280549050905090565b606060008060058481548110151562000d1c57fe5b90600052602060002090600202019050806000018160010154818054600181600116156101000203166002900480601f01602080910402602001604051908101604052809291908181526020018280546001816001161561010002031660029004801562000dce5780601f1062000da25761010080835404028352916020019162000dce565b820191906000526020600020905b81548152906001019060200180831162000db057829003601f168201915b505050505091509250925050915091565b6000806000806000808673ffffffffffffffffffffffffffffffffffffffff1673ffffffffffffffffffffffffffffffffffffffff16815260200190815260200160002060009054906101000a900473ffffffffffffffffffffffffffffffffffffffff1690508073ffffffffffffffffffffffffffffffffffffffff1663e4128fb36040518163ffffffff167c0100000000000000000000000000000000000000000000000000000000028152600401602060405180830381600087803b15801562000eab57600080fd5b505af115801562000ec0573d6000803e3d6000fd5b505050506040513d602081101562000ed757600080fd5b81019080805190602001909291905050508173ffffffffffffffffffffffffffffffffffffffff166310055c1d6040518163ffffffff167c0100000000000000000000000000000000000000000000000000000000028152600401602060405180830381600087803b15801562000f4d57600080fd5b505af115801562000f62573d6000803e3d6000fd5b505050506040513d602081101562000f7957600080fd5b8101908080519060200190929190505050600460008473ffffffffffffffffffffffffffffffffffffffff1663e4128fb36040518163ffffffff167c0100000000000000000000000000000000000000000000000000000000028152600401602060405180830381600087803b15801562000ff357600080fd5b505af115801562001008573d6000803e3d6000fd5b505050506040513d60208110156200101f57600080fd5b810190808051906020019092919050505073ffffffffffffffffffffffffffffffffffffffff1673ffffffffffffffffffffffffffffffffffffffff16815260200190815260200160002054935093509350509193909250565b6000806003868154811015156200108c57fe5b90600052602060002090600902019150600115158260080160008573ffffffffffffffffffffffffffffffffffffffff1673ffffffffffffffffffffffffffffffffffffffff16815260200190815260200160002060009054906101000a900460ff1615151415151562001168576040517f08c379a000000000000000000000000000000000000000000000000000000000815260040180806020018281038252601d8152602001807f546865207368617265686f6c64657220616c726561647920766f74656400000081525060200191505060405180910390fd5b816007018054809190600101620011809190620022da565b90506060604051908101604052808473ffffffffffffffffffffffffffffffffffffffff16815260200186868080601f0160208091040260200160405190810160405280939291908181526020018383808284378201915050505050508152602001600460008673ffffffffffffffffffffffffffffffffffffffff1673ffffffffffffffffffffffffffffffffffffffff1681526020019081526020016000205481525082600701828154811015156200123757fe5b906000526020600020906003020160008201518160000160006101000a81548173ffffffffffffffffffffffffffffffffffffffff021916908373ffffffffffffffffffffffffffffffffffffffff1602179055506020820151816001019080519060200190620012aa9291906200230f565b506040820151816002015590505060018260080160008573ffffffffffffffffffffffffffffffffffffffff1673ffffffffffffffffffffffffffffffffffffffff16815260200190815260200160002060006101000a81548160ff021916908315150217905550816006016000815480929190600101919050555060028390806001815401808255809150509060018203906000526020600020016000909192909190916101000a81548173ffffffffffffffffffffffffffffffffffffffff021916908373ffffffffffffffffffffffffffffffffffffffff16021790555050505050505050565b80600460008473ffffffffffffffffffffffffffffffffffffffff1673ffffffffffffffffffffffffffffffffffffffff168152602001908152602001600020819055505050565b600060016000838152602001908152602001600020805490509050919050565b6000606060008060006003878154811015156200141557fe5b9060005260206000209060090201915081600701868154811015156200143757fe5b90600052602060002090600302019050600073ffffffffffffffffffffffffffffffffffffffff168160000160009054906101000a900473ffffffffffffffffffffffffffffffffffffffff1673ffffffffffffffffffffffffffffffffffffffff161415620014c5576000806020604051908101604052806000815250908090509450945094506200159a565b8060000160009054906101000a900473ffffffffffffffffffffffffffffffffffffffff16816001018260020154818054600181600116156101000203166002900480601f0160208091040260200160405190810160405280929190818152602001828054600181600116156101000203166002900480156200158c5780601f1062001560576101008083540402835291602001916200158c565b820191906000526020600020905b8154815290600101906020018083116200156e57829003601f168201915b505050505091509450945094505b50509250925092565b60046020528060005260406000206000915090505481565b8060068190555050565b6000600580549050905090565b60008060038054809190600101620015eb919062002396565b91506003600754815481101515620015ff57fe5b90600052602060002090600902019050600754816000018190555087878260010191906200162f929190620023cb565b50858582600201919062001645929190620023cb565b5083838260030191906200165b929190620023cb565b5060008160040160006101000a81548160ff0219169083151502179055506000816005018190555060008160060181905550509695505050505050565b600080600383815481101515620016ab57fe5b906000526020600020906009020190508060070180549050915050919050565b60008082518451141515620016e4576000915062001810565b600090505b83518110156200180b5782818151811015156200170257fe5b9060200101517f010000000000000000000000000000000000000000000000000000000000000090047f0100000000000000000000000000000000000000000000000000000000000000027effffffffffffffffffffffffffffffffffffffffffffffffffffffffffffff191684828151811015156200177e57fe5b9060200101517f010000000000000000000000000000000000000000000000000000000000000090047f0100000000000000000000000000000000000000000000000000000000000000027effffffffffffffffffffffffffffffffffffffffffffffffffffffffffffff1916141515620017fd576000915062001810565b8080600101915050620016e9565b600191505b5092915050565b600760008154809291906001019190505550565b600080848430856200183c62002452565b808573ffffffffffffffffffffffffffffffffffffffff1673ffffffffffffffffffffffffffffffffffffffff1681526020018481526020018373ffffffffffffffffffffffffffffffffffffffff1673ffffffffffffffffffffffffffffffffffffffff1681526020018273ffffffffffffffffffffffffffffffffffffffff1673ffffffffffffffffffffffffffffffffffffffff168152602001945050505050604051809103906000f080158015620018fc573d6000803e3d6000fd5b509050806000808773ffffffffffffffffffffffffffffffffffffffff1673ffffffffffffffffffffffffffffffffffffffff16815260200190815260200160002060006101000a81548173ffffffffffffffffffffffffffffffffffffffff021916908373ffffffffffffffffffffffffffffffffffffffff160217905550809150509392505050565b60016000838152602001908152602001600020819080600181540180825580915050906001820390600052602060002001600090919290919091509080519060200190620019d792919062002463565b50505050565b60006060806060600080600080600389815481101515620019fa57fe5b9060005260206000209060090201905080600001548160010182600201836003018460040160009054906101000a900460ff1685600501548660060154858054600181600116156101000203166002900480601f01602080910402602001604051908101604052809291908181526020018280546001816001161561010002031660029004801562001ad05780601f1062001aa45761010080835404028352916020019162001ad0565b820191906000526020600020905b81548152906001019060200180831162001ab257829003601f168201915b50505050509550848054600181600116156101000203166002900480601f01602080910402602001604051908101604052809291908181526020018280546001816001161561010002031660029004801562001b705780601f1062001b445761010080835404028352916020019162001b70565b820191906000526020600020905b81548152906001019060200180831162001b5257829003601f168201915b50505050509450838054600181600116156101000203166002900480601f01602080910402602001604051908101604052809291908181526020018280546001816001161561010002031660029004801562001c105780601f1062001be45761010080835404028352916020019162001c10565b820191906000526020600020905b81548152906001019060200180831162001bf257829003601f168201915b50505050509350975097509750975097509750975050919395979092949650565b600080600080600080600060038881548110151562001c4c57fe5b90600052602060002090600902019550600094505b600160008981526020019081526020016000208054905085101562001fb2576005805480919060010162001c969190620024ea565b506040805190810160405280600160008b81526020019081526020016000208781548110151562001cc357fe5b906000526020600020018054600181600116156101000203166002900480601f01602080910402602001604051908101604052809291908181526020018280546001816001161561010002031660029004801562001d655780601f1062001d395761010080835404028352916020019162001d65565b820191906000526020600020905b81548152906001019060200180831162001d4757829003601f168201915b50505050508152602001600081525060058681548110151562001d8457fe5b9060005260206000209060020201600082015181600001908051906020019062001db09291906200230f565b5060208201518160010155905050600093505b856007018054905084101562001fa457856007018481548110151562001de557fe5b9060005260206000209060030201925062001f5e836001018054600181600116156101000203166002900480601f01602080910402602001604051908101604052809291908181526020018280546001816001161561010002031660029004801562001e955780601f1062001e695761010080835404028352916020019162001e95565b820191906000526020600020905b81548152906001019060200180831162001e7757829003601f168201915b505050505060058781548110151562001eaa57fe5b90600052602060002090600202016000018054600181600116156101000203166002900480601f01602080910402602001604051908101604052809291908181526020018280546001816001161561010002031660029004801562001f535780601f1062001f275761010080835404028352916020019162001f53565b820191906000526020600020905b81548152906001019060200180831162001f3557829003601f168201915b5050505050620016cb565b1562001f965760058581548110151562001f7457fe5b9060005260206000209060020201600101600081548092919060010191905055505b838060010194505062001dc3565b848060010195505062001c61565b60009150600090505b600580549050811015620020265760058181548110151562001fd957fe5b90600052602060002090600202016001015482101562002018576005818154811015156200200357fe5b90600052602060002090600202016001015491505b808060010191505062001fbb565b6006548660060154101515620020755760018660040160006101000a81548160ff02191690831515021790555060648660060154838115156200206557fe5b0402866005018190555062002093565b60008660040160006101000a81548160ff0219169083151502179055505b819650505050505050919050565b6000600380549050905090565b600080600283815481101515620020c157fe5b9060005260206000200160009054906101000a900473ffffffffffffffffffffffffffffffffffffffff16600460006002868154811015156200210057fe5b9060005260206000200160009054906101000a900473ffffffffffffffffffffffffffffffffffffffff1673ffffffffffffffffffffffffffffffffffffffff1673ffffffffffffffffffffffffffffffffffffffff1681526020019081526020016000205491509150915091565b6000821562002228578383836000620021876200251f565b808573ffffffffffffffffffffffffffffffffffffffff1673ffffffffffffffffffffffffffffffffffffffff168152602001841515151581526020018373ffffffffffffffffffffffffffffffffffffffff1673ffffffffffffffffffffffffffffffffffffffff168152602001828152602001945050505050604051809103906000f0801580156200221f573d6000803e3d6000fd5b509050620022d3565b8383836001620022376200251f565b808573ffffffffffffffffffffffffffffffffffffffff1673ffffffffffffffffffffffffffffffffffffffff168152602001841515151581526020018373ffffffffffffffffffffffffffffffffffffffff1673ffffffffffffffffffffffffffffffffffffffff168152602001828152602001945050505050604051809103906000f080158015620022cf573d6000803e3d6000fd5b5090505b9392505050565b8154818355818111156200230a5760030281600302836000526020600020918201910162002309919062002530565b5b505050565b828054600181600116156101000203166002900490600052602060002090601f016020900481019282601f106200235257805160ff191683800117855562002383565b8280016001018555821562002383579182015b828111156200238257825182559160200191906001019062002365565b5b50905062002392919062002593565b5090565b815481835581811115620023c657600902816009028360005260206000209182019101620023c59190620025bb565b5b505050565b828054600181600116156101000203166002900490600052602060002090601f016020900481019282601f106200240e57803560ff19168380011785556200243f565b828001600101855582156200243f579182015b828111156200243e57823582559160200191906001019062002421565b5b5090506200244e919062002593565b5090565b604051612604806200270083390190565b828054600181600116156101000203166002900490600052602060002090601f016020900481019282601f10620024a657805160ff1916838001178555620024d7565b82800160010185558215620024d7579182015b82811115620024d6578251825591602001919060010190620024b9565b5b509050620024e6919062002593565b5090565b8154818355818111156200251a5760020281600202836000526020600020918201910162002519919062002651565b5b505050565b6040516108238062004d0483390190565b6200259091905b808211156200258c57600080820160006101000a81549073ffffffffffffffffffffffffffffffffffffffff02191690556001820160006200257a91906200268d565b60028201600090555060030162002537565b5090565b90565b620025b891905b80821115620025b45760008160009055506001016200259a565b5090565b90565b6200264e91905b808211156200264a57600080820160009055600182016000620025e691906200268d565b600282016000620025f891906200268d565b6003820160006200260a91906200268d565b6004820160006101000a81549060ff021916905560058201600090556006820160009055600782016000620026409190620026d9565b50600901620025c2565b5090565b90565b6200268a91905b808211156200268657600080820160006200267491906200268d565b60018201600090555060020162002658565b5090565b90565b50805460018160011615610100020316600290046000825580601f10620026b55750620026d6565b601f016020900490600052602060002090810190620026d5919062002593565b5b50565b5080546000825560030290600052602060002090810190620026fc919062002530565b50560060806040523480156200001157600080fd5b5060405160808062002604833981018060405281019080805190602001909291908051906020019092919080519060200190929190805190602001909291905050508360026000826000806101000a81548173ffffffffffffffffffffffffffffffffffffffff021916908373ffffffffffffffffffffffffffffffffffffffff160217905550816002811115620000a557fe5b60018190555080600260006101000a81548160ff02191690831515021790555050505081600260016101000a81548173ffffffffffffffffffffffffffffffffffffffff021916908373ffffffffffffffffffffffffffffffffffffffff16021790555080600360006101000a81548173ffffffffffffffffffffffffffffffffffffffff021916908373ffffffffffffffffffffffffffffffffffffffff160217905550600260019054906101000a900473ffffffffffffffffffffffffffffffffffffffff1673ffffffffffffffffffffffffffffffffffffffff16634289cefe85856040518363ffffffff167c0100000000000000000000000000000000000000000000000000000000028152600401808373ffffffffffffffffffffffffffffffffffffffff1673ffffffffffffffffffffffffffffffffffffffff16815260200182815260200192505050600060405180830381600087803b1580156200021057600080fd5b505af115801562000225573d6000803e3d6000fd5b505050507fd513e2b4088d8859035626590168845dea442d4ef553b9919b702351678cc47184600260019054906101000a900473ffffffffffffffffffffffffffffffffffffffff1673ffffffffffffffffffffffffffffffffffffffff1663493da753876040518263ffffffff167c0100000000000000000000000000000000000000000000000000000000028152600401808273ffffffffffffffffffffffffffffffffffffffff1673ffffffffffffffffffffffffffffffffffffffff168152602001915050602060405180830381600087803b1580156200030957600080fd5b505af11580156200031e573d6000803e3d6000fd5b505050506040513d60208110156200033557600080fd5b8101908080519060200190929190505050604051808373ffffffffffffffffffffffffffffffffffffffff1673ffffffffffffffffffffffffffffffffffffffff1681526020018281526020019250505060405180910390a15050505061226280620003a26000396000f3006080604052600436106100ba576000357c0100000000000000000000000000000000000000000000000000000000900463ffffffff16806310055c1d146100bf57806322366844146100ea5780632410847514610119578063520313fe1461018c5780638af3fddf146101cd578063ab42394514610224578063ae2dac1a1461027d578063c0358d98146102ac578063c3b31472146102e3578063dffc8b2e1461033a578063e4128fb3146103fd578063f1c7cfb314610454575b600080fd5b3480156100cb57600080fd5b506100d461048e565b6040518082815260200191505060405180910390f35b3480156100f657600080fd5b506100ff610494565b604051808215151515815260200191505060405180910390f35b34801561012557600080fd5b5061018a60048036038101908080359060200190929190803590602001908201803590602001908080601f01602080910402602001604051908101604052809392919081815260200183838082843782019150505050505091929192905050506104a7565b005b34801561019857600080fd5b506101b760048036038101908080359060200190929190505050610804565b6040518082815260200191505060405180910390f35b3480156101d957600080fd5b506101e2610827565b604051808273ffffffffffffffffffffffffffffffffffffffff1673ffffffffffffffffffffffffffffffffffffffff16815260200191505060405180910390f35b34801561023057600080fd5b5061027b600480360381019080803573ffffffffffffffffffffffffffffffffffffffff1690602001909291908035151590602001909291908035906020019092919050505061084d565b005b34801561028957600080fd5b506102aa60048036038101908080351515906020019092919050505061144d565b005b3480156102b857600080fd5b506102e1600480360381019080803590602001909291908035906020019092919050505061146a565b005b3480156102ef57600080fd5b506102f8611b30565b604051808273ffffffffffffffffffffffffffffffffffffffff1673ffffffffffffffffffffffffffffffffffffffff16815260200191505060405180910390f35b34801561034657600080fd5b506103e7600480360381019080803590602001908201803590602001908080601f0160208091040260200160405190810160405280939291908181526020018383808284378201915050505050509192919290803590602001908201803590602001908080601f0160208091040260200160405190810160405280939291908181526020018383808284378201915050505050509192919290505050611b56565b6040518082815260200191505060405180910390f35b34801561040957600080fd5b50610412611eb8565b604051808273ffffffffffffffffffffffffffffffffffffffff1673ffffffffffffffffffffffffffffffffffffffff16815260200191505060405180910390f35b34801561046057600080fd5b5061048c60048036038101908080359060200190929190803560ff169060200190929190505050611edd565b005b60015481565b600260009054906101000a900460ff1681565b60023073ffffffffffffffffffffffffffffffffffffffff166310055c1d6040518163ffffffff167c0100000000000000000000000000000000000000000000000000000000028152600401602060405180830381600087803b15801561050d57600080fd5b505af1158015610521573d6000803e3d6000fd5b505050506040513d602081101561053757600080fd5b81019080805190602001909291905050501415156105bd576040517f08c379a00000000000000000000000000000000000000000000000000000000081526004018080602001828103825260198152602001807f55736572206973206e6f742061207368617265686f6c6465720000000000000081525060200191505060405180910390fd5b600260019054906101000a900473ffffffffffffffffffffffffffffffffffffffff1673ffffffffffffffffffffffffffffffffffffffff166334684e5c8383336040518463ffffffff167c010000000000000000000000000000000000000000000000000000000002815260040180848152602001806020018373ffffffffffffffffffffffffffffffffffffffff1673ffffffffffffffffffffffffffffffffffffffff168152602001828103825284818151815260200191508051906020019080838360005b838110156106a1578082015181840152602081019050610686565b50505050905090810190601f1680156106ce5780820380516001836020036101000a031916815260200191505b50945050505050600060405180830381600087803b1580156106ef57600080fd5b505af1158015610703573d6000803e3d6000fd5b505050507f497ac9c2d8b6e7ea7204365157d9642f36d2b6125352bfa6d0a73328142d0bd96000809054906101000a900473ffffffffffffffffffffffffffffffffffffffff168383604051808473ffffffffffffffffffffffffffffffffffffffff1673ffffffffffffffffffffffffffffffffffffffff16815260200183815260200180602001828103825283818151815260200191508051906020019080838360005b838110156107c45780820151818401526020810190506107a9565b50505050905090810190601f1680156107f15780820380516001836020036101000a031916815260200191505b5094505050505060405180910390a15050565b60048181548110151561081357fe5b906000526020600020016000915090505481565b600360009054906101000a900473ffffffffffffffffffffffffffffffffffffffff1681565b60008060008060023073ffffffffffffffffffffffffffffffffffffffff166310055c1d6040518163ffffffff167c0100000000000000000000000000000000000000000000000000000000028152600401602060405180830381600087803b1580156108b957600080fd5b505af11580156108cd573d6000803e3d6000fd5b505050506040513d60208110156108e357600080fd5b8101908080519060200190929190505050141515610969576040517f08c379a00000000000000000000000000000000000000000000000000000000081526004018080602001828103825260198152602001807f55736572206973206e6f742061207368617265686f6c6465720000000000000081525060200191505060405180910390fd5b6000600260019054906101000a900473ffffffffffffffffffffffffffffffffffffffff1673ffffffffffffffffffffffffffffffffffffffff1663493da753336040518263ffffffff167c0100000000000000000000000000000000000000000000000000000000028152600401808273ffffffffffffffffffffffffffffffffffffffff1673ffffffffffffffffffffffffffffffffffffffff168152602001915050602060405180830381600087803b158015610a2857600080fd5b505af1158015610a3c573d6000803e3d6000fd5b505050506040513d6020811015610a5257600080fd5b810190808051906020019092919050505010151515610aff576040517f08c379a00000000000000000000000000000000000000000000000000000000081526004018080602001828103825260288152602001807f53656e64657220646f6573206e6f74206f776e20656e6f75676820766f74696e81526020017f6720746f6b656e7300000000000000000000000000000000000000000000000081525060400191505060405180910390fd5b600260019054906101000a900473ffffffffffffffffffffffffffffffffffffffff1673ffffffffffffffffffffffffffffffffffffffff1663493da753336040518263ffffffff167c0100000000000000000000000000000000000000000000000000000000028152600401808273ffffffffffffffffffffffffffffffffffffffff1673ffffffffffffffffffffffffffffffffffffffff168152602001915050602060405180830381600087803b158015610bbc57600080fd5b505af1158015610bd0573d6000803e3d6000fd5b505050506040513d6020811015610be657600080fd5b81019080805190602001909291905050509350851561103957600060048054905014151515610cc9576040517f08c379a00000000000000000000000000000000000000000000000000000000081526004018080602001828103825260508152602001807f7368617265686f6c6465722063616e6e6f742064656c6567617465207061727481526020017f69616c6c79206265636175736520686520646f6573206e6f742064656e6f6d6981526020017f6e6174656420686973207368617265730000000000000000000000000000000081525060600191505060405180910390fd5b600460018603815481101515610cdb57fe5b90600052602060002001549250600460018603815481101515610cfa57fe5b906000526020600020016000905582600260019054906101000a900473ffffffffffffffffffffffffffffffffffffffff1673ffffffffffffffffffffffffffffffffffffffff1663493da753896040518263ffffffff167c0100000000000000000000000000000000000000000000000000000000028152600401808273ffffffffffffffffffffffffffffffffffffffff1673ffffffffffffffffffffffffffffffffffffffff168152602001915050602060405180830381600087803b158015610dc657600080fd5b505af1158015610dda573d6000803e3d6000fd5b505050506040513d6020811015610df057600080fd5b8101908080519060200190929190505050019150600260019054906101000a900473ffffffffffffffffffffffffffffffffffffffff1673ffffffffffffffffffffffffffffffffffffffff16634289cefe88846040518363ffffffff167c0100000000000000000000000000000000000000000000000000000000028152600401808373ffffffffffffffffffffffffffffffffffffffff1673ffffffffffffffffffffffffffffffffffffffff16815260200182815260200192505050600060405180830381600087803b158015610ec957600080fd5b505af1158015610edd573d6000803e3d6000fd5b50505050600560408051908101604052808973ffffffffffffffffffffffffffffffffffffffff168152602001858152509080600181540180825580915050906001820390600052602060002090600202016000909192909190915060008201518160000160006101000a81548173ffffffffffffffffffffffffffffffffffffffff021916908373ffffffffffffffffffffffffffffffffffffffff160217905550602082015181600101555050507fcddcdb1cb6bb8ba24e33ffa13f7edb9820fa7dd105013832e025fd94362e252033858986604051808573ffffffffffffffffffffffffffffffffffffffff1673ffffffffffffffffffffffffffffffffffffffff1681526020018481526020018373ffffffffffffffffffffffffffffffffffffffff1673ffffffffffffffffffffffffffffffffffffffff16815260200182815260200194505050505060405180910390a1611444565b600260019054906101000a900473ffffffffffffffffffffffffffffffffffffffff1673ffffffffffffffffffffffffffffffffffffffff16634289cefe3360006040518363ffffffff167c0100000000000000000000000000000000000000000000000000000000028152600401808373ffffffffffffffffffffffffffffffffffffffff1673ffffffffffffffffffffffffffffffffffffffff16815260200182815260200192505050600060405180830381600087803b1580156110ff57600080fd5b505af1158015611113573d6000803e3d6000fd5b5050505083600260019054906101000a900473ffffffffffffffffffffffffffffffffffffffff1673ffffffffffffffffffffffffffffffffffffffff1663493da753896040518263ffffffff167c0100000000000000000000000000000000000000000000000000000000028152600401808273ffffffffffffffffffffffffffffffffffffffff1673ffffffffffffffffffffffffffffffffffffffff168152602001915050602060405180830381600087803b1580156111d557600080fd5b505af11580156111e9573d6000803e3d6000fd5b505050506040513d60208110156111ff57600080fd5b8101908080519060200190929190505050019050600260019054906101000a900473ffffffffffffffffffffffffffffffffffffffff1673ffffffffffffffffffffffffffffffffffffffff16634289cefe88836040518363ffffffff167c0100000000000000000000000000000000000000000000000000000000028152600401808373ffffffffffffffffffffffffffffffffffffffff1673ffffffffffffffffffffffffffffffffffffffff16815260200182815260200192505050600060405180830381600087803b1580156112d857600080fd5b505af11580156112ec573d6000803e3d6000fd5b50505050600560408051908101604052808973ffffffffffffffffffffffffffffffffffffffff168152602001868152509080600181540180825580915050906001820390600052602060002090600202016000909192909190915060008201518160000160006101000a81548173ffffffffffffffffffffffffffffffffffffffff021916908373ffffffffffffffffffffffffffffffffffffffff160217905550602082015181600101555050507f125eca0cb4389ce77b3681b7aa6850ee18cd61799d301a94730a3624042fbb8e33858984604051808573ffffffffffffffffffffffffffffffffffffffff1673ffffffffffffffffffffffffffffffffffffffff1681526020018481526020018373ffffffffffffffffffffffffffffffffffffffff1673ffffffffffffffffffffffffffffffffffffffff16815260200182815260200194505050505060405180910390a15b50505050505050565b80600260006101000a81548160ff02191690831515021790555050565b60008060008060023073ffffffffffffffffffffffffffffffffffffffff166310055c1d6040518163ffffffff167c0100000000000000000000000000000000000000000000000000000000028152600401602060405180830381600087803b1580156114d657600080fd5b505af11580156114ea573d6000803e3d6000fd5b505050506040513d602081101561150057600080fd5b8101908080519060200190929190505050141515611586576040517f08c379a00000000000000000000000000000000000000000000000000000000081526004018080602001828103825260198152602001807f55736572206973206e6f742061207368617265686f6c6465720000000000000081525060200191505060405180910390fd5b600260019054906101000a900473ffffffffffffffffffffffffffffffffffffffff1673ffffffffffffffffffffffffffffffffffffffff1663493da753336040518263ffffffff167c0100000000000000000000000000000000000000000000000000000000028152600401808273ffffffffffffffffffffffffffffffffffffffff1673ffffffffffffffffffffffffffffffffffffffff168152602001915050602060405180830381600087803b15801561164357600080fd5b505af1158015611657573d6000803e3d6000fd5b505050506040513d602081101561166d57600080fd5b8101908080519060200190929190505050935060008514158015611692575060008614155b1561188c57858502841015151561175d576040517f08c379a00000000000000000000000000000000000000000000000000000000081526004018080602001828103825260418152602001807f73656e64657220686173206e6f7420656e6f75676820766f74696e672077656981526020017f67687420666f7220666163746f722d62617365642064656e6f6d696e6174696f81526020017f6e0000000000000000000000000000000000000000000000000000000000000081525060600191505060405180910390fd5b600091505b858210156117a35760048590806001815401808255809150509060018203906000526020600020016000909192909190915055508180600101925050611762565b85850284039250600260019054906101000a900473ffffffffffffffffffffffffffffffffffffffff1673ffffffffffffffffffffffffffffffffffffffff16634289cefe33856040518363ffffffff167c0100000000000000000000000000000000000000000000000000000000028152600401808373ffffffffffffffffffffffffffffffffffffffff1673ffffffffffffffffffffffffffffffffffffffff16815260200182815260200192505050600060405180830381600087803b15801561186f57600080fd5b505af1158015611883573d6000803e3d6000fd5b50505050611b28565b6000861415801561189d5750600085145b15611a6d57858411151561193f576040517f08c379a00000000000000000000000000000000000000000000000000000000081526004018080602001828103825260298152602001807f73656e64657220646f6573206e6f74206861766520656e6f75676820766f746981526020017f6e6720776569676874000000000000000000000000000000000000000000000081525060400191505060405180910390fd5b600090505b85811015611986576004600190806001815401808255809150509060018203906000526020600020016000909192909190915055508080600101915050611944565b8584039250600260019054906101000a900473ffffffffffffffffffffffffffffffffffffffff1673ffffffffffffffffffffffffffffffffffffffff16634289cefe33856040518363ffffffff167c0100000000000000000000000000000000000000000000000000000000028152600401808373ffffffffffffffffffffffffffffffffffffffff1673ffffffffffffffffffffffffffffffffffffffff16815260200182815260200192505050600060405180830381600087803b158015611a5057600080fd5b505af1158015611a64573d6000803e3d6000fd5b50505050611b27565b6040517f08c379a00000000000000000000000000000000000000000000000000000000081526004018080602001828103825260458152602001807f44656e6f6d696e6174696f6e206661696c65642e20506c65617365206368656381526020017f6b2074686520706172616d7320666f7220636f72726563742064656e6f6d696e81526020017f6174696f6e00000000000000000000000000000000000000000000000000000081525060600191505060405180910390fd5b5b505050505050565b600260019054906101000a900473ffffffffffffffffffffffffffffffffffffffff1681565b600060023073ffffffffffffffffffffffffffffffffffffffff166310055c1d6040518163ffffffff167c0100000000000000000000000000000000000000000000000000000000028152600401602060405180830381600087803b158015611bbe57600080fd5b505af1158015611bd2573d6000803e3d6000fd5b505050506040513d6020811015611be857600080fd5b8101908080519060200190929190505050141515611c6e576040517f08c379a00000000000000000000000000000000000000000000000000000000081526004018080602001828103825260198152602001807f55736572206973206e6f742061207368617265686f6c6465720000000000000081525060200191505060405180910390fd5b600360009054906101000a900473ffffffffffffffffffffffffffffffffffffffff1673ffffffffffffffffffffffffffffffffffffffff1663a17d04dd84846040518363ffffffff167c0100000000000000000000000000000000000000000000000000000000028152600401808060200180602001838103835285818151815260200191508051906020019080838360005b83811015611d1d578082015181840152602081019050611d02565b50505050905090810190601f168015611d4a5780820380516001836020036101000a031916815260200191505b50838103825284818151815260200191508051906020019080838360005b83811015611d83578082015181840152602081019050611d68565b50505050905090810190601f168015611db05780820380516001836020036101000a031916815260200191505b50945050505050602060405180830381600087803b158015611dd157600080fd5b505af1158015611de5573d6000803e3d6000fd5b505050506040513d6020811015611dfb57600080fd5b810190808051906020019092919050505090507fa5fbefdc56bf0d2d586a82a9f50784dfe29ae6d3cfe3e0491131259d4f2042ee81836040518083815260200180602001828103825283818151815260200191508051906020019080838360005b83811015611e77578082015181840152602081019050611e5c565b50505050905090810190601f168015611ea45780820380516001836020036101000a031916815260200191505b50935050505060405180910390a192915050565b6000809054906101000a900473ffffffffffffffffffffffffffffffffffffffff1681565b60023073ffffffffffffffffffffffffffffffffffffffff166310055c1d6040518163ffffffff167c0100000000000000000000000000000000000000000000000000000000028152600401602060405180830381600087803b158015611f4357600080fd5b505af1158015611f57573d6000803e3d6000fd5b505050506040513d6020811015611f6d57600080fd5b8101908080519060200190929190505050141515611ff3576040517f08c379a00000000000000000000000000000000000000000000000000000000081526004018080602001828103825260198152602001807f55736572206973206e6f742061207368617265686f6c6465720000000000000081525060200191505060405180910390fd5b600073ffffffffffffffffffffffffffffffffffffffff166006600084815260200190815260200160002060009054906101000a900473ffffffffffffffffffffffffffffffffffffffff1673ffffffffffffffffffffffffffffffffffffffff161415156120f0576040517f08c379a000000000000000000000000000000000000000000000000000000000815260040180806020018281038252602f8152602001807f546865207368617265686f6c6465722068617320616c7265616479207261746581526020017f642074686973207175657374696f6e000000000000000000000000000000000081525060400191505060405180910390fd5b600360009054906101000a900473ffffffffffffffffffffffffffffffffffffffff1673ffffffffffffffffffffffffffffffffffffffff16637c2583348383600181111561213b57fe5b336040518463ffffffff167c0100000000000000000000000000000000000000000000000000000000028152600401808481526020018381526020018273ffffffffffffffffffffffffffffffffffffffff1673ffffffffffffffffffffffffffffffffffffffff1681526020019350505050600060405180830381600087803b1580156121c857600080fd5b505af11580156121dc573d6000803e3d6000fd5b50505050336006600084815260200190815260200160002060006101000a81548173ffffffffffffffffffffffffffffffffffffffff021916908373ffffffffffffffffffffffffffffffffffffffff16021790555050505600a165627a7a72305820046ab1a5f04cf1f55d9ed1e14f4752a63a87e50276492a902a1e82cc964af9a10029608060405234801561001057600080fd5b50604051608080610823833981018060405281019080805190602001909291908051906020019092919080519060200190929190805190602001909291905050508381600281111561005e57fe5b6000826000806101000a81548173ffffffffffffffffffffffffffffffffffffffff021916908373ffffffffffffffffffffffffffffffffffffffff1602179055508160028111156100ac57fe5b60018190555080600260006101000a81548160ff02191690831515021790555050505082600260156101000a81548160ff02191690831515021790555081600260016101000a81548173ffffffffffffffffffffffffffffffffffffffff021916908373ffffffffffffffffffffffffffffffffffffffff160217905550505050506106e68061013d6000396000f300608060405260043610610083576000357c0100000000000000000000000000000000000000000000000000000000900463ffffffff16806310055c1d146100885780631aea6257146100b357806322366844146100e25780638af3fddf146101115780638f08356c14610168578063ae2dac1a14610235578063e4128fb314610264575b600080fd5b34801561009457600080fd5b5061009d6102bb565b6040518082815260200191505060405180910390f35b3480156100bf57600080fd5b506100c86102c1565b604051808215151515815260200191505060405180910390f35b3480156100ee57600080fd5b506100f76102d4565b604051808215151515815260200191505060405180910390f35b34801561011d57600080fd5b506101266102e7565b604051808273ffffffffffffffffffffffffffffffffffffffff1673ffffffffffffffffffffffffffffffffffffffff16815260200191505060405180910390f35b34801561017457600080fd5b5061021f60048036038101908080359060200190929190803590602001908201803590602001908080601f0160208091040260200160405190810160405280939291908181526020018383808284378201915050505050509192919290803590602001908201803590602001908080601f016020809104026020016040519081016040528093929190818152602001838380828437820191505050505050919291929050505061030d565b6040518082815260200191505060405180910390f35b34801561024157600080fd5b50610262600480360381019080803515159060200190929190505050610678565b005b34801561027057600080fd5b50610279610695565b604051808273ffffffffffffffffffffffffffffffffffffffff1673ffffffffffffffffffffffffffffffffffffffff16815260200191505060405180910390f35b60015481565b600260159054906101000a900460ff1681565b600260009054906101000a900460ff1681565b600260019054906101000a900473ffffffffffffffffffffffffffffffffffffffff1681565b600060013073ffffffffffffffffffffffffffffffffffffffff166310055c1d6040518163ffffffff167c0100000000000000000000000000000000000000000000000000000000028152600401602060405180830381600087803b15801561037557600080fd5b505af1158015610389573d6000803e3d6000fd5b505050506040513d602081101561039f57600080fd5b8101908080519060200190929190505050141515610425576040517f08c379a000000000000000000000000000000000000000000000000000000000815260040180806020018281038252601a8152602001807f5468652075736572206973206e6f742061206469726563746f7200000000000081525060200191505060405180910390fd5b600260019054906101000a900473ffffffffffffffffffffffffffffffffffffffff1673ffffffffffffffffffffffffffffffffffffffff16631eeb6f5c8585856040518463ffffffff167c0100000000000000000000000000000000000000000000000000000000028152600401808481526020018060200180602001838103835285818151815260200191508051906020019080838360005b838110156104db5780820151818401526020810190506104c0565b50505050905090810190601f1680156105085780820380516001836020036101000a031916815260200191505b50838103825284818151815260200191508051906020019080838360005b83811015610541578082015181840152602081019050610526565b50505050905090810190601f16801561056e5780820380516001836020036101000a031916815260200191505b5095505050505050602060405180830381600087803b15801561059057600080fd5b505af11580156105a4573d6000803e3d6000fd5b505050506040513d60208110156105ba57600080fd5b810190808051906020019092919050505090507fdd9e59769d67c812e02119ca036fd42212887b9d7873fd602296d02cf9dd52b481836040518083815260200180602001828103825283818151815260200191508051906020019080838360005b8381101561063657808201518184015260208101905061061b565b50505050905090810190601f1680156106635780820380516001836020036101000a031916815260200191505b50935050505060405180910390a19392505050565b80600260006101000a81548160ff02191690831515021790555050565b6000809054906101000a900473ffffffffffffffffffffffffffffffffffffffff16815600a165627a7a723058205f3c490c509571b78bf9de7e511322563f9755922bb5c829aae6286154ad62f00029a165627a7a72305820a8b99d8bd575b0e7731688fded33e6e6db8fb838b157be268c41aa661d2b9f020029",
  "source": "pragma solidity^ 0.4.23;\n\nimport \"./User.sol\";\nimport \"./Director.sol\";\nimport \"./Shareholder.sol\";\nimport \"./ProposalData.sol\";\nimport \"./QandA.sol\";\nimport \"./AgmOwner.sol\";\n\n/**\n*   @title factory for creating different users according to their role\n*          stores also the proposals and voting weights which can be accessed by other user contracts\n*/\ncontract Factory is ProposalData {\n\n    // stores a shareholder object to a specific user address\n    mapping(address => Shareholder) private shareholders;\n    // stores all available voting options for a specific proposal\n    mapping(uint => string[]) private propToOptMapping;\n    // stores all shareholders who casted their vote\n    address[] private votingShareholders;\n    // stores all proposals\n    Proposal[] private proposals;\n    // stores the voting weight of every user\n    mapping(address => uint) public votingWeights;\n    // stores the number of votes for a specific voting option\n    VotingOption[] private votingOptions;\n    // determines the minimum number of votes per proposal which is required to compute the tally and statistic\n    uint private minimumVotingQuorum;\n    // for incrementing the proposal id to assign the options the right proposal\n    uint private propId = 0;\n\n    struct VotingOption {\n        string optionName;\n        uint optionCount;\n    }\n\n    /**\n    *   @dev getters and setters\n    */\n\n    function setVote(uint proposalId, string votingOption, address sender) external {\n        Proposal storage prop = proposals[proposalId];\n        require(prop.votedOnProposal[sender] != true, \"The shareholder already voted\");\n        uint voteId = prop.votes.length++;\n        // the shareholder weight is stored within the vote\n        prop.votes[voteId] = Vote({\n            voterAddress: sender,\n            voterDecision: votingOption,\n            voterWeight: votingWeights[sender]}\n        );\n        // the shareholder is marked that he voted on this proposal\n        prop.votedOnProposal[sender] = true;\n        prop.voteCount++;\n        // the shareholder is appended to the list of voters\n        votingShareholders.push(sender);\n    }\n\n    function setVotingWeight(address userAddress, uint weight) public {\n        votingWeights[userAddress] = weight;\n    }\n\n    function setMinimumVotingQuorum(uint quorum) public {\n        minimumVotingQuorum = quorum;\n    }\n\n    function getNumOfProposals() public view returns (uint length) {\n        return proposals.length;\n    }\n\n    function getProposal(uint proposalId) public view returns (\n        uint _proposalId,\n        string _name,\n        string description,\n        string _options,\n        bool _proposalPassed,\n        uint _passedPercent,\n        uint _voteCount\n    ) {\n        Proposal storage proposal = proposals[proposalId];\n        return\n        (proposal.proposalId, proposal.name, proposal.description, proposal.options, proposal.proposalPassed, proposal.passedPercent, proposal.voteCount);\n    }\n\n    function getVote(uint proposalID, uint voteId) public view returns (address user, string option, uint weight) {\n        Proposal storage proposal = proposals[proposalID];\n        Vote storage v = proposal.votes[voteId];\n        if (v.voterAddress == address(0)) {\n            return (address(0), \"\", 0);\n        }\n        return (v.voterAddress, v.voterDecision, v.voterWeight);\n    }\n\n    function getNumOfVotes(uint proposalId) public view returns (uint length) {\n        Proposal storage proposal = proposals[proposalId];\n        return proposal.votes.length;\n    }\n\n    function getShareholder(address shAdr) public view returns (\n        address _userAddress,\n        uint _role,\n        uint _shares\n    ) {\n        Shareholder sh = shareholders[shAdr];\n        return\n            (sh.userAddress(), sh.role(), votingWeights[sh.userAddress()]);\n    }\n\n    function getVotingOption(uint optionId) public view returns (string votingOption, uint votingCount) {\n        VotingOption storage votOpt = votingOptions[optionId];\n        return (votOpt.optionName, votOpt.optionCount);\n    }\n\n    function getNumOfVotingOptions() public view returns (uint length) {\n        return votingOptions.length;\n    }\n\n    function getWeightOfShareholder(uint shareholderId) public view returns (address adr, uint weight) {\n        return (votingShareholders[shareholderId], \n            votingWeights[votingShareholders[shareholderId]]);\n    }\n\n    function getNumOfVotingShareholders() public view returns (uint length) {\n        return votingShareholders.length;\n    }\n\n    function getOptionsLengthForProposal(uint proposalId) public view returns (uint length) {\n        return propToOptMapping[proposalId].length;\n    }\n\n    function getPropOptions(uint proposalId, uint optId) public view returns (string opt) {\n        return propToOptMapping[proposalId][optId];\n    }\n\n    /**\n    *   @dev factory method to create a new shareholder\n    *   @param _userAddress address of the user\n    *   @param weight voting weight = number of shares of the user\n    *   @param qa reference to access the Q&A lists\n    *   @return sh a new Shareholder object \n    */\n    function createNewShareholder(address _userAddress, uint weight, QandA qa) external returns (Shareholder) {\n        Shareholder sh = new Shareholder(_userAddress, weight, this, qa);\n        shareholders[_userAddress] = sh;\n        return sh;\n    }\n\n    /**\n    *   @dev factory method to create a new director\n    *   @param _userAddress address of the user\n    *   @param isAdministrator indicated whether the director has admin rights\n    *   @param qa reference to access the Q&A lists\n    *   @return d a new Director object\n    */\n    function createNewDirector(address _userAddress, bool isAdministrator, QandA qa) external returns (Director) {\n        if (isAdministrator) {\n            return new Director(_userAddress, isAdministrator, qa, 0);\n        } else {\n            return new Director(_userAddress, isAdministrator, qa, 1);\n        }\n        \n    }\n\n    /**\n    *   @dev factory method to create a new proposal\n    *   @param _name name of the proposal\n    *   @param _description description of the proposal\n    *   @param _options voting options of the proposal\n    *   @return proposalId the id of the new created proposal\n    */\n    function createNewProposal(string _name, string _description, string _options) external returns (uint proposalId) {\n        proposalId = proposals.length++;\n        Proposal storage proposal = proposals[propId];\n        proposal.proposalId = propId;\n        proposal.name = _name;\n        proposal.description = _description;\n        proposal.options = _options;\n        proposal.proposalPassed = false;\n        proposal.passedPercent = 0;\n        proposal.voteCount = 0;\n    }\n\n    /**\n    *   @dev increment the proposal id \n    */\n    function incrementPropId() public {\n        propId++;\n    }\n\n    /**\n    *   @dev push a voting option to the proposal - voting option mapping\n    *   @param proposalId the id of the proposal\n    *   @param opt the voting options which shall be added\n    */\n    function appendVotingOptionToProposal(uint proposalId, string opt) public {\n        propToOptMapping[proposalId].push(opt);\n    }\n\n    /**\n    *   @dev complete the execution of the proposal and compute the vote tally for every voting option\n    *         and checks whether the voting quorum is satisfied\n    *   @param proposalId the id of the proposal which shall be evaluated\n    *   @return winnCount the voting option's vote number for which most of the shareholder voted\n    */\n    function evaluateProposal(uint proposalId) public returns (uint winnCount) {\n        Proposal storage prop = proposals[proposalId];\n        for (uint k = 0; k < propToOptMapping[proposalId].length; k++) {\n            votingOptions.length++;\n            votingOptions[k] = VotingOption({optionName: propToOptMapping[proposalId][k], optionCount: 0});\n            // iterate over all votes of all proposals to check which voter voted for option k\n            for (uint i = 0; i < prop.votes.length; i++) {\n                Vote storage v = prop.votes[i];\n                if (utilCompareInternal(v.voterDecision, votingOptions[k].optionName)) {\n                    votingOptions[k].optionCount++;\n                }\n            }  \n        }\n        uint winningOptionCount = 0;\n        for (uint j = 0; j < votingOptions.length; j++) {\n            if (winningOptionCount < votingOptions[j].optionCount) {\n                winningOptionCount = votingOptions[j].optionCount;\n            }\n        }\n        if (prop.voteCount >= minimumVotingQuorum) {\n            prop.proposalPassed = true;\n            prop.passedPercent = winningOptionCount / prop.voteCount * 100;\n        } else {\n            prop.proposalPassed = false;\n        }\n        return (winningOptionCount);\n    }\n\n    /**\n    *   @dev utility function for comparing strings\n    *   @param a fist string\n    *   @param b second string\n    *   @return isEqual indicates whether the two input strings are equal\n    */\n    function utilCompareInternal(string a, string b) public pure returns (bool isEqual) {\n        if (bytes(a).length != bytes(b).length) {\n            return false;\n        }\n        for (uint i = 0; i < bytes(a).length; i ++) {\n            if(bytes(a)[i] != bytes(b)[i]) {\n                return false;\n            }\n        }\n        return true;\n    }\n}\n",
  "sourcePath": "/Users/christianmischok/git/ShareholderMeeting/solidity/contracts/Factory.sol",
  "compiler": {
    "name": "solc",
    "version": "0.4.24+commit.e67f0147.Emscripten.clang"
  },
  "schemaVersion": "2.0.1",
  "updatedAt": "2018-10-15T20:38:04.160Z"
}