{
  "contractName": "Factory",
  "abi": [
    {
      "constant": true,
      "inputs": [
        {
          "name": "",
          "type": "uint256"
        }
      ],
      "name": "proposals",
      "outputs": [
        {
          "name": "proposalId",
          "type": "uint256"
        },
        {
          "name": "name",
          "type": "string"
        },
        {
          "name": "description",
          "type": "string"
        },
        {
          "name": "options",
          "type": "string"
        },
        {
          "name": "proposalPassed",
          "type": "bool"
        },
        {
          "name": "passedPercent",
          "type": "uint256"
        },
        {
          "name": "voteCount",
          "type": "uint256"
        }
      ],
      "payable": false,
      "stateMutability": "view",
      "type": "function"
    },
    {
      "constant": true,
      "inputs": [],
      "name": "propId",
      "outputs": [
        {
          "name": "",
          "type": "uint256"
        }
      ],
      "payable": false,
      "stateMutability": "view",
      "type": "function"
    },
    {
      "constant": true,
      "inputs": [
        {
          "name": "",
          "type": "address"
        }
      ],
      "name": "votingWeights",
      "outputs": [
        {
          "name": "",
          "type": "uint256"
        }
      ],
      "payable": false,
      "stateMutability": "view",
      "type": "function"
    },
    {
      "constant": true,
      "inputs": [
        {
          "name": "",
          "type": "address"
        }
      ],
      "name": "shareholders",
      "outputs": [
        {
          "name": "",
          "type": "address"
        }
      ],
      "payable": false,
      "stateMutability": "view",
      "type": "function"
    },
    {
      "constant": true,
      "inputs": [],
      "name": "minimumVotingQuorum",
      "outputs": [
        {
          "name": "",
          "type": "uint256"
        }
      ],
      "payable": false,
      "stateMutability": "view",
      "type": "function"
    },
    {
      "constant": true,
      "inputs": [
        {
          "name": "",
          "type": "uint256"
        },
        {
          "name": "",
          "type": "uint256"
        }
      ],
      "name": "propToOptMapping",
      "outputs": [
        {
          "name": "",
          "type": "string"
        }
      ],
      "payable": false,
      "stateMutability": "view",
      "type": "function"
    },
    {
      "constant": true,
      "inputs": [
        {
          "name": "",
          "type": "uint256"
        }
      ],
      "name": "votingOptions",
      "outputs": [
        {
          "name": "optionName",
          "type": "string"
        },
        {
          "name": "optionCount",
          "type": "uint256"
        }
      ],
      "payable": false,
      "stateMutability": "view",
      "type": "function"
    },
    {
      "constant": true,
      "inputs": [
        {
          "name": "",
          "type": "uint256"
        }
      ],
      "name": "votingShareholders",
      "outputs": [
        {
          "name": "",
          "type": "address"
        }
      ],
      "payable": false,
      "stateMutability": "view",
      "type": "function"
    },
    {
      "constant": false,
      "inputs": [
        {
          "name": "proposalId",
          "type": "uint256"
        },
        {
          "name": "votingOption",
          "type": "string"
        },
        {
          "name": "sender",
          "type": "address"
        }
      ],
      "name": "setVote",
      "outputs": [],
      "payable": false,
      "stateMutability": "nonpayable",
      "type": "function"
    },
    {
      "constant": false,
      "inputs": [
        {
          "name": "userAddress",
          "type": "address"
        },
        {
          "name": "weight",
          "type": "uint256"
        }
      ],
      "name": "setVotingWeight",
      "outputs": [],
      "payable": false,
      "stateMutability": "nonpayable",
      "type": "function"
    },
    {
      "constant": false,
      "inputs": [
        {
          "name": "quorum",
          "type": "uint256"
        }
      ],
      "name": "setMinimumVotingQuorum",
      "outputs": [],
      "payable": false,
      "stateMutability": "nonpayable",
      "type": "function"
    },
    {
      "constant": true,
      "inputs": [],
      "name": "getNumOfProposals",
      "outputs": [
        {
          "name": "length",
          "type": "uint256"
        }
      ],
      "payable": false,
      "stateMutability": "view",
      "type": "function"
    },
    {
      "constant": true,
      "inputs": [
        {
          "name": "proposalId",
          "type": "uint256"
        }
      ],
      "name": "getProposal",
      "outputs": [
        {
          "name": "_proposalId",
          "type": "uint256"
        },
        {
          "name": "_name",
          "type": "string"
        },
        {
          "name": "description",
          "type": "string"
        },
        {
          "name": "_options",
          "type": "string"
        },
        {
          "name": "_proposalPassed",
          "type": "bool"
        },
        {
          "name": "_passedPercent",
          "type": "uint256"
        },
        {
          "name": "_voteCount",
          "type": "uint256"
        }
      ],
      "payable": false,
      "stateMutability": "view",
      "type": "function"
    },
    {
      "constant": true,
      "inputs": [
        {
          "name": "proposalID",
          "type": "uint256"
        },
        {
          "name": "voteId",
          "type": "uint256"
        }
      ],
      "name": "getVote",
      "outputs": [
        {
          "name": "user",
          "type": "address"
        },
        {
          "name": "option",
          "type": "string"
        },
        {
          "name": "weight",
          "type": "uint256"
        }
      ],
      "payable": false,
      "stateMutability": "view",
      "type": "function"
    },
    {
      "constant": true,
      "inputs": [
        {
          "name": "proposalId",
          "type": "uint256"
        }
      ],
      "name": "getNumOfVotes",
      "outputs": [
        {
          "name": "length",
          "type": "uint256"
        }
      ],
      "payable": false,
      "stateMutability": "view",
      "type": "function"
    },
    {
      "constant": true,
      "inputs": [
        {
          "name": "shAdr",
          "type": "address"
        }
      ],
      "name": "getShareholder",
      "outputs": [
        {
          "name": "_userAddress",
          "type": "address"
        },
        {
          "name": "_role",
          "type": "uint256"
        },
        {
          "name": "_shares",
          "type": "uint256"
        }
      ],
      "payable": false,
      "stateMutability": "view",
      "type": "function"
    },
    {
      "constant": true,
      "inputs": [
        {
          "name": "optionId",
          "type": "uint256"
        }
      ],
      "name": "getVotingOption",
      "outputs": [
        {
          "name": "votingOption",
          "type": "string"
        },
        {
          "name": "votingCount",
          "type": "uint256"
        }
      ],
      "payable": false,
      "stateMutability": "view",
      "type": "function"
    },
    {
      "constant": true,
      "inputs": [],
      "name": "getNumOfVotingOptions",
      "outputs": [
        {
          "name": "length",
          "type": "uint256"
        }
      ],
      "payable": false,
      "stateMutability": "view",
      "type": "function"
    },
    {
      "constant": true,
      "inputs": [
        {
          "name": "shareholderId",
          "type": "uint256"
        }
      ],
      "name": "getWeightOfShareholder",
      "outputs": [
        {
          "name": "adr",
          "type": "address"
        },
        {
          "name": "weight",
          "type": "uint256"
        }
      ],
      "payable": false,
      "stateMutability": "view",
      "type": "function"
    },
    {
      "constant": true,
      "inputs": [],
      "name": "getNumOfVotingShareholders",
      "outputs": [
        {
          "name": "length",
          "type": "uint256"
        }
      ],
      "payable": false,
      "stateMutability": "view",
      "type": "function"
    },
    {
      "constant": true,
      "inputs": [
        {
          "name": "proposalId",
          "type": "uint256"
        }
      ],
      "name": "getOptionsLengthForProposal",
      "outputs": [
        {
          "name": "length",
          "type": "uint256"
        }
      ],
      "payable": false,
      "stateMutability": "view",
      "type": "function"
    },
    {
      "constant": true,
      "inputs": [
        {
          "name": "proposalId",
          "type": "uint256"
        },
        {
          "name": "optId",
          "type": "uint256"
        }
      ],
      "name": "getPropOptions",
      "outputs": [
        {
          "name": "opt",
          "type": "string"
        }
      ],
      "payable": false,
      "stateMutability": "view",
      "type": "function"
    },
    {
      "constant": false,
      "inputs": [
        {
          "name": "_userAddress",
          "type": "address"
        },
        {
          "name": "weight",
          "type": "uint256"
        },
        {
          "name": "qa",
          "type": "address"
        }
      ],
      "name": "createNewShareholder",
      "outputs": [
        {
          "name": "",
          "type": "address"
        }
      ],
      "payable": false,
      "stateMutability": "nonpayable",
      "type": "function"
    },
    {
      "constant": false,
      "inputs": [
        {
          "name": "_userAddress",
          "type": "address"
        },
        {
          "name": "isAdministrator",
          "type": "bool"
        },
        {
          "name": "qa",
          "type": "address"
        }
      ],
      "name": "createNewDirector",
      "outputs": [
        {
          "name": "",
          "type": "address"
        }
      ],
      "payable": false,
      "stateMutability": "nonpayable",
      "type": "function"
    },
    {
      "constant": false,
      "inputs": [
        {
          "name": "_name",
          "type": "string"
        },
        {
          "name": "_description",
          "type": "string"
        },
        {
          "name": "_options",
          "type": "string"
        }
      ],
      "name": "createNewProposal",
      "outputs": [
        {
          "name": "proposalId",
          "type": "uint256"
        }
      ],
      "payable": false,
      "stateMutability": "nonpayable",
      "type": "function"
    },
    {
      "constant": false,
      "inputs": [],
      "name": "incrementPropId",
      "outputs": [],
      "payable": false,
      "stateMutability": "nonpayable",
      "type": "function"
    },
    {
      "constant": false,
      "inputs": [
        {
          "name": "proposalId",
          "type": "uint256"
        },
        {
          "name": "opt",
          "type": "string"
        }
      ],
      "name": "appendVotingOptionToProposal",
      "outputs": [],
      "payable": false,
      "stateMutability": "nonpayable",
      "type": "function"
    },
    {
      "constant": false,
      "inputs": [
        {
          "name": "proposalId",
          "type": "uint256"
        }
      ],
      "name": "evaluateProposal",
      "outputs": [
        {
          "name": "winnCount",
          "type": "uint256"
        }
      ],
      "payable": false,
      "stateMutability": "nonpayable",
      "type": "function"
    },
    {
      "constant": true,
      "inputs": [
        {
          "name": "a",
          "type": "string"
        },
        {
          "name": "b",
          "type": "string"
        }
      ],
      "name": "utilCompareInternal",
      "outputs": [
        {
          "name": "isEqual",
          "type": "bool"
        }
      ],
      "payable": false,
      "stateMutability": "pure",
      "type": "function"
    }
  ],
  "bytecode": "0x6080604052600060075534801561001557600080fd5b50615fe0806100256000396000f30060806040526004361062000193576000357c0100000000000000000000000000000000000000000000000000000000900463ffffffff168063013cf08b14620001985780630d66af7a146200034257806317bb51f014620003f85780631f8a3b741462000426578063227d9f6514620004d957806334684e5c146200056d578063422fd14e14620006035780634289cefe1462000631578063492ef9a0146200068157806349330cb814620006c5578063493da75314620007b55780634e13361c146200080f5780635c2930ad146200083f578063687702ac14620008c55780637a92b13714620008f3578063806c086014620009215780638c8e54fb1462000a2d5780638ddbeb071462000a715780638f8c4f631462000b3b578063973163181462000b55578063a556dfca1462000c05578063aa4204b41462000c7b578063c7f758a81462000d31578063cf83ea751462000edb578063d328e84d1462000f1f578063dff67f6b1462000f4d578063e558c05d1462001000578063ef2dccf01462001070578063faa4ea4e14620010e7575b600080fd5b348015620001a557600080fd5b50620001c66004803603810190808035906020019092919050505062001199565b604051808881526020018060200180602001806020018715151515815260200186815260200185815260200184810384528a818151815260200191508051906020019080838360005b838110156200022c5780820151818401526020810190506200020f565b50505050905090810190601f1680156200025a5780820380516001836020036101000a031916815260200191505b50848103835289818151815260200191508051906020019080838360005b838110156200029557808201518184015260208101905062000278565b50505050905090810190601f168015620002c35780820380516001836020036101000a031916815260200191505b50848103825288818151815260200191508051906020019080838360005b83811015620002fe578082015181840152602081019050620002e1565b50505050905090810190601f1680156200032c5780820380516001836020036101000a031916815260200191505b509a505050505050505050505060405180910390f35b3480156200034f57600080fd5b506200037a6004803603810190808035906020019092919080359060200190929190505050620013cc565b6040518080602001828103825283818151815260200191508051906020019080838360005b83811015620003bc5780820151818401526020810190506200039f565b50505050905090810190601f168015620003ea5780820380516001836020036101000a031916815260200191505b509250505060405180910390f35b3480156200040557600080fd5b50620004106200149e565b6040518082815260200191505060405180910390f35b3480156200043357600080fd5b506200045460048036038101908080359060200190929190505050620014ab565b6040518080602001838152602001828103825284818151815260200191508051906020019080838360005b838110156200049c5780820151818401526020810190506200047f565b50505050905090810190601f168015620004ca5780820380516001836020036101000a031916815260200191505b50935050505060405180910390f35b348015620004e657600080fd5b506200051d600480360381019080803573ffffffffffffffffffffffffffffffffffffffff16906020019092919050505062001583565b604051808473ffffffffffffffffffffffffffffffffffffffff1673ffffffffffffffffffffffffffffffffffffffff168152602001838152602001828152602001935050505060405180910390f35b3480156200057a57600080fd5b506200060160048036038101908080359060200190929190803590602001908201803590602001908080601f0160208091040260200160405190810160405280939291908181526020018383808284378201915050505050509192919290803573ffffffffffffffffffffffffffffffffffffffff1690602001909291905050506200181d565b005b3480156200061057600080fd5b506200061b62001b05565b6040518082815260200191505060405180910390f35b3480156200063e57600080fd5b506200067f600480360381019080803573ffffffffffffffffffffffffffffffffffffffff1690602001909291908035906020019092919050505062001b0b565b005b3480156200068e57600080fd5b50620006af6004803603810190808035906020019092919050505062001b53565b6040518082815260200191505060405180910390f35b348015620006d257600080fd5b50620006fd600480360381019080803590602001909291908035906020019092919050505062001b73565b604051808473ffffffffffffffffffffffffffffffffffffffff1673ffffffffffffffffffffffffffffffffffffffff16815260200180602001838152602001828103825284818151815260200191508051906020019080838360005b83811015620007775780820151818401526020810190506200075a565b50505050905090810190601f168015620007a55780820380516001836020036101000a031916815260200191505b5094505050505060405180910390f35b348015620007c257600080fd5b50620007f9600480360381019080803573ffffffffffffffffffffffffffffffffffffffff16906020019092919050505062001d1a565b6040518082815260200191505060405180910390f35b3480156200081c57600080fd5b506200083d6004803603810190808035906020019092919050505062001d32565b005b3480156200084c57600080fd5b5062000883600480360381019080803573ffffffffffffffffffffffffffffffffffffffff16906020019092919050505062001d3c565b604051808273ffffffffffffffffffffffffffffffffffffffff1673ffffffffffffffffffffffffffffffffffffffff16815260200191505060405180910390f35b348015620008d257600080fd5b50620008dd62001d6f565b6040518082815260200191505060405180910390f35b3480156200090057600080fd5b506200090b62001d75565b6040518082815260200191505060405180910390f35b3480156200092e57600080fd5b5062000a17600480360381019080803590602001908201803590602001908080601f0160208091040260200160405190810160405280939291908181526020018383808284378201915050505050509192919290803590602001908201803590602001908080601f0160208091040260200160405190810160405280939291908181526020018383808284378201915050505050509192919290803590602001908201803590602001908080601f016020809104026020016040519081016040528093929190818152602001838380828437820191505050505050919291929050505062001d82565b6040518082815260200191505060405180910390f35b34801562000a3a57600080fd5b5062000a5b6004803603810190808035906020019092919050505062001e54565b6040518082815260200191505060405180910390f35b34801562000a7e57600080fd5b5062000b21600480360381019080803590602001908201803590602001908080601f0160208091040260200160405190810160405280939291908181526020018383808284378201915050505050509192919290803590602001908201803590602001908080601f016020809104026020016040519081016040528093929190818152602001838380828437820191505050505050919291929050505062001e87565b604051808215151515815260200191505060405180910390f35b34801562000b4857600080fd5b5062000b5362001fd3565b005b34801562000b6257600080fd5b5062000bc3600480360381019080803573ffffffffffffffffffffffffffffffffffffffff16906020019092919080359060200190929190803573ffffffffffffffffffffffffffffffffffffffff16906020019092919050505062001fe7565b604051808273ffffffffffffffffffffffffffffffffffffffff1673ffffffffffffffffffffffffffffffffffffffff16815260200191505060405180910390f35b34801562000c1257600080fd5b5062000c7960048036038101908080359060200190929190803590602001908201803590602001908080601f016020809104026020016040519081016040528093929190818152602001838380828437820191505050505050919291929050505062002143565b005b34801562000c8857600080fd5b5062000cb3600480360381019080803590602001909291908035906020019092919050505062002199565b6040518080602001828103825283818151815260200191508051906020019080838360005b8381101562000cf557808201518184015260208101905062000cd8565b50505050905090810190601f16801562000d235780820380516001836020036101000a031916815260200191505b509250505060405180910390f35b34801562000d3e57600080fd5b5062000d5f6004803603810190808035906020019092919050505062002266565b604051808881526020018060200180602001806020018715151515815260200186815260200185815260200184810384528a818151815260200191508051906020019080838360005b8381101562000dc557808201518184015260208101905062000da8565b50505050905090810190601f16801562000df35780820380516001836020036101000a031916815260200191505b50848103835289818151815260200191508051906020019080838360005b8381101562000e2e57808201518184015260208101905062000e11565b50505050905090810190601f16801562000e5c5780820380516001836020036101000a031916815260200191505b50848103825288818151815260200191508051906020019080838360005b8381101562000e9757808201518184015260208101905062000e7a565b50505050905090810190601f16801562000ec55780820380516001836020036101000a031916815260200191505b509a505050505050505050505060405180910390f35b34801562000ee857600080fd5b5062000f0960048036038101908080359060200190929190505050620024ba565b6040518082815260200191505060405180910390f35b34801562000f2c57600080fd5b5062000f376200292a565b6040518082815260200191505060405180910390f35b34801562000f5a57600080fd5b5062000f7b6004803603810190808035906020019092919050505062002937565b6040518080602001838152602001828103825284818151815260200191508051906020019080838360005b8381101562000fc357808201518184015260208101905062000fa6565b50505050905090810190601f16801562000ff15780820380516001836020036101000a031916815260200191505b50935050505060405180910390f35b3480156200100d57600080fd5b506200102e6004803603810190808035906020019092919050505062002a07565b604051808273ffffffffffffffffffffffffffffffffffffffff1673ffffffffffffffffffffffffffffffffffffffff16815260200191505060405180910390f35b3480156200107d57600080fd5b506200109e6004803603810190808035906020019092919050505062002a46565b604051808373ffffffffffffffffffffffffffffffffffffffff1673ffffffffffffffffffffffffffffffffffffffff1681526020018281526020019250505060405180910390f35b348015620010f457600080fd5b5062001157600480360381019080803573ffffffffffffffffffffffffffffffffffffffff169060200190929190803515159060200190929190803573ffffffffffffffffffffffffffffffffffffffff16906020019092919050505062002b07565b604051808273ffffffffffffffffffffffffffffffffffffffff1673ffffffffffffffffffffffffffffffffffffffff16815260200191505060405180910390f35b600381815481101515620011a957fe5b9060005260206000209060090201600091509050806000015490806001018054600181600116156101000203166002900480601f0160208091040260200160405190810160405280929190818152602001828054600181600116156101000203166002900480156200125f5780601f1062001233576101008083540402835291602001916200125f565b820191906000526020600020905b8154815290600101906020018083116200124157829003601f168201915b505050505090806002018054600181600116156101000203166002900480601f016020809104026020016040519081016040528092919081815260200182805460018160011615610100020316600290048015620013015780601f10620012d55761010080835404028352916020019162001301565b820191906000526020600020905b815481529060010190602001808311620012e357829003601f168201915b505050505090806003018054600181600116156101000203166002900480601f016020809104026020016040519081016040528092919081815260200182805460018160011615610100020316600290048015620013a35780601f106200137757610100808354040283529160200191620013a3565b820191906000526020600020905b8154815290600101906020018083116200138557829003601f168201915b5050505050908060040160009054906101000a900460ff16908060050154908060060154905087565b60606001600084815260200190815260200160002082815481101515620013ef57fe5b906000526020600020018054600181600116156101000203166002900480601f016020809104026020016040519081016040528092919081815260200182805460018160011615610100020316600290048015620014915780601f10620014655761010080835404028352916020019162001491565b820191906000526020600020905b8154815290600101906020018083116200147357829003601f168201915b5050505050905092915050565b6000600280549050905090565b6060600080600584815481101515620014c057fe5b90600052602060002090600202019050806000018160010154818054600181600116156101000203166002900480601f016020809104026020016040519081016040528092919081815260200182805460018160011615610100020316600290048015620015725780601f10620015465761010080835404028352916020019162001572565b820191906000526020600020905b8154815290600101906020018083116200155457829003601f168201915b505050505091509250925050915091565b6000806000806000808673ffffffffffffffffffffffffffffffffffffffff1673ffffffffffffffffffffffffffffffffffffffff16815260200190815260200160002060009054906101000a900473ffffffffffffffffffffffffffffffffffffffff1690508073ffffffffffffffffffffffffffffffffffffffff1663e4128fb36040518163ffffffff167c0100000000000000000000000000000000000000000000000000000000028152600401602060405180830381600087803b1580156200164f57600080fd5b505af115801562001664573d6000803e3d6000fd5b505050506040513d60208110156200167b57600080fd5b81019080805190602001909291905050508173ffffffffffffffffffffffffffffffffffffffff166310055c1d6040518163ffffffff167c0100000000000000000000000000000000000000000000000000000000028152600401602060405180830381600087803b158015620016f157600080fd5b505af115801562001706573d6000803e3d6000fd5b505050506040513d60208110156200171d57600080fd5b8101908080519060200190929190505050600460008473ffffffffffffffffffffffffffffffffffffffff1663e4128fb36040518163ffffffff167c0100000000000000000000000000000000000000000000000000000000028152600401602060405180830381600087803b1580156200179757600080fd5b505af1158015620017ac573d6000803e3d6000fd5b505050506040513d6020811015620017c357600080fd5b810190808051906020019092919050505073ffffffffffffffffffffffffffffffffffffffff1673ffffffffffffffffffffffffffffffffffffffff16815260200190815260200160002054935093509350509193909250565b6000806003858154811015156200183057fe5b90600052602060002090600902019150600115158260080160008573ffffffffffffffffffffffffffffffffffffffff1673ffffffffffffffffffffffffffffffffffffffff16815260200190815260200160002060009054906101000a900460ff161515141515156200190c576040517f08c379a000000000000000000000000000000000000000000000000000000000815260040180806020018281038252601d8152602001807f546865207368617265686f6c64657220616c726561647920766f74656400000081525060200191505060405180910390fd5b81600701805480919060010162001924919062002c72565b90506060604051908101604052808473ffffffffffffffffffffffffffffffffffffffff168152602001858152602001600460008673ffffffffffffffffffffffffffffffffffffffff1673ffffffffffffffffffffffffffffffffffffffff168152602001908152602001600020548152508260070182815481101515620019a957fe5b906000526020600020906003020160008201518160000160006101000a81548173ffffffffffffffffffffffffffffffffffffffff021916908373ffffffffffffffffffffffffffffffffffffffff160217905550602082015181600101908051906020019062001a1c92919062002ca7565b506040820151816002015590505060018260080160008573ffffffffffffffffffffffffffffffffffffffff1673ffffffffffffffffffffffffffffffffffffffff16815260200190815260200160002060006101000a81548160ff021916908315150217905550816006016000815480929190600101919050555060028390806001815401808255809150509060018203906000526020600020016000909192909190916101000a81548173ffffffffffffffffffffffffffffffffffffffff021916908373ffffffffffffffffffffffffffffffffffffffff160217905550505050505050565b60075481565b80600460008473ffffffffffffffffffffffffffffffffffffffff1673ffffffffffffffffffffffffffffffffffffffff168152602001908152602001600020819055505050565b600060016000838152602001908152602001600020805490509050919050565b60006060600080600060038781548110151562001b8c57fe5b90600052602060002090600902019150816007018681548110151562001bae57fe5b90600052602060002090600302019050600073ffffffffffffffffffffffffffffffffffffffff168160000160009054906101000a900473ffffffffffffffffffffffffffffffffffffffff1673ffffffffffffffffffffffffffffffffffffffff16141562001c3c5760008060206040519081016040528060008152509080905094509450945062001d11565b8060000160009054906101000a900473ffffffffffffffffffffffffffffffffffffffff16816001018260020154818054600181600116156101000203166002900480601f01602080910402602001604051908101604052809291908181526020018280546001816001161561010002031660029004801562001d035780601f1062001cd75761010080835404028352916020019162001d03565b820191906000526020600020905b81548152906001019060200180831162001ce557829003601f168201915b505050505091509450945094505b50509250925092565b60046020528060005260406000206000915090505481565b8060068190555050565b60006020528060005260406000206000915054906101000a900473ffffffffffffffffffffffffffffffffffffffff1681565b60065481565b6000600580549050905090565b6000806003805480919060010162001d9b919062002d2e565b9150600360075481548110151562001daf57fe5b9060005260206000209060090201905060075481600001819055508481600101908051906020019062001de492919062002d63565b508381600201908051906020019062001dff92919062002d63565b508281600301908051906020019062001e1a92919062002d63565b5060008160040160006101000a81548160ff0219169083151502179055506000816005018190555060008160060181905550509392505050565b60008060038381548110151562001e6757fe5b906000526020600020906009020190508060070180549050915050919050565b6000808251845114151562001ea0576000915062001fcc565b600090505b835181101562001fc757828181518110151562001ebe57fe5b9060200101517f010000000000000000000000000000000000000000000000000000000000000090047f0100000000000000000000000000000000000000000000000000000000000000027effffffffffffffffffffffffffffffffffffffffffffffffffffffffffffff1916848281518110151562001f3a57fe5b9060200101517f010000000000000000000000000000000000000000000000000000000000000090047f0100000000000000000000000000000000000000000000000000000000000000027effffffffffffffffffffffffffffffffffffffffffffffffffffffffffffff191614151562001fb9576000915062001fcc565b808060010191505062001ea5565b600191505b5092915050565b600760008154809291906001019190505550565b6000808484308562001ff862002dea565b808573ffffffffffffffffffffffffffffffffffffffff1673ffffffffffffffffffffffffffffffffffffffff1681526020018481526020018373ffffffffffffffffffffffffffffffffffffffff1673ffffffffffffffffffffffffffffffffffffffff1681526020018273ffffffffffffffffffffffffffffffffffffffff1673ffffffffffffffffffffffffffffffffffffffff168152602001945050505050604051809103906000f080158015620020b8573d6000803e3d6000fd5b509050806000808773ffffffffffffffffffffffffffffffffffffffff1673ffffffffffffffffffffffffffffffffffffffff16815260200190815260200160002060006101000a81548173ffffffffffffffffffffffffffffffffffffffff021916908373ffffffffffffffffffffffffffffffffffffffff160217905550809150509392505050565b600160008381526020019081526020016000208190806001815401808255809150509060018203906000526020600020016000909192909190915090805190602001906200219392919062002d63565b50505050565b600160205281600052604060002081815481101515620021b557fe5b90600052602060002001600091509150508054600181600116156101000203166002900480601f0160208091040260200160405190810160405280929190818152602001828054600181600116156101000203166002900480156200225e5780601f1062002232576101008083540402835291602001916200225e565b820191906000526020600020905b8154815290600101906020018083116200224057829003601f168201915b505050505081565b600060608060606000806000806003898154811015156200228357fe5b9060005260206000209060090201905080600001548160010182600201836003018460040160009054906101000a900460ff1685600501548660060154858054600181600116156101000203166002900480601f016020809104026020016040519081016040528092919081815260200182805460018160011615610100020316600290048015620023595780601f106200232d5761010080835404028352916020019162002359565b820191906000526020600020905b8154815290600101906020018083116200233b57829003601f168201915b50505050509550848054600181600116156101000203166002900480601f016020809104026020016040519081016040528092919081815260200182805460018160011615610100020316600290048015620023f95780601f10620023cd57610100808354040283529160200191620023f9565b820191906000526020600020905b815481529060010190602001808311620023db57829003601f168201915b50505050509450838054600181600116156101000203166002900480601f016020809104026020016040519081016040528092919081815260200182805460018160011615610100020316600290048015620024995780601f106200246d5761010080835404028352916020019162002499565b820191906000526020600020905b8154815290600101906020018083116200247b57829003601f168201915b50505050509350975097509750975097509750975050919395979092949650565b6000806000806000806000600388815481101515620024d557fe5b90600052602060002090600902019550600094505b60016000898152602001908152602001600020805490508510156200283b57600580548091906001016200251f919062002dfb565b506040805190810160405280600160008b8152602001908152602001600020878154811015156200254c57fe5b906000526020600020018054600181600116156101000203166002900480601f016020809104026020016040519081016040528092919081815260200182805460018160011615610100020316600290048015620025ee5780601f10620025c257610100808354040283529160200191620025ee565b820191906000526020600020905b815481529060010190602001808311620025d057829003601f168201915b5050505050815260200160008152506005868154811015156200260d57fe5b906000526020600020906002020160008201518160000190805190602001906200263992919062002ca7565b5060208201518160010155905050600093505b85600701805490508410156200282d5785600701848154811015156200266e57fe5b90600052602060002090600302019250620027e7836001018054600181600116156101000203166002900480601f0160208091040260200160405190810160405280929190818152602001828054600181600116156101000203166002900480156200271e5780601f10620026f2576101008083540402835291602001916200271e565b820191906000526020600020905b8154815290600101906020018083116200270057829003601f168201915b50505050506005878154811015156200273357fe5b90600052602060002090600202016000018054600181600116156101000203166002900480601f016020809104026020016040519081016040528092919081815260200182805460018160011615610100020316600290048015620027dc5780601f10620027b057610100808354040283529160200191620027dc565b820191906000526020600020905b815481529060010190602001808311620027be57829003601f168201915b505050505062001e87565b156200281f57600585815481101515620027fd57fe5b9060005260206000209060020201600101600081548092919060010191905055505b83806001019450506200264c565b8480600101955050620024ea565b60009150600090505b600580549050811015620028af576005818154811015156200286257fe5b906000526020600020906002020160010154821015620028a1576005818154811015156200288c57fe5b90600052602060002090600202016001015491505b808060010191505062002844565b6006548660060154101515620028fe5760018660040160006101000a81548160ff0219169083151502179055506064866006015483811515620028ee57fe5b040286600501819055506200291c565b60008660040160006101000a81548160ff0219169083151502179055505b819650505050505050919050565b6000600380549050905090565b6005818154811015156200294757fe5b9060005260206000209060020201600091509050806000018054600181600116156101000203166002900480601f016020809104026020016040519081016040528092919081815260200182805460018160011615610100020316600290048015620029f75780601f10620029cb57610100808354040283529160200191620029f7565b820191906000526020600020905b815481529060010190602001808311620029d957829003601f168201915b5050505050908060010154905082565b60028181548110151562002a1757fe5b906000526020600020016000915054906101000a900473ffffffffffffffffffffffffffffffffffffffff1681565b60008060028381548110151562002a5957fe5b9060005260206000200160009054906101000a900473ffffffffffffffffffffffffffffffffffffffff166004600060028681548110151562002a9857fe5b9060005260206000200160009054906101000a900473ffffffffffffffffffffffffffffffffffffffff1673ffffffffffffffffffffffffffffffffffffffff1673ffffffffffffffffffffffffffffffffffffffff1681526020019081526020016000205491509150915091565b6000821562002bc057838383600062002b1f62002e30565b808573ffffffffffffffffffffffffffffffffffffffff1673ffffffffffffffffffffffffffffffffffffffff168152602001841515151581526020018373ffffffffffffffffffffffffffffffffffffffff1673ffffffffffffffffffffffffffffffffffffffff168152602001828152602001945050505050604051809103906000f08015801562002bb7573d6000803e3d6000fd5b50905062002c6b565b838383600162002bcf62002e30565b808573ffffffffffffffffffffffffffffffffffffffff1673ffffffffffffffffffffffffffffffffffffffff168152602001841515151581526020018373ffffffffffffffffffffffffffffffffffffffff1673ffffffffffffffffffffffffffffffffffffffff168152602001828152602001945050505050604051809103906000f08015801562002c67573d6000803e3d6000fd5b5090505b9392505050565b81548183558181111562002ca25760030281600302836000526020600020918201910162002ca1919062002e41565b5b505050565b828054600181600116156101000203166002900490600052602060002090601f016020900481019282601f1062002cea57805160ff191683800117855562002d1b565b8280016001018555821562002d1b579182015b8281111562002d1a57825182559160200191906001019062002cfd565b5b50905062002d2a919062002ea4565b5090565b81548183558181111562002d5e5760090281600902836000526020600020918201910162002d5d919062002ecc565b5b505050565b828054600181600116156101000203166002900490600052602060002090601f016020900481019282601f1062002da657805160ff191683800117855562002dd7565b8280016001018555821562002dd7579182015b8281111562002dd657825182559160200191906001019062002db9565b5b50905062002de6919062002ea4565b5090565b604051612781806200301183390190565b81548183558181111562002e2b5760020281600202836000526020600020918201910162002e2a919062002f62565b5b505050565b604051610823806200579283390190565b62002ea191905b8082111562002e9d57600080820160006101000a81549073ffffffffffffffffffffffffffffffffffffffff021916905560018201600062002e8b919062002f9e565b60028201600090555060030162002e48565b5090565b90565b62002ec991905b8082111562002ec557600081600090555060010162002eab565b5090565b90565b62002f5f91905b8082111562002f5b5760008082016000905560018201600062002ef7919062002f9e565b60028201600062002f09919062002f9e565b60038201600062002f1b919062002f9e565b6004820160006101000a81549060ff02191690556005820160009055600682016000905560078201600062002f51919062002fea565b5060090162002ed3565b5090565b90565b62002f9b91905b8082111562002f97576000808201600062002f85919062002f9e565b60018201600090555060020162002f69565b5090565b90565b50805460018160011615610100020316600290046000825580601f1062002fc6575062002fe7565b601f01602090049060005260206000209081019062002fe6919062002ea4565b5b50565b50805460008255600302906000526020600020908101906200300d919062002e41565b50560060806040523480156200001157600080fd5b5060405160808062002781833981018060405281019080805190602001909291908051906020019092919080519060200190929190805190602001909291905050508360026000826000806101000a81548173ffffffffffffffffffffffffffffffffffffffff021916908373ffffffffffffffffffffffffffffffffffffffff160217905550816002811115620000a557fe5b60018190555080600260006101000a81548160ff02191690831515021790555050505081600260016101000a81548173ffffffffffffffffffffffffffffffffffffffff021916908373ffffffffffffffffffffffffffffffffffffffff16021790555080600360006101000a81548173ffffffffffffffffffffffffffffffffffffffff021916908373ffffffffffffffffffffffffffffffffffffffff160217905550600260019054906101000a900473ffffffffffffffffffffffffffffffffffffffff1673ffffffffffffffffffffffffffffffffffffffff16634289cefe85856040518363ffffffff167c0100000000000000000000000000000000000000000000000000000000028152600401808373ffffffffffffffffffffffffffffffffffffffff1673ffffffffffffffffffffffffffffffffffffffff16815260200182815260200192505050600060405180830381600087803b1580156200021057600080fd5b505af115801562000225573d6000803e3d6000fd5b505050507fd513e2b4088d8859035626590168845dea442d4ef553b9919b702351678cc47184600260019054906101000a900473ffffffffffffffffffffffffffffffffffffffff1673ffffffffffffffffffffffffffffffffffffffff1663493da753876040518263ffffffff167c0100000000000000000000000000000000000000000000000000000000028152600401808273ffffffffffffffffffffffffffffffffffffffff1673ffffffffffffffffffffffffffffffffffffffff168152602001915050602060405180830381600087803b1580156200030957600080fd5b505af11580156200031e573d6000803e3d6000fd5b505050506040513d60208110156200033557600080fd5b8101908080519060200190929190505050604051808373ffffffffffffffffffffffffffffffffffffffff1673ffffffffffffffffffffffffffffffffffffffff1681526020018281526020019250505060405180910390a1505050506123df80620003a26000396000f3006080604052600436106100d0576000357c0100000000000000000000000000000000000000000000000000000000900463ffffffff16806310055c1d146100d55780632236684414610100578063241084751461012f578063520313fe146101a25780635d30e84d146101e35780638af3fddf14610250578063ab423945146102a7578063ae2dac1a14610300578063c0358d981461032f578063c3b3147214610366578063c4336c1c146103bd578063dffc8b2e14610431578063e4128fb3146104f4578063f1c7cfb31461054b575b600080fd5b3480156100e157600080fd5b506100ea610585565b6040518082815260200191505060405180910390f35b34801561010c57600080fd5b5061011561058b565b604051808215151515815260200191505060405180910390f35b34801561013b57600080fd5b506101a060048036038101908080359060200190929190803590602001908201803590602001908080601f016020809104026020016040519081016040528093929190818152602001838380828437820191505050505050919291929050505061059e565b005b3480156101ae57600080fd5b506101cd600480360381019080803590602001909291905050506108fb565b6040518082815260200191505060405180910390f35b3480156101ef57600080fd5b5061020e6004803603810190808035906020019092919050505061091e565b604051808273ffffffffffffffffffffffffffffffffffffffff1673ffffffffffffffffffffffffffffffffffffffff16815260200191505060405180910390f35b34801561025c57600080fd5b50610265610951565b604051808273ffffffffffffffffffffffffffffffffffffffff1673ffffffffffffffffffffffffffffffffffffffff16815260200191505060405180910390f35b3480156102b357600080fd5b506102fe600480360381019080803573ffffffffffffffffffffffffffffffffffffffff16906020019092919080351515906020019092919080359060200190929190505050610977565b005b34801561030c57600080fd5b5061032d600480360381019080803515159060200190929190505050611577565b005b34801561033b57600080fd5b506103646004803603810190808035906020019092919080359060200190929190505050611594565b005b34801561037257600080fd5b5061037b611c5a565b604051808273ffffffffffffffffffffffffffffffffffffffff1673ffffffffffffffffffffffffffffffffffffffff16815260200191505060405180910390f35b3480156103c957600080fd5b506103e860048036038101908080359060200190929190505050611c80565b604051808373ffffffffffffffffffffffffffffffffffffffff1673ffffffffffffffffffffffffffffffffffffffff1681526020018281526020019250505060405180910390f35b34801561043d57600080fd5b506104de600480360381019080803590602001908201803590602001908080601f0160208091040260200160405190810160405280939291908181526020018383808284378201915050505050509192919290803590602001908201803590602001908080601f0160208091040260200160405190810160405280939291908181526020018383808284378201915050505050509192919290505050611cd3565b6040518082815260200191505060405180910390f35b34801561050057600080fd5b50610509612035565b604051808273ffffffffffffffffffffffffffffffffffffffff1673ffffffffffffffffffffffffffffffffffffffff16815260200191505060405180910390f35b34801561055757600080fd5b5061058360048036038101908080359060200190929190803560ff16906020019092919050505061205a565b005b60015481565b600260009054906101000a900460ff1681565b60023073ffffffffffffffffffffffffffffffffffffffff166310055c1d6040518163ffffffff167c0100000000000000000000000000000000000000000000000000000000028152600401602060405180830381600087803b15801561060457600080fd5b505af1158015610618573d6000803e3d6000fd5b505050506040513d602081101561062e57600080fd5b81019080805190602001909291905050501415156106b4576040517f08c379a00000000000000000000000000000000000000000000000000000000081526004018080602001828103825260198152602001807f55736572206973206e6f742061207368617265686f6c6465720000000000000081525060200191505060405180910390fd5b600260019054906101000a900473ffffffffffffffffffffffffffffffffffffffff1673ffffffffffffffffffffffffffffffffffffffff166334684e5c8383336040518463ffffffff167c010000000000000000000000000000000000000000000000000000000002815260040180848152602001806020018373ffffffffffffffffffffffffffffffffffffffff1673ffffffffffffffffffffffffffffffffffffffff168152602001828103825284818151815260200191508051906020019080838360005b8381101561079857808201518184015260208101905061077d565b50505050905090810190601f1680156107c55780820380516001836020036101000a031916815260200191505b50945050505050600060405180830381600087803b1580156107e657600080fd5b505af11580156107fa573d6000803e3d6000fd5b505050507f497ac9c2d8b6e7ea7204365157d9642f36d2b6125352bfa6d0a73328142d0bd96000809054906101000a900473ffffffffffffffffffffffffffffffffffffffff168383604051808473ffffffffffffffffffffffffffffffffffffffff1673ffffffffffffffffffffffffffffffffffffffff16815260200183815260200180602001828103825283818151815260200191508051906020019080838360005b838110156108bb5780820151818401526020810190506108a0565b50505050905090810190601f1680156108e85780820380516001836020036101000a031916815260200191505b5094505050505060405180910390a15050565b60048181548110151561090a57fe5b906000526020600020016000915090505481565b60066020528060005260406000206000915054906101000a900473ffffffffffffffffffffffffffffffffffffffff1681565b600360009054906101000a900473ffffffffffffffffffffffffffffffffffffffff1681565b60008060008060023073ffffffffffffffffffffffffffffffffffffffff166310055c1d6040518163ffffffff167c0100000000000000000000000000000000000000000000000000000000028152600401602060405180830381600087803b1580156109e357600080fd5b505af11580156109f7573d6000803e3d6000fd5b505050506040513d6020811015610a0d57600080fd5b8101908080519060200190929190505050141515610a93576040517f08c379a00000000000000000000000000000000000000000000000000000000081526004018080602001828103825260198152602001807f55736572206973206e6f742061207368617265686f6c6465720000000000000081525060200191505060405180910390fd5b6000600260019054906101000a900473ffffffffffffffffffffffffffffffffffffffff1673ffffffffffffffffffffffffffffffffffffffff1663493da753336040518263ffffffff167c0100000000000000000000000000000000000000000000000000000000028152600401808273ffffffffffffffffffffffffffffffffffffffff1673ffffffffffffffffffffffffffffffffffffffff168152602001915050602060405180830381600087803b158015610b5257600080fd5b505af1158015610b66573d6000803e3d6000fd5b505050506040513d6020811015610b7c57600080fd5b810190808051906020019092919050505010151515610c29576040517f08c379a00000000000000000000000000000000000000000000000000000000081526004018080602001828103825260288152602001807f53656e64657220646f6573206e6f74206f776e20656e6f75676820766f74696e81526020017f6720746f6b656e7300000000000000000000000000000000000000000000000081525060400191505060405180910390fd5b600260019054906101000a900473ffffffffffffffffffffffffffffffffffffffff1673ffffffffffffffffffffffffffffffffffffffff1663493da753336040518263ffffffff167c0100000000000000000000000000000000000000000000000000000000028152600401808273ffffffffffffffffffffffffffffffffffffffff1673ffffffffffffffffffffffffffffffffffffffff168152602001915050602060405180830381600087803b158015610ce657600080fd5b505af1158015610cfa573d6000803e3d6000fd5b505050506040513d6020811015610d1057600080fd5b81019080805190602001909291905050509350851561116357600060048054905014151515610df3576040517f08c379a00000000000000000000000000000000000000000000000000000000081526004018080602001828103825260508152602001807f7368617265686f6c6465722063616e6e6f742064656c6567617465207061727481526020017f69616c6c79206265636175736520686520646f6573206e6f742064656e6f6d6981526020017f6e6174656420686973207368617265730000000000000000000000000000000081525060600191505060405180910390fd5b600460018603815481101515610e0557fe5b90600052602060002001549250600460018603815481101515610e2457fe5b906000526020600020016000905582600260019054906101000a900473ffffffffffffffffffffffffffffffffffffffff1673ffffffffffffffffffffffffffffffffffffffff1663493da753896040518263ffffffff167c0100000000000000000000000000000000000000000000000000000000028152600401808273ffffffffffffffffffffffffffffffffffffffff1673ffffffffffffffffffffffffffffffffffffffff168152602001915050602060405180830381600087803b158015610ef057600080fd5b505af1158015610f04573d6000803e3d6000fd5b505050506040513d6020811015610f1a57600080fd5b8101908080519060200190929190505050019150600260019054906101000a900473ffffffffffffffffffffffffffffffffffffffff1673ffffffffffffffffffffffffffffffffffffffff16634289cefe88846040518363ffffffff167c0100000000000000000000000000000000000000000000000000000000028152600401808373ffffffffffffffffffffffffffffffffffffffff1673ffffffffffffffffffffffffffffffffffffffff16815260200182815260200192505050600060405180830381600087803b158015610ff357600080fd5b505af1158015611007573d6000803e3d6000fd5b50505050600560408051908101604052808973ffffffffffffffffffffffffffffffffffffffff168152602001858152509080600181540180825580915050906001820390600052602060002090600202016000909192909190915060008201518160000160006101000a81548173ffffffffffffffffffffffffffffffffffffffff021916908373ffffffffffffffffffffffffffffffffffffffff160217905550602082015181600101555050507fcddcdb1cb6bb8ba24e33ffa13f7edb9820fa7dd105013832e025fd94362e252033858986604051808573ffffffffffffffffffffffffffffffffffffffff1673ffffffffffffffffffffffffffffffffffffffff1681526020018481526020018373ffffffffffffffffffffffffffffffffffffffff1673ffffffffffffffffffffffffffffffffffffffff16815260200182815260200194505050505060405180910390a161156e565b600260019054906101000a900473ffffffffffffffffffffffffffffffffffffffff1673ffffffffffffffffffffffffffffffffffffffff16634289cefe3360006040518363ffffffff167c0100000000000000000000000000000000000000000000000000000000028152600401808373ffffffffffffffffffffffffffffffffffffffff1673ffffffffffffffffffffffffffffffffffffffff16815260200182815260200192505050600060405180830381600087803b15801561122957600080fd5b505af115801561123d573d6000803e3d6000fd5b5050505083600260019054906101000a900473ffffffffffffffffffffffffffffffffffffffff1673ffffffffffffffffffffffffffffffffffffffff1663493da753896040518263ffffffff167c0100000000000000000000000000000000000000000000000000000000028152600401808273ffffffffffffffffffffffffffffffffffffffff1673ffffffffffffffffffffffffffffffffffffffff168152602001915050602060405180830381600087803b1580156112ff57600080fd5b505af1158015611313573d6000803e3d6000fd5b505050506040513d602081101561132957600080fd5b8101908080519060200190929190505050019050600260019054906101000a900473ffffffffffffffffffffffffffffffffffffffff1673ffffffffffffffffffffffffffffffffffffffff16634289cefe88836040518363ffffffff167c0100000000000000000000000000000000000000000000000000000000028152600401808373ffffffffffffffffffffffffffffffffffffffff1673ffffffffffffffffffffffffffffffffffffffff16815260200182815260200192505050600060405180830381600087803b15801561140257600080fd5b505af1158015611416573d6000803e3d6000fd5b50505050600560408051908101604052808973ffffffffffffffffffffffffffffffffffffffff168152602001868152509080600181540180825580915050906001820390600052602060002090600202016000909192909190915060008201518160000160006101000a81548173ffffffffffffffffffffffffffffffffffffffff021916908373ffffffffffffffffffffffffffffffffffffffff160217905550602082015181600101555050507f125eca0cb4389ce77b3681b7aa6850ee18cd61799d301a94730a3624042fbb8e33858984604051808573ffffffffffffffffffffffffffffffffffffffff1673ffffffffffffffffffffffffffffffffffffffff1681526020018481526020018373ffffffffffffffffffffffffffffffffffffffff1673ffffffffffffffffffffffffffffffffffffffff16815260200182815260200194505050505060405180910390a15b50505050505050565b80600260006101000a81548160ff02191690831515021790555050565b60008060008060023073ffffffffffffffffffffffffffffffffffffffff166310055c1d6040518163ffffffff167c0100000000000000000000000000000000000000000000000000000000028152600401602060405180830381600087803b15801561160057600080fd5b505af1158015611614573d6000803e3d6000fd5b505050506040513d602081101561162a57600080fd5b81019080805190602001909291905050501415156116b0576040517f08c379a00000000000000000000000000000000000000000000000000000000081526004018080602001828103825260198152602001807f55736572206973206e6f742061207368617265686f6c6465720000000000000081525060200191505060405180910390fd5b600260019054906101000a900473ffffffffffffffffffffffffffffffffffffffff1673ffffffffffffffffffffffffffffffffffffffff1663493da753336040518263ffffffff167c0100000000000000000000000000000000000000000000000000000000028152600401808273ffffffffffffffffffffffffffffffffffffffff1673ffffffffffffffffffffffffffffffffffffffff168152602001915050602060405180830381600087803b15801561176d57600080fd5b505af1158015611781573d6000803e3d6000fd5b505050506040513d602081101561179757600080fd5b81019080805190602001909291905050509350600085141580156117bc575060008614155b156119b6578585028410151515611887576040517f08c379a00000000000000000000000000000000000000000000000000000000081526004018080602001828103825260418152602001807f73656e64657220686173206e6f7420656e6f75676820766f74696e672077656981526020017f67687420666f7220666163746f722d62617365642064656e6f6d696e6174696f81526020017f6e0000000000000000000000000000000000000000000000000000000000000081525060600191505060405180910390fd5b600091505b858210156118cd576004859080600181540180825580915050906001820390600052602060002001600090919290919091505550818060010192505061188c565b85850284039250600260019054906101000a900473ffffffffffffffffffffffffffffffffffffffff1673ffffffffffffffffffffffffffffffffffffffff16634289cefe33856040518363ffffffff167c0100000000000000000000000000000000000000000000000000000000028152600401808373ffffffffffffffffffffffffffffffffffffffff1673ffffffffffffffffffffffffffffffffffffffff16815260200182815260200192505050600060405180830381600087803b15801561199957600080fd5b505af11580156119ad573d6000803e3d6000fd5b50505050611c52565b600086141580156119c75750600085145b15611b97578584111515611a69576040517f08c379a00000000000000000000000000000000000000000000000000000000081526004018080602001828103825260298152602001807f73656e64657220646f6573206e6f74206861766520656e6f75676820766f746981526020017f6e6720776569676874000000000000000000000000000000000000000000000081525060400191505060405180910390fd5b600090505b85811015611ab0576004600190806001815401808255809150509060018203906000526020600020016000909192909190915055508080600101915050611a6e565b8584039250600260019054906101000a900473ffffffffffffffffffffffffffffffffffffffff1673ffffffffffffffffffffffffffffffffffffffff16634289cefe33856040518363ffffffff167c0100000000000000000000000000000000000000000000000000000000028152600401808373ffffffffffffffffffffffffffffffffffffffff1673ffffffffffffffffffffffffffffffffffffffff16815260200182815260200192505050600060405180830381600087803b158015611b7a57600080fd5b505af1158015611b8e573d6000803e3d6000fd5b50505050611c51565b6040517f08c379a00000000000000000000000000000000000000000000000000000000081526004018080602001828103825260458152602001807f44656e6f6d696e6174696f6e206661696c65642e20506c65617365206368656381526020017f6b2074686520706172616d7320666f7220636f72726563742064656e6f6d696e81526020017f6174696f6e00000000000000000000000000000000000000000000000000000081525060600191505060405180910390fd5b5b505050505050565b600260019054906101000a900473ffffffffffffffffffffffffffffffffffffffff1681565b600581815481101515611c8f57fe5b90600052602060002090600202016000915090508060000160009054906101000a900473ffffffffffffffffffffffffffffffffffffffff16908060010154905082565b600060023073ffffffffffffffffffffffffffffffffffffffff166310055c1d6040518163ffffffff167c0100000000000000000000000000000000000000000000000000000000028152600401602060405180830381600087803b158015611d3b57600080fd5b505af1158015611d4f573d6000803e3d6000fd5b505050506040513d6020811015611d6557600080fd5b8101908080519060200190929190505050141515611deb576040517f08c379a00000000000000000000000000000000000000000000000000000000081526004018080602001828103825260198152602001807f55736572206973206e6f742061207368617265686f6c6465720000000000000081525060200191505060405180910390fd5b600360009054906101000a900473ffffffffffffffffffffffffffffffffffffffff1673ffffffffffffffffffffffffffffffffffffffff1663a17d04dd84846040518363ffffffff167c0100000000000000000000000000000000000000000000000000000000028152600401808060200180602001838103835285818151815260200191508051906020019080838360005b83811015611e9a578082015181840152602081019050611e7f565b50505050905090810190601f168015611ec75780820380516001836020036101000a031916815260200191505b50838103825284818151815260200191508051906020019080838360005b83811015611f00578082015181840152602081019050611ee5565b50505050905090810190601f168015611f2d5780820380516001836020036101000a031916815260200191505b50945050505050602060405180830381600087803b158015611f4e57600080fd5b505af1158015611f62573d6000803e3d6000fd5b505050506040513d6020811015611f7857600080fd5b810190808051906020019092919050505090507fa5fbefdc56bf0d2d586a82a9f50784dfe29ae6d3cfe3e0491131259d4f2042ee81836040518083815260200180602001828103825283818151815260200191508051906020019080838360005b83811015611ff4578082015181840152602081019050611fd9565b50505050905090810190601f1680156120215780820380516001836020036101000a031916815260200191505b50935050505060405180910390a192915050565b6000809054906101000a900473ffffffffffffffffffffffffffffffffffffffff1681565b60023073ffffffffffffffffffffffffffffffffffffffff166310055c1d6040518163ffffffff167c0100000000000000000000000000000000000000000000000000000000028152600401602060405180830381600087803b1580156120c057600080fd5b505af11580156120d4573d6000803e3d6000fd5b505050506040513d60208110156120ea57600080fd5b8101908080519060200190929190505050141515612170576040517f08c379a00000000000000000000000000000000000000000000000000000000081526004018080602001828103825260198152602001807f55736572206973206e6f742061207368617265686f6c6465720000000000000081525060200191505060405180910390fd5b600073ffffffffffffffffffffffffffffffffffffffff166006600084815260200190815260200160002060009054906101000a900473ffffffffffffffffffffffffffffffffffffffff1673ffffffffffffffffffffffffffffffffffffffff1614151561226d576040517f08c379a000000000000000000000000000000000000000000000000000000000815260040180806020018281038252602f8152602001807f546865207368617265686f6c6465722068617320616c7265616479207261746581526020017f642074686973207175657374696f6e000000000000000000000000000000000081525060400191505060405180910390fd5b600360009054906101000a900473ffffffffffffffffffffffffffffffffffffffff1673ffffffffffffffffffffffffffffffffffffffff16637c258334838360018111156122b857fe5b336040518463ffffffff167c0100000000000000000000000000000000000000000000000000000000028152600401808481526020018381526020018273ffffffffffffffffffffffffffffffffffffffff1673ffffffffffffffffffffffffffffffffffffffff1681526020019350505050600060405180830381600087803b15801561234557600080fd5b505af1158015612359573d6000803e3d6000fd5b50505050336006600084815260200190815260200160002060006101000a81548173ffffffffffffffffffffffffffffffffffffffff021916908373ffffffffffffffffffffffffffffffffffffffff16021790555050505600a165627a7a723058206c4bfc649206b55b26dff96478276268cb23651b3c99750398a6e1ec500b76120029608060405234801561001057600080fd5b50604051608080610823833981018060405281019080805190602001909291908051906020019092919080519060200190929190805190602001909291905050508381600281111561005e57fe5b6000826000806101000a81548173ffffffffffffffffffffffffffffffffffffffff021916908373ffffffffffffffffffffffffffffffffffffffff1602179055508160028111156100ac57fe5b60018190555080600260006101000a81548160ff02191690831515021790555050505082600260156101000a81548160ff02191690831515021790555081600260016101000a81548173ffffffffffffffffffffffffffffffffffffffff021916908373ffffffffffffffffffffffffffffffffffffffff160217905550505050506106e68061013d6000396000f300608060405260043610610083576000357c0100000000000000000000000000000000000000000000000000000000900463ffffffff16806310055c1d146100885780631aea6257146100b357806322366844146100e25780638af3fddf146101115780638f08356c14610168578063ae2dac1a14610235578063e4128fb314610264575b600080fd5b34801561009457600080fd5b5061009d6102bb565b6040518082815260200191505060405180910390f35b3480156100bf57600080fd5b506100c86102c1565b604051808215151515815260200191505060405180910390f35b3480156100ee57600080fd5b506100f76102d4565b604051808215151515815260200191505060405180910390f35b34801561011d57600080fd5b506101266102e7565b604051808273ffffffffffffffffffffffffffffffffffffffff1673ffffffffffffffffffffffffffffffffffffffff16815260200191505060405180910390f35b34801561017457600080fd5b5061021f60048036038101908080359060200190929190803590602001908201803590602001908080601f0160208091040260200160405190810160405280939291908181526020018383808284378201915050505050509192919290803590602001908201803590602001908080601f016020809104026020016040519081016040528093929190818152602001838380828437820191505050505050919291929050505061030d565b6040518082815260200191505060405180910390f35b34801561024157600080fd5b50610262600480360381019080803515159060200190929190505050610678565b005b34801561027057600080fd5b50610279610695565b604051808273ffffffffffffffffffffffffffffffffffffffff1673ffffffffffffffffffffffffffffffffffffffff16815260200191505060405180910390f35b60015481565b600260159054906101000a900460ff1681565b600260009054906101000a900460ff1681565b600260019054906101000a900473ffffffffffffffffffffffffffffffffffffffff1681565b600060013073ffffffffffffffffffffffffffffffffffffffff166310055c1d6040518163ffffffff167c0100000000000000000000000000000000000000000000000000000000028152600401602060405180830381600087803b15801561037557600080fd5b505af1158015610389573d6000803e3d6000fd5b505050506040513d602081101561039f57600080fd5b8101908080519060200190929190505050141515610425576040517f08c379a000000000000000000000000000000000000000000000000000000000815260040180806020018281038252601a8152602001807f5468652075736572206973206e6f742061206469726563746f7200000000000081525060200191505060405180910390fd5b600260019054906101000a900473ffffffffffffffffffffffffffffffffffffffff1673ffffffffffffffffffffffffffffffffffffffff16631eeb6f5c8585856040518463ffffffff167c0100000000000000000000000000000000000000000000000000000000028152600401808481526020018060200180602001838103835285818151815260200191508051906020019080838360005b838110156104db5780820151818401526020810190506104c0565b50505050905090810190601f1680156105085780820380516001836020036101000a031916815260200191505b50838103825284818151815260200191508051906020019080838360005b83811015610541578082015181840152602081019050610526565b50505050905090810190601f16801561056e5780820380516001836020036101000a031916815260200191505b5095505050505050602060405180830381600087803b15801561059057600080fd5b505af11580156105a4573d6000803e3d6000fd5b505050506040513d60208110156105ba57600080fd5b810190808051906020019092919050505090507fdd9e59769d67c812e02119ca036fd42212887b9d7873fd602296d02cf9dd52b481836040518083815260200180602001828103825283818151815260200191508051906020019080838360005b8381101561063657808201518184015260208101905061061b565b50505050905090810190601f1680156106635780820380516001836020036101000a031916815260200191505b50935050505060405180910390a19392505050565b80600260006101000a81548160ff02191690831515021790555050565b6000809054906101000a900473ffffffffffffffffffffffffffffffffffffffff16815600a165627a7a7230582041ceb59f1b2f8c048153a203683231d099a7957f052190f81e1a32f6707c39520029a165627a7a72305820d42c6d23cac4cb6ea1f5179fa4cca7d4eea49e75c9f79b14e2e678b75654634b0029",
  "source": "pragma solidity^ 0.4.23;\n\nimport \"./User.sol\";\nimport \"./Director.sol\";\nimport \"./Shareholder.sol\";\nimport \"./ProposalData.sol\";\nimport \"./QandA.sol\";\nimport \"./AgmOwner.sol\";\n\n/**\n*   @title factory for creating different users according to their role\n*          stores also the proposals and voting weights which can be accessed by other user contracts\n*/\ncontract Factory is ProposalData {\n\n    // stores a shareholder object to a specific user address\n    mapping(address => Shareholder) public shareholders;\n    // stores all available voting options for a specific proposal\n    mapping(uint => string[]) public propToOptMapping;\n    // stores all shareholders who casted their vote\n    address[] public votingShareholders;\n    // stores all proposals\n    Proposal[] public proposals;\n    // stores the voting weight of every user\n    mapping(address => uint) public votingWeights;\n    // stores the number of votes for a specific voting option\n    VotingOption[] public votingOptions;\n    // determines the minimum number of votes per proposal which is required to compute the tally and statistic\n    uint public minimumVotingQuorum;\n    // for incrementing the proposal id to assign the options the right proposal\n    uint public propId = 0;\n\n    struct VotingOption {\n        string optionName;\n        uint optionCount;\n    }\n\n    /**\n    *   @dev getters and setters\n    */\n\n    function setVote(uint proposalId, string votingOption, address sender) public {\n        Proposal storage prop = proposals[proposalId];\n        require(prop.votedOnProposal[sender] != true, \"The shareholder already voted\");\n        uint voteId = prop.votes.length++;\n        // the shareholder weight is stored within the vote\n        prop.votes[voteId] = Vote({\n            voterAddress: sender,\n            voterDecision: votingOption,\n            voterWeight: votingWeights[sender]}\n        );\n        // the shareholder is marked that he voted on this proposal\n        prop.votedOnProposal[sender] = true;\n        prop.voteCount++;\n        // the shareholder is appended to the list of voters\n        votingShareholders.push(sender);\n    }\n\n    function setVotingWeight(address userAddress, uint weight) public {\n        votingWeights[userAddress] = weight;\n    }\n\n    function setMinimumVotingQuorum(uint quorum) public {\n        minimumVotingQuorum = quorum;\n    }\n\n    function getNumOfProposals() public view returns (uint length) {\n        return proposals.length;\n    }\n\n    function getProposal(uint proposalId) public view returns (\n        uint _proposalId,\n        string _name,\n        string description,\n        string _options,\n        bool _proposalPassed,\n        uint _passedPercent,\n        uint _voteCount\n    ) {\n        Proposal storage proposal = proposals[proposalId];\n        return\n        (proposal.proposalId, proposal.name, proposal.description, proposal.options, proposal.proposalPassed, proposal.passedPercent, proposal.voteCount);\n    }\n\n    function getVote(uint proposalID, uint voteId) public view returns (address user, string option, uint weight) {\n        Proposal storage proposal = proposals[proposalID];\n        Vote storage v = proposal.votes[voteId];\n        if (v.voterAddress == address(0)) {\n            return (address(0), \"\", 0);\n        }\n        return (v.voterAddress, v.voterDecision, v.voterWeight);\n    }\n\n    function getNumOfVotes(uint proposalId) public view returns (uint length) {\n        Proposal storage proposal = proposals[proposalId];\n        return proposal.votes.length;\n    }\n\n    function getShareholder(address shAdr) public view returns (\n        address _userAddress,\n        uint _role,\n        uint _shares\n    ) {\n        Shareholder sh = shareholders[shAdr];\n        return\n            (sh.userAddress(), sh.role(), votingWeights[sh.userAddress()]);\n    }\n\n    function getVotingOption(uint optionId) public view returns (string votingOption, uint votingCount) {\n        VotingOption storage votOpt = votingOptions[optionId];\n        return (votOpt.optionName, votOpt.optionCount);\n    }\n\n    function getNumOfVotingOptions() public view returns (uint length) {\n        return votingOptions.length;\n    }\n\n    function getWeightOfShareholder(uint shareholderId) public view returns (address adr, uint weight) {\n        return (votingShareholders[shareholderId], \n            votingWeights[votingShareholders[shareholderId]]);\n    }\n\n    function getNumOfVotingShareholders() public view returns (uint length) {\n        return votingShareholders.length;\n    }\n\n    function getOptionsLengthForProposal(uint proposalId) public view returns (uint length) {\n        return propToOptMapping[proposalId].length;\n    }\n\n    function getPropOptions(uint proposalId, uint optId) public view returns (string opt) {\n        return propToOptMapping[proposalId][optId];\n    }\n\n    /**\n    *   @dev factory method to create a new shareholder\n    *   @param _userAddress address of the user\n    *   @param weight voting weight = number of shares of the user\n    *   @param qa reference to access the Q&A lists\n    *   @return sh a new Shareholder object \n    */\n    function createNewShareholder(address _userAddress, uint weight, QandA qa) public returns (Shareholder) {\n        Shareholder sh = new Shareholder(_userAddress, weight, this, qa);\n        shareholders[_userAddress] = sh;\n        return sh;\n    }\n\n    /**\n    *   @dev factory method to create a new director\n    *   @param _userAddress address of the user\n    *   @param isAdministrator indicated whether the director has admin rights\n    *   @param qa reference to access the Q&A lists\n    *   @return d a new Director object\n    */\n    function createNewDirector(address _userAddress, bool isAdministrator, QandA qa) public returns (Director) {\n        if (isAdministrator) {\n            return new Director(_userAddress, isAdministrator, qa, 0);\n        } else {\n            return new Director(_userAddress, isAdministrator, qa, 1);\n        }\n        \n    }\n\n    /**\n    *   @dev factory method to create a new proposal\n    *   @param _name name of the proposal\n    *   @param _description description of the proposal\n    *   @param _options voting options of the proposal\n    *   @return proposalId the id of the new created proposal\n    */\n    function createNewProposal(string _name, string _description, string _options) public returns (uint proposalId) {\n        proposalId = proposals.length++;\n        Proposal storage proposal = proposals[propId];\n        proposal.proposalId = propId;\n        proposal.name = _name;\n        proposal.description = _description;\n        proposal.options = _options;\n        proposal.proposalPassed = false;\n        proposal.passedPercent = 0;\n        proposal.voteCount = 0;\n    }\n\n    /**\n    *   @dev increment the proposal id \n    */\n    function incrementPropId() public {\n        propId++;\n    }\n\n    /**\n    *   @dev push a voting option to the proposal - voting option mapping\n    *   @param proposalId the id of the proposal\n    *   @param opt the voting options which shall be added\n    */\n    function appendVotingOptionToProposal(uint proposalId, string opt) public {\n        propToOptMapping[proposalId].push(opt);\n    }\n\n    /**\n    *   @dev complete the execution of the proposal and compute the vote tally for every voting option\n    *         and checks whether the voting quorum is satisfied\n    *   @param proposalId the id of the proposal which shall be evaluated\n    *   @return winnCount the voting option's vote number for which most of the shareholder voted\n    */\n    function evaluateProposal(uint proposalId) public returns (uint winnCount) {\n        Proposal storage prop = proposals[proposalId];\n        for (uint k = 0; k < propToOptMapping[proposalId].length; k++) {\n            votingOptions.length++;\n            votingOptions[k] = VotingOption({optionName: propToOptMapping[proposalId][k], optionCount: 0});\n            // iterate over all votes of all proposals to check which voter voted for option k\n            for (uint i = 0; i < prop.votes.length; i++) {\n                Vote storage v = prop.votes[i];\n                if (utilCompareInternal(v.voterDecision, votingOptions[k].optionName)) {\n                    votingOptions[k].optionCount++;\n                }\n            }  \n        }\n        uint winningOptionCount = 0;\n        for (uint j = 0; j < votingOptions.length; j++) {\n            if (winningOptionCount < votingOptions[j].optionCount) {\n                winningOptionCount = votingOptions[j].optionCount;\n            }\n        }\n        if (prop.voteCount >= minimumVotingQuorum) {\n            prop.proposalPassed = true;\n            prop.passedPercent = winningOptionCount / prop.voteCount * 100;\n        } else {\n            prop.proposalPassed = false;\n        }\n        return (winningOptionCount);\n    }\n\n    /**\n    *   @dev utility function for comparing strings\n    *   @param a fist string\n    *   @param b second string\n    *   @return isEqual indicates whether the two input strings are equal\n    */\n    function utilCompareInternal(string a, string b) public pure returns (bool isEqual) {\n        if (bytes(a).length != bytes(b).length) {\n            return false;\n        }\n        for (uint i = 0; i < bytes(a).length; i ++) {\n            if(bytes(a)[i] != bytes(b)[i]) {\n                return false;\n            }\n        }\n        return true;\n    }\n}\n",
  "sourcePath": "/Users/christianmischok/git/ShareholderMeeting/solidity/contracts/Factory.sol",
  "compiler": {
    "name": "solc",
    "version": "0.4.24+commit.e67f0147.Emscripten.clang"
  },
  "schemaVersion": "2.0.1",
  "updatedAt": "2018-10-14T12:24:19.704Z"
}