{
  "contractName": "QandA",
  "abi": [
    {
      "constant": true,
      "inputs": [
        {
          "name": "",
          "type": "uint256"
        }
      ],
      "name": "answers",
      "outputs": [
        {
          "name": "answerId",
          "type": "uint256"
        },
        {
          "name": "questionId",
          "type": "uint256"
        },
        {
          "name": "answerCreator",
          "type": "string"
        },
        {
          "name": "timestamp",
          "type": "uint256"
        },
        {
          "name": "ipfs_hash",
          "type": "string"
        }
      ],
      "payable": false,
      "stateMutability": "view",
      "type": "function"
    },
    {
      "constant": true,
      "inputs": [
        {
          "name": "",
          "type": "uint256"
        }
      ],
      "name": "questions",
      "outputs": [
        {
          "name": "creator",
          "type": "string"
        },
        {
          "name": "questionId",
          "type": "uint256"
        },
        {
          "name": "ipfs_hash",
          "type": "string"
        },
        {
          "name": "timestamp",
          "type": "uint256"
        },
        {
          "name": "upvotes",
          "type": "uint256"
        },
        {
          "name": "downvotes",
          "type": "uint256"
        }
      ],
      "payable": false,
      "stateMutability": "view",
      "type": "function"
    },
    {
      "anonymous": false,
      "inputs": [
        {
          "indexed": false,
          "name": "invoker",
          "type": "address"
        }
      ],
      "name": "InvalidRatingOption",
      "type": "event"
    },
    {
      "anonymous": false,
      "inputs": [
        {
          "indexed": false,
          "name": "invoker",
          "type": "address"
        },
        {
          "indexed": false,
          "name": "numUpvotes",
          "type": "uint256"
        }
      ],
      "name": "QuestionUpvote",
      "type": "event"
    },
    {
      "anonymous": false,
      "inputs": [
        {
          "indexed": false,
          "name": "invoker",
          "type": "address"
        },
        {
          "indexed": false,
          "name": "numDownvotes",
          "type": "uint256"
        }
      ],
      "name": "QuestionDownvote",
      "type": "event"
    },
    {
      "constant": false,
      "inputs": [
        {
          "name": "questionId",
          "type": "uint256"
        },
        {
          "name": "ratingOpt",
          "type": "uint256"
        },
        {
          "name": "sender",
          "type": "address"
        }
      ],
      "name": "setRating",
      "outputs": [],
      "payable": false,
      "stateMutability": "nonpayable",
      "type": "function"
    },
    {
      "constant": true,
      "inputs": [
        {
          "name": "answerId",
          "type": "uint256"
        }
      ],
      "name": "getAnswer",
      "outputs": [
        {
          "name": "_answerId",
          "type": "uint256"
        },
        {
          "name": "_questionId",
          "type": "uint256"
        },
        {
          "name": "_answerCreator",
          "type": "string"
        },
        {
          "name": "_ipfs_hash",
          "type": "string"
        },
        {
          "name": "_timestamp",
          "type": "uint256"
        }
      ],
      "payable": false,
      "stateMutability": "view",
      "type": "function"
    },
    {
      "constant": true,
      "inputs": [],
      "name": "getNumOfAnswers",
      "outputs": [
        {
          "name": "length",
          "type": "uint256"
        }
      ],
      "payable": false,
      "stateMutability": "view",
      "type": "function"
    },
    {
      "constant": true,
      "inputs": [],
      "name": "getNumOfQuestions",
      "outputs": [
        {
          "name": "length",
          "type": "uint256"
        }
      ],
      "payable": false,
      "stateMutability": "view",
      "type": "function"
    },
    {
      "constant": true,
      "inputs": [
        {
          "name": "questionId",
          "type": "uint256"
        }
      ],
      "name": "getQuestion",
      "outputs": [
        {
          "name": "_creator",
          "type": "string"
        },
        {
          "name": "_questionId",
          "type": "uint256"
        },
        {
          "name": "_ipfs_hash",
          "type": "string"
        },
        {
          "name": "_timestamp",
          "type": "uint256"
        },
        {
          "name": "_upvotes",
          "type": "uint256"
        },
        {
          "name": "_downvotes",
          "type": "uint256"
        }
      ],
      "payable": false,
      "stateMutability": "view",
      "type": "function"
    },
    {
      "constant": false,
      "inputs": [
        {
          "name": "_questionId",
          "type": "uint256"
        },
        {
          "name": "_ipfs_hash",
          "type": "string"
        },
        {
          "name": "sender",
          "type": "string"
        }
      ],
      "name": "createNewAnswer",
      "outputs": [
        {
          "name": "answId",
          "type": "uint256"
        }
      ],
      "payable": false,
      "stateMutability": "nonpayable",
      "type": "function"
    },
    {
      "constant": false,
      "inputs": [
        {
          "name": "_ipfs_hash",
          "type": "string"
        },
        {
          "name": "sender",
          "type": "string"
        }
      ],
      "name": "createNewQuestion",
      "outputs": [
        {
          "name": "questId",
          "type": "uint256"
        }
      ],
      "payable": false,
      "stateMutability": "nonpayable",
      "type": "function"
    }
  ],
  "bytecode": "0x608060405234801561001057600080fd5b506112b3806100206000396000f300608060405260043610610099576000357c0100000000000000000000000000000000000000000000000000000000900463ffffffff16806317599cc51461009e5780631eeb6f5c146101c557806331b1b978146102925780633d3e528d146103c05780633ecb486a146103eb5780637c25833414610416578063a17d04dd1461046d578063b5ab58dc14610530578063db88176f14610657575b600080fd5b3480156100aa57600080fd5b506100c960048036038101908080359060200190929190505050610785565b604051808681526020018581526020018060200184815260200180602001838103835286818151815260200191508051906020019080838360005b8381101561011f578082015181840152602081019050610104565b50505050905090810190601f16801561014c5780820380516001836020036101000a031916815260200191505b50838103825284818151815260200191508051906020019080838360005b8381101561018557808201518184015260208101905061016a565b50505050905090810190601f1680156101b25780820380516001836020036101000a031916815260200191505b5097505050505050505060405180910390f35b3480156101d157600080fd5b5061027c60048036038101908080359060200190929190803590602001908201803590602001908080601f0160208091040260200160405190810160405280939291908181526020018383808284378201915050505050509192919290803590602001908201803590602001908080601f01602080910402602001604051908101604052809392919081815260200183838082843782019150505050505091929192905050506108fa565b6040518082815260200191505060405180910390f35b34801561029e57600080fd5b506102bd60048036038101908080359060200190929190505050610987565b604051808060200187815260200180602001868152602001858152602001848152602001838103835289818151815260200191508051906020019080838360005b838110156103195780820151818401526020810190506102fe565b50505050905090810190601f1680156103465780820380516001836020036101000a031916815260200191505b50838103825287818151815260200191508051906020019080838360005b8381101561037f578082015181840152602081019050610364565b50505050905090810190601f1680156103ac5780820380516001836020036101000a031916815260200191505b509850505050505050505060405180910390f35b3480156103cc57600080fd5b506103d5610b02565b6040518082815260200191505060405180910390f35b3480156103f757600080fd5b50610400610b0e565b6040518082815260200191505060405180910390f35b34801561042257600080fd5b5061046b6004803603810190808035906020019092919080359060200190929190803573ffffffffffffffffffffffffffffffffffffffff169060200190929190505050610b1b565b005b34801561047957600080fd5b5061051a600480360381019080803590602001908201803590602001908080601f0160208091040260200160405190810160405280939291908181526020018383808284378201915050505050509192919290803590602001908201803590602001908080601f0160208091040260200160405190810160405280939291908181526020018383808284378201915050505050509192919290505050610cc9565b6040518082815260200191505060405180910390f35b34801561053c57600080fd5b5061055b60048036038101908080359060200190929190505050610d60565b604051808681526020018581526020018060200180602001848152602001838103835286818151815260200191508051906020019080838360005b838110156105b1578082015181840152602081019050610596565b50505050905090810190601f1680156105de5780820380516001836020036101000a031916815260200191505b50838103825285818151815260200191508051906020019080838360005b838110156106175780820151818401526020810190506105fc565b50505050905090810190601f1680156106445780820380516001836020036101000a031916815260200191505b5097505050505050505060405180910390f35b34801561066357600080fd5b5061068260048036038101908080359060200190929190505050610eeb565b604051808060200187815260200180602001868152602001858152602001848152602001838103835289818151815260200191508051906020019080838360005b838110156106de5780820151818401526020810190506106c3565b50505050905090810190601f16801561070b5780820380516001836020036101000a031916815260200191505b50838103825287818151815260200191508051906020019080838360005b83811015610744578082015181840152602081019050610729565b50505050905090810190601f1680156107715780820380516001836020036101000a031916815260200191505b509850505050505050505060405180910390f35b60008181548110151561079457fe5b9060005260206000209060050201600091509050806000015490806001015490806002018054600181600116156101000203166002900480601f01602080910402602001604051908101604052809291908181526020018280546001816001161561010002031660029004801561084c5780601f106108215761010080835404028352916020019161084c565b820191906000526020600020905b81548152906001019060200180831161082f57829003601f168201915b505050505090806003015490806004018054600181600116156101000203166002900480601f0160208091040260200160405190810160405280929190818152602001828054600181600116156101000203166002900480156108f05780601f106108c5576101008083540402835291602001916108f0565b820191906000526020600020905b8154815290600101906020018083116108d357829003601f168201915b5050505050905085565b600080600080548091906001016109119190611080565b915060008281548110151561092257fe5b906000526020600020906005020190508181600001819055508481600101819055508281600201908051906020019061095c9291906110b2565b50838160040190805190602001906109759291906110b2565b50428160030181905550509392505050565b60018181548110151561099657fe5b9060005260206000209060060201600091509050806000018054600181600116156101000203166002900480601f016020809104026020016040519081016040528092919081815260200182805460018160011615610100020316600290048015610a425780601f10610a1757610100808354040283529160200191610a42565b820191906000526020600020905b815481529060010190602001808311610a2557829003601f168201915b505050505090806001015490806002018054600181600116156101000203166002900480601f016020809104026020016040519081016040528092919081815260200182805460018160011615610100020316600290048015610ae65780601f10610abb57610100808354040283529160200191610ae6565b820191906000526020600020905b815481529060010190602001808311610ac957829003601f168201915b5050505050908060030154908060040154908060050154905086565b60008080549050905090565b6000600180549050905090565b6000600184815481101515610b2c57fe5b906000526020600020906006020190506001831415610bcd5780600401600081548092919060010191905055507f54a8ca358ef57f5199692f9accebf1cea9c3b6a6351db8b1976a3283f3c7caa5828260040154604051808373ffffffffffffffffffffffffffffffffffffffff1673ffffffffffffffffffffffffffffffffffffffff1681526020018281526020019250505060405180910390a1610cc3565b6000831415610c5e5780600501600081548092919060010191905055507fb0f1a350a68ca81aea495057b739a0ab46613ea46337a4ecf18a0e5891b22423828260050154604051808373ffffffffffffffffffffffffffffffffffffffff1673ffffffffffffffffffffffffffffffffffffffff1681526020018281526020019250505060405180910390a1610cc2565b7f7c153d1a9d147fafdf065d15a62aca5b9ae7c237b3f61826022605c14aa265fb82604051808273ffffffffffffffffffffffffffffffffffffffff1673ffffffffffffffffffffffffffffffffffffffff16815260200191505060405180910390a15b5b50505050565b60008060018054809190600101610ce09190611132565b9150600182815481101515610cf157fe5b9060005260206000209060060201905081816001018190555082816000019080519060200190610d229291906110b2565b5083816002019080519060200190610d3b9291906110b2565b5042816003018190555060008160040181905550600081600501819055505092915050565b600080606080600080600087815481101515610d7857fe5b906000526020600020906005020190508060000154816001015482600201836004018460030154828054600181600116156101000203166002900480601f016020809104026020016040519081016040528092919081815260200182805460018160011615610100020316600290048015610e345780601f10610e0957610100808354040283529160200191610e34565b820191906000526020600020905b815481529060010190602001808311610e1757829003601f168201915b50505050509250818054600181600116156101000203166002900480601f016020809104026020016040519081016040528092919081815260200182805460018160011615610100020316600290048015610ed05780601f10610ea557610100808354040283529160200191610ed0565b820191906000526020600020905b815481529060010190602001808311610eb357829003601f168201915b50505050509150955095509550955095505091939590929450565b606060006060600080600080600188815481101515610f0657fe5b9060005260206000209060060201905080600001816001015482600201836003015484600401548560050154858054600181600116156101000203166002900480601f016020809104026020016040519081016040528092919081815260200182805460018160011615610100020316600290048015610fc75780601f10610f9c57610100808354040283529160200191610fc7565b820191906000526020600020905b815481529060010190602001808311610faa57829003601f168201915b50505050509550838054600181600116156101000203166002900480601f0160208091040260200160405190810160405280929190818152602001828054600181600116156101000203166002900480156110635780601f1061103857610100808354040283529160200191611063565b820191906000526020600020905b81548152906001019060200180831161104657829003601f168201915b505050505093509650965096509650965096505091939550919395565b8154818355818111156110ad576005028160050283600052602060002091820191016110ac9190611164565b5b505050565b828054600181600116156101000203166002900490600052602060002090601f016020900481019282601f106110f357805160ff1916838001178555611121565b82800160010185558215611121579182015b82811115611120578251825591602001919060010190611105565b5b50905061112e91906111bb565b5090565b81548183558181111561115f5760060281600602836000526020600020918201910161115e91906111e0565b5b505050565b6111b891905b808211156111b4576000808201600090556001820160009055600282016000611193919061123f565b60038201600090556004820160006111ab919061123f565b5060050161116a565b5090565b90565b6111dd91905b808211156111d95760008160009055506001016111c1565b5090565b90565b61123c91905b8082111561123857600080820160006111ff919061123f565b6001820160009055600282016000611217919061123f565b600382016000905560048201600090556005820160009055506006016111e6565b5090565b90565b50805460018160011615610100020316600290046000825580601f106112655750611284565b601f01602090049060005260206000209081019061128391906111bb565b5b505600a165627a7a72305820f49e08f7e24192595e0b1fb808ddadbf3e2e9aa52517aa926baf07a0c25ad1af0029",
  "source": "pragma solidity^ 0.4.23;\n\nimport \"./Shareholder.sol\";\n\n/**\n*   @title question and answer contract to implement the chat function between shareholders and directors\n*/\ncontract QandA {\n\n    // answer object can only used by a director\n    struct Answer {\n        uint answerId;\n        uint questionId;\n        string answerCreator;\n        uint timestamp;\n        // stores the hash where the answer content is stored\n        string ipfs_hash;\n    }\n    // question object can only be used by a shareholder\n    struct Question {\n        string creator;\n        uint questionId;\n        // stores the hash where the question content is stored\n        string ipfs_hash;\n        uint timestamp;\n        uint upvotes;\n        uint downvotes;\n    }\n\n    // storing the answers of directors\n    Answer[] public answers;\n    // storing the questions of shareholders\n    Question[] public questions;\n\n    event InvalidRatingOption(address invoker);\n    event QuestionUpvote(address invoker, uint numUpvotes);\n    event QuestionDownvote(address invoker, uint numDownvotes);\n\n    /**\n    *   @dev getters and setters\n    */\n\n    // increments the like or dislike count of a specific question, can only be triggered by shareholders\n    function setRating(uint questionId, uint ratingOpt, address sender) public {\n        Question storage question = questions[questionId];\n        if (ratingOpt == 1) {\n            question.upvotes++;\n            emit QuestionUpvote(sender, question.upvotes);\n        } else if (ratingOpt == 0) {\n            question.downvotes++;\n            emit QuestionDownvote(sender, question.downvotes);\n        } else {\n            emit InvalidRatingOption(sender);\n        }\n    }\n    \n    function getAnswer(uint answerId) public view returns (\n        uint _answerId,\n        uint _questionId,\n        string _answerCreator,\n        string _ipfs_hash,\n        uint _timestamp\n    ) {\n\n        Answer storage answer = answers[answerId];\n        return\n            (answer.answerId, answer.questionId, answer.answerCreator, answer.ipfs_hash, answer.timestamp);\n    }\n\n    function getNumOfAnswers() public view returns (uint length) {\n        return answers.length;\n    }\n\n    function getNumOfQuestions() public view returns (uint length) {\n        return questions.length;\n    }\n\n    function getQuestion(uint questionId) public view returns (\n        string _creator,\n        uint _questionId,\n        string _ipfs_hash,\n        uint _timestamp,\n        uint _upvotes,\n        uint _downvotes\n    ) {\n        Question storage question = questions[questionId];\n        return\n            (question.creator, question.questionId, question.ipfs_hash, question.timestamp, question.upvotes, question.downvotes);\n    }\n\n    /**\n    *   @dev create a new answer\n    *   @param _questionId the id of the answer\n    *   @param _ipfs_hash the hash where the answer description is stored\n    *   @param sender the creator of the answer\n    *   @return answId the id of the new generated answer\n    */\n    function createNewAnswer(uint _questionId, string _ipfs_hash, string sender) public returns(uint answId) {\n        answId = answers.length++;\n        Answer storage answer = answers[answId];\n        answer.answerId = answId;\n        answer.questionId = _questionId;\n        answer.answerCreator = sender;\n        answer.ipfs_hash = _ipfs_hash;\n        answer.timestamp = now;\n    }\n\n    /**\n    *   @dev create a new question\n    *   @param _ipfs_hash the hash where the question content is stored\n    *   @param sender who created the question\n    *   @return questId the id of the new generated question\n    */\n    function createNewQuestion(string _ipfs_hash, string sender) public returns (uint questId) {\n        questId = questions.length++;\n        Question storage question = questions[questId];\n        question.questionId = questId;\n        question.creator = sender;\n        question.ipfs_hash = _ipfs_hash;\n        question.timestamp = now;\n        question.upvotes = 0;\n        question.downvotes = 0;\n    }\n}",
  "sourcePath": "/Users/christianmischok/git/ShareholderMeeting/solidity/contracts/QandA.sol",
  "compiler": {
    "name": "solc",
    "version": "0.4.24+commit.e67f0147.Emscripten.clang"
  },
  "schemaVersion": "2.0.1",
  "updatedAt": "2018-10-14T12:24:19.670Z"
}