{
  "contractName": "QandA",
  "abi": [
    {
      "anonymous": false,
      "inputs": [
        {
          "indexed": false,
          "name": "invoker",
          "type": "address"
        }
      ],
      "name": "InvalidRatingOption",
      "type": "event"
    },
    {
      "anonymous": false,
      "inputs": [
        {
          "indexed": false,
          "name": "invoker",
          "type": "address"
        },
        {
          "indexed": false,
          "name": "numUpvotes",
          "type": "uint256"
        }
      ],
      "name": "QuestionUpvote",
      "type": "event"
    },
    {
      "anonymous": false,
      "inputs": [
        {
          "indexed": false,
          "name": "invoker",
          "type": "address"
        },
        {
          "indexed": false,
          "name": "numDownvotes",
          "type": "uint256"
        }
      ],
      "name": "QuestionDownvote",
      "type": "event"
    },
    {
      "constant": false,
      "inputs": [
        {
          "name": "questionId",
          "type": "uint256"
        },
        {
          "name": "ratingOpt",
          "type": "uint256"
        },
        {
          "name": "sender",
          "type": "address"
        }
      ],
      "name": "setRating",
      "outputs": [],
      "payable": false,
      "stateMutability": "nonpayable",
      "type": "function"
    },
    {
      "constant": true,
      "inputs": [
        {
          "name": "answerId",
          "type": "uint256"
        }
      ],
      "name": "getAnswer",
      "outputs": [
        {
          "name": "_answerId",
          "type": "uint256"
        },
        {
          "name": "_questionId",
          "type": "uint256"
        },
        {
          "name": "_answerCreator",
          "type": "string"
        },
        {
          "name": "_ipfs_hash",
          "type": "string"
        },
        {
          "name": "_timestamp",
          "type": "uint256"
        }
      ],
      "payable": false,
      "stateMutability": "view",
      "type": "function"
    },
    {
      "constant": true,
      "inputs": [],
      "name": "getNumOfAnswers",
      "outputs": [
        {
          "name": "length",
          "type": "uint256"
        }
      ],
      "payable": false,
      "stateMutability": "view",
      "type": "function"
    },
    {
      "constant": true,
      "inputs": [],
      "name": "getNumOfQuestions",
      "outputs": [
        {
          "name": "length",
          "type": "uint256"
        }
      ],
      "payable": false,
      "stateMutability": "view",
      "type": "function"
    },
    {
      "constant": true,
      "inputs": [
        {
          "name": "questionId",
          "type": "uint256"
        }
      ],
      "name": "getQuestion",
      "outputs": [
        {
          "name": "_creator",
          "type": "string"
        },
        {
          "name": "_questionId",
          "type": "uint256"
        },
        {
          "name": "_ipfs_hash",
          "type": "string"
        },
        {
          "name": "_timestamp",
          "type": "uint256"
        },
        {
          "name": "_upvotes",
          "type": "uint256"
        },
        {
          "name": "_downvotes",
          "type": "uint256"
        }
      ],
      "payable": false,
      "stateMutability": "view",
      "type": "function"
    },
    {
      "constant": false,
      "inputs": [
        {
          "name": "_questionId",
          "type": "uint256"
        },
        {
          "name": "_ipfs_hash",
          "type": "string"
        },
        {
          "name": "sender",
          "type": "string"
        }
      ],
      "name": "createNewAnswer",
      "outputs": [
        {
          "name": "answId",
          "type": "uint256"
        }
      ],
      "payable": false,
      "stateMutability": "nonpayable",
      "type": "function"
    },
    {
      "constant": false,
      "inputs": [
        {
          "name": "_ipfs_hash",
          "type": "string"
        },
        {
          "name": "sender",
          "type": "string"
        }
      ],
      "name": "createNewQuestion",
      "outputs": [
        {
          "name": "questId",
          "type": "uint256"
        }
      ],
      "payable": false,
      "stateMutability": "nonpayable",
      "type": "function"
    }
  ],
  "bytecode": "0x608060405234801561001057600080fd5b50610c90806100206000396000f300608060405260043610610083576000357c0100000000000000000000000000000000000000000000000000000000900463ffffffff1680631eeb6f5c146100885780633d3e528d146100f95780633ecb486a146101245780637c2583341461014f578063a17d04dd146101a6578063b5ab58dc1461020d578063db88176f14610334575b600080fd5b34801561009457600080fd5b506100e360048036038101908080359060200190929190803590602001908201803590602001919091929391929390803590602001908201803590602001919091929391929390505050610462565b6040518082815260200191505060405180910390f35b34801561010557600080fd5b5061010e6104e7565b6040518082815260200191505060405180910390f35b34801561013057600080fd5b506101396104f3565b6040518082815260200191505060405180910390f35b34801561015b57600080fd5b506101a46004803603810190808035906020019092919080359060200190929190803573ffffffffffffffffffffffffffffffffffffffff169060200190929190505050610500565b005b3480156101b257600080fd5b506101f76004803603810190808035906020019082018035906020019190919293919293908035906020019082018035906020019190919293919293905050506106ae565b6040518082815260200191505060405180910390f35b34801561021957600080fd5b506102386004803603810190808035906020019092919050505061073d565b604051808681526020018581526020018060200180602001848152602001838103835286818151815260200191508051906020019080838360005b8381101561028e578082015181840152602081019050610273565b50505050905090810190601f1680156102bb5780820380516001836020036101000a031916815260200191505b50838103825285818151815260200191508051906020019080838360005b838110156102f45780820151818401526020810190506102d9565b50505050905090810190601f1680156103215780820380516001836020036101000a031916815260200191505b5097505050505050505060405180910390f35b34801561034057600080fd5b5061035f600480360381019080803590602001909291905050506108c8565b604051808060200187815260200180602001868152602001858152602001848152602001838103835289818151815260200191508051906020019080838360005b838110156103bb5780820151818401526020810190506103a0565b50505050905090810190601f1680156103e85780820380516001836020036101000a031916815260200191505b50838103825287818151815260200191508051906020019080838360005b83811015610421578082015181840152602081019050610406565b50505050905090810190601f16801561044e5780820380516001836020036101000a031916815260200191505b509850505050505050505060405180910390f35b600080600080548091906001016104799190610a5d565b915060008281548110151561048a57fe5b9060005260206000209060050201905081816000018190555086816001018190555083838260020191906104bf929190610a8f565b5085858260040191906104d3929190610a8f565b504281600301819055505095945050505050565b60008080549050905090565b6000600180549050905090565b600060018481548110151561051157fe5b9060005260206000209060060201905060018314156105b25780600401600081548092919060010191905055507f54a8ca358ef57f5199692f9accebf1cea9c3b6a6351db8b1976a3283f3c7caa5828260040154604051808373ffffffffffffffffffffffffffffffffffffffff1673ffffffffffffffffffffffffffffffffffffffff1681526020018281526020019250505060405180910390a16106a8565b60008314156106435780600501600081548092919060010191905055507fb0f1a350a68ca81aea495057b739a0ab46613ea46337a4ecf18a0e5891b22423828260050154604051808373ffffffffffffffffffffffffffffffffffffffff1673ffffffffffffffffffffffffffffffffffffffff1681526020018281526020019250505060405180910390a16106a7565b7f7c153d1a9d147fafdf065d15a62aca5b9ae7c237b3f61826022605c14aa265fb82604051808273ffffffffffffffffffffffffffffffffffffffff1673ffffffffffffffffffffffffffffffffffffffff16815260200191505060405180910390a15b5b50505050565b600080600180548091906001016106c59190610b0f565b91506001828154811015156106d657fe5b906000526020600020906006020190508181600101819055508383826000019190610702929190610a8f565b508585826002019190610716929190610a8f565b50428160030181905550600081600401819055506000816005018190555050949350505050565b60008060608060008060008781548110151561075557fe5b906000526020600020906005020190508060000154816001015482600201836004018460030154828054600181600116156101000203166002900480601f0160208091040260200160405190810160405280929190818152602001828054600181600116156101000203166002900480156108115780601f106107e657610100808354040283529160200191610811565b820191906000526020600020905b8154815290600101906020018083116107f457829003601f168201915b50505050509250818054600181600116156101000203166002900480601f0160208091040260200160405190810160405280929190818152602001828054600181600116156101000203166002900480156108ad5780601f10610882576101008083540402835291602001916108ad565b820191906000526020600020905b81548152906001019060200180831161089057829003601f168201915b50505050509150955095509550955095505091939590929450565b6060600060606000806000806001888154811015156108e357fe5b9060005260206000209060060201905080600001816001015482600201836003015484600401548560050154858054600181600116156101000203166002900480601f0160208091040260200160405190810160405280929190818152602001828054600181600116156101000203166002900480156109a45780601f10610979576101008083540402835291602001916109a4565b820191906000526020600020905b81548152906001019060200180831161098757829003601f168201915b50505050509550838054600181600116156101000203166002900480601f016020809104026020016040519081016040528092919081815260200182805460018160011615610100020316600290048015610a405780601f10610a1557610100808354040283529160200191610a40565b820191906000526020600020905b815481529060010190602001808311610a2357829003601f168201915b505050505093509650965096509650965096505091939550919395565b815481835581811115610a8a57600502816005028360005260206000209182019101610a899190610b41565b5b505050565b828054600181600116156101000203166002900490600052602060002090601f016020900481019282601f10610ad057803560ff1916838001178555610afe565b82800160010185558215610afe579182015b82811115610afd578235825591602001919060010190610ae2565b5b509050610b0b9190610b98565b5090565b815481835581811115610b3c57600602816006028360005260206000209182019101610b3b9190610bbd565b5b505050565b610b9591905b80821115610b91576000808201600090556001820160009055600282016000610b709190610c1c565b6003820160009055600482016000610b889190610c1c565b50600501610b47565b5090565b90565b610bba91905b80821115610bb6576000816000905550600101610b9e565b5090565b90565b610c1991905b80821115610c155760008082016000610bdc9190610c1c565b6001820160009055600282016000610bf49190610c1c565b60038201600090556004820160009055600582016000905550600601610bc3565b5090565b90565b50805460018160011615610100020316600290046000825580601f10610c425750610c61565b601f016020900490600052602060002090810190610c609190610b98565b5b505600a165627a7a72305820fecdbfad838b70df60b2b3fa67fffeec49343b53c18b340b1234b27dbe5d4e830029",
  "source": "pragma solidity^ 0.4.23;\n\nimport \"./Shareholder.sol\";\n\n/**\n*   @title question and answer contract to implement the chat function between shareholders and directors\n*/\ncontract QandA {\n\n    // answer object can only used by a director\n    struct Answer {\n        uint answerId;\n        uint questionId;\n        string answerCreator;\n        uint timestamp;\n        // stores the hash where the answer content is stored\n        string ipfs_hash;\n    }\n    // question object can only be used by a shareholder\n    struct Question {\n        string creator;\n        uint questionId;\n        // stores the hash where the question content is stored\n        string ipfs_hash;\n        uint timestamp;\n        uint upvotes;\n        uint downvotes;\n    }\n\n    // storing the answers of directors\n    Answer[] private answers;\n    // storing the questions of shareholders\n    Question[] private questions;\n\n    event InvalidRatingOption(address invoker);\n    event QuestionUpvote(address invoker, uint numUpvotes);\n    event QuestionDownvote(address invoker, uint numDownvotes);\n\n    /**\n    *   @dev getters and setters\n    */\n\n    // increments the like or dislike count of a specific question, can only be triggered by shareholders\n    function setRating(uint questionId, uint ratingOpt, address sender) external {\n        Question storage question = questions[questionId];\n        if (ratingOpt == 1) {\n            question.upvotes++;\n            emit QuestionUpvote(sender, question.upvotes);\n        } else if (ratingOpt == 0) {\n            question.downvotes++;\n            emit QuestionDownvote(sender, question.downvotes);\n        } else {\n            emit InvalidRatingOption(sender);\n        }\n    }\n    \n    function getAnswer(uint answerId) public view returns (\n        uint _answerId,\n        uint _questionId,\n        string _answerCreator,\n        string _ipfs_hash,\n        uint _timestamp\n    ) {\n\n        Answer storage answer = answers[answerId];\n        return\n            (answer.answerId, answer.questionId, answer.answerCreator, answer.ipfs_hash, answer.timestamp);\n    }\n\n    function getNumOfAnswers() public view returns (uint length) {\n        return answers.length;\n    }\n\n    function getNumOfQuestions() public view returns (uint length) {\n        return questions.length;\n    }\n\n    function getQuestion(uint questionId) public view returns (\n        string _creator,\n        uint _questionId,\n        string _ipfs_hash,\n        uint _timestamp,\n        uint _upvotes,\n        uint _downvotes\n    ) {\n        Question storage question = questions[questionId];\n        return\n            (question.creator, question.questionId, question.ipfs_hash, question.timestamp, question.upvotes, question.downvotes);\n    }\n\n    /**\n    *   @dev create a new answer\n    *   @param _questionId the id of the answer\n    *   @param _ipfs_hash the hash where the answer description is stored\n    *   @param sender the creator of the answer\n    *   @return answId the id of the new generated answer\n    */\n    function createNewAnswer(uint _questionId, string _ipfs_hash, string sender) external returns(uint answId) {\n        answId = answers.length++;\n        Answer storage answer = answers[answId];\n        answer.answerId = answId;\n        answer.questionId = _questionId;\n        answer.answerCreator = sender;\n        answer.ipfs_hash = _ipfs_hash;\n        answer.timestamp = now;\n    }\n\n    /**\n    *   @dev create a new question\n    *   @param _ipfs_hash the hash where the question content is stored\n    *   @param sender who created the question\n    *   @return questId the id of the new generated question\n    */\n    function createNewQuestion(string _ipfs_hash, string sender) external returns (uint questId) {\n        questId = questions.length++;\n        Question storage question = questions[questId];\n        question.questionId = questId;\n        question.creator = sender;\n        question.ipfs_hash = _ipfs_hash;\n        question.timestamp = now;\n        question.upvotes = 0;\n        question.downvotes = 0;\n    }\n}",
  "sourcePath": "/Users/christianmischok/git/ShareholderMeeting/solidity/contracts/QandA.sol",
  "compiler": {
    "name": "solc",
    "version": "0.4.24+commit.e67f0147.Emscripten.clang"
  },
  "schemaVersion": "2.0.1",
  "updatedAt": "2018-10-15T20:38:04.135Z"
}