{
  "contractName": "Shareholder",
  "abi": [
    {
      "constant": true,
      "inputs": [],
      "name": "role",
      "outputs": [
        {
          "name": "",
          "type": "uint256"
        }
      ],
      "payable": false,
      "stateMutability": "view",
      "type": "function"
    },
    {
      "constant": true,
      "inputs": [],
      "name": "isRegistered",
      "outputs": [
        {
          "name": "",
          "type": "bool"
        }
      ],
      "payable": false,
      "stateMutability": "view",
      "type": "function"
    },
    {
      "constant": true,
      "inputs": [
        {
          "name": "",
          "type": "uint256"
        }
      ],
      "name": "votingDenominations",
      "outputs": [
        {
          "name": "",
          "type": "uint256"
        }
      ],
      "payable": false,
      "stateMutability": "view",
      "type": "function"
    },
    {
      "constant": true,
      "inputs": [],
      "name": "qa",
      "outputs": [
        {
          "name": "",
          "type": "address"
        }
      ],
      "payable": false,
      "stateMutability": "view",
      "type": "function"
    },
    {
      "constant": false,
      "inputs": [
        {
          "name": "reg",
          "type": "bool"
        }
      ],
      "name": "setIsRegistered",
      "outputs": [],
      "payable": false,
      "stateMutability": "nonpayable",
      "type": "function"
    },
    {
      "constant": true,
      "inputs": [],
      "name": "fac",
      "outputs": [
        {
          "name": "",
          "type": "address"
        }
      ],
      "payable": false,
      "stateMutability": "view",
      "type": "function"
    },
    {
      "constant": true,
      "inputs": [],
      "name": "userAddress",
      "outputs": [
        {
          "name": "",
          "type": "address"
        }
      ],
      "payable": false,
      "stateMutability": "view",
      "type": "function"
    },
    {
      "inputs": [
        {
          "name": "userAddress",
          "type": "address"
        },
        {
          "name": "_votingWeight",
          "type": "uint256"
        },
        {
          "name": "_fac",
          "type": "address"
        },
        {
          "name": "_qa",
          "type": "address"
        }
      ],
      "payable": false,
      "stateMutability": "nonpayable",
      "type": "constructor"
    },
    {
      "anonymous": false,
      "inputs": [
        {
          "indexed": false,
          "name": "questionId",
          "type": "uint256"
        },
        {
          "indexed": false,
          "name": "creator",
          "type": "string"
        }
      ],
      "name": "QuestionCreated",
      "type": "event"
    },
    {
      "anonymous": false,
      "inputs": [
        {
          "indexed": false,
          "name": "invoker",
          "type": "address"
        },
        {
          "indexed": false,
          "name": "proposalId",
          "type": "uint256"
        },
        {
          "indexed": false,
          "name": "votingOption",
          "type": "string"
        }
      ],
      "name": "Voted",
      "type": "event"
    },
    {
      "anonymous": false,
      "inputs": [
        {
          "indexed": false,
          "name": "userAddress",
          "type": "address"
        },
        {
          "indexed": false,
          "name": "weight",
          "type": "uint256"
        }
      ],
      "name": "VoterWeight",
      "type": "event"
    },
    {
      "anonymous": false,
      "inputs": [
        {
          "indexed": false,
          "name": "sender",
          "type": "address"
        },
        {
          "indexed": false,
          "name": "senderWeight",
          "type": "uint256"
        },
        {
          "indexed": false,
          "name": "proxy",
          "type": "address"
        },
        {
          "indexed": false,
          "name": "proxyWeight",
          "type": "uint256"
        }
      ],
      "name": "PartialDelegationFrom",
      "type": "event"
    },
    {
      "anonymous": false,
      "inputs": [
        {
          "indexed": false,
          "name": "sender",
          "type": "address"
        },
        {
          "indexed": false,
          "name": "senderWeight",
          "type": "uint256"
        },
        {
          "indexed": false,
          "name": "proxy",
          "type": "address"
        },
        {
          "indexed": false,
          "name": "proxyWeight",
          "type": "uint256"
        }
      ],
      "name": "SimpleDelegationFrom",
      "type": "event"
    },
    {
      "anonymous": false,
      "inputs": [
        {
          "indexed": false,
          "name": "userAddress",
          "type": "address"
        },
        {
          "indexed": false,
          "name": "votingWeight",
          "type": "uint256"
        }
      ],
      "name": "ShareholderCreated",
      "type": "event"
    },
    {
      "anonymous": false,
      "inputs": [
        {
          "indexed": false,
          "name": "result",
          "type": "uint256"
        }
      ],
      "name": "WeightDivision",
      "type": "event"
    },
    {
      "anonymous": false,
      "inputs": [
        {
          "indexed": false,
          "name": "num",
          "type": "uint256"
        },
        {
          "indexed": false,
          "name": "copy",
          "type": "uint256"
        },
        {
          "indexed": false,
          "name": "divider",
          "type": "uint256"
        }
      ],
      "name": "CalculateDivision",
      "type": "event"
    },
    {
      "constant": false,
      "inputs": [
        {
          "name": "proposalId",
          "type": "uint256"
        },
        {
          "name": "votingOption",
          "type": "string"
        }
      ],
      "name": "vote",
      "outputs": [],
      "payable": false,
      "stateMutability": "nonpayable",
      "type": "function"
    },
    {
      "constant": false,
      "inputs": [
        {
          "name": "_ipfs_hash",
          "type": "string"
        },
        {
          "name": "creator",
          "type": "string"
        }
      ],
      "name": "createQuestion",
      "outputs": [
        {
          "name": "questId",
          "type": "uint256"
        }
      ],
      "payable": false,
      "stateMutability": "nonpayable",
      "type": "function"
    },
    {
      "constant": false,
      "inputs": [
        {
          "name": "questionId",
          "type": "uint256"
        },
        {
          "name": "ratingOpt",
          "type": "uint8"
        }
      ],
      "name": "rateQuestion",
      "outputs": [],
      "payable": false,
      "stateMutability": "nonpayable",
      "type": "function"
    },
    {
      "constant": false,
      "inputs": [
        {
          "name": "numOfBlockWeights",
          "type": "uint256"
        },
        {
          "name": "factor",
          "type": "uint256"
        }
      ],
      "name": "denominateVotingTokens",
      "outputs": [],
      "payable": false,
      "stateMutability": "nonpayable",
      "type": "function"
    },
    {
      "constant": false,
      "inputs": [
        {
          "name": "proxyAddress",
          "type": "address"
        },
        {
          "name": "partialDelegation",
          "type": "bool"
        },
        {
          "name": "voteBlockIndex",
          "type": "uint256"
        }
      ],
      "name": "delegateToProxy",
      "outputs": [],
      "payable": false,
      "stateMutability": "nonpayable",
      "type": "function"
    }
  ],
  "bytecode": "0x60806040523480156200001157600080fd5b5060405160808062002604833981018060405281019080805190602001909291908051906020019092919080519060200190929190805190602001909291905050508360026000826000806101000a81548173ffffffffffffffffffffffffffffffffffffffff021916908373ffffffffffffffffffffffffffffffffffffffff160217905550816002811115620000a557fe5b60018190555080600260006101000a81548160ff02191690831515021790555050505081600260016101000a81548173ffffffffffffffffffffffffffffffffffffffff021916908373ffffffffffffffffffffffffffffffffffffffff16021790555080600360006101000a81548173ffffffffffffffffffffffffffffffffffffffff021916908373ffffffffffffffffffffffffffffffffffffffff160217905550600260019054906101000a900473ffffffffffffffffffffffffffffffffffffffff1673ffffffffffffffffffffffffffffffffffffffff16634289cefe85856040518363ffffffff167c0100000000000000000000000000000000000000000000000000000000028152600401808373ffffffffffffffffffffffffffffffffffffffff1673ffffffffffffffffffffffffffffffffffffffff16815260200182815260200192505050600060405180830381600087803b1580156200021057600080fd5b505af115801562000225573d6000803e3d6000fd5b505050507fd513e2b4088d8859035626590168845dea442d4ef553b9919b702351678cc47184600260019054906101000a900473ffffffffffffffffffffffffffffffffffffffff1673ffffffffffffffffffffffffffffffffffffffff1663493da753876040518263ffffffff167c0100000000000000000000000000000000000000000000000000000000028152600401808273ffffffffffffffffffffffffffffffffffffffff1673ffffffffffffffffffffffffffffffffffffffff168152602001915050602060405180830381600087803b1580156200030957600080fd5b505af11580156200031e573d6000803e3d6000fd5b505050506040513d60208110156200033557600080fd5b8101908080519060200190929190505050604051808373ffffffffffffffffffffffffffffffffffffffff1673ffffffffffffffffffffffffffffffffffffffff1681526020018281526020019250505060405180910390a15050505061226280620003a26000396000f3006080604052600436106100ba576000357c0100000000000000000000000000000000000000000000000000000000900463ffffffff16806310055c1d146100bf57806322366844146100ea5780632410847514610119578063520313fe1461018c5780638af3fddf146101cd578063ab42394514610224578063ae2dac1a1461027d578063c0358d98146102ac578063c3b31472146102e3578063dffc8b2e1461033a578063e4128fb3146103fd578063f1c7cfb314610454575b600080fd5b3480156100cb57600080fd5b506100d461048e565b6040518082815260200191505060405180910390f35b3480156100f657600080fd5b506100ff610494565b604051808215151515815260200191505060405180910390f35b34801561012557600080fd5b5061018a60048036038101908080359060200190929190803590602001908201803590602001908080601f01602080910402602001604051908101604052809392919081815260200183838082843782019150505050505091929192905050506104a7565b005b34801561019857600080fd5b506101b760048036038101908080359060200190929190505050610804565b6040518082815260200191505060405180910390f35b3480156101d957600080fd5b506101e2610827565b604051808273ffffffffffffffffffffffffffffffffffffffff1673ffffffffffffffffffffffffffffffffffffffff16815260200191505060405180910390f35b34801561023057600080fd5b5061027b600480360381019080803573ffffffffffffffffffffffffffffffffffffffff1690602001909291908035151590602001909291908035906020019092919050505061084d565b005b34801561028957600080fd5b506102aa60048036038101908080351515906020019092919050505061144d565b005b3480156102b857600080fd5b506102e1600480360381019080803590602001909291908035906020019092919050505061146a565b005b3480156102ef57600080fd5b506102f8611b30565b604051808273ffffffffffffffffffffffffffffffffffffffff1673ffffffffffffffffffffffffffffffffffffffff16815260200191505060405180910390f35b34801561034657600080fd5b506103e7600480360381019080803590602001908201803590602001908080601f0160208091040260200160405190810160405280939291908181526020018383808284378201915050505050509192919290803590602001908201803590602001908080601f0160208091040260200160405190810160405280939291908181526020018383808284378201915050505050509192919290505050611b56565b6040518082815260200191505060405180910390f35b34801561040957600080fd5b50610412611eb8565b604051808273ffffffffffffffffffffffffffffffffffffffff1673ffffffffffffffffffffffffffffffffffffffff16815260200191505060405180910390f35b34801561046057600080fd5b5061048c60048036038101908080359060200190929190803560ff169060200190929190505050611edd565b005b60015481565b600260009054906101000a900460ff1681565b60023073ffffffffffffffffffffffffffffffffffffffff166310055c1d6040518163ffffffff167c0100000000000000000000000000000000000000000000000000000000028152600401602060405180830381600087803b15801561050d57600080fd5b505af1158015610521573d6000803e3d6000fd5b505050506040513d602081101561053757600080fd5b81019080805190602001909291905050501415156105bd576040517f08c379a00000000000000000000000000000000000000000000000000000000081526004018080602001828103825260198152602001807f55736572206973206e6f742061207368617265686f6c6465720000000000000081525060200191505060405180910390fd5b600260019054906101000a900473ffffffffffffffffffffffffffffffffffffffff1673ffffffffffffffffffffffffffffffffffffffff166334684e5c8383336040518463ffffffff167c010000000000000000000000000000000000000000000000000000000002815260040180848152602001806020018373ffffffffffffffffffffffffffffffffffffffff1673ffffffffffffffffffffffffffffffffffffffff168152602001828103825284818151815260200191508051906020019080838360005b838110156106a1578082015181840152602081019050610686565b50505050905090810190601f1680156106ce5780820380516001836020036101000a031916815260200191505b50945050505050600060405180830381600087803b1580156106ef57600080fd5b505af1158015610703573d6000803e3d6000fd5b505050507f497ac9c2d8b6e7ea7204365157d9642f36d2b6125352bfa6d0a73328142d0bd96000809054906101000a900473ffffffffffffffffffffffffffffffffffffffff168383604051808473ffffffffffffffffffffffffffffffffffffffff1673ffffffffffffffffffffffffffffffffffffffff16815260200183815260200180602001828103825283818151815260200191508051906020019080838360005b838110156107c45780820151818401526020810190506107a9565b50505050905090810190601f1680156107f15780820380516001836020036101000a031916815260200191505b5094505050505060405180910390a15050565b60048181548110151561081357fe5b906000526020600020016000915090505481565b600360009054906101000a900473ffffffffffffffffffffffffffffffffffffffff1681565b60008060008060023073ffffffffffffffffffffffffffffffffffffffff166310055c1d6040518163ffffffff167c0100000000000000000000000000000000000000000000000000000000028152600401602060405180830381600087803b1580156108b957600080fd5b505af11580156108cd573d6000803e3d6000fd5b505050506040513d60208110156108e357600080fd5b8101908080519060200190929190505050141515610969576040517f08c379a00000000000000000000000000000000000000000000000000000000081526004018080602001828103825260198152602001807f55736572206973206e6f742061207368617265686f6c6465720000000000000081525060200191505060405180910390fd5b6000600260019054906101000a900473ffffffffffffffffffffffffffffffffffffffff1673ffffffffffffffffffffffffffffffffffffffff1663493da753336040518263ffffffff167c0100000000000000000000000000000000000000000000000000000000028152600401808273ffffffffffffffffffffffffffffffffffffffff1673ffffffffffffffffffffffffffffffffffffffff168152602001915050602060405180830381600087803b158015610a2857600080fd5b505af1158015610a3c573d6000803e3d6000fd5b505050506040513d6020811015610a5257600080fd5b810190808051906020019092919050505010151515610aff576040517f08c379a00000000000000000000000000000000000000000000000000000000081526004018080602001828103825260288152602001807f53656e64657220646f6573206e6f74206f776e20656e6f75676820766f74696e81526020017f6720746f6b656e7300000000000000000000000000000000000000000000000081525060400191505060405180910390fd5b600260019054906101000a900473ffffffffffffffffffffffffffffffffffffffff1673ffffffffffffffffffffffffffffffffffffffff1663493da753336040518263ffffffff167c0100000000000000000000000000000000000000000000000000000000028152600401808273ffffffffffffffffffffffffffffffffffffffff1673ffffffffffffffffffffffffffffffffffffffff168152602001915050602060405180830381600087803b158015610bbc57600080fd5b505af1158015610bd0573d6000803e3d6000fd5b505050506040513d6020811015610be657600080fd5b81019080805190602001909291905050509350851561103957600060048054905014151515610cc9576040517f08c379a00000000000000000000000000000000000000000000000000000000081526004018080602001828103825260508152602001807f7368617265686f6c6465722063616e6e6f742064656c6567617465207061727481526020017f69616c6c79206265636175736520686520646f6573206e6f742064656e6f6d6981526020017f6e6174656420686973207368617265730000000000000000000000000000000081525060600191505060405180910390fd5b600460018603815481101515610cdb57fe5b90600052602060002001549250600460018603815481101515610cfa57fe5b906000526020600020016000905582600260019054906101000a900473ffffffffffffffffffffffffffffffffffffffff1673ffffffffffffffffffffffffffffffffffffffff1663493da753896040518263ffffffff167c0100000000000000000000000000000000000000000000000000000000028152600401808273ffffffffffffffffffffffffffffffffffffffff1673ffffffffffffffffffffffffffffffffffffffff168152602001915050602060405180830381600087803b158015610dc657600080fd5b505af1158015610dda573d6000803e3d6000fd5b505050506040513d6020811015610df057600080fd5b8101908080519060200190929190505050019150600260019054906101000a900473ffffffffffffffffffffffffffffffffffffffff1673ffffffffffffffffffffffffffffffffffffffff16634289cefe88846040518363ffffffff167c0100000000000000000000000000000000000000000000000000000000028152600401808373ffffffffffffffffffffffffffffffffffffffff1673ffffffffffffffffffffffffffffffffffffffff16815260200182815260200192505050600060405180830381600087803b158015610ec957600080fd5b505af1158015610edd573d6000803e3d6000fd5b50505050600560408051908101604052808973ffffffffffffffffffffffffffffffffffffffff168152602001858152509080600181540180825580915050906001820390600052602060002090600202016000909192909190915060008201518160000160006101000a81548173ffffffffffffffffffffffffffffffffffffffff021916908373ffffffffffffffffffffffffffffffffffffffff160217905550602082015181600101555050507fcddcdb1cb6bb8ba24e33ffa13f7edb9820fa7dd105013832e025fd94362e252033858986604051808573ffffffffffffffffffffffffffffffffffffffff1673ffffffffffffffffffffffffffffffffffffffff1681526020018481526020018373ffffffffffffffffffffffffffffffffffffffff1673ffffffffffffffffffffffffffffffffffffffff16815260200182815260200194505050505060405180910390a1611444565b600260019054906101000a900473ffffffffffffffffffffffffffffffffffffffff1673ffffffffffffffffffffffffffffffffffffffff16634289cefe3360006040518363ffffffff167c0100000000000000000000000000000000000000000000000000000000028152600401808373ffffffffffffffffffffffffffffffffffffffff1673ffffffffffffffffffffffffffffffffffffffff16815260200182815260200192505050600060405180830381600087803b1580156110ff57600080fd5b505af1158015611113573d6000803e3d6000fd5b5050505083600260019054906101000a900473ffffffffffffffffffffffffffffffffffffffff1673ffffffffffffffffffffffffffffffffffffffff1663493da753896040518263ffffffff167c0100000000000000000000000000000000000000000000000000000000028152600401808273ffffffffffffffffffffffffffffffffffffffff1673ffffffffffffffffffffffffffffffffffffffff168152602001915050602060405180830381600087803b1580156111d557600080fd5b505af11580156111e9573d6000803e3d6000fd5b505050506040513d60208110156111ff57600080fd5b8101908080519060200190929190505050019050600260019054906101000a900473ffffffffffffffffffffffffffffffffffffffff1673ffffffffffffffffffffffffffffffffffffffff16634289cefe88836040518363ffffffff167c0100000000000000000000000000000000000000000000000000000000028152600401808373ffffffffffffffffffffffffffffffffffffffff1673ffffffffffffffffffffffffffffffffffffffff16815260200182815260200192505050600060405180830381600087803b1580156112d857600080fd5b505af11580156112ec573d6000803e3d6000fd5b50505050600560408051908101604052808973ffffffffffffffffffffffffffffffffffffffff168152602001868152509080600181540180825580915050906001820390600052602060002090600202016000909192909190915060008201518160000160006101000a81548173ffffffffffffffffffffffffffffffffffffffff021916908373ffffffffffffffffffffffffffffffffffffffff160217905550602082015181600101555050507f125eca0cb4389ce77b3681b7aa6850ee18cd61799d301a94730a3624042fbb8e33858984604051808573ffffffffffffffffffffffffffffffffffffffff1673ffffffffffffffffffffffffffffffffffffffff1681526020018481526020018373ffffffffffffffffffffffffffffffffffffffff1673ffffffffffffffffffffffffffffffffffffffff16815260200182815260200194505050505060405180910390a15b50505050505050565b80600260006101000a81548160ff02191690831515021790555050565b60008060008060023073ffffffffffffffffffffffffffffffffffffffff166310055c1d6040518163ffffffff167c0100000000000000000000000000000000000000000000000000000000028152600401602060405180830381600087803b1580156114d657600080fd5b505af11580156114ea573d6000803e3d6000fd5b505050506040513d602081101561150057600080fd5b8101908080519060200190929190505050141515611586576040517f08c379a00000000000000000000000000000000000000000000000000000000081526004018080602001828103825260198152602001807f55736572206973206e6f742061207368617265686f6c6465720000000000000081525060200191505060405180910390fd5b600260019054906101000a900473ffffffffffffffffffffffffffffffffffffffff1673ffffffffffffffffffffffffffffffffffffffff1663493da753336040518263ffffffff167c0100000000000000000000000000000000000000000000000000000000028152600401808273ffffffffffffffffffffffffffffffffffffffff1673ffffffffffffffffffffffffffffffffffffffff168152602001915050602060405180830381600087803b15801561164357600080fd5b505af1158015611657573d6000803e3d6000fd5b505050506040513d602081101561166d57600080fd5b8101908080519060200190929190505050935060008514158015611692575060008614155b1561188c57858502841015151561175d576040517f08c379a00000000000000000000000000000000000000000000000000000000081526004018080602001828103825260418152602001807f73656e64657220686173206e6f7420656e6f75676820766f74696e672077656981526020017f67687420666f7220666163746f722d62617365642064656e6f6d696e6174696f81526020017f6e0000000000000000000000000000000000000000000000000000000000000081525060600191505060405180910390fd5b600091505b858210156117a35760048590806001815401808255809150509060018203906000526020600020016000909192909190915055508180600101925050611762565b85850284039250600260019054906101000a900473ffffffffffffffffffffffffffffffffffffffff1673ffffffffffffffffffffffffffffffffffffffff16634289cefe33856040518363ffffffff167c0100000000000000000000000000000000000000000000000000000000028152600401808373ffffffffffffffffffffffffffffffffffffffff1673ffffffffffffffffffffffffffffffffffffffff16815260200182815260200192505050600060405180830381600087803b15801561186f57600080fd5b505af1158015611883573d6000803e3d6000fd5b50505050611b28565b6000861415801561189d5750600085145b15611a6d57858411151561193f576040517f08c379a00000000000000000000000000000000000000000000000000000000081526004018080602001828103825260298152602001807f73656e64657220646f6573206e6f74206861766520656e6f75676820766f746981526020017f6e6720776569676874000000000000000000000000000000000000000000000081525060400191505060405180910390fd5b600090505b85811015611986576004600190806001815401808255809150509060018203906000526020600020016000909192909190915055508080600101915050611944565b8584039250600260019054906101000a900473ffffffffffffffffffffffffffffffffffffffff1673ffffffffffffffffffffffffffffffffffffffff16634289cefe33856040518363ffffffff167c0100000000000000000000000000000000000000000000000000000000028152600401808373ffffffffffffffffffffffffffffffffffffffff1673ffffffffffffffffffffffffffffffffffffffff16815260200182815260200192505050600060405180830381600087803b158015611a5057600080fd5b505af1158015611a64573d6000803e3d6000fd5b50505050611b27565b6040517f08c379a00000000000000000000000000000000000000000000000000000000081526004018080602001828103825260458152602001807f44656e6f6d696e6174696f6e206661696c65642e20506c65617365206368656381526020017f6b2074686520706172616d7320666f7220636f72726563742064656e6f6d696e81526020017f6174696f6e00000000000000000000000000000000000000000000000000000081525060600191505060405180910390fd5b5b505050505050565b600260019054906101000a900473ffffffffffffffffffffffffffffffffffffffff1681565b600060023073ffffffffffffffffffffffffffffffffffffffff166310055c1d6040518163ffffffff167c0100000000000000000000000000000000000000000000000000000000028152600401602060405180830381600087803b158015611bbe57600080fd5b505af1158015611bd2573d6000803e3d6000fd5b505050506040513d6020811015611be857600080fd5b8101908080519060200190929190505050141515611c6e576040517f08c379a00000000000000000000000000000000000000000000000000000000081526004018080602001828103825260198152602001807f55736572206973206e6f742061207368617265686f6c6465720000000000000081525060200191505060405180910390fd5b600360009054906101000a900473ffffffffffffffffffffffffffffffffffffffff1673ffffffffffffffffffffffffffffffffffffffff1663a17d04dd84846040518363ffffffff167c0100000000000000000000000000000000000000000000000000000000028152600401808060200180602001838103835285818151815260200191508051906020019080838360005b83811015611d1d578082015181840152602081019050611d02565b50505050905090810190601f168015611d4a5780820380516001836020036101000a031916815260200191505b50838103825284818151815260200191508051906020019080838360005b83811015611d83578082015181840152602081019050611d68565b50505050905090810190601f168015611db05780820380516001836020036101000a031916815260200191505b50945050505050602060405180830381600087803b158015611dd157600080fd5b505af1158015611de5573d6000803e3d6000fd5b505050506040513d6020811015611dfb57600080fd5b810190808051906020019092919050505090507fa5fbefdc56bf0d2d586a82a9f50784dfe29ae6d3cfe3e0491131259d4f2042ee81836040518083815260200180602001828103825283818151815260200191508051906020019080838360005b83811015611e77578082015181840152602081019050611e5c565b50505050905090810190601f168015611ea45780820380516001836020036101000a031916815260200191505b50935050505060405180910390a192915050565b6000809054906101000a900473ffffffffffffffffffffffffffffffffffffffff1681565b60023073ffffffffffffffffffffffffffffffffffffffff166310055c1d6040518163ffffffff167c0100000000000000000000000000000000000000000000000000000000028152600401602060405180830381600087803b158015611f4357600080fd5b505af1158015611f57573d6000803e3d6000fd5b505050506040513d6020811015611f6d57600080fd5b8101908080519060200190929190505050141515611ff3576040517f08c379a00000000000000000000000000000000000000000000000000000000081526004018080602001828103825260198152602001807f55736572206973206e6f742061207368617265686f6c6465720000000000000081525060200191505060405180910390fd5b600073ffffffffffffffffffffffffffffffffffffffff166006600084815260200190815260200160002060009054906101000a900473ffffffffffffffffffffffffffffffffffffffff1673ffffffffffffffffffffffffffffffffffffffff161415156120f0576040517f08c379a000000000000000000000000000000000000000000000000000000000815260040180806020018281038252602f8152602001807f546865207368617265686f6c6465722068617320616c7265616479207261746581526020017f642074686973207175657374696f6e000000000000000000000000000000000081525060400191505060405180910390fd5b600360009054906101000a900473ffffffffffffffffffffffffffffffffffffffff1673ffffffffffffffffffffffffffffffffffffffff16637c2583348383600181111561213b57fe5b336040518463ffffffff167c0100000000000000000000000000000000000000000000000000000000028152600401808481526020018381526020018273ffffffffffffffffffffffffffffffffffffffff1673ffffffffffffffffffffffffffffffffffffffff1681526020019350505050600060405180830381600087803b1580156121c857600080fd5b505af11580156121dc573d6000803e3d6000fd5b50505050336006600084815260200190815260200160002060006101000a81548173ffffffffffffffffffffffffffffffffffffffff021916908373ffffffffffffffffffffffffffffffffffffffff16021790555050505600a165627a7a723058204f417e603e181d26cc4c2aa8940f1dfb530c03393c9e1809790a8e70a3701fc20029",
  "source": "pragma solidity ^0.4.23;\n\nimport \"./User.sol\";\nimport \"./AgmOwner.sol\";\nimport \"./Factory.sol\";\nimport \"./ProposalData.sol\";\n\n/**\n*   @title this contract represents a shareholder of the corporation and his shareholder rights during the AGM\n*/\ncontract Shareholder is User, ProposalData {\n    // reference to the proposals\n    Factory public fac;\n    // reference to the Q&A lists\n    QandA public qa;\n    // list of all share blocks which are created during denomination\n    uint[] public votingDenominations;\n    // list of all delegations to proxies\n    Delegate[] private delegations;\n    // to remember which shareholder rated on which specific question\n    mapping (uint => address) private ratings;\n    // possible rating options\n    enum RatingOption {DOWNVOTE, UPVOTE}\n\n    struct Delegate {\n        address proxy;\n        // number of shares of the sender\n        uint votingWeight;\n    }\n\n    /**\n    *   @dev checks that the caller has the shareholder role\n    */\n    modifier onlyShareholder {\n        require((this.role() == 2), \"User is not a shareholder\");\n        _;\n    }\n\n    event QuestionCreated(uint questionId, string creator);\n    event Voted(address invoker, uint proposalId, string votingOption);\n    event VoterWeight(address userAddress, uint weight);\n    event PartialDelegationFrom(address sender, uint senderWeight, address proxy, uint proxyWeight);\n    event SimpleDelegationFrom(address sender, uint senderWeight, address proxy, uint proxyWeight);\n    event ShareholderCreated(address userAddress, uint votingWeight);\n    event WeightDivision(uint result);\n    event CalculateDivision(uint num, uint copy, uint divider);\n\n    /**\n    *   @dev the voting weight is set during the shareholder construction\n    */\n    constructor(address userAddress, uint _votingWeight, Factory _fac, QandA _qa)\n        User(userAddress, Role.SHAREHOLDER, false) public {\n\n        fac = _fac;\n        qa = _qa;\n        fac.setVotingWeight(userAddress, _votingWeight);\n\n        emit ShareholderCreated(userAddress, fac.votingWeights(userAddress));\n    }\n\n    /**\n    *   @dev implements the voting behavior: a shareholder can vote on a specific proposal\n    *   @param proposalId the id of the proposal\n    *   @param votingOption the voting option for which the shareholder voted\n    */\n    function vote(uint proposalId, string votingOption) public onlyShareholder {\n        fac.setVote(proposalId, votingOption, msg.sender);\n\n        emit Voted(userAddress, proposalId, votingOption);\n    }\n\n    /**\n    *   @dev create a new question\n    *   @param _ipfs_hash the hash where the question content is stored\n    *   @param creator the creator of the question\n    *   @return questId the id of the new generated question\n    */\n    function createQuestion(string _ipfs_hash, string creator) public onlyShareholder returns (uint questId) {\n        questId = qa.createNewQuestion(_ipfs_hash, creator);\n\n        emit QuestionCreated(questId, creator);\n    }\n\n    /**\n    *   @dev rate a specific question\n    *   @param questionId the id of the question\n    *   @param ratingOpt = 0 (dislike) | 1 (like)\n    */\n    function rateQuestion(uint questionId, RatingOption ratingOpt) public onlyShareholder {\n        require(ratings[questionId] == address(0), \"The shareholder has already rated this question\");\n        qa.setRating(questionId, uint(ratingOpt), msg.sender);\n        ratings[questionId] = msg.sender;\n    }\n\n    /**\n    *   @dev denominate the number of shares into smaller share blocks and to store them in the denomination list\n    *   @param numOfBlockWeights the number of share blocks which shall be created\n    *   @param factor the number of shares which are stored in a single share block \n    */\n    function denominateVotingTokens(uint numOfBlockWeights, uint factor) public onlyShareholder {\n        uint voterWeight = fac.votingWeights(msg.sender);\n        uint subtractedVoteWeight;\n        if (factor != 0 && numOfBlockWeights != 0) {\n            require(voterWeight >= factor * numOfBlockWeights, \"sender has not enough voting weight for factor-based denomination\");\n            for (uint i = 0; i < numOfBlockWeights; i++) {\n                votingDenominations.push(factor);\n            }\n            subtractedVoteWeight = voterWeight - (factor * numOfBlockWeights);\n            fac.setVotingWeight(msg.sender, subtractedVoteWeight);\n\n        } else if (numOfBlockWeights != 0 && factor == 0) {\n            require(voterWeight > numOfBlockWeights, \"sender does not have enough voting weight\");\n            for (uint k = 0; k < numOfBlockWeights; k++) {\n                votingDenominations.push(1);\n            }\n            subtractedVoteWeight = voterWeight - numOfBlockWeights;\n            fac.setVotingWeight(msg.sender, subtractedVoteWeight);\n\n        } else {\n            revert(\"Denomination failed. Please check the params for correct denomination\");\n        }\n    }\n\n    /**\n    *   @dev supporting delegation types:\n    *            - simple delegation: all shares are delegated to the proxy\n    *            - partial delegation: a specific share block from the denomination list is delegated to a specific proxy\n    *    @param proxyAddress the address of the proxy\n    *    @param partialDelegation indicated which delegation type shall be applied\n    *    @param voteBlockIndex the index of the share block in the denomination list\n    */\n    function delegateToProxy(address proxyAddress, bool partialDelegation, uint voteBlockIndex) public onlyShareholder {\n        require(fac.votingWeights(msg.sender) >= 0, \"Sender does not own enough voting tokens\");\n        uint senderWeight = fac.votingWeights(msg.sender);\n        if (partialDelegation) {\n            require(votingDenominations.length != 0, \"shareholder cannot delegate partially because he does not denominated his shares\");\n            // the enumaration of share blocks starts from 1 in the UI\n            uint targetVoteWeight = votingDenominations[voteBlockIndex - 1];\n            // deletes voting weight block in the denomination list of the shareholder\n            delete votingDenominations[voteBlockIndex - 1];\n            uint newWeightWithPartDeleg = fac.votingWeights(proxyAddress) + targetVoteWeight;\n            // add the voting weight of the sender to the proxy\n            fac.setVotingWeight(proxyAddress, newWeightWithPartDeleg);\n            delegations.push(Delegate(proxyAddress, targetVoteWeight));\n\n            emit PartialDelegationFrom(msg.sender, senderWeight, proxyAddress, targetVoteWeight);\n        } else {\n            // subtract ALL shares from the sender and add them to proxy\n            fac.setVotingWeight(msg.sender, 0);\n            uint newWeight = fac.votingWeights(proxyAddress) + senderWeight;\n            fac.setVotingWeight(proxyAddress, newWeight);\n            delegations.push(Delegate(proxyAddress, senderWeight));\n\n            emit SimpleDelegationFrom(msg.sender, senderWeight, proxyAddress, newWeight);\n        }\n    }\n}\n",
  "sourcePath": "/Users/christianmischok/git/ShareholderMeeting/solidity/contracts/Shareholder.sol",
  "compiler": {
    "name": "solc",
    "version": "0.4.24+commit.e67f0147.Emscripten.clang"
  },
  "schemaVersion": "2.0.1",
  "updatedAt": "2018-10-17T21:12:31.950Z"
}