{
  "contractName": "Shareholder",
  "abi": [
    {
      "constant": true,
      "inputs": [
        {
          "name": "",
          "type": "uint256"
        }
      ],
      "name": "proposals",
      "outputs": [
        {
          "name": "name",
          "type": "string"
        },
        {
          "name": "description",
          "type": "string"
        },
        {
          "name": "finished",
          "type": "bool"
        },
        {
          "name": "proposalPassed",
          "type": "bool"
        },
        {
          "name": "passedPercent",
          "type": "uint256"
        },
        {
          "name": "voteCount",
          "type": "uint256"
        }
      ],
      "payable": false,
      "stateMutability": "view",
      "type": "function"
    },
    {
      "constant": true,
      "inputs": [
        {
          "name": "_userAddress",
          "type": "address"
        }
      ],
      "name": "userExists",
      "outputs": [
        {
          "name": "exists",
          "type": "bool"
        }
      ],
      "payable": false,
      "stateMutability": "view",
      "type": "function"
    },
    {
      "constant": true,
      "inputs": [],
      "name": "isDirector",
      "outputs": [
        {
          "name": "",
          "type": "bool"
        }
      ],
      "payable": false,
      "stateMutability": "view",
      "type": "function"
    },
    {
      "constant": true,
      "inputs": [
        {
          "name": "",
          "type": "uint256"
        }
      ],
      "name": "questions",
      "outputs": [
        {
          "name": "creator",
          "type": "address"
        },
        {
          "name": "questionId",
          "type": "uint256"
        },
        {
          "name": "content",
          "type": "string"
        },
        {
          "name": "timestamp",
          "type": "uint256"
        },
        {
          "name": "upvotes",
          "type": "uint256"
        },
        {
          "name": "downvotes",
          "type": "uint256"
        }
      ],
      "payable": false,
      "stateMutability": "view",
      "type": "function"
    },
    {
      "constant": true,
      "inputs": [
        {
          "name": "",
          "type": "uint256"
        }
      ],
      "name": "users",
      "outputs": [
        {
          "name": "",
          "type": "address"
        }
      ],
      "payable": false,
      "stateMutability": "view",
      "type": "function"
    },
    {
      "constant": true,
      "inputs": [
        {
          "name": "",
          "type": "address"
        }
      ],
      "name": "userId",
      "outputs": [
        {
          "name": "",
          "type": "uint256"
        }
      ],
      "payable": false,
      "stateMutability": "view",
      "type": "function"
    },
    {
      "constant": true,
      "inputs": [
        {
          "name": "name",
          "type": "string"
        }
      ],
      "name": "getProposalIdByName",
      "outputs": [
        {
          "name": "proposalId",
          "type": "uint256"
        }
      ],
      "payable": false,
      "stateMutability": "view",
      "type": "function"
    },
    {
      "constant": true,
      "inputs": [],
      "name": "userAddress",
      "outputs": [
        {
          "name": "",
          "type": "address"
        }
      ],
      "payable": false,
      "stateMutability": "view",
      "type": "function"
    },
    {
      "inputs": [
        {
          "name": "userAddress",
          "type": "address"
        },
        {
          "name": "_votingTokens",
          "type": "uint256"
        }
      ],
      "payable": false,
      "stateMutability": "nonpayable",
      "type": "constructor"
    },
    {
      "anonymous": false,
      "inputs": [
        {
          "indexed": false,
          "name": "invoker",
          "type": "address"
        }
      ],
      "name": "InvalidRatingOption",
      "type": "event"
    },
    {
      "anonymous": false,
      "inputs": [
        {
          "indexed": false,
          "name": "invoker",
          "type": "address"
        },
        {
          "indexed": false,
          "name": "numUpvotes",
          "type": "uint256"
        }
      ],
      "name": "QuestionUpvote",
      "type": "event"
    },
    {
      "anonymous": false,
      "inputs": [
        {
          "indexed": false,
          "name": "invoker",
          "type": "address"
        },
        {
          "indexed": false,
          "name": "numDownvotes",
          "type": "uint256"
        }
      ],
      "name": "QuestionDownvote",
      "type": "event"
    },
    {
      "anonymous": false,
      "inputs": [
        {
          "indexed": false,
          "name": "invoker",
          "type": "address"
        },
        {
          "indexed": false,
          "name": "proposalId",
          "type": "uint256"
        },
        {
          "indexed": false,
          "name": "votingOption",
          "type": "string"
        }
      ],
      "name": "Voted",
      "type": "event"
    },
    {
      "constant": false,
      "inputs": [
        {
          "name": "userAddress",
          "type": "address"
        },
        {
          "name": "proposalId",
          "type": "uint256"
        },
        {
          "name": "votingOption",
          "type": "string"
        }
      ],
      "name": "vote",
      "outputs": [],
      "payable": false,
      "stateMutability": "nonpayable",
      "type": "function"
    },
    {
      "constant": false,
      "inputs": [
        {
          "name": "questionId",
          "type": "uint256"
        },
        {
          "name": "_creator",
          "type": "address"
        },
        {
          "name": "_content",
          "type": "string"
        }
      ],
      "name": "createQuestion",
      "outputs": [
        {
          "name": "id",
          "type": "uint256"
        }
      ],
      "payable": false,
      "stateMutability": "nonpayable",
      "type": "function"
    },
    {
      "constant": false,
      "inputs": [
        {
          "name": "questionId",
          "type": "uint256"
        },
        {
          "name": "ratingOpt",
          "type": "uint8"
        }
      ],
      "name": "rateQuestion",
      "outputs": [],
      "payable": false,
      "stateMutability": "nonpayable",
      "type": "function"
    },
    {
      "constant": false,
      "inputs": [
        {
          "name": "proxyAddress",
          "type": "address"
        },
        {
          "name": "_votingTokens",
          "type": "uint256"
        },
        {
          "name": "partialDelegation",
          "type": "bool"
        }
      ],
      "name": "delegateToProxy",
      "outputs": [],
      "payable": false,
      "stateMutability": "nonpayable",
      "type": "function"
    }
  ],
  "bytecode": "0x608060405234801561001057600080fd5b506040516040806117f5833981018060405281019080805190602001909291908051906020019092919050505081600081600260006101000a81548173ffffffffffffffffffffffffffffffffffffffff021916908373ffffffffffffffffffffffffffffffffffffffff16021790555080600260146101000a81548160ff02191690831515021790555050506000600560006101000a81548173ffffffffffffffffffffffffffffffffffffffff021916908373ffffffffffffffffffffffffffffffffffffffff1602179055505050611705806100f06000396000f3006080604052600436106100ba576000357c0100000000000000000000000000000000000000000000000000000000900463ffffffff168063013cf08b146100bf5780630e666e49146101f55780631ad8af8d1461025057806331b1b9781461027f578063365b98b214610374578063376fe102146103e1578063a843f3bc14610438578063c1c7febe146104cb578063c505e83614610524578063e4128fb3146105a1578063f1c7cfb3146105f8578063fe3fb07c14610632575b600080fd5b3480156100cb57600080fd5b506100ea600480360381019080803590602001909291905050506106d9565b6040518080602001806020018715151515815260200186151515158152602001858152602001848152602001838103835289818151815260200191508051906020019080838360005b8381101561014e578082015181840152602081019050610133565b50505050905090810190601f16801561017b5780820380516001836020036101000a031916815260200191505b50838103825288818151815260200191508051906020019080838360005b838110156101b4578082015181840152602081019050610199565b50505050905090810190601f1680156101e15780820380516001836020036101000a031916815260200191505b509850505050505050505060405180910390f35b34801561020157600080fd5b50610236600480360381019080803573ffffffffffffffffffffffffffffffffffffffff16906020019092919050505061086e565b604051808215151515815260200191505060405180910390f35b34801561025c57600080fd5b506102656108ba565b604051808215151515815260200191505060405180910390f35b34801561028b57600080fd5b506102aa600480360381019080803590602001909291905050506108cd565b604051808773ffffffffffffffffffffffffffffffffffffffff1673ffffffffffffffffffffffffffffffffffffffff16815260200186815260200180602001858152602001848152602001838152602001828103825286818151815260200191508051906020019080838360005b83811015610334578082015181840152602081019050610319565b50505050905090810190601f1680156103615780820380516001836020036101000a031916815260200191505b5097505050505050505060405180910390f35b34801561038057600080fd5b5061039f600480360381019080803590602001909291905050506109d0565b604051808273ffffffffffffffffffffffffffffffffffffffff1673ffffffffffffffffffffffffffffffffffffffff16815260200191505060405180910390f35b3480156103ed57600080fd5b50610422600480360381019080803573ffffffffffffffffffffffffffffffffffffffff169060200190929190505050610a0e565b6040518082815260200191505060405180910390f35b34801561044457600080fd5b506104c9600480360381019080803573ffffffffffffffffffffffffffffffffffffffff16906020019092919080359060200190929190803590602001908201803590602001908080601f0160208091040260200160405190810160405280939291908181526020018383808284378201915050505050509192919290505050610a26565b005b3480156104d757600080fd5b50610522600480360381019080803573ffffffffffffffffffffffffffffffffffffffff16906020019092919080359060200190929190803515159060200190929190505050610d0e565b005b34801561053057600080fd5b5061058b600480360381019080803590602001908201803590602001908080601f0160208091040260200160405190810160405280939291908181526020018383808284378201915050505050509192919290505050611052565b6040518082815260200191505060405180910390f35b3480156105ad57600080fd5b506105b661117c565b604051808273ffffffffffffffffffffffffffffffffffffffff1673ffffffffffffffffffffffffffffffffffffffff16815260200191505060405180910390f35b34801561060457600080fd5b5061063060048036038101908080359060200190929190803560ff1690602001909291905050506111a2565b005b34801561063e57600080fd5b506106c360048036038101908080359060200190929190803573ffffffffffffffffffffffffffffffffffffffff169060200190929190803590602001908201803590602001908080601f016020809104026020016040519081016040528093929190818152602001838380828437820191505050505050919291929050505061137a565b6040518082815260200191505060405180910390f35b6003818154811015156106e857fe5b9060005260206000209060080201600091509050806000018054600181600116156101000203166002900480601f0160208091040260200160405190810160405280929190818152602001828054600181600116156101000203166002900480156107945780601f1061076957610100808354040283529160200191610794565b820191906000526020600020905b81548152906001019060200180831161077757829003601f168201915b505050505090806001018054600181600116156101000203166002900480601f0160208091040260200160405190810160405280929190818152602001828054600181600116156101000203166002900480156108325780601f1061080757610100808354040283529160200191610832565b820191906000526020600020905b81548152906001019060200180831161081557829003601f168201915b5050505050908060030160009054906101000a900460ff16908060030160019054906101000a900460ff16908060040154908060050154905086565b600080600160008473ffffffffffffffffffffffffffffffffffffffff1673ffffffffffffffffffffffffffffffffffffffff1681526020019081526020016000205414159050919050565b600260149054906101000a900460ff1681565b6006818154811015156108dc57fe5b90600052602060002090600602016000915090508060000160009054906101000a900473ffffffffffffffffffffffffffffffffffffffff1690806001015490806002018054600181600116156101000203166002900480601f0160208091040260200160405190810160405280929190818152602001828054600181600116156101000203166002900480156109b45780601f10610989576101008083540402835291602001916109b4565b820191906000526020600020905b81548152906001019060200180831161099757829003601f168201915b5050505050908060030154908060040154908060050154905086565b6000818154811015156109df57fe5b906000526020600020016000915054906101000a900473ffffffffffffffffffffffffffffffffffffffff1681565b60016020528060005260406000206000915090505481565b600080600384815481101515610a3857fe5b906000526020600020906008020191508160070160003373ffffffffffffffffffffffffffffffffffffffff1673ffffffffffffffffffffffffffffffffffffffff16815260200190815260200160002060009054906101000a900460ff16151515610b0c576040517f08c379a000000000000000000000000000000000000000000000000000000000815260040180806020018281038252601d8152602001807f546865207368617265686f6c64657220616c726561647920766f74656400000081525060200191505060405180910390fd5b816006018054809190600101610b22919061143c565b905060408051908101604052808673ffffffffffffffffffffffffffffffffffffffff168152602001848152508260060182815481101515610b6057fe5b906000526020600020906002020160008201518160000160006101000a81548173ffffffffffffffffffffffffffffffffffffffff021916908373ffffffffffffffffffffffffffffffffffffffff1602179055506020820151816001019080519060200190610bd192919061146e565b5090505060018260070160003373ffffffffffffffffffffffffffffffffffffffff1673ffffffffffffffffffffffffffffffffffffffff16815260200190815260200160002060006101000a81548160ff0219169083151502179055507f497ac9c2d8b6e7ea7204365157d9642f36d2b6125352bfa6d0a73328142d0bd9858585604051808473ffffffffffffffffffffffffffffffffffffffff1673ffffffffffffffffffffffffffffffffffffffff16815260200183815260200180602001828103825283818151815260200191508051906020019080838360005b83811015610ccb578082015181840152602081019050610cb0565b50505050905090810190601f168015610cf85780820380516001836020036101000a031916815260200191505b5094505050505060405180910390a15050505050565b81600460003373ffffffffffffffffffffffffffffffffffffffff1673ffffffffffffffffffffffffffffffffffffffff1681526020019081526020016000205410151515610d5c57600080fd5b3373ffffffffffffffffffffffffffffffffffffffff168373ffffffffffffffffffffffffffffffffffffffff1614151515610e00576040517f08c379a000000000000000000000000000000000000000000000000000000000815260040180806020018281038252601e8152602001807f53656c662d64656c65676174696f6e206973206e6f7420616c6c6f776564000081525060200191505060405180910390fd5b610e098361086e565b1515610e7d576040517f08c379a000000000000000000000000000000000000000000000000000000000815260040180806020018281038252601e8152602001807f50726f7879206973206e6f74206120726567697374657265642075736572000081525060200191505060405180910390fd5b610e863361086e565b1515610f20576040517f08c379a00000000000000000000000000000000000000000000000000000000081526004018080602001828103825260228152602001807f7468652075736572206163636f756e74206973206e6f7420726567697374657281526020017f656400000000000000000000000000000000000000000000000000000000000081525060400191505060405180910390fd5b600073ffffffffffffffffffffffffffffffffffffffff16600560009054906101000a900473ffffffffffffffffffffffffffffffffffffffff1673ffffffffffffffffffffffffffffffffffffffff1614151561100c576040517f08c379a000000000000000000000000000000000000000000000000000000000815260040180806020018281038252602b8152602001807f7573657220616c7265616479206861732064656c65676174656420746f20616e81526020017f6f746865722070726f787900000000000000000000000000000000000000000081525060400191505060405180910390fd5b82600560006101000a81548173ffffffffffffffffffffffffffffffffffffffff021916908373ffffffffffffffffffffffffffffffffffffffff160217905550505050565b600080600090505b6003805490508110156111755760038181548110151561107657fe5b906000526020600020906008020160000160405180828054600181600116156101000203166002900480156110e25780601f106110c05761010080835404028352918201916110e2565b820191906000526020600020905b8154815290600101906020018083116110ce575b5050915050604051809103902060001916836040518082805190602001908083835b6020831015156111295780518252602082019150602081019050602083039250611104565b6001836020036101000a038019825116818451168082178552505050505050905001915050604051809103902060001916141561116857809150611176565b808060010191505061105a565b5b50919050565b600260009054906101000a900473ffffffffffffffffffffffffffffffffffffffff1681565b60006006838154811015156111b357fe5b90600052602060002090600602019050600060018111156111d057fe5b8260018111156111dc57fe5b141561126a5780600401600081548092919060010191905055507f54a8ca358ef57f5199692f9accebf1cea9c3b6a6351db8b1976a3283f3c7caa5338260040154604051808373ffffffffffffffffffffffffffffffffffffffff1673ffffffffffffffffffffffffffffffffffffffff1681526020018281526020019250505060405180910390a1611375565b60018081111561127657fe5b82600181111561128257fe5b14156113105780600501600081548092919060010191905055507fb0f1a350a68ca81aea495057b739a0ab46613ea46337a4ecf18a0e5891b22423338260050154604051808373ffffffffffffffffffffffffffffffffffffffff1673ffffffffffffffffffffffffffffffffffffffff1681526020018281526020019250505060405180910390a1611374565b7f7c153d1a9d147fafdf065d15a62aca5b9ae7c237b3f61826022605c14aa265fb33604051808273ffffffffffffffffffffffffffffffffffffffff1673ffffffffffffffffffffffffffffffffffffffff16815260200191505060405180910390a15b5b505050565b6000806006805480919060010161139191906114ee565b91506006828154811015156113a257fe5b90600052602060002090600602019050818160010181905550838160000160006101000a81548173ffffffffffffffffffffffffffffffffffffffff021916908373ffffffffffffffffffffffffffffffffffffffff16021790555082816002019080519060200190611416929190611520565b504281600301819055506000816004018190555060008160050181905550509392505050565b8154818355818111156114695760020281600202836000526020600020918201910161146891906115a0565b5b505050565b828054600181600116156101000203166002900490600052602060002090601f016020900481019282601f106114af57805160ff19168380011785556114dd565b828001600101855582156114dd579182015b828111156114dc5782518255916020019190600101906114c1565b5b5090506114ea91906115f6565b5090565b81548183558181111561151b5760060281600602836000526020600020918201910161151a919061161b565b5b505050565b828054600181600116156101000203166002900490600052602060002090601f016020900481019282601f1061156157805160ff191683800117855561158f565b8280016001018555821561158f579182015b8281111561158e578251825591602001919060010190611573565b5b50905061159c91906115f6565b5090565b6115f391905b808211156115ef57600080820160006101000a81549073ffffffffffffffffffffffffffffffffffffffff02191690556001820160006115e69190611691565b506002016115a6565b5090565b90565b61161891905b808211156116145760008160009055506001016115fc565b5090565b90565b61168e91905b8082111561168a57600080820160006101000a81549073ffffffffffffffffffffffffffffffffffffffff021916905560018201600090556002820160006116699190611691565b60038201600090556004820160009055600582016000905550600601611621565b5090565b90565b50805460018160011615610100020316600290046000825580601f106116b757506116d6565b601f0160209004906000526020600020908101906116d591906115f6565b5b505600a165627a7a72305820c88b056091335d182d594f0bce7cda1a50e5757347dbe68ded89120154a492320029",
  "source": "pragma solidity ^0.4.23;\r\n\r\nimport \"./User.sol\";\r\nimport \"./AgmOwner.sol\";\r\nimport \"./Voter.sol\";\r\n\r\ncontract Shareholder is User, Voter {\r\n\r\n    address delegate;\r\n\r\n    //mapping(address => Delegate[]) delegations;\r\n    Question[] public questions;\r\n\r\n    enum RatingOption {UPVOTE, DOWNVOTE}\r\n\r\n    struct Question {\r\n        address creator;\r\n        uint questionId;\r\n        string content;\r\n        uint timestamp;\r\n        uint upvotes;\r\n        uint downvotes;\r\n    }\r\n\r\n    struct Delegate {\r\n        address proxy;\r\n        uint votingTok;\r\n    }\r\n\r\n    modifier onlyShareholder {\r\n        require(votingTokens[msg.sender] > 0);\r\n        _;\r\n    }\r\n\r\n    constructor(address userAddress, uint _votingTokens) \r\n        User(userAddress, false) public {\r\n            \r\n        delegate = address(0);\r\n    }\r\n    \r\n    event InvalidRatingOption(address invoker);\r\n    event QuestionUpvote(address invoker, uint numUpvotes);\r\n    event QuestionDownvote(address invoker, uint numDownvotes);\r\n    event Voted(address invoker, uint proposalId, string votingOption);\r\n\r\n    function vote(address userAddress, uint proposalId, string votingOption) public {\r\n        Proposal storage prop = proposals[proposalId];\r\n        \r\n        require(!prop.votedOnProposal[msg.sender], \"The shareholder already voted\");\r\n\r\n        uint voteId = prop.votes.length++;\r\n        prop.votes[voteId] = Vote({voterAddress: userAddress, voterDecision: votingOption});\r\n        prop.votedOnProposal[msg.sender] = true;    \r\n        emit Voted(userAddress, proposalId, votingOption);\r\n    }\r\n\r\n    function createQuestion(uint questionId, address _creator, string _content) public returns (uint id) {\r\n        id = questions.length++;\r\n        Question storage question = questions[id];\r\n        question.questionId = id;\r\n        question.creator = _creator;\r\n        question.content = _content;\r\n        question.timestamp = now;\r\n        question.upvotes = 0;\r\n        question.downvotes = 0;\r\n    }\r\n\r\n    function rateQuestion(uint questionId, RatingOption ratingOpt) public {\r\n        Question storage question = questions[questionId];\r\n        if (ratingOpt == RatingOption.UPVOTE) {\r\n            question.upvotes++;\r\n            emit QuestionUpvote(msg.sender, question.upvotes);\r\n        } else if (ratingOpt == RatingOption.DOWNVOTE) {\r\n            question.downvotes++;\r\n            emit QuestionDownvote(msg.sender, question.downvotes);\r\n        } else {\r\n            emit InvalidRatingOption(msg.sender);\r\n        }\r\n    }\r\n\r\n    // if shareholder voted on any proposal he cannot delegate his VP to a proxy anymore\r\n    function delegateToProxy(address proxyAddress, uint _votingTokens, bool partialDelegation) public {\r\n        require(votingTokens[msg.sender] >= _votingTokens);\r\n        require(proxyAddress != msg.sender, \"Self-delegation is not allowed\");\r\n        require(userExists(proxyAddress), \"Proxy is not a registered user\");\r\n        require(userExists(msg.sender), \"the user account is not registered\");\r\n        require(delegate == address(0), \"user already has delegated to another proxy\");\r\n        // partial voting, delegate a part of his token to multiple proxies\r\n        // so far it's simple delegation: only whole number of voting token can be delegated to one proxy\r\n\r\n        delegate = proxyAddress;\r\n       \r\n        \r\n        \r\n    }\r\n}\r\n\r\n\r\n\r\n\r\n",
  "sourcePath": "D:\\Git\\repo\\ShareholderMeeting\\solidity\\contracts\\Shareholder.sol",
  "compiler": {
    "name": "solc",
    "version": "0.4.23+commit.124ca40d.Emscripten.clang"
  },
  "schemaVersion": "2.0.0",
  "updatedAt": "2018-07-12T10:36:59.926Z"
}