{
  "contractName": "User",
  "abi": [
    {
      "constant": true,
      "inputs": [],
      "name": "role",
      "outputs": [
        {
          "name": "",
          "type": "uint256"
        }
      ],
      "payable": false,
      "stateMutability": "view",
      "type": "function"
    },
    {
      "constant": true,
      "inputs": [],
      "name": "isRegistered",
      "outputs": [
        {
          "name": "",
          "type": "bool"
        }
      ],
      "payable": false,
      "stateMutability": "view",
      "type": "function"
    },
    {
      "constant": true,
      "inputs": [],
      "name": "userAddress",
      "outputs": [
        {
          "name": "",
          "type": "address"
        }
      ],
      "payable": false,
      "stateMutability": "view",
      "type": "function"
    },
    {
      "inputs": [
        {
          "name": "_userAddress",
          "type": "address"
        },
        {
          "name": "_role",
          "type": "uint8"
        },
        {
          "name": "_isRegistered",
          "type": "bool"
        }
      ],
      "payable": false,
      "stateMutability": "nonpayable",
      "type": "constructor"
    },
    {
      "anonymous": false,
      "inputs": [
        {
          "indexed": false,
          "name": "exists",
          "type": "bool"
        }
      ],
      "name": "UserExists",
      "type": "event"
    },
    {
      "constant": false,
      "inputs": [
        {
          "name": "reg",
          "type": "bool"
        }
      ],
      "name": "setIsRegistered",
      "outputs": [],
      "payable": false,
      "stateMutability": "nonpayable",
      "type": "function"
    }
  ],
  "bytecode": "0x608060405234801561001057600080fd5b50604051606080610293833981018060405281019080805190602001909291908051906020019092919080519060200190929190505050826000806101000a81548173ffffffffffffffffffffffffffffffffffffffff021916908373ffffffffffffffffffffffffffffffffffffffff16021790555081600281111561009357fe5b60018190555080600260006101000a81548160ff0219169083151502179055505050506101ce806100c56000396000f300608060405260043610610062576000357c0100000000000000000000000000000000000000000000000000000000900463ffffffff16806310055c1d146100675780632236684414610092578063ae2dac1a146100c1578063e4128fb3146100f0575b600080fd5b34801561007357600080fd5b5061007c610147565b6040518082815260200191505060405180910390f35b34801561009e57600080fd5b506100a761014d565b604051808215151515815260200191505060405180910390f35b3480156100cd57600080fd5b506100ee600480360381019080803515159060200190929190505050610160565b005b3480156100fc57600080fd5b5061010561017d565b604051808273ffffffffffffffffffffffffffffffffffffffff1673ffffffffffffffffffffffffffffffffffffffff16815260200191505060405180910390f35b60015481565b600260009054906101000a900460ff1681565b80600260006101000a81548160ff02191690831515021790555050565b6000809054906101000a900473ffffffffffffffffffffffffffffffffffffffff16815600a165627a7a72305820ce47f58c2ce2644dbbca77a64d02bb4f0c63fc43aa08b7365ec1304b423503180029",
  "source": "pragma solidity ^0.4.23;\n\n/**\n*   @title this contract represents an abstract user who participates in the AGM \n*/\ncontract User {\n\n    address public userAddress;\n    // role of the user = 0 (AgmOwner) | 1 (Director) | 2 (Shareholder) | 3 (user does not exist)\n    uint public role;\n    // to indicated whether the user registered for the AGM\n    bool public isRegistered;\n    // different user roles\n    enum Role {AGMOWNER, DIRECTOR, SHAREHOLDER}\n\n    event UserExists(bool exists);\n\n    /**\n    *   @dev the role is encoded as integer and the isRegistered flag is initialized to false\n    */\n    constructor(address _userAddress, Role _role, bool _isRegistered) public {\n        userAddress = _userAddress;\n        role = uint(_role);\n        isRegistered = _isRegistered;\n    }\n\n    // change the status to true if the user has registered in the AGM app\n    function setIsRegistered(bool reg) public {\n        isRegistered = reg;\n    }\n}\n",
  "sourcePath": "/Users/christianmischok/git/ShareholderMeeting/solidity/contracts/User.sol",
  "compiler": {
    "name": "solc",
    "version": "0.4.24+commit.e67f0147.Emscripten.clang"
  },
  "schemaVersion": "2.0.1",
  "updatedAt": "2018-10-14T12:24:19.405Z"
}