{
  "contractName": "Voter",
  "abi": [
    {
      "constant": true,
      "inputs": [
        {
          "name": "",
          "type": "uint256"
        }
      ],
      "name": "proposals",
      "outputs": [
        {
          "name": "name",
          "type": "string"
        },
        {
          "name": "description",
          "type": "string"
        },
        {
          "name": "finished",
          "type": "bool"
        },
        {
          "name": "proposalPassed",
          "type": "bool"
        },
        {
          "name": "passedPercent",
          "type": "uint256"
        },
        {
          "name": "voteCount",
          "type": "uint256"
        }
      ],
      "payable": false,
      "stateMutability": "view",
      "type": "function"
    },
    {
      "constant": true,
      "inputs": [
        {
          "name": "name",
          "type": "string"
        }
      ],
      "name": "getProposalIdByName",
      "outputs": [
        {
          "name": "proposalId",
          "type": "uint256"
        }
      ],
      "payable": false,
      "stateMutability": "view",
      "type": "function"
    }
  ],
  "bytecode": "0x608060405234801561001057600080fd5b506104ef806100206000396000f30060806040526004361061004c576000357c0100000000000000000000000000000000000000000000000000000000900463ffffffff168063013cf08b14610051578063c505e83614610187575b600080fd5b34801561005d57600080fd5b5061007c60048036038101908080359060200190929190505050610204565b6040518080602001806020018715151515815260200186151515158152602001858152602001848152602001838103835289818151815260200191508051906020019080838360005b838110156100e05780820151818401526020810190506100c5565b50505050905090810190601f16801561010d5780820380516001836020036101000a031916815260200191505b50838103825288818151815260200191508051906020019080838360005b8381101561014657808201518184015260208101905061012b565b50505050905090810190601f1680156101735780820380516001836020036101000a031916815260200191505b509850505050505050505060405180910390f35b34801561019357600080fd5b506101ee600480360381019080803590602001908201803590602001908080601f0160208091040260200160405190810160405280939291908181526020018383808284378201915050505050509192919290505050610399565b6040518082815260200191505060405180910390f35b60008181548110151561021357fe5b9060005260206000209060080201600091509050806000018054600181600116156101000203166002900480601f0160208091040260200160405190810160405280929190818152602001828054600181600116156101000203166002900480156102bf5780601f10610294576101008083540402835291602001916102bf565b820191906000526020600020905b8154815290600101906020018083116102a257829003601f168201915b505050505090806001018054600181600116156101000203166002900480601f01602080910402602001604051908101604052809291908181526020018280546001816001161561010002031660029004801561035d5780601f106103325761010080835404028352916020019161035d565b820191906000526020600020905b81548152906001019060200180831161034057829003601f168201915b5050505050908060030160009054906101000a900460ff16908060030160019054906101000a900460ff16908060040154908060050154905086565b600080600090505b6000805490508110156104bc576000818154811015156103bd57fe5b906000526020600020906008020160000160405180828054600181600116156101000203166002900480156104295780601f10610407576101008083540402835291820191610429565b820191906000526020600020905b815481529060010190602001808311610415575b5050915050604051809103902060001916836040518082805190602001908083835b602083101515610470578051825260208201915060208101905060208303925061044b565b6001836020036101000a03801982511681845116808217855250505050505090500191505060405180910390206000191614156104af578091506104bd565b80806001019150506103a1565b5b509190505600a165627a7a7230582070fc83ad0536cc72267e7d691b1d11f95d588a99e849fabdaedeb655826988700029",
  "source": "pragma solidity ^0.4.23;\r\n\r\ncontract Voter {\r\n\r\n    Proposal[] public proposals;\r\n    mapping(address => uint) votingTokens;\r\n    \r\n    struct Proposal {\r\n        string name;\r\n        string description;\r\n        string[] options;\r\n        bool finished;\r\n        bool proposalPassed;\r\n        uint passedPercent;\r\n        uint voteCount;\r\n        Vote[] votes;\r\n        mapping(address => bool) votedOnProposal;\r\n    }\r\n\r\n    struct Vote {\r\n        address voterAddress;\r\n        string voterDecision;\r\n    }\r\n\r\n    function getProposalIdByName(string name) public view returns(uint proposalId) {\r\n        for (uint i = 0; i < proposals.length; i++) {\r\n            if (keccak256(name) == keccak256(proposals[i].name)) {\r\n                return i;\r\n            }\r\n        }\r\n    }\r\n}",
  "sourcePath": "D:\\Git\\repo\\ShareholderMeeting\\solidity\\contracts\\Voter.sol",
  "compiler": {
    "name": "solc",
    "version": "0.4.23+commit.124ca40d.Emscripten.clang"
  },
  "schemaVersion": "2.0.0",
  "updatedAt": "2018-07-12T10:36:59.927Z"
}