{
  "contractName": "VotingStatistic",
  "abi": [
    {
      "constant": false,
      "inputs": [
        {
          "name": "userAddress",
          "type": "address"
        },
        {
          "name": "weight",
          "type": "uint256"
        }
      ],
      "name": "updateVotingPower",
      "outputs": [],
      "payable": false,
      "stateMutability": "nonpayable",
      "type": "function"
    },
    {
      "constant": false,
      "inputs": [
        {
          "name": "proposalId",
          "type": "uint256"
        },
        {
          "name": "proposalPassed",
          "type": "bool"
        }
      ],
      "name": "updatePassedProposal",
      "outputs": [],
      "payable": false,
      "stateMutability": "nonpayable",
      "type": "function"
    },
    {
      "constant": false,
      "inputs": [
        {
          "name": "proposalId",
          "type": "uint256"
        },
        {
          "name": "passedPercentage",
          "type": "uint256"
        }
      ],
      "name": "updateProposalPercentage",
      "outputs": [],
      "payable": false,
      "stateMutability": "nonpayable",
      "type": "function"
    },
    {
      "constant": false,
      "inputs": [
        {
          "name": "newTotalVP",
          "type": "uint256"
        }
      ],
      "name": "setTotalVotingPower",
      "outputs": [],
      "payable": false,
      "stateMutability": "nonpayable",
      "type": "function"
    },
    {
      "constant": false,
      "inputs": [],
      "name": "getTotalVotingPower",
      "outputs": [
        {
          "name": "totalVP",
          "type": "uint256"
        }
      ],
      "payable": false,
      "stateMutability": "nonpayable",
      "type": "function"
    }
  ],
  "bytecode": "0x608060405234801561001057600080fd5b50610259806100206000396000f30060806040526004361061006d576000357c0100000000000000000000000000000000000000000000000000000000900463ffffffff16806311acc1a71461007257806359f06b891461009d5780639e92fbb8146100ca578063e53b98e914610103578063eadc29c71461013a575b600080fd5b34801561007e57600080fd5b50610087610187565b6040518082815260200191505060405180910390f35b3480156100a957600080fd5b506100c860048036038101908080359060200190929190505050610190565b005b3480156100d657600080fd5b506101016004803603810190808035906020019092919080351515906020019092919050505061019a565b005b34801561010f57600080fd5b5061013860048036038101908080359060200190929190803590602001909291905050506101c9565b005b34801561014657600080fd5b50610185600480360381019080803573ffffffffffffffffffffffffffffffffffffffff169060200190929190803590602001909291905050506101e5565b005b60008054905090565b8060008190555050565b806002600084815260200190815260200160002060006101000a81548160ff0219169083151502179055505050565b8060036000848152602001908152602001600020819055505050565b80600160008473ffffffffffffffffffffffffffffffffffffffff1673ffffffffffffffffffffffffffffffffffffffff1681526020019081526020016000208190555050505600a165627a7a72305820e82e4d4298abe6cdf521d093c3d728809c68938785a4a9fa8fd0c860ec26f56d0029",
  "source": "pragma solidity ^0.4.23;\r\n\r\nimport \"./Shareholder.sol\";\r\n\r\ncontract VotingStatistic {\r\n\r\n    // sum of the weights or voting power of all users\r\n    uint private totalVotingPower;\r\n    // how much voting power each uses owns\r\n    mapping(address => uint) private votingPower;\r\n    // which proposal is passed\r\n    mapping(uint => bool) private passedProposal;\r\n    // with how much persentage each proposal is passed or not\r\n    mapping(uint => uint) private proposalPercentage;\r\n\r\n    function updateVotingPower(address userAddress, uint weight) public {\r\n        votingPower[userAddress] = weight;\r\n    }\r\n\r\n    function updatePassedProposal(uint proposalId, bool proposalPassed) public {\r\n        passedProposal[proposalId] = proposalPassed;\r\n    }\r\n\r\n    function updateProposalPercentage(uint proposalId, uint passedPercentage) public {\r\n        proposalPercentage[proposalId] = passedPercentage;\r\n    }\r\n\r\n    function setTotalVotingPower(uint newTotalVP) public {\r\n        totalVotingPower = newTotalVP;\r\n    }\r\n\r\n    function getTotalVotingPower() public returns (uint totalVP) {\r\n        return totalVotingPower;\r\n    }\r\n\r\n}",
  "sourcePath": "D:\\Git\\repo\\ShareholderMeeting\\solidity\\contracts\\VotingStatistic.sol",
  "compiler": {
    "name": "solc",
    "version": "0.4.23+commit.124ca40d.Emscripten.clang"
  },
  "schemaVersion": "2.0.0",
  "updatedAt": "2018-07-12T10:36:59.927Z"
}