{
  "contractName": "AgmOwner",
  "abi": [
    {
      "constant": true,
      "inputs": [
        {
          "name": "",
          "type": "uint256"
        }
      ],
      "name": "proposals",
      "outputs": [
        {
          "name": "proposalId",
          "type": "uint256"
        },
        {
          "name": "name",
          "type": "string"
        },
        {
          "name": "description",
          "type": "string"
        },
        {
          "name": "options",
          "type": "string"
        },
        {
          "name": "proposalPassed",
          "type": "bool"
        },
        {
          "name": "passedPercent",
          "type": "uint256"
        },
        {
          "name": "voteCount",
          "type": "uint256"
        }
      ],
      "payable": false,
      "stateMutability": "view",
      "type": "function"
    },
    {
      "constant": true,
      "inputs": [],
      "name": "isDirector",
      "outputs": [
        {
          "name": "",
          "type": "bool"
        }
      ],
      "payable": false,
      "stateMutability": "view",
      "type": "function"
    },
    {
      "constant": true,
      "inputs": [],
      "name": "minimumVotingQuorum",
      "outputs": [
        {
          "name": "",
          "type": "uint256"
        }
      ],
      "payable": false,
      "stateMutability": "view",
      "type": "function"
    },
    {
      "constant": true,
      "inputs": [],
      "name": "marginOfVotesForMajority",
      "outputs": [
        {
          "name": "",
          "type": "uint256"
        }
      ],
      "payable": false,
      "stateMutability": "view",
      "type": "function"
    },
    {
      "constant": true,
      "inputs": [],
      "name": "isFinished",
      "outputs": [
        {
          "name": "",
          "type": "bool"
        }
      ],
      "payable": false,
      "stateMutability": "view",
      "type": "function"
    },
    {
      "constant": true,
      "inputs": [],
      "name": "meetingDate",
      "outputs": [
        {
          "name": "",
          "type": "string"
        }
      ],
      "payable": false,
      "stateMutability": "view",
      "type": "function"
    },
    {
      "constant": true,
      "inputs": [],
      "name": "meetingPlace",
      "outputs": [
        {
          "name": "",
          "type": "string"
        }
      ],
      "payable": false,
      "stateMutability": "view",
      "type": "function"
    },
    {
      "constant": true,
      "inputs": [],
      "name": "meetingEndTime",
      "outputs": [
        {
          "name": "",
          "type": "uint256"
        }
      ],
      "payable": false,
      "stateMutability": "view",
      "type": "function"
    },
    {
      "constant": true,
      "inputs": [],
      "name": "meetingStartTime",
      "outputs": [
        {
          "name": "",
          "type": "uint256"
        }
      ],
      "payable": false,
      "stateMutability": "view",
      "type": "function"
    },
    {
      "constant": true,
      "inputs": [],
      "name": "state",
      "outputs": [
        {
          "name": "",
          "type": "address"
        }
      ],
      "payable": false,
      "stateMutability": "view",
      "type": "function"
    },
    {
      "constant": true,
      "inputs": [
        {
          "name": "name",
          "type": "string"
        }
      ],
      "name": "getProposalIdByName",
      "outputs": [
        {
          "name": "proposalId",
          "type": "uint256"
        }
      ],
      "payable": false,
      "stateMutability": "view",
      "type": "function"
    },
    {
      "constant": true,
      "inputs": [
        {
          "name": "proposalId",
          "type": "uint256"
        }
      ],
      "name": "getProposal",
      "outputs": [
        {
          "name": "_proposalId",
          "type": "uint256"
        },
        {
          "name": "_name",
          "type": "string"
        },
        {
          "name": "_description",
          "type": "string"
        },
        {
          "name": "_options",
          "type": "string"
        },
        {
          "name": "_proposalPassed",
          "type": "bool"
        },
        {
          "name": "_passedPercent",
          "type": "uint256"
        },
        {
          "name": "_voteCount",
          "type": "uint256"
        }
      ],
      "payable": false,
      "stateMutability": "view",
      "type": "function"
    },
    {
      "constant": true,
      "inputs": [],
      "name": "getNumOfProposals",
      "outputs": [
        {
          "name": "length",
          "type": "uint256"
        }
      ],
      "payable": false,
      "stateMutability": "view",
      "type": "function"
    },
    {
      "constant": true,
      "inputs": [],
      "name": "meetingName",
      "outputs": [
        {
          "name": "",
          "type": "string"
        }
      ],
      "payable": false,
      "stateMutability": "view",
      "type": "function"
    },
    {
      "constant": true,
      "inputs": [
        {
          "name": "",
          "type": "uint256"
        }
      ],
      "name": "votingOptions",
      "outputs": [
        {
          "name": "optionName",
          "type": "string"
        },
        {
          "name": "optionCount",
          "type": "uint256"
        }
      ],
      "payable": false,
      "stateMutability": "view",
      "type": "function"
    },
    {
      "constant": true,
      "inputs": [],
      "name": "meetingDescription",
      "outputs": [
        {
          "name": "",
          "type": "string"
        }
      ],
      "payable": false,
      "stateMutability": "view",
      "type": "function"
    },
    {
      "constant": true,
      "inputs": [],
      "name": "userAddress",
      "outputs": [
        {
          "name": "",
          "type": "address"
        }
      ],
      "payable": false,
      "stateMutability": "view",
      "type": "function"
    },
    {
      "constant": true,
      "inputs": [
        {
          "name": "",
          "type": "address"
        }
      ],
      "name": "votingTokens",
      "outputs": [
        {
          "name": "",
          "type": "uint256"
        }
      ],
      "payable": false,
      "stateMutability": "view",
      "type": "function"
    },
    {
      "inputs": [
        {
          "name": "_minimumVotingQuorum",
          "type": "uint256"
        },
        {
          "name": "_marginOfVotesForMajority",
          "type": "uint256"
        },
        {
          "name": "_meetingName",
          "type": "string"
        },
        {
          "name": "_meetingDescription",
          "type": "string"
        },
        {
          "name": "_meetingDate",
          "type": "string"
        },
        {
          "name": "_meetingPlace",
          "type": "string"
        },
        {
          "name": "_meetingStartTime",
          "type": "uint256"
        },
        {
          "name": "_meetingEndTime",
          "type": "uint256"
        }
      ],
      "payable": false,
      "stateMutability": "nonpayable",
      "type": "constructor"
    },
    {
      "anonymous": false,
      "inputs": [
        {
          "indexed": false,
          "name": "propId",
          "type": "uint256"
        },
        {
          "indexed": false,
          "name": "creator",
          "type": "address"
        }
      ],
      "name": "ProposalCreated",
      "type": "event"
    },
    {
      "anonymous": false,
      "inputs": [
        {
          "indexed": false,
          "name": "userAddress",
          "type": "address"
        },
        {
          "indexed": false,
          "name": "proposalId",
          "type": "uint256"
        },
        {
          "indexed": false,
          "name": "votingOption",
          "type": "string"
        }
      ],
      "name": "Voted",
      "type": "event"
    },
    {
      "anonymous": false,
      "inputs": [
        {
          "indexed": false,
          "name": "isFinished",
          "type": "bool"
        }
      ],
      "name": "AgmFinished",
      "type": "event"
    },
    {
      "anonymous": false,
      "inputs": [
        {
          "indexed": false,
          "name": "proposalId",
          "type": "uint256"
        },
        {
          "indexed": false,
          "name": "proposalPassed",
          "type": "bool"
        },
        {
          "indexed": false,
          "name": "passedPercentage",
          "type": "uint256"
        },
        {
          "components": [
            {
              "name": "optionName",
              "type": "string"
            },
            {
              "name": "optionCount",
              "type": "uint256"
            }
          ],
          "indexed": false,
          "name": "options",
          "type": "tuple[]"
        }
      ],
      "name": "ProposalExecuted",
      "type": "event"
    },
    {
      "anonymous": false,
      "inputs": [
        {
          "indexed": false,
          "name": "newOwner",
          "type": "address"
        }
      ],
      "name": "OwnershipTransferedTo",
      "type": "event"
    },
    {
      "anonymous": false,
      "inputs": [
        {
          "indexed": false,
          "name": "exists",
          "type": "bool"
        }
      ],
      "name": "UserExists",
      "type": "event"
    },
    {
      "constant": false,
      "inputs": [
        {
          "name": "_owner",
          "type": "address"
        }
      ],
      "name": "transferOwnership",
      "outputs": [],
      "payable": false,
      "stateMutability": "nonpayable",
      "type": "function"
    },
    {
      "constant": false,
      "inputs": [],
      "name": "finishAGM",
      "outputs": [],
      "payable": false,
      "stateMutability": "nonpayable",
      "type": "function"
    },
    {
      "constant": true,
      "inputs": [],
      "name": "announceAGM",
      "outputs": [
        {
          "name": "recordDate",
          "type": "string"
        },
        {
          "name": "recordPlace",
          "type": "string"
        }
      ],
      "payable": false,
      "stateMutability": "view",
      "type": "function"
    },
    {
      "constant": false,
      "inputs": [
        {
          "name": "_name",
          "type": "string"
        },
        {
          "name": "_description",
          "type": "string"
        },
        {
          "name": "_options",
          "type": "string"
        }
      ],
      "name": "createProposal",
      "outputs": [
        {
          "name": "propId",
          "type": "uint256"
        }
      ],
      "payable": false,
      "stateMutability": "nonpayable",
      "type": "function"
    }
  ],
  "bytecode": "0x60806040526200000e620001ef565b604051809103906000f0801580156200002b573d6000803e3d6000fd5b50600360006101000a81548173ffffffffffffffffffffffffffffffffffffffff021916908373ffffffffffffffffffffffffffffffffffffffff1602179055506000600560006101000a81548160ff0219169083151502179055503480156200009457600080fd5b5060405162003537380380620035378339810180604052810190808051906020019092919080519060200190929190805182019291906020018051820192919060200180518201929190602001805182019291906020018051906020019092919080519060200190929190505050336001816000806101000a81548173ffffffffffffffffffffffffffffffffffffffff021916908373ffffffffffffffffffffffffffffffffffffffff16021790555080600060146101000a81548160ff0219169083151502179055505050876006819055508660078190555085600890805190602001906200018792919062000200565b508460099080519060200190620001a092919062000200565b5083600a9080519060200190620001b992919062000200565b5082600b9080519060200190620001d292919062000200565b5081600c8190555080600d819055505050505050505050620002af565b6040516114bf806200207883390190565b828054600181600116156101000203166002900490600052602060002090601f016020900481019282601f106200024357805160ff191683800117855562000274565b8280016001018555821562000274579182015b828111156200027357825182559160200191906001019062000256565b5b50905062000283919062000287565b5090565b620002ac91905b80821115620002a85760008160009055506001016200028e565b5090565b90565b611db980620002bf6000396000f300608060405260043610610128576000357c0100000000000000000000000000000000000000000000000000000000900463ffffffff168063013cf08b1461012d5780631ad8af8d146102cb578063583cf379146102fa578063687702ac1461040357806374dc264e1461042e5780637b3529621461045957806383289567146104885780639627ee521461051857806398850d57146105a8578063aaac9489146105d3578063c19d93fb146105fe578063c505e83614610655578063c7f758a8146106d2578063d328e84d14610870578063dd73283d1461089b578063dff67f6b1461092b578063e049421f146109d8578063e3ffe1ca146109ef578063e4128fb314610a7f578063eca964e314610ad6578063f086621014610b2d578063f2fde38b14610c29575b600080fd5b34801561013957600080fd5b5061015860048036038101908080359060200190929190505050610c6c565b604051808881526020018060200180602001806020018715151515815260200186815260200185815260200184810384528a818151815260200191508051906020019080838360005b838110156101bc5780820151818401526020810190506101a1565b50505050905090810190601f1680156101e95780820380516001836020036101000a031916815260200191505b50848103835289818151815260200191508051906020019080838360005b83811015610222578082015181840152602081019050610207565b50505050905090810190601f16801561024f5780820380516001836020036101000a031916815260200191505b50848103825288818151815260200191508051906020019080838360005b8381101561028857808201518184015260208101905061026d565b50505050905090810190601f1680156102b55780820380516001836020036101000a031916815260200191505b509a505050505050505050505060405180910390f35b3480156102d757600080fd5b506102e0610e92565b604051808215151515815260200191505060405180910390f35b34801561030657600080fd5b506103ed600480360381019080803590602001908201803590602001908080601f0160208091040260200160405190810160405280939291908181526020018383808284378201915050505050509192919290803590602001908201803590602001908080601f0160208091040260200160405190810160405280939291908181526020018383808284378201915050505050509192919290803590602001908201803590602001908080601f0160208091040260200160405190810160405280939291908181526020018383808284378201915050505050509192919290505050610ea5565b6040518082815260200191505060405180910390f35b34801561040f57600080fd5b50610418611030565b6040518082815260200191505060405180910390f35b34801561043a57600080fd5b50610443611036565b6040518082815260200191505060405180910390f35b34801561046557600080fd5b5061046e61103c565b604051808215151515815260200191505060405180910390f35b34801561049457600080fd5b5061049d61104f565b6040518080602001828103825283818151815260200191508051906020019080838360005b838110156104dd5780820151818401526020810190506104c2565b50505050905090810190601f16801561050a5780820380516001836020036101000a031916815260200191505b509250505060405180910390f35b34801561052457600080fd5b5061052d6110ed565b6040518080602001828103825283818151815260200191508051906020019080838360005b8381101561056d578082015181840152602081019050610552565b50505050905090810190601f16801561059a5780820380516001836020036101000a031916815260200191505b509250505060405180910390f35b3480156105b457600080fd5b506105bd61118b565b6040518082815260200191505060405180910390f35b3480156105df57600080fd5b506105e8611191565b6040518082815260200191505060405180910390f35b34801561060a57600080fd5b50610613611197565b604051808273ffffffffffffffffffffffffffffffffffffffff1673ffffffffffffffffffffffffffffffffffffffff16815260200191505060405180910390f35b34801561066157600080fd5b506106bc600480360381019080803590602001908201803590602001908080601f01602080910402602001604051908101604052809392919081815260200183838082843782019150505050505091929192905050506111bd565b6040518082815260200191505060405180910390f35b3480156106de57600080fd5b506106fd600480360381019080803590602001909291905050506112e7565b604051808881526020018060200180602001806020018715151515815260200186815260200185815260200184810384528a818151815260200191508051906020019080838360005b83811015610761578082015181840152602081019050610746565b50505050905090810190601f16801561078e5780820380516001836020036101000a031916815260200191505b50848103835289818151815260200191508051906020019080838360005b838110156107c75780820151818401526020810190506107ac565b50505050905090810190601f1680156107f45780820380516001836020036101000a031916815260200191505b50848103825288818151815260200191508051906020019080838360005b8381101561082d578082015181840152602081019050610812565b50505050905090810190601f16801561085a5780820380516001836020036101000a031916815260200191505b509a505050505050505050505060405180910390f35b34801561087c57600080fd5b5061088561152e565b6040518082815260200191505060405180910390f35b3480156108a757600080fd5b506108b061153b565b6040518080602001828103825283818151815260200191508051906020019080838360005b838110156108f05780820151818401526020810190506108d5565b50505050905090810190601f16801561091d5780820380516001836020036101000a031916815260200191505b509250505060405180910390f35b34801561093757600080fd5b50610956600480360381019080803590602001909291905050506115d9565b6040518080602001838152602001828103825284818151815260200191508051906020019080838360005b8381101561099c578082015181840152602081019050610981565b50505050905090810190601f1680156109c95780820380516001836020036101000a031916815260200191505b50935050505060405180910390f35b3480156109e457600080fd5b506109ed6116a4565b005b3480156109fb57600080fd5b50610a046117eb565b6040518080602001828103825283818151815260200191508051906020019080838360005b83811015610a44578082015181840152602081019050610a29565b50505050905090810190601f168015610a715780820380516001836020036101000a031916815260200191505b509250505060405180910390f35b348015610a8b57600080fd5b50610a94611889565b604051808273ffffffffffffffffffffffffffffffffffffffff1673ffffffffffffffffffffffffffffffffffffffff16815260200191505060405180910390f35b348015610ae257600080fd5b50610b17600480360381019080803573ffffffffffffffffffffffffffffffffffffffff1690602001909291905050506118ae565b6040518082815260200191505060405180910390f35b348015610b3957600080fd5b50610b426118c6565b604051808060200180602001838103835285818151815260200191508051906020019080838360005b83811015610b86578082015181840152602081019050610b6b565b50505050905090810190601f168015610bb35780820380516001836020036101000a031916815260200191505b50838103825284818151815260200191508051906020019080838360005b83811015610bec578082015181840152602081019050610bd1565b50505050905090810190601f168015610c195780820380516001836020036101000a031916815260200191505b5094505050505060405180910390f35b348015610c3557600080fd5b50610c6a600480360381019080803573ffffffffffffffffffffffffffffffffffffffff169060200190929190505050611a68565b005b600181815481101515610c7b57fe5b9060005260206000209060090201600091509050806000015490806001018054600181600116156101000203166002900480601f016020809104026020016040519081016040528092919081815260200182805460018160011615610100020316600290048015610d2d5780601f10610d0257610100808354040283529160200191610d2d565b820191906000526020600020905b815481529060010190602001808311610d1057829003601f168201915b505050505090806002018054600181600116156101000203166002900480601f016020809104026020016040519081016040528092919081815260200182805460018160011615610100020316600290048015610dcb5780601f10610da057610100808354040283529160200191610dcb565b820191906000526020600020905b815481529060010190602001808311610dae57829003601f168201915b505050505090806003018054600181600116156101000203166002900480601f016020809104026020016040519081016040528092919081815260200182805460018160011615610100020316600290048015610e695780601f10610e3e57610100808354040283529160200191610e69565b820191906000526020600020905b815481529060010190602001808311610e4c57829003601f168201915b5050505050908060040160009054906101000a900460ff16908060050154908060060154905087565b600060149054906101000a900460ff1681565b6000803373ffffffffffffffffffffffffffffffffffffffff166000809054906101000a900473ffffffffffffffffffffffffffffffffffffffff1673ffffffffffffffffffffffffffffffffffffffff16141515610f0357600080fd5b60018054809190600101610f179190611b69565b9150600182815481101515610f2857fe5b9060005260206000209060090201905081816000018190555084816001019080519060200190610f59929190611b9b565b5083816002019080519060200190610f72929190611b9b565b5082816003019080519060200190610f8b929190611b9b565b5060008160040160006101000a81548160ff02191690831515021790555060008160050181905550600081600601819055507fcd423cc1203c0af96b9b3d68d73b3064a69de2d14450bb7181c5e5df2132b3588233604051808381526020018273ffffffffffffffffffffffffffffffffffffffff1673ffffffffffffffffffffffffffffffffffffffff1681526020019250505060405180910390a1509392505050565b60065481565b60075481565b600560009054906101000a900460ff1681565b600a8054600181600116156101000203166002900480601f0160208091040260200160405190810160405280929190818152602001828054600181600116156101000203166002900480156110e55780601f106110ba576101008083540402835291602001916110e5565b820191906000526020600020905b8154815290600101906020018083116110c857829003601f168201915b505050505081565b600b8054600181600116156101000203166002900480601f0160208091040260200160405190810160405280929190818152602001828054600181600116156101000203166002900480156111835780601f1061115857610100808354040283529160200191611183565b820191906000526020600020905b81548152906001019060200180831161116657829003601f168201915b505050505081565b600d5481565b600c5481565b600360009054906101000a900473ffffffffffffffffffffffffffffffffffffffff1681565b600080600090505b6001805490508110156112e0576001818154811015156111e157fe5b9060005260206000209060090201600101604051808280546001816001161561010002031660029004801561124d5780601f1061122b57610100808354040283529182019161124d565b820191906000526020600020905b815481529060010190602001808311611239575b5050915050604051809103902060001916836040518082805190602001908083835b602083101515611294578051825260208201915060208101905060208303925061126f565b6001836020036101000a03801982511681845116808217855250505050505090500191505060405180910390206000191614156112d3578091506112e1565b80806001019150506111c5565b5b50919050565b6000606080606060008060008060018981548110151561130357fe5b9060005260206000209060090201905080600001548160010182600201836003018460040160009054906101000a900460ff1685600501548660060154858054600181600116156101000203166002900480601f0160208091040260200160405190810160405280929190818152602001828054600181600116156101000203166002900480156113d55780601f106113aa576101008083540402835291602001916113d5565b820191906000526020600020905b8154815290600101906020018083116113b857829003601f168201915b50505050509550848054600181600116156101000203166002900480601f0160208091040260200160405190810160405280929190818152602001828054600181600116156101000203166002900480156114715780601f1061144657610100808354040283529160200191611471565b820191906000526020600020905b81548152906001019060200180831161145457829003601f168201915b50505050509450838054600181600116156101000203166002900480601f01602080910402602001604051908101604052809291908181526020018280546001816001161561010002031660029004801561150d5780601f106114e25761010080835404028352916020019161150d565b820191906000526020600020905b8154815290600101906020018083116114f057829003601f168201915b50505050509350975097509750975097509750975050919395979092949650565b6000600180549050905090565b60088054600181600116156101000203166002900480601f0160208091040260200160405190810160405280929190818152602001828054600181600116156101000203166002900480156115d15780601f106115a6576101008083540402835291602001916115d1565b820191906000526020600020905b8154815290600101906020018083116115b457829003601f168201915b505050505081565b6004818154811015156115e857fe5b9060005260206000209060020201600091509050806000018054600181600116156101000203166002900480601f0160208091040260200160405190810160405280929190818152602001828054600181600116156101000203166002900480156116945780601f1061166957610100808354040283529160200191611694565b820191906000526020600020905b81548152906001019060200180831161167757829003601f168201915b5050505050908060010154905082565b3373ffffffffffffffffffffffffffffffffffffffff166000809054906101000a900473ffffffffffffffffffffffffffffffffffffffff1673ffffffffffffffffffffffffffffffffffffffff161415156116ff57600080fd5b600560009054906101000a900460ff16151515611784576040517f08c379a000000000000000000000000000000000000000000000000000000000815260040180806020018281038252601d8152602001807f41474d2068617320616c7265616479206265656e2066696e697368656400000081525060200191505060405180910390fd5b6001600560006101000a81548160ff0219169083151502179055507f8cd75a9c018fcf2df19a93d0c90440885504e4d100c03d546f17c3e9b781f0df600560009054906101000a900460ff16604051808215151515815260200191505060405180910390a1565b60098054600181600116156101000203166002900480601f0160208091040260200160405190810160405280929190818152602001828054600181600116156101000203166002900480156118815780601f1061185657610100808354040283529160200191611881565b820191906000526020600020905b81548152906001019060200180831161186457829003601f168201915b505050505081565b6000809054906101000a900473ffffffffffffffffffffffffffffffffffffffff1681565b60026020528060005260406000206000915090505481565b6060803373ffffffffffffffffffffffffffffffffffffffff166000809054906101000a900473ffffffffffffffffffffffffffffffffffffffff1673ffffffffffffffffffffffffffffffffffffffff1614151561192457600080fd5b600a600b818054600181600116156101000203166002900480601f0160208091040260200160405190810160405280929190818152602001828054600181600116156101000203166002900480156119bd5780601f10611992576101008083540402835291602001916119bd565b820191906000526020600020905b8154815290600101906020018083116119a057829003601f168201915b50505050509150808054600181600116156101000203166002900480601f016020809104026020016040519081016040528092919081815260200182805460018160011615610100020316600290048015611a595780601f10611a2e57610100808354040283529160200191611a59565b820191906000526020600020905b815481529060010190602001808311611a3c57829003601f168201915b50505050509050915091509091565b3373ffffffffffffffffffffffffffffffffffffffff166000809054906101000a900473ffffffffffffffffffffffffffffffffffffffff1673ffffffffffffffffffffffffffffffffffffffff16141515611ac357600080fd5b806000806101000a81548173ffffffffffffffffffffffffffffffffffffffff021916908373ffffffffffffffffffffffffffffffffffffffff1602179055507fb657493ed7a3f8cc1a47fef0396b4999d226d66c0c45ef4e7df62e72f7b7b79581604051808273ffffffffffffffffffffffffffffffffffffffff1673ffffffffffffffffffffffffffffffffffffffff16815260200191505060405180910390a150565b815481835581811115611b9657600902816009028360005260206000209182019101611b959190611c1b565b5b505050565b828054600181600116156101000203166002900490600052602060002090601f016020900481019282601f10611bdc57805160ff1916838001178555611c0a565b82800160010185558215611c0a579182015b82811115611c09578251825591602001919060010190611bee565b5b509050611c179190611ca6565b5090565b611ca391905b80821115611c9f57600080820160009055600182016000611c429190611ccb565b600282016000611c529190611ccb565b600382016000611c629190611ccb565b6004820160006101000a81549060ff021916905560058201600090556006820160009055600782016000611c969190611d13565b50600901611c21565b5090565b90565b611cc891905b80821115611cc4576000816000905550600101611cac565b5090565b90565b50805460018160011615610100020316600290046000825580601f10611cf15750611d10565b601f016020900490600052602060002090810190611d0f9190611ca6565b5b50565b5080546000825560020290600052602060002090810190611d349190611d37565b50565b611d8a91905b80821115611d8657600080820160006101000a81549073ffffffffffffffffffffffffffffffffffffffff0219169055600182016000611d7d9190611ccb565b50600201611d3d565b5090565b905600a165627a7a72305820e65700066031c14efc27dc3c63eb7792f02bee3037ec9e1758a8a585cfcd85a80029608060405234801561001057600080fd5b5061149f806100206000396000f300608060405260043610610083576000357c0100000000000000000000000000000000000000000000000000000000900463ffffffff168063365b98b214610088578063376fe102146100f55780636f77926b1461014c57806375ce46a7146101cf578063880e97a0146101fa5780638dde277a14610225578063985751881461029e575b600080fd5b34801561009457600080fd5b506100b3600480360381019080803590602001909291905050506102e1565b604051808273ffffffffffffffffffffffffffffffffffffffff1673ffffffffffffffffffffffffffffffffffffffff16815260200191505060405180910390f35b34801561010157600080fd5b50610136600480360381019080803573ffffffffffffffffffffffffffffffffffffffff16906020019092919050505061031f565b6040518082815260200191505060405180910390f35b34801561015857600080fd5b5061018d600480360381019080803573ffffffffffffffffffffffffffffffffffffffff169060200190929190505050610337565b604051808273ffffffffffffffffffffffffffffffffffffffff1673ffffffffffffffffffffffffffffffffffffffff16815260200191505060405180910390f35b3480156101db57600080fd5b506101e46103b9565b6040518082815260200191505060405180910390f35b34801561020657600080fd5b5061020f6103bf565b6040518082815260200191505060405180910390f35b34801561023157600080fd5b5061029c600480360381019080803573ffffffffffffffffffffffffffffffffffffffff16906020019092919080351515906020019092919080359060200190929190803573ffffffffffffffffffffffffffffffffffffffff1690602001909291905050506103cc565b005b3480156102aa57600080fd5b506102df600480360381019080803573ffffffffffffffffffffffffffffffffffffffff16906020019092919050505061063b565b005b6001818154811015156102f057fe5b906000526020600020016000915054906101000a900473ffffffffffffffffffffffffffffffffffffffff1681565b60026020528060005260406000206000915090505481565b60006001600260008473ffffffffffffffffffffffffffffffffffffffff1673ffffffffffffffffffffffffffffffffffffffff1681526020019081526020016000205481548110151561038757fe5b9060005260206000200160009054906101000a900473ffffffffffffffffffffffffffffffffffffffff169050919050565b60005481565b6000600180549050905090565b6000600260008673ffffffffffffffffffffffffffffffffffffffff1673ffffffffffffffffffffffffffffffffffffffff1681526020019081526020016000205490506000811415610474576001805480919060010161042d9190610a05565b905080600260008773ffffffffffffffffffffffffffffffffffffffff1673ffffffffffffffffffffffffffffffffffffffff168152602001908152602001600020819055505b83156105aa5784610483610a31565b808273ffffffffffffffffffffffffffffffffffffffff1673ffffffffffffffffffffffffffffffffffffffff168152602001915050604051809103906000f0801580156104d5573d6000803e3d6000fd5b506001828154811015156104e557fe5b9060005260206000200160006101000a81548173ffffffffffffffffffffffffffffffffffffffff021916908373ffffffffffffffffffffffffffffffffffffffff1602179055507f88002c8a3d903e0b9ca6d4d478f00f4936fd2c9a081e9b47a0360112029d037681866001604051808481526020018373ffffffffffffffffffffffffffffffffffffffff1673ffffffffffffffffffffffffffffffffffffffff16815260200182151515158152602001935050505060405180910390a1610623565b7f88002c8a3d903e0b9ca6d4d478f00f4936fd2c9a081e9b47a0360112029d037681866000604051808481526020018373ffffffffffffffffffffffffffffffffffffffff1673ffffffffffffffffffffffffffffffffffffffff16815260200182151515158152602001935050505060405180910390a15b60008081548092919060010191905055505050505050565b600080600260008473ffffffffffffffffffffffffffffffffffffffff1673ffffffffffffffffffffffffffffffffffffffff16815260200190815260200160002054915060018281548110151561068f57fe5b9060005260206000200160009054906101000a900473ffffffffffffffffffffffffffffffffffffffff1690506001828154811015156106cb57fe5b9060005260206000200160006101000a81549073ffffffffffffffffffffffffffffffffffffffff02191690555b60018080549050038210156108c357600180830181548110151561071957fe5b9060005260206000200160009054906101000a900473ffffffffffffffffffffffffffffffffffffffff1660018381548110151561075357fe5b9060005260206000200160006101000a81548173ffffffffffffffffffffffffffffffffffffffff021916908373ffffffffffffffffffffffffffffffffffffffff16021790555081600260006001858154811015156107af57fe5b9060005260206000200160009054906101000a900473ffffffffffffffffffffffffffffffffffffffff1673ffffffffffffffffffffffffffffffffffffffff1663e4128fb36040518163ffffffff167c0100000000000000000000000000000000000000000000000000000000028152600401602060405180830381600087803b15801561083d57600080fd5b505af1158015610851573d6000803e3d6000fd5b505050506040513d602081101561086757600080fd5b810190808051906020019092919050505073ffffffffffffffffffffffffffffffffffffffff1673ffffffffffffffffffffffffffffffffffffffff1681526020019081526020016000208190555081806001019250506106f9565b60018054809190600190036108d89190610a05565b506000808154809291906001900391905055507fd601b36399eed8ab2ff764ce20c6c255752ea37b345e4f857027ff4d1f1bdbc682848373ffffffffffffffffffffffffffffffffffffffff16631ad8af8d6040518163ffffffff167c0100000000000000000000000000000000000000000000000000000000028152600401602060405180830381600087803b15801561097257600080fd5b505af1158015610986573d6000803e3d6000fd5b505050506040513d602081101561099c57600080fd5b8101908080519060200190929190505050604051808481526020018373ffffffffffffffffffffffffffffffffffffffff1673ffffffffffffffffffffffffffffffffffffffff16815260200182151515158152602001935050505060405180910390a1505050565b815481835581811115610a2c57818360005260206000209182019101610a2b9190610a41565b5b505050565b604051610a0d80610a6783390190565b610a6391905b80821115610a5f576000816000905550600101610a47565b5090565b905600608060405234801561001057600080fd5b50604051602080610a0d83398101806040528101908080519060200190929190505050806001816000806101000a81548173ffffffffffffffffffffffffffffffffffffffff021916908373ffffffffffffffffffffffffffffffffffffffff16021790555080600060146101000a81548160ff02191690831515021790555050505061096b806100a26000396000f300608060405260043610610078576000357c0100000000000000000000000000000000000000000000000000000000900463ffffffff16806317599cc51461007d5780631ad8af8d1461016b5780633d3e528d1461019a5780634fec390c146101c5578063b5ab58dc1461024c578063e4128fb31461033a575b600080fd5b34801561008957600080fd5b506100a860048036038101908080359060200190929190505050610391565b604051808681526020018581526020018473ffffffffffffffffffffffffffffffffffffffff1673ffffffffffffffffffffffffffffffffffffffff16815260200180602001838152602001828103825284818151815260200191508051906020019080838360005b8381101561012c578082015181840152602081019050610111565b50505050905090810190601f1680156101595780820380516001836020036101000a031916815260200191505b50965050505050505060405180910390f35b34801561017757600080fd5b5061018061048e565b604051808215151515815260200191505060405180910390f35b3480156101a657600080fd5b506101af6104a1565b6040518082815260200191505060405180910390f35b3480156101d157600080fd5b5061023660048036038101908080359060200190929190803590602001908201803590602001908080601f01602080910402602001604051908101604052809392919081815260200183838082843782019150505050505091929192905050506104ae565b6040518082815260200191505060405180910390f35b34801561025857600080fd5b506102776004803603810190808035906020019092919050505061067c565b604051808681526020018581526020018473ffffffffffffffffffffffffffffffffffffffff1673ffffffffffffffffffffffffffffffffffffffff16815260200180602001838152602001828103825284818151815260200191508051906020019080838360005b838110156102fb5780820151818401526020810190506102e0565b50505050905090810190601f1680156103285780820380516001836020036101000a031916815260200191505b50965050505050505060405180910390f35b34801561034657600080fd5b5061034f61078d565b604051808273ffffffffffffffffffffffffffffffffffffffff1673ffffffffffffffffffffffffffffffffffffffff16815260200191505060405180910390f35b6001818154811015156103a057fe5b90600052602060002090600502016000915090508060000154908060010154908060020160009054906101000a900473ffffffffffffffffffffffffffffffffffffffff1690806003018054600181600116156101000203166002900480601f01602080910402602001604051908101604052809291908181526020018280546001816001161561010002031660029004801561047e5780601f106104535761010080835404028352916020019161047e565b820191906000526020600020905b81548152906001019060200180831161046157829003601f168201915b5050505050908060040154905085565b600060149054906101000a900460ff1681565b6000600180549050905090565b60008060003073ffffffffffffffffffffffffffffffffffffffff16631ad8af8d6040518163ffffffff167c0100000000000000000000000000000000000000000000000000000000028152600401602060405180830381600087803b15801561051757600080fd5b505af115801561052b573d6000803e3d6000fd5b505050506040513d602081101561054157600080fd5b8101908080519060200190929190505050151561055d57600080fd5b6001805480919060010161057191906107b2565b915060018281548110151561058257fe5b90600052602060002090600502019050818160000181905550848160010181905550338160020160006101000a81548173ffffffffffffffffffffffffffffffffffffffff021916908373ffffffffffffffffffffffffffffffffffffffff160217905550838160030190805190602001906105ff9291906107e4565b504281600401819055507f1cce31feeb8b658498dbd740f9f2893f5950824526d859d079df34984d412d898333604051808381526020018273ffffffffffffffffffffffffffffffffffffffff1673ffffffffffffffffffffffffffffffffffffffff1681526020019250505060405180910390a1505092915050565b6000806000606060008060018781548110151561069557fe5b90600052602060002090600502019050806000015481600101548260020160009054906101000a900473ffffffffffffffffffffffffffffffffffffffff16836003018460040154818054600181600116156101000203166002900480601f0160208091040260200160405190810160405280929190818152602001828054600181600116156101000203166002900480156107725780601f1061074757610100808354040283529160200191610772565b820191906000526020600020905b81548152906001019060200180831161075557829003601f168201915b50505050509150955095509550955095505091939590929450565b6000809054906101000a900473ffffffffffffffffffffffffffffffffffffffff1681565b8154818355818111156107df576005028160050283600052602060002091820191016107de9190610864565b5b505050565b828054600181600116156101000203166002900490600052602060002090601f016020900481019282601f1061082557805160ff1916838001178555610853565b82800160010185558215610853579182015b82811115610852578251825591602001919060010190610837565b5b50905061086091906108d2565b5090565b6108cf91905b808211156108cb5760008082016000905560018201600090556002820160006101000a81549073ffffffffffffffffffffffffffffffffffffffff02191690556003820160006108ba91906108f7565b60048201600090555060050161086a565b5090565b90565b6108f491905b808211156108f05760008160009055506001016108d8565b5090565b90565b50805460018160011615610100020316600290046000825580601f1061091d575061093c565b601f01602090049060005260206000209081019061093b91906108d2565b5b505600a165627a7a723058209174b88602861f585f3e61f0c39fa968439ccb8b26f74b46ad74d009c424fe840029a165627a7a723058204cf4449f6a2e9b7bc62aab26b07be13b26984c5a6aa6335a9b3ec1df9a9444610029",
  "source": "pragma solidity ^0.4.23;\r\n\r\nimport \"./User.sol\";\r\nimport \"./Shareholder.sol\";\r\nimport \"./Director.sol\";\r\nimport \"./State.sol\";\r\n\r\ncontract AgmOwner is User, Voter {\r\n\r\n    State public state = new State();\r\n\r\n    // store options to every proposal\r\n    VotingOption[] public votingOptions;\r\n\r\n    bool public isFinished = false;\r\n\r\n    uint public minimumVotingQuorum;\r\n    uint public marginOfVotesForMajority;\r\n    string public meetingName;\r\n    string public meetingDescription;\r\n    string public meetingDate;\r\n    string public meetingPlace;\r\n    uint public meetingStartTime;\r\n    uint public meetingEndTime;\r\n\r\n    struct VotingOption {\r\n        string optionName;\r\n        uint optionCount;\r\n    }\r\n\r\n    modifier onlyOwner {\r\n        require(userAddress == msg.sender);\r\n        _;\r\n    }\r\n\r\n    event ProposalCreated(uint propId, address creator);\r\n    event Voted(address userAddress, uint proposalId, string votingOption);\r\n    event AgmFinished(bool isFinished);\r\n    event ProposalExecuted(uint proposalId, bool proposalPassed, uint passedPercentage, VotingOption[] options);\r\n    event OwnershipTransferedTo(address newOwner);\r\n\r\n    constructor(\r\n        uint _minimumVotingQuorum,\r\n        uint _marginOfVotesForMajority,\r\n        string _meetingName,\r\n        string _meetingDescription,\r\n        string _meetingDate,\r\n        string _meetingPlace,\r\n        uint _meetingStartTime,\r\n        uint _meetingEndTime) \r\n            \r\n            User(msg.sender, true) public {\r\n        \r\n        minimumVotingQuorum = _minimumVotingQuorum;\r\n        marginOfVotesForMajority = _marginOfVotesForMajority;\r\n        meetingName = _meetingName;\r\n        meetingDescription = _meetingDescription;\r\n        meetingDate = _meetingDate;\r\n        meetingPlace = _meetingPlace;\r\n        meetingStartTime = _meetingStartTime;\r\n        meetingEndTime = _meetingEndTime;\r\n    }\r\n\r\n    // transfer contract ownership to another director\r\n    function transferOwnership(address _owner) onlyOwner public {\r\n        userAddress = _owner;\r\n\r\n        emit OwnershipTransferedTo(_owner);\r\n    }\r\n\r\n    function finishAGM() onlyOwner public {\r\n        require(!isFinished, \"AGM has already been finished\");\r\n        isFinished = true;\r\n\r\n        emit AgmFinished(isFinished);\r\n\r\n    }\r\n\r\n    function announceAGM() onlyOwner public view returns (string recordDate, string recordPlace) {\r\n        return (meetingDate, meetingPlace);\r\n    }\r\n\r\n    // only director is allowed to create a proposal\r\n    function createProposal(string _name, string _description, string _options) \r\n        onlyOwner public returns(uint propId) {\r\n\r\n        propId = proposals.length++;\r\n        Proposal storage proposal = proposals[propId];\r\n        proposal.proposalId = propId;\r\n        proposal.name = _name;\r\n        proposal.description = _description;\r\n        proposal.options = _options;\r\n        proposal.proposalPassed = false;\r\n        proposal.passedPercent = 0;\r\n        proposal.voteCount = 0;\r\n        \r\n        emit ProposalCreated(propId, msg.sender);\r\n    }\r\n\r\n    // executes the pending proposal\r\n    /*function executeProposal(uint proposalId) public {\r\n        \r\n        Proposal storage prop = proposals[proposalId];\r\n        var optionString = proposals[proposalId].options.toSlice();\r\n        var delim = \";\".toSlice();\r\n        var options = new string[](optionString.count(delim) + 1);\r\n        for (uint l = 0; l < options.length; l++) {\r\n            options[l] = optionString.split(delim).toString();\r\n        }\r\n\r\n        require(now > meetingEndTime, \"meeting has not finished yet\");\r\n\r\n        \r\n        // iterate over all options to store default options in the map\r\n        for (uint k = 0; k < options.length; k++) {\r\n            uint id = votingOptions.length++;\r\n            votingOptions[id] = VotingOption({optionName: options[k], optionCount: 0});\r\n\r\n            // iterate over all votes to check which voter voted for option k\r\n            for (uint i = 0; i < prop.votes.length; i++) {\r\n                \r\n                Vote storage v = prop.votes[i];\r\n                if (keccak256(v.voterDecision) == keccak256(options[k])) {\r\n                    votingOptions[k].optionCount++; \r\n                } \r\n            }\r\n        }\r\n        uint winningOptionCount = 0;\r\n        uint countSum = 0;\r\n        \r\n        for (uint j = 0; j < votingOptions.length; j++) {\r\n            countSum += votingOptions[j].optionCount;\r\n            if (winningOptionCount < votingOptions[j].optionCount) {\r\n                winningOptionCount = votingOptions[j].optionCount;\r\n            }\r\n        }\r\n\r\n        if (winningOptionCount > minimumVotingQuorum \r\n            && (winningOptionCount * 100 / countSum) > marginOfVotesForMajority) {\r\n            prop.proposalPassed = true;\r\n        } else {\r\n            prop.proposalPassed = false;\r\n        }\r\n\r\n        prop.passedPercent = winningOptionCount * 100 / countSum;\r\n\r\n        delete votingOptions;\r\n\r\n        emit ProposalExecuted(proposalId, prop.proposalPassed, prop.passedPercent, votingOptions);\r\n    }*/\r\n}",
  "sourcePath": "D:\\Git\\repo\\ShareholderMeeting\\solidity\\contracts\\AgmOwner.sol",
  "compiler": {
    "name": "solc",
    "version": "0.4.24+commit.e67f0147.Emscripten.clang"
  },
  "schemaVersion": "2.0.1",
  "updatedAt": "2018-07-30T14:19:47.964Z"
}