{
  "contractName": "AgmOwner",
  "abi": [
    {
      "constant": true,
      "inputs": [],
      "name": "isDirector",
      "outputs": [
        {
          "name": "",
          "type": "bool"
        }
      ],
      "payable": false,
      "stateMutability": "view",
      "type": "function"
    },
    {
      "constant": true,
      "inputs": [
        {
          "name": "",
          "type": "uint256"
        }
      ],
      "name": "users",
      "outputs": [
        {
          "name": "",
          "type": "address"
        }
      ],
      "payable": false,
      "stateMutability": "view",
      "type": "function"
    },
    {
      "constant": true,
      "inputs": [
        {
          "name": "",
          "type": "address"
        }
      ],
      "name": "userId",
      "outputs": [
        {
          "name": "",
          "type": "uint256"
        }
      ],
      "payable": false,
      "stateMutability": "view",
      "type": "function"
    },
    {
      "constant": true,
      "inputs": [],
      "name": "minimumVotingQuorum",
      "outputs": [
        {
          "name": "",
          "type": "uint256"
        }
      ],
      "payable": false,
      "stateMutability": "view",
      "type": "function"
    },
    {
      "constant": true,
      "inputs": [],
      "name": "marginOfVotesForMajority",
      "outputs": [
        {
          "name": "",
          "type": "uint256"
        }
      ],
      "payable": false,
      "stateMutability": "view",
      "type": "function"
    },
    {
      "constant": true,
      "inputs": [],
      "name": "numberOfUsers",
      "outputs": [
        {
          "name": "",
          "type": "uint256"
        }
      ],
      "payable": false,
      "stateMutability": "view",
      "type": "function"
    },
    {
      "constant": true,
      "inputs": [],
      "name": "isFinished",
      "outputs": [
        {
          "name": "",
          "type": "bool"
        }
      ],
      "payable": false,
      "stateMutability": "view",
      "type": "function"
    },
    {
      "constant": true,
      "inputs": [],
      "name": "meetingDate",
      "outputs": [
        {
          "name": "",
          "type": "string"
        }
      ],
      "payable": false,
      "stateMutability": "view",
      "type": "function"
    },
    {
      "constant": true,
      "inputs": [],
      "name": "meetingPlace",
      "outputs": [
        {
          "name": "",
          "type": "string"
        }
      ],
      "payable": false,
      "stateMutability": "view",
      "type": "function"
    },
    {
      "constant": true,
      "inputs": [],
      "name": "meetingEndTime",
      "outputs": [
        {
          "name": "",
          "type": "uint256"
        }
      ],
      "payable": false,
      "stateMutability": "view",
      "type": "function"
    },
    {
      "constant": true,
      "inputs": [],
      "name": "meetingStartTime",
      "outputs": [
        {
          "name": "",
          "type": "uint256"
        }
      ],
      "payable": false,
      "stateMutability": "view",
      "type": "function"
    },
    {
      "constant": true,
      "inputs": [],
      "name": "fac",
      "outputs": [
        {
          "name": "",
          "type": "address"
        }
      ],
      "payable": false,
      "stateMutability": "view",
      "type": "function"
    },
    {
      "constant": true,
      "inputs": [],
      "name": "meetingName",
      "outputs": [
        {
          "name": "",
          "type": "string"
        }
      ],
      "payable": false,
      "stateMutability": "view",
      "type": "function"
    },
    {
      "constant": true,
      "inputs": [
        {
          "name": "",
          "type": "uint256"
        }
      ],
      "name": "votingOptions",
      "outputs": [
        {
          "name": "optionName",
          "type": "string"
        },
        {
          "name": "optionCount",
          "type": "uint256"
        }
      ],
      "payable": false,
      "stateMutability": "view",
      "type": "function"
    },
    {
      "constant": true,
      "inputs": [],
      "name": "meetingDescription",
      "outputs": [
        {
          "name": "",
          "type": "string"
        }
      ],
      "payable": false,
      "stateMutability": "view",
      "type": "function"
    },
    {
      "constant": true,
      "inputs": [],
      "name": "userAddress",
      "outputs": [
        {
          "name": "",
          "type": "address"
        }
      ],
      "payable": false,
      "stateMutability": "view",
      "type": "function"
    },
    {
      "inputs": [
        {
          "name": "_minimumVotingQuorum",
          "type": "uint256"
        },
        {
          "name": "_marginOfVotesForMajority",
          "type": "uint256"
        },
        {
          "name": "_meetingName",
          "type": "string"
        },
        {
          "name": "_meetingDescription",
          "type": "string"
        },
        {
          "name": "_meetingDate",
          "type": "string"
        },
        {
          "name": "_meetingPlace",
          "type": "string"
        },
        {
          "name": "_meetingStartTime",
          "type": "uint256"
        },
        {
          "name": "_meetingEndTime",
          "type": "uint256"
        },
        {
          "name": "_fac",
          "type": "address"
        }
      ],
      "payable": false,
      "stateMutability": "nonpayable",
      "type": "constructor"
    },
    {
      "anonymous": false,
      "inputs": [
        {
          "indexed": false,
          "name": "propId",
          "type": "uint256"
        },
        {
          "indexed": false,
          "name": "creator",
          "type": "address"
        }
      ],
      "name": "ProposalCreated",
      "type": "event"
    },
    {
      "anonymous": false,
      "inputs": [
        {
          "indexed": false,
          "name": "userAddress",
          "type": "address"
        },
        {
          "indexed": false,
          "name": "proposalId",
          "type": "uint256"
        },
        {
          "indexed": false,
          "name": "votingOption",
          "type": "string"
        }
      ],
      "name": "Voted",
      "type": "event"
    },
    {
      "anonymous": false,
      "inputs": [
        {
          "indexed": false,
          "name": "isFinished",
          "type": "bool"
        }
      ],
      "name": "AgmFinished",
      "type": "event"
    },
    {
      "anonymous": false,
      "inputs": [
        {
          "indexed": false,
          "name": "proposalId",
          "type": "uint256"
        },
        {
          "indexed": false,
          "name": "proposalPassed",
          "type": "bool"
        },
        {
          "indexed": false,
          "name": "passedPercentage",
          "type": "uint256"
        },
        {
          "components": [
            {
              "name": "optionName",
              "type": "string"
            },
            {
              "name": "optionCount",
              "type": "uint256"
            }
          ],
          "indexed": false,
          "name": "options",
          "type": "tuple[]"
        }
      ],
      "name": "ProposalExecuted",
      "type": "event"
    },
    {
      "anonymous": false,
      "inputs": [
        {
          "indexed": false,
          "name": "newOwner",
          "type": "address"
        }
      ],
      "name": "OwnershipTransferedTo",
      "type": "event"
    },
    {
      "anonymous": false,
      "inputs": [
        {
          "indexed": false,
          "name": "userId",
          "type": "uint256"
        },
        {
          "indexed": false,
          "name": "userAddress",
          "type": "address"
        },
        {
          "indexed": false,
          "name": "isDirector",
          "type": "bool"
        }
      ],
      "name": "UserCreated",
      "type": "event"
    },
    {
      "anonymous": false,
      "inputs": [
        {
          "indexed": false,
          "name": "userId",
          "type": "uint256"
        },
        {
          "indexed": false,
          "name": "userAddress",
          "type": "address"
        },
        {
          "indexed": false,
          "name": "isDirector",
          "type": "bool"
        }
      ],
      "name": "UserRemoved",
      "type": "event"
    },
    {
      "anonymous": false,
      "inputs": [
        {
          "indexed": false,
          "name": "exists",
          "type": "bool"
        }
      ],
      "name": "UserExists",
      "type": "event"
    },
    {
      "constant": false,
      "inputs": [
        {
          "name": "_owner",
          "type": "address"
        }
      ],
      "name": "transferOwnership",
      "outputs": [],
      "payable": false,
      "stateMutability": "nonpayable",
      "type": "function"
    },
    {
      "constant": false,
      "inputs": [
        {
          "name": "_userAddress",
          "type": "address"
        },
        {
          "name": "isDirector",
          "type": "bool"
        },
        {
          "name": "votingTok",
          "type": "uint256"
        },
        {
          "name": "qa",
          "type": "address"
        }
      ],
      "name": "addUser",
      "outputs": [],
      "payable": false,
      "stateMutability": "nonpayable",
      "type": "function"
    },
    {
      "constant": false,
      "inputs": [
        {
          "name": "_userAddress",
          "type": "address"
        }
      ],
      "name": "removeUser",
      "outputs": [],
      "payable": false,
      "stateMutability": "nonpayable",
      "type": "function"
    },
    {
      "constant": true,
      "inputs": [],
      "name": "getNumOfUsers",
      "outputs": [
        {
          "name": "length",
          "type": "uint256"
        }
      ],
      "payable": false,
      "stateMutability": "view",
      "type": "function"
    },
    {
      "constant": true,
      "inputs": [
        {
          "name": "_userAddress",
          "type": "address"
        }
      ],
      "name": "getUser",
      "outputs": [
        {
          "name": "u",
          "type": "address"
        }
      ],
      "payable": false,
      "stateMutability": "view",
      "type": "function"
    },
    {
      "constant": false,
      "inputs": [],
      "name": "finishAGM",
      "outputs": [],
      "payable": false,
      "stateMutability": "nonpayable",
      "type": "function"
    },
    {
      "constant": true,
      "inputs": [],
      "name": "announceAGM",
      "outputs": [
        {
          "name": "recordDate",
          "type": "string"
        },
        {
          "name": "recordPlace",
          "type": "string"
        }
      ],
      "payable": false,
      "stateMutability": "view",
      "type": "function"
    },
    {
      "constant": false,
      "inputs": [
        {
          "name": "_name",
          "type": "string"
        },
        {
          "name": "_description",
          "type": "string"
        },
        {
          "name": "_options",
          "type": "string"
        }
      ],
      "name": "createProposal",
      "outputs": [
        {
          "name": "propId",
          "type": "uint256"
        }
      ],
      "payable": false,
      "stateMutability": "nonpayable",
      "type": "function"
    }
  ],
  "bytecode": "0x60806040526000600660006101000a81548160ff0219169083151502179055503480156200002c57600080fd5b50604051620021d2380380620021d2833981018060405281019080805190602001909291908051906020019092919080518201929190602001805182019291906020018051820192919060200180518201929190602001805190602001909291908051906020019092919080519060200190929190505050336001816000806101000a81548173ffffffffffffffffffffffffffffffffffffffff021916908373ffffffffffffffffffffffffffffffffffffffff16021790555080600060146101000a81548160ff02191690831515021790555050508860078190555087600881905550866009908051906020019062000129929190620001d3565b5085600a908051906020019062000142929190620001d3565b5084600b90805190602001906200015b929190620001d3565b5083600c908051906020019062000174929190620001d3565b5082600d8190555081600e8190555080600160006101000a81548173ffffffffffffffffffffffffffffffffffffffff021916908373ffffffffffffffffffffffffffffffffffffffff16021790555050505050505050505062000282565b828054600181600116156101000203166002900490600052602060002090601f016020900481019282601f106200021657805160ff191683800117855562000247565b8280016001018555821562000247579182015b828111156200024657825182559160200191906001019062000229565b5b5090506200025691906200025a565b5090565b6200027f91905b808211156200027b57600081600090555060010162000261565b5090565b90565b611f4080620002926000396000f30060806040526004361061013e576000357c0100000000000000000000000000000000000000000000000000000000900463ffffffff1680631ad8af8d14610143578063365b98b214610172578063376fe102146101df578063583cf37914610236578063687702ac1461033f5780636f77926b1461036a57806374dc264e146103ed57806375ce46a7146104185780637b352962146104435780638328956714610472578063880e97a0146105025780638dde277a1461052d5780639627ee52146105a6578063985751881461063657806398850d5714610679578063aaac9489146106a4578063c3b31472146106cf578063dd73283d14610726578063dff67f6b146107b6578063e049421f14610863578063e3ffe1ca1461087a578063e4128fb31461090a578063f086621014610961578063f2fde38b14610a5d575b600080fd5b34801561014f57600080fd5b50610158610aa0565b604051808215151515815260200191505060405180910390f35b34801561017e57600080fd5b5061019d60048036038101908080359060200190929190505050610ab3565b604051808273ffffffffffffffffffffffffffffffffffffffff1673ffffffffffffffffffffffffffffffffffffffff16815260200191505060405180910390f35b3480156101eb57600080fd5b50610220600480360381019080803573ffffffffffffffffffffffffffffffffffffffff169060200190929190505050610af1565b6040518082815260200191505060405180910390f35b34801561024257600080fd5b50610329600480360381019080803590602001908201803590602001908080601f0160208091040260200160405190810160405280939291908181526020018383808284378201915050505050509192919290803590602001908201803590602001908080601f0160208091040260200160405190810160405280939291908181526020018383808284378201915050505050509192919290803590602001908201803590602001908080601f0160208091040260200160405190810160405280939291908181526020018383808284378201915050505050509192919290505050610b09565b6040518082815260200191505060405180910390f35b34801561034b57600080fd5b50610354610de8565b6040518082815260200191505060405180910390f35b34801561037657600080fd5b506103ab600480360381019080803573ffffffffffffffffffffffffffffffffffffffff169060200190929190505050610dee565b604051808273ffffffffffffffffffffffffffffffffffffffff1673ffffffffffffffffffffffffffffffffffffffff16815260200191505060405180910390f35b3480156103f957600080fd5b50610402610e70565b6040518082815260200191505060405180910390f35b34801561042457600080fd5b5061042d610e76565b6040518082815260200191505060405180910390f35b34801561044f57600080fd5b50610458610e7c565b604051808215151515815260200191505060405180910390f35b34801561047e57600080fd5b50610487610e8f565b6040518080602001828103825283818151815260200191508051906020019080838360005b838110156104c75780820151818401526020810190506104ac565b50505050905090810190601f1680156104f45780820380516001836020036101000a031916815260200191505b509250505060405180910390f35b34801561050e57600080fd5b50610517610f2d565b6040518082815260200191505060405180910390f35b34801561053957600080fd5b506105a4600480360381019080803573ffffffffffffffffffffffffffffffffffffffff16906020019092919080351515906020019092919080359060200190929190803573ffffffffffffffffffffffffffffffffffffffff169060200190929190505050610f3a565b005b3480156105b257600080fd5b506105bb611410565b6040518080602001828103825283818151815260200191508051906020019080838360005b838110156105fb5780820151818401526020810190506105e0565b50505050905090810190601f1680156106285780820380516001836020036101000a031916815260200191505b509250505060405180910390f35b34801561064257600080fd5b50610677600480360381019080803573ffffffffffffffffffffffffffffffffffffffff1690602001909291905050506114ae565b005b34801561068557600080fd5b5061068e61187b565b6040518082815260200191505060405180910390f35b3480156106b057600080fd5b506106b9611881565b6040518082815260200191505060405180910390f35b3480156106db57600080fd5b506106e4611887565b604051808273ffffffffffffffffffffffffffffffffffffffff1673ffffffffffffffffffffffffffffffffffffffff16815260200191505060405180910390f35b34801561073257600080fd5b5061073b6118ad565b6040518080602001828103825283818151815260200191508051906020019080838360005b8381101561077b578082015181840152602081019050610760565b50505050905090810190601f1680156107a85780820380516001836020036101000a031916815260200191505b509250505060405180910390f35b3480156107c257600080fd5b506107e16004803603810190808035906020019092919050505061194b565b6040518080602001838152602001828103825284818151815260200191508051906020019080838360005b8381101561082757808201518184015260208101905061080c565b50505050905090810190601f1680156108545780820380516001836020036101000a031916815260200191505b50935050505060405180910390f35b34801561086f57600080fd5b50610878611a16565b005b34801561088657600080fd5b5061088f611b5d565b6040518080602001828103825283818151815260200191508051906020019080838360005b838110156108cf5780820151818401526020810190506108b4565b50505050905090810190601f1680156108fc5780820380516001836020036101000a031916815260200191505b509250505060405180910390f35b34801561091657600080fd5b5061091f611bfb565b604051808273ffffffffffffffffffffffffffffffffffffffff1673ffffffffffffffffffffffffffffffffffffffff16815260200191505060405180910390f35b34801561096d57600080fd5b50610976611c20565b604051808060200180602001838103835285818151815260200191508051906020019080838360005b838110156109ba57808201518184015260208101905061099f565b50505050905090810190601f1680156109e75780820380516001836020036101000a031916815260200191505b50838103825284818151815260200191508051906020019080838360005b83811015610a20578082015181840152602081019050610a05565b50505050905090810190601f168015610a4d5780820380516001836020036101000a031916815260200191505b5094505050505060405180910390f35b348015610a6957600080fd5b50610a9e600480360381019080803573ffffffffffffffffffffffffffffffffffffffff169060200190929190505050611dc2565b005b600060149054906101000a900460ff1681565b600381815481101515610ac257fe5b906000526020600020016000915054906101000a900473ffffffffffffffffffffffffffffffffffffffff1681565b60046020528060005260406000206000915090505481565b60003373ffffffffffffffffffffffffffffffffffffffff166000809054906101000a900473ffffffffffffffffffffffffffffffffffffffff1673ffffffffffffffffffffffffffffffffffffffff16141515610b6657600080fd5b600160009054906101000a900473ffffffffffffffffffffffffffffffffffffffff1673ffffffffffffffffffffffffffffffffffffffff1663806c08608585856040518463ffffffff167c010000000000000000000000000000000000000000000000000000000002815260040180806020018060200180602001848103845287818151815260200191508051906020019080838360005b83811015610c1a578082015181840152602081019050610bff565b50505050905090810190601f168015610c475780820380516001836020036101000a031916815260200191505b50848103835286818151815260200191508051906020019080838360005b83811015610c80578082015181840152602081019050610c65565b50505050905090810190601f168015610cad5780820380516001836020036101000a031916815260200191505b50848103825285818151815260200191508051906020019080838360005b83811015610ce6578082015181840152602081019050610ccb565b50505050905090810190601f168015610d135780820380516001836020036101000a031916815260200191505b509650505050505050602060405180830381600087803b158015610d3657600080fd5b505af1158015610d4a573d6000803e3d6000fd5b505050506040513d6020811015610d6057600080fd5b810190808051906020019092919050505090507fcd423cc1203c0af96b9b3d68d73b3064a69de2d14450bb7181c5e5df2132b3588133604051808381526020018273ffffffffffffffffffffffffffffffffffffffff1673ffffffffffffffffffffffffffffffffffffffff1681526020019250505060405180910390a18090509392505050565b60075481565b60006003600460008473ffffffffffffffffffffffffffffffffffffffff1673ffffffffffffffffffffffffffffffffffffffff16815260200190815260200160002054815481101515610e3e57fe5b9060005260206000200160009054906101000a900473ffffffffffffffffffffffffffffffffffffffff169050919050565b60085481565b60025481565b600660009054906101000a900460ff1681565b600b8054600181600116156101000203166002900480601f016020809104026020016040519081016040528092919081815260200182805460018160011615610100020316600290048015610f255780601f10610efa57610100808354040283529160200191610f25565b820191906000526020600020905b815481529060010190602001808311610f0857829003601f168201915b505050505081565b6000600380549050905090565b6000806000600460008873ffffffffffffffffffffffffffffffffffffffff1673ffffffffffffffffffffffffffffffffffffffff1681526020019081526020016000205492506000831415610fe55760038054809190600101610f9e9190611ec3565b925082600460008973ffffffffffffffffffffffffffffffffffffffff1673ffffffffffffffffffffffffffffffffffffffff168152602001908152602001600020819055505b85156111ee57600160009054906101000a900473ffffffffffffffffffffffffffffffffffffffff1673ffffffffffffffffffffffffffffffffffffffff166365625cef88866040518363ffffffff167c0100000000000000000000000000000000000000000000000000000000028152600401808373ffffffffffffffffffffffffffffffffffffffff1673ffffffffffffffffffffffffffffffffffffffff1681526020018273ffffffffffffffffffffffffffffffffffffffff1673ffffffffffffffffffffffffffffffffffffffff16815260200192505050602060405180830381600087803b1580156110dc57600080fd5b505af11580156110f0573d6000803e3d6000fd5b505050506040513d602081101561110657600080fd5b810190808051906020019092919050505091508160038481548110151561112957fe5b9060005260206000200160006101000a81548173ffffffffffffffffffffffffffffffffffffffff021916908373ffffffffffffffffffffffffffffffffffffffff1602179055507f88002c8a3d903e0b9ca6d4d478f00f4936fd2c9a081e9b47a0360112029d037683886001604051808481526020018373ffffffffffffffffffffffffffffffffffffffff1673ffffffffffffffffffffffffffffffffffffffff16815260200182151515158152602001935050505060405180910390a16113f5565b600160009054906101000a900473ffffffffffffffffffffffffffffffffffffffff1673ffffffffffffffffffffffffffffffffffffffff1663973163188887876040518463ffffffff167c0100000000000000000000000000000000000000000000000000000000028152600401808473ffffffffffffffffffffffffffffffffffffffff1673ffffffffffffffffffffffffffffffffffffffff1681526020018381526020018273ffffffffffffffffffffffffffffffffffffffff1673ffffffffffffffffffffffffffffffffffffffff1681526020019350505050602060405180830381600087803b1580156112e757600080fd5b505af11580156112fb573d6000803e3d6000fd5b505050506040513d602081101561131157600080fd5b810190808051906020019092919050505090508060038481548110151561133457fe5b9060005260206000200160006101000a81548173ffffffffffffffffffffffffffffffffffffffff021916908373ffffffffffffffffffffffffffffffffffffffff1602179055507f88002c8a3d903e0b9ca6d4d478f00f4936fd2c9a081e9b47a0360112029d037683886000604051808481526020018373ffffffffffffffffffffffffffffffffffffffff1673ffffffffffffffffffffffffffffffffffffffff16815260200182151515158152602001935050505060405180910390a15b60026000815480929190600101919050555050505050505050565b600c8054600181600116156101000203166002900480601f0160208091040260200160405190810160405280929190818152602001828054600181600116156101000203166002900480156114a65780601f1061147b576101008083540402835291602001916114a6565b820191906000526020600020905b81548152906001019060200180831161148957829003601f168201915b505050505081565b600080600460008473ffffffffffffffffffffffffffffffffffffffff1673ffffffffffffffffffffffffffffffffffffffff16815260200190815260200160002054915060038281548110151561150257fe5b9060005260206000200160009054906101000a900473ffffffffffffffffffffffffffffffffffffffff16905060038281548110151561153e57fe5b9060005260206000200160006101000a81549073ffffffffffffffffffffffffffffffffffffffff02191690555b6001600380549050038210156117385760036001830181548110151561158e57fe5b9060005260206000200160009054906101000a900473ffffffffffffffffffffffffffffffffffffffff166003838154811015156115c857fe5b9060005260206000200160006101000a81548173ffffffffffffffffffffffffffffffffffffffff021916908373ffffffffffffffffffffffffffffffffffffffff160217905550816004600060038581548110151561162457fe5b9060005260206000200160009054906101000a900473ffffffffffffffffffffffffffffffffffffffff1673ffffffffffffffffffffffffffffffffffffffff1663e4128fb36040518163ffffffff167c0100000000000000000000000000000000000000000000000000000000028152600401602060405180830381600087803b1580156116b257600080fd5b505af11580156116c6573d6000803e3d6000fd5b505050506040513d60208110156116dc57600080fd5b810190808051906020019092919050505073ffffffffffffffffffffffffffffffffffffffff1673ffffffffffffffffffffffffffffffffffffffff16815260200190815260200160002081905550818060010192505061156c565b600380548091906001900361174d9190611ec3565b50600260008154809291906001900391905055507fd601b36399eed8ab2ff764ce20c6c255752ea37b345e4f857027ff4d1f1bdbc682848373ffffffffffffffffffffffffffffffffffffffff16631ad8af8d6040518163ffffffff167c0100000000000000000000000000000000000000000000000000000000028152600401602060405180830381600087803b1580156117e857600080fd5b505af11580156117fc573d6000803e3d6000fd5b505050506040513d602081101561181257600080fd5b8101908080519060200190929190505050604051808481526020018373ffffffffffffffffffffffffffffffffffffffff1673ffffffffffffffffffffffffffffffffffffffff16815260200182151515158152602001935050505060405180910390a1505050565b600e5481565b600d5481565b600160009054906101000a900473ffffffffffffffffffffffffffffffffffffffff1681565b60098054600181600116156101000203166002900480601f0160208091040260200160405190810160405280929190818152602001828054600181600116156101000203166002900480156119435780601f1061191857610100808354040283529160200191611943565b820191906000526020600020905b81548152906001019060200180831161192657829003601f168201915b505050505081565b60058181548110151561195a57fe5b9060005260206000209060020201600091509050806000018054600181600116156101000203166002900480601f016020809104026020016040519081016040528092919081815260200182805460018160011615610100020316600290048015611a065780601f106119db57610100808354040283529160200191611a06565b820191906000526020600020905b8154815290600101906020018083116119e957829003601f168201915b5050505050908060010154905082565b3373ffffffffffffffffffffffffffffffffffffffff166000809054906101000a900473ffffffffffffffffffffffffffffffffffffffff1673ffffffffffffffffffffffffffffffffffffffff16141515611a7157600080fd5b600660009054906101000a900460ff16151515611af6576040517f08c379a000000000000000000000000000000000000000000000000000000000815260040180806020018281038252601d8152602001807f41474d2068617320616c7265616479206265656e2066696e697368656400000081525060200191505060405180910390fd5b6001600660006101000a81548160ff0219169083151502179055507f8cd75a9c018fcf2df19a93d0c90440885504e4d100c03d546f17c3e9b781f0df600660009054906101000a900460ff16604051808215151515815260200191505060405180910390a1565b600a8054600181600116156101000203166002900480601f016020809104026020016040519081016040528092919081815260200182805460018160011615610100020316600290048015611bf35780601f10611bc857610100808354040283529160200191611bf3565b820191906000526020600020905b815481529060010190602001808311611bd657829003601f168201915b505050505081565b6000809054906101000a900473ffffffffffffffffffffffffffffffffffffffff1681565b6060803373ffffffffffffffffffffffffffffffffffffffff166000809054906101000a900473ffffffffffffffffffffffffffffffffffffffff1673ffffffffffffffffffffffffffffffffffffffff16141515611c7e57600080fd5b600b600c818054600181600116156101000203166002900480601f016020809104026020016040519081016040528092919081815260200182805460018160011615610100020316600290048015611d175780601f10611cec57610100808354040283529160200191611d17565b820191906000526020600020905b815481529060010190602001808311611cfa57829003601f168201915b50505050509150808054600181600116156101000203166002900480601f016020809104026020016040519081016040528092919081815260200182805460018160011615610100020316600290048015611db35780601f10611d8857610100808354040283529160200191611db3565b820191906000526020600020905b815481529060010190602001808311611d9657829003601f168201915b50505050509050915091509091565b3373ffffffffffffffffffffffffffffffffffffffff166000809054906101000a900473ffffffffffffffffffffffffffffffffffffffff1673ffffffffffffffffffffffffffffffffffffffff16141515611e1d57600080fd5b806000806101000a81548173ffffffffffffffffffffffffffffffffffffffff021916908373ffffffffffffffffffffffffffffffffffffffff1602179055507fb657493ed7a3f8cc1a47fef0396b4999d226d66c0c45ef4e7df62e72f7b7b79581604051808273ffffffffffffffffffffffffffffffffffffffff1673ffffffffffffffffffffffffffffffffffffffff16815260200191505060405180910390a150565b815481835581811115611eea57818360005260206000209182019101611ee99190611eef565b5b505050565b611f1191905b80821115611f0d576000816000905550600101611ef5565b5090565b905600a165627a7a723058200829777b5e15977cf4cb640f57d54504033e4e3ac0a14b5a5cfff55973a856050029",
  "source": "pragma solidity ^0.4.23;\r\n\r\nimport \"./User.sol\";\r\nimport \"./Shareholder.sol\";\r\nimport \"./Director.sol\";\r\nimport \"./Factory.sol\";\r\n\r\ncontract AgmOwner is User {\r\n\r\n    Factory public fac;\r\n    // total number of users\r\n    uint public numberOfUsers;\r\n    // stores all users\r\n    User[] public users;\r\n    // stores user's address with corresponding id\r\n    mapping(address => uint) public userId;\r\n    // store options to every proposal\r\n    VotingOption[] public votingOptions;\r\n\r\n    bool public isFinished = false;\r\n\r\n    uint public minimumVotingQuorum;\r\n    uint public marginOfVotesForMajority;\r\n    string public meetingName;\r\n    string public meetingDescription;\r\n    string public meetingDate;\r\n    string public meetingPlace;\r\n    uint public meetingStartTime;\r\n    uint public meetingEndTime;\r\n\r\n    struct VotingOption {\r\n        string optionName;\r\n        uint optionCount;\r\n    }\r\n\r\n    modifier onlyOwner {\r\n        require(userAddress == msg.sender);\r\n        _;\r\n    }\r\n\r\n    event ProposalCreated(uint propId, address creator);\r\n    event Voted(address userAddress, uint proposalId, string votingOption);\r\n    event AgmFinished(bool isFinished);\r\n    event ProposalExecuted(uint proposalId, bool proposalPassed, uint passedPercentage, VotingOption[] options);\r\n    event OwnershipTransferedTo(address newOwner);\r\n    event UserCreated(uint userId, address userAddress, bool isDirector);\r\n    event UserRemoved(uint userId, address userAddress, bool isDirector);\r\n\r\n    constructor(\r\n        uint _minimumVotingQuorum,\r\n        uint _marginOfVotesForMajority,\r\n        string _meetingName,\r\n        string _meetingDescription,\r\n        string _meetingDate,\r\n        string _meetingPlace,\r\n        uint _meetingStartTime,\r\n        uint _meetingEndTime,\r\n        Factory _fac\r\n    ) \r\n            \r\n            User(msg.sender, true) public {\r\n        \r\n        minimumVotingQuorum = _minimumVotingQuorum;\r\n        marginOfVotesForMajority = _marginOfVotesForMajority;\r\n        meetingName = _meetingName;\r\n        meetingDescription = _meetingDescription;\r\n        meetingDate = _meetingDate;\r\n        meetingPlace = _meetingPlace;\r\n        meetingStartTime = _meetingStartTime;\r\n        meetingEndTime = _meetingEndTime;\r\n        fac = _fac;\r\n    }\r\n\r\n    // transfer contract ownership to another director\r\n    function transferOwnership(address _owner) onlyOwner public {\r\n        userAddress = _owner;\r\n\r\n        emit OwnershipTransferedTo(_owner);\r\n    }\r\n\r\n    function addUser(address _userAddress, bool isDirector, uint votingTok, QandA qa) public {\r\n        uint id = userId[_userAddress];\r\n        if (id == 0) {\r\n            id = users.length++;\r\n            userId[_userAddress] = id;\r\n        }\r\n\r\n        if (isDirector) {\r\n            Director d = fac.createNewDirector(_userAddress, qa);\r\n            users[id] = d;\r\n            \r\n            emit UserCreated(id, _userAddress, true);\r\n        \r\n        } else {\r\n            Shareholder s = fac.createNewShareholder(_userAddress, votingTok, qa);\r\n            users[id] = s;\r\n            \r\n            emit UserCreated(id, _userAddress, false);\r\n        }\r\n        numberOfUsers++;\r\n    }\r\n\r\n    function removeUser(address _userAddress) public {\r\n        //require(userId[_userAddress] != 0, \"User does not exist\");\r\n\r\n        uint i = userId[_userAddress];\r\n        User remUser = users[i];\r\n        delete users[i];\r\n\r\n        for (; i < users.length - 1; i++) {\r\n            users[i] = users[i+1];\r\n            userId[users[i].userAddress()] = i;\r\n        }\r\n        \r\n        users.length--;\r\n        numberOfUsers--;\r\n\r\n        emit UserRemoved(i, _userAddress, remUser.isDirector());\r\n    }\r\n\r\n    function getNumOfUsers() public view returns (uint length) {\r\n        return users.length;\r\n    }\r\n\r\n    function getUser(address _userAddress) public view returns (User u) {\r\n        return users[userId[_userAddress]];\r\n    }\r\n\r\n    function finishAGM() onlyOwner public {\r\n        require(!isFinished, \"AGM has already been finished\");\r\n        isFinished = true;\r\n\r\n        emit AgmFinished(isFinished);\r\n\r\n    }\r\n\r\n    function announceAGM() onlyOwner public view returns (string recordDate, string recordPlace) {\r\n        return (meetingDate, meetingPlace);\r\n    }\r\n\r\n    // only director is allowed to create a proposal\r\n    function createProposal(string _name, string _description, string _options) \r\n        onlyOwner public returns(uint propId) {\r\n\r\n        propId = fac.createNewProposal(_name, _description, _options);\r\n        emit ProposalCreated(propId, msg.sender);\r\n\r\n        return propId;\r\n    }\r\n\r\n    // executes the pending proposal\r\n    /*function executeProposal(uint proposalId) public {\r\n        \r\n        Proposal storage prop = proposals[proposalId];\r\n        var optionString = proposals[proposalId].options.toSlice();\r\n        var delim = \";\".toSlice();\r\n        var options = new string[](optionString.count(delim) + 1);\r\n        for (uint l = 0; l < options.length; l++) {\r\n            options[l] = optionString.split(delim).toString();\r\n        }\r\n\r\n        require(now > meetingEndTime, \"meeting has not finished yet\");\r\n\r\n        \r\n        // iterate over all options to store default options in the map\r\n        for (uint k = 0; k < options.length; k++) {\r\n            uint id = votingOptions.length++;\r\n            votingOptions[id] = VotingOption({optionName: options[k], optionCount: 0});\r\n\r\n            // iterate over all votes to check which voter voted for option k\r\n            for (uint i = 0; i < prop.votes.length; i++) {\r\n                \r\n                Vote storage v = prop.votes[i];\r\n                if (keccak256(v.voterDecision) == keccak256(options[k])) {\r\n                    votingOptions[k].optionCount++; \r\n                } \r\n            }\r\n        }\r\n        uint winningOptionCount = 0;\r\n        uint countSum = 0;\r\n        \r\n        for (uint j = 0; j < votingOptions.length; j++) {\r\n            countSum += votingOptions[j].optionCount;\r\n            if (winningOptionCount < votingOptions[j].optionCount) {\r\n                winningOptionCount = votingOptions[j].optionCount;\r\n            }\r\n        }\r\n\r\n        if (winningOptionCount > minimumVotingQuorum \r\n            && (winningOptionCount * 100 / countSum) > marginOfVotesForMajority) {\r\n            prop.proposalPassed = true;\r\n        } else {\r\n            prop.proposalPassed = false;\r\n        }\r\n\r\n        prop.passedPercent = winningOptionCount * 100 / countSum;\r\n\r\n        delete votingOptions;\r\n\r\n        emit ProposalExecuted(proposalId, prop.proposalPassed, prop.passedPercent, votingOptions);\r\n    }*/\r\n}",
  "sourcePath": "D:\\Git\\repo\\ShareholderMeeting\\solidity\\contracts\\AgmOwner.sol",
  "compiler": {
    "name": "solc",
    "version": "0.4.24+commit.e67f0147.Emscripten.clang"
  },
  "schemaVersion": "2.0.1",
  "updatedAt": "2018-08-04T09:57:57.191Z"
}