{
  "contractName": "AgmOwner",
  "abi": [
    {
      "constant": true,
      "inputs": [],
      "name": "isDirector",
      "outputs": [
        {
          "name": "",
          "type": "bool"
        }
      ],
      "payable": false,
      "stateMutability": "view",
      "type": "function"
    },
    {
      "constant": true,
      "inputs": [
        {
          "name": "",
          "type": "uint256"
        }
      ],
      "name": "users",
      "outputs": [
        {
          "name": "",
          "type": "address"
        }
      ],
      "payable": false,
      "stateMutability": "view",
      "type": "function"
    },
    {
      "constant": true,
      "inputs": [
        {
          "name": "",
          "type": "address"
        }
      ],
      "name": "userId",
      "outputs": [
        {
          "name": "",
          "type": "uint256"
        }
      ],
      "payable": false,
      "stateMutability": "view",
      "type": "function"
    },
    {
      "constant": true,
      "inputs": [],
      "name": "minimumVotingQuorum",
      "outputs": [
        {
          "name": "",
          "type": "uint256"
        }
      ],
      "payable": false,
      "stateMutability": "view",
      "type": "function"
    },
    {
      "constant": true,
      "inputs": [],
      "name": "marginOfVotesForMajority",
      "outputs": [
        {
          "name": "",
          "type": "uint256"
        }
      ],
      "payable": false,
      "stateMutability": "view",
      "type": "function"
    },
    {
      "constant": true,
      "inputs": [],
      "name": "numberOfUsers",
      "outputs": [
        {
          "name": "",
          "type": "uint256"
        }
      ],
      "payable": false,
      "stateMutability": "view",
      "type": "function"
    },
    {
      "constant": true,
      "inputs": [],
      "name": "isFinished",
      "outputs": [
        {
          "name": "",
          "type": "bool"
        }
      ],
      "payable": false,
      "stateMutability": "view",
      "type": "function"
    },
    {
      "constant": true,
      "inputs": [],
      "name": "meetingDate",
      "outputs": [
        {
          "name": "",
          "type": "string"
        }
      ],
      "payable": false,
      "stateMutability": "view",
      "type": "function"
    },
    {
      "constant": true,
      "inputs": [],
      "name": "meetingPlace",
      "outputs": [
        {
          "name": "",
          "type": "string"
        }
      ],
      "payable": false,
      "stateMutability": "view",
      "type": "function"
    },
    {
      "constant": true,
      "inputs": [],
      "name": "meetingEndTime",
      "outputs": [
        {
          "name": "",
          "type": "uint256"
        }
      ],
      "payable": false,
      "stateMutability": "view",
      "type": "function"
    },
    {
      "constant": true,
      "inputs": [],
      "name": "meetingStartTime",
      "outputs": [
        {
          "name": "",
          "type": "uint256"
        }
      ],
      "payable": false,
      "stateMutability": "view",
      "type": "function"
    },
    {
      "constant": true,
      "inputs": [],
      "name": "meetingName",
      "outputs": [
        {
          "name": "",
          "type": "string"
        }
      ],
      "payable": false,
      "stateMutability": "view",
      "type": "function"
    },
    {
      "constant": true,
      "inputs": [
        {
          "name": "",
          "type": "uint256"
        }
      ],
      "name": "votingOptions",
      "outputs": [
        {
          "name": "optionName",
          "type": "string"
        },
        {
          "name": "optionCount",
          "type": "uint256"
        }
      ],
      "payable": false,
      "stateMutability": "view",
      "type": "function"
    },
    {
      "constant": true,
      "inputs": [],
      "name": "meetingDescription",
      "outputs": [
        {
          "name": "",
          "type": "string"
        }
      ],
      "payable": false,
      "stateMutability": "view",
      "type": "function"
    },
    {
      "constant": true,
      "inputs": [],
      "name": "userAddress",
      "outputs": [
        {
          "name": "",
          "type": "address"
        }
      ],
      "payable": false,
      "stateMutability": "view",
      "type": "function"
    },
    {
      "inputs": [
        {
          "name": "_minimumVotingQuorum",
          "type": "uint256"
        },
        {
          "name": "_marginOfVotesForMajority",
          "type": "uint256"
        },
        {
          "name": "_meetingName",
          "type": "string"
        },
        {
          "name": "_meetingDescription",
          "type": "string"
        },
        {
          "name": "_meetingDate",
          "type": "string"
        },
        {
          "name": "_meetingPlace",
          "type": "string"
        },
        {
          "name": "_meetingStartTime",
          "type": "uint256"
        },
        {
          "name": "_meetingEndTime",
          "type": "uint256"
        }
      ],
      "payable": false,
      "stateMutability": "nonpayable",
      "type": "constructor"
    },
    {
      "anonymous": false,
      "inputs": [
        {
          "indexed": false,
          "name": "propId",
          "type": "uint256"
        },
        {
          "indexed": false,
          "name": "creator",
          "type": "address"
        }
      ],
      "name": "ProposalCreated",
      "type": "event"
    },
    {
      "anonymous": false,
      "inputs": [
        {
          "indexed": false,
          "name": "userAddress",
          "type": "address"
        },
        {
          "indexed": false,
          "name": "proposalId",
          "type": "uint256"
        },
        {
          "indexed": false,
          "name": "votingOption",
          "type": "string"
        }
      ],
      "name": "Voted",
      "type": "event"
    },
    {
      "anonymous": false,
      "inputs": [
        {
          "indexed": false,
          "name": "isFinished",
          "type": "bool"
        }
      ],
      "name": "AgmFinished",
      "type": "event"
    },
    {
      "anonymous": false,
      "inputs": [
        {
          "indexed": false,
          "name": "proposalId",
          "type": "uint256"
        },
        {
          "indexed": false,
          "name": "proposalPassed",
          "type": "bool"
        },
        {
          "indexed": false,
          "name": "passedPercentage",
          "type": "uint256"
        },
        {
          "components": [
            {
              "name": "optionName",
              "type": "string"
            },
            {
              "name": "optionCount",
              "type": "uint256"
            }
          ],
          "indexed": false,
          "name": "options",
          "type": "tuple[]"
        }
      ],
      "name": "ProposalExecuted",
      "type": "event"
    },
    {
      "anonymous": false,
      "inputs": [
        {
          "indexed": false,
          "name": "newOwner",
          "type": "address"
        }
      ],
      "name": "OwnershipTransferedTo",
      "type": "event"
    },
    {
      "anonymous": false,
      "inputs": [
        {
          "indexed": false,
          "name": "userId",
          "type": "uint256"
        },
        {
          "indexed": false,
          "name": "userAddress",
          "type": "address"
        },
        {
          "indexed": false,
          "name": "isDirector",
          "type": "bool"
        }
      ],
      "name": "UserCreated",
      "type": "event"
    },
    {
      "anonymous": false,
      "inputs": [
        {
          "indexed": false,
          "name": "userId",
          "type": "uint256"
        },
        {
          "indexed": false,
          "name": "userAddress",
          "type": "address"
        },
        {
          "indexed": false,
          "name": "isDirector",
          "type": "bool"
        }
      ],
      "name": "UserRemoved",
      "type": "event"
    },
    {
      "anonymous": false,
      "inputs": [
        {
          "indexed": false,
          "name": "exists",
          "type": "bool"
        }
      ],
      "name": "UserExists",
      "type": "event"
    },
    {
      "constant": false,
      "inputs": [
        {
          "name": "_owner",
          "type": "address"
        }
      ],
      "name": "transferOwnership",
      "outputs": [],
      "payable": false,
      "stateMutability": "nonpayable",
      "type": "function"
    },
    {
      "constant": false,
      "inputs": [
        {
          "name": "_userAddress",
          "type": "address"
        },
        {
          "name": "isDirector",
          "type": "bool"
        },
        {
          "name": "votingTok",
          "type": "uint256"
        }
      ],
      "name": "addUser",
      "outputs": [],
      "payable": false,
      "stateMutability": "nonpayable",
      "type": "function"
    },
    {
      "constant": false,
      "inputs": [
        {
          "name": "_userAddress",
          "type": "address"
        }
      ],
      "name": "removeUser",
      "outputs": [],
      "payable": false,
      "stateMutability": "nonpayable",
      "type": "function"
    },
    {
      "constant": true,
      "inputs": [],
      "name": "getNumOfUsers",
      "outputs": [
        {
          "name": "length",
          "type": "uint256"
        }
      ],
      "payable": false,
      "stateMutability": "view",
      "type": "function"
    },
    {
      "constant": true,
      "inputs": [
        {
          "name": "_userAddress",
          "type": "address"
        }
      ],
      "name": "getUser",
      "outputs": [
        {
          "name": "u",
          "type": "address"
        }
      ],
      "payable": false,
      "stateMutability": "view",
      "type": "function"
    },
    {
      "constant": false,
      "inputs": [],
      "name": "finishAGM",
      "outputs": [],
      "payable": false,
      "stateMutability": "nonpayable",
      "type": "function"
    },
    {
      "constant": true,
      "inputs": [],
      "name": "announceAGM",
      "outputs": [
        {
          "name": "recordDate",
          "type": "string"
        },
        {
          "name": "recordPlace",
          "type": "string"
        }
      ],
      "payable": false,
      "stateMutability": "view",
      "type": "function"
    },
    {
      "constant": false,
      "inputs": [
        {
          "name": "_name",
          "type": "string"
        },
        {
          "name": "_description",
          "type": "string"
        },
        {
          "name": "_options",
          "type": "string"
        }
      ],
      "name": "createProposal",
      "outputs": [
        {
          "name": "propId",
          "type": "uint256"
        }
      ],
      "payable": false,
      "stateMutability": "nonpayable",
      "type": "function"
    }
  ],
  "bytecode": "0x60806040526200000e620001ef565b604051809103906000f0801580156200002b573d6000803e3d6000fd5b50600160006101000a81548173ffffffffffffffffffffffffffffffffffffffff021916908373ffffffffffffffffffffffffffffffffffffffff1602179055506000600660006101000a81548160ff0219169083151502179055503480156200009457600080fd5b5060405162005be138038062005be18339810180604052810190808051906020019092919080519060200190929190805182019291906020018051820192919060200180518201929190602001805182019291906020018051906020019092919080519060200190929190505050336001816000806101000a81548173ffffffffffffffffffffffffffffffffffffffff021916908373ffffffffffffffffffffffffffffffffffffffff16021790555080600060146101000a81548160ff0219169083151502179055505050876007819055508660088190555085600990805190602001906200018792919062000200565b5084600a9080519060200190620001a092919062000200565b5083600b9080519060200190620001b992919062000200565b5082600c9080519060200190620001d292919062000200565b5081600d8190555080600e819055505050505050505050620002af565b604051613af380620020ee83390190565b828054600181600116156101000203166002900490600052602060002090601f016020900481019282601f106200024357805160ff191683800117855562000274565b8280016001018555821562000274579182015b828111156200027357825182559160200191906001019062000256565b5b50905062000283919062000287565b5090565b620002ac91905b80821115620002a85760008160009055506001016200028e565b5090565b90565b611e2f80620002bf6000396000f300608060405260043610610133576000357c0100000000000000000000000000000000000000000000000000000000900463ffffffff1680631ad8af8d14610138578063365b98b214610167578063376fe102146101d4578063583cf3791461022b578063687702ac146103345780636f77926b1461035f57806374dc264e146103e257806375ce46a71461040d5780637b352962146104385780638328956714610467578063880e97a0146104f75780639627ee521461052257806398575188146105b257806398850d57146105f5578063aaac948914610620578063dd73283d1461064b578063dff67f6b146106db578063e049421f14610788578063e2f7d5cc1461079f578063e3ffe1ca146107f8578063e4128fb314610888578063f0866210146108df578063f2fde38b146109db575b600080fd5b34801561014457600080fd5b5061014d610a1e565b604051808215151515815260200191505060405180910390f35b34801561017357600080fd5b5061019260048036038101908080359060200190929190505050610a31565b604051808273ffffffffffffffffffffffffffffffffffffffff1673ffffffffffffffffffffffffffffffffffffffff16815260200191505060405180910390f35b3480156101e057600080fd5b50610215600480360381019080803573ffffffffffffffffffffffffffffffffffffffff169060200190929190505050610a6f565b6040518082815260200191505060405180910390f35b34801561023757600080fd5b5061031e600480360381019080803590602001908201803590602001908080601f0160208091040260200160405190810160405280939291908181526020018383808284378201915050505050509192919290803590602001908201803590602001908080601f0160208091040260200160405190810160405280939291908181526020018383808284378201915050505050509192919290803590602001908201803590602001908080601f0160208091040260200160405190810160405280939291908181526020018383808284378201915050505050509192919290505050610a87565b6040518082815260200191505060405180910390f35b34801561034057600080fd5b50610349610d66565b6040518082815260200191505060405180910390f35b34801561036b57600080fd5b506103a0600480360381019080803573ffffffffffffffffffffffffffffffffffffffff169060200190929190505050610d6c565b604051808273ffffffffffffffffffffffffffffffffffffffff1673ffffffffffffffffffffffffffffffffffffffff16815260200191505060405180910390f35b3480156103ee57600080fd5b506103f7610dee565b6040518082815260200191505060405180910390f35b34801561041957600080fd5b50610422610df4565b6040518082815260200191505060405180910390f35b34801561044457600080fd5b5061044d610dfa565b604051808215151515815260200191505060405180910390f35b34801561047357600080fd5b5061047c610e0d565b6040518080602001828103825283818151815260200191508051906020019080838360005b838110156104bc5780820151818401526020810190506104a1565b50505050905090810190601f1680156104e95780820380516001836020036101000a031916815260200191505b509250505060405180910390f35b34801561050357600080fd5b5061050c610eab565b6040518082815260200191505060405180910390f35b34801561052e57600080fd5b50610537610eb8565b6040518080602001828103825283818151815260200191508051906020019080838360005b8381101561057757808201518184015260208101905061055c565b50505050905090810190601f1680156105a45780820380516001836020036101000a031916815260200191505b509250505060405180910390f35b3480156105be57600080fd5b506105f3600480360381019080803573ffffffffffffffffffffffffffffffffffffffff169060200190929190505050610f56565b005b34801561060157600080fd5b5061060a611323565b6040518082815260200191505060405180910390f35b34801561062c57600080fd5b50610635611329565b6040518082815260200191505060405180910390f35b34801561065757600080fd5b5061066061132f565b6040518080602001828103825283818151815260200191508051906020019080838360005b838110156106a0578082015181840152602081019050610685565b50505050905090810190601f1680156106cd5780820380516001836020036101000a031916815260200191505b509250505060405180910390f35b3480156106e757600080fd5b50610706600480360381019080803590602001909291905050506113cd565b6040518080602001838152602001828103825284818151815260200191508051906020019080838360005b8381101561074c578082015181840152602081019050610731565b50505050905090810190601f1680156107795780820380516001836020036101000a031916815260200191505b50935050505060405180910390f35b34801561079457600080fd5b5061079d611498565b005b3480156107ab57600080fd5b506107f6600480360381019080803573ffffffffffffffffffffffffffffffffffffffff169060200190929190803515159060200190929190803590602001909291905050506115df565b005b34801561080457600080fd5b5061080d611a4c565b6040518080602001828103825283818151815260200191508051906020019080838360005b8381101561084d578082015181840152602081019050610832565b50505050905090810190601f16801561087a5780820380516001836020036101000a031916815260200191505b509250505060405180910390f35b34801561089457600080fd5b5061089d611aea565b604051808273ffffffffffffffffffffffffffffffffffffffff1673ffffffffffffffffffffffffffffffffffffffff16815260200191505060405180910390f35b3480156108eb57600080fd5b506108f4611b0f565b604051808060200180602001838103835285818151815260200191508051906020019080838360005b8381101561093857808201518184015260208101905061091d565b50505050905090810190601f1680156109655780820380516001836020036101000a031916815260200191505b50838103825284818151815260200191508051906020019080838360005b8381101561099e578082015181840152602081019050610983565b50505050905090810190601f1680156109cb5780820380516001836020036101000a031916815260200191505b5094505050505060405180910390f35b3480156109e757600080fd5b50610a1c600480360381019080803573ffffffffffffffffffffffffffffffffffffffff169060200190929190505050611cb1565b005b600060149054906101000a900460ff1681565b600381815481101515610a4057fe5b906000526020600020016000915054906101000a900473ffffffffffffffffffffffffffffffffffffffff1681565b60046020528060005260406000206000915090505481565b60003373ffffffffffffffffffffffffffffffffffffffff166000809054906101000a900473ffffffffffffffffffffffffffffffffffffffff1673ffffffffffffffffffffffffffffffffffffffff16141515610ae457600080fd5b600160009054906101000a900473ffffffffffffffffffffffffffffffffffffffff1673ffffffffffffffffffffffffffffffffffffffff1663806c08608585856040518463ffffffff167c010000000000000000000000000000000000000000000000000000000002815260040180806020018060200180602001848103845287818151815260200191508051906020019080838360005b83811015610b98578082015181840152602081019050610b7d565b50505050905090810190601f168015610bc55780820380516001836020036101000a031916815260200191505b50848103835286818151815260200191508051906020019080838360005b83811015610bfe578082015181840152602081019050610be3565b50505050905090810190601f168015610c2b5780820380516001836020036101000a031916815260200191505b50848103825285818151815260200191508051906020019080838360005b83811015610c64578082015181840152602081019050610c49565b50505050905090810190601f168015610c915780820380516001836020036101000a031916815260200191505b509650505050505050602060405180830381600087803b158015610cb457600080fd5b505af1158015610cc8573d6000803e3d6000fd5b505050506040513d6020811015610cde57600080fd5b810190808051906020019092919050505090507fcd423cc1203c0af96b9b3d68d73b3064a69de2d14450bb7181c5e5df2132b3588133604051808381526020018273ffffffffffffffffffffffffffffffffffffffff1673ffffffffffffffffffffffffffffffffffffffff1681526020019250505060405180910390a18090509392505050565b60075481565b60006003600460008473ffffffffffffffffffffffffffffffffffffffff1673ffffffffffffffffffffffffffffffffffffffff16815260200190815260200160002054815481101515610dbc57fe5b9060005260206000200160009054906101000a900473ffffffffffffffffffffffffffffffffffffffff169050919050565b60085481565b60025481565b600660009054906101000a900460ff1681565b600b8054600181600116156101000203166002900480601f016020809104026020016040519081016040528092919081815260200182805460018160011615610100020316600290048015610ea35780601f10610e7857610100808354040283529160200191610ea3565b820191906000526020600020905b815481529060010190602001808311610e8657829003601f168201915b505050505081565b6000600380549050905090565b600c8054600181600116156101000203166002900480601f016020809104026020016040519081016040528092919081815260200182805460018160011615610100020316600290048015610f4e5780601f10610f2357610100808354040283529160200191610f4e565b820191906000526020600020905b815481529060010190602001808311610f3157829003601f168201915b505050505081565b600080600460008473ffffffffffffffffffffffffffffffffffffffff1673ffffffffffffffffffffffffffffffffffffffff168152602001908152602001600020549150600382815481101515610faa57fe5b9060005260206000200160009054906101000a900473ffffffffffffffffffffffffffffffffffffffff169050600382815481101515610fe657fe5b9060005260206000200160006101000a81549073ffffffffffffffffffffffffffffffffffffffff02191690555b6001600380549050038210156111e05760036001830181548110151561103657fe5b9060005260206000200160009054906101000a900473ffffffffffffffffffffffffffffffffffffffff1660038381548110151561107057fe5b9060005260206000200160006101000a81548173ffffffffffffffffffffffffffffffffffffffff021916908373ffffffffffffffffffffffffffffffffffffffff16021790555081600460006003858154811015156110cc57fe5b9060005260206000200160009054906101000a900473ffffffffffffffffffffffffffffffffffffffff1673ffffffffffffffffffffffffffffffffffffffff1663e4128fb36040518163ffffffff167c0100000000000000000000000000000000000000000000000000000000028152600401602060405180830381600087803b15801561115a57600080fd5b505af115801561116e573d6000803e3d6000fd5b505050506040513d602081101561118457600080fd5b810190808051906020019092919050505073ffffffffffffffffffffffffffffffffffffffff1673ffffffffffffffffffffffffffffffffffffffff168152602001908152602001600020819055508180600101925050611014565b60038054809190600190036111f59190611db2565b50600260008154809291906001900391905055507fd601b36399eed8ab2ff764ce20c6c255752ea37b345e4f857027ff4d1f1bdbc682848373ffffffffffffffffffffffffffffffffffffffff16631ad8af8d6040518163ffffffff167c0100000000000000000000000000000000000000000000000000000000028152600401602060405180830381600087803b15801561129057600080fd5b505af11580156112a4573d6000803e3d6000fd5b505050506040513d60208110156112ba57600080fd5b8101908080519060200190929190505050604051808481526020018373ffffffffffffffffffffffffffffffffffffffff1673ffffffffffffffffffffffffffffffffffffffff16815260200182151515158152602001935050505060405180910390a1505050565b600e5481565b600d5481565b60098054600181600116156101000203166002900480601f0160208091040260200160405190810160405280929190818152602001828054600181600116156101000203166002900480156113c55780601f1061139a576101008083540402835291602001916113c5565b820191906000526020600020905b8154815290600101906020018083116113a857829003601f168201915b505050505081565b6005818154811015156113dc57fe5b9060005260206000209060020201600091509050806000018054600181600116156101000203166002900480601f0160208091040260200160405190810160405280929190818152602001828054600181600116156101000203166002900480156114885780601f1061145d57610100808354040283529160200191611488565b820191906000526020600020905b81548152906001019060200180831161146b57829003601f168201915b5050505050908060010154905082565b3373ffffffffffffffffffffffffffffffffffffffff166000809054906101000a900473ffffffffffffffffffffffffffffffffffffffff1673ffffffffffffffffffffffffffffffffffffffff161415156114f357600080fd5b600660009054906101000a900460ff16151515611578576040517f08c379a000000000000000000000000000000000000000000000000000000000815260040180806020018281038252601d8152602001807f41474d2068617320616c7265616479206265656e2066696e697368656400000081525060200191505060405180910390fd5b6001600660006101000a81548160ff0219169083151502179055507f8cd75a9c018fcf2df19a93d0c90440885504e4d100c03d546f17c3e9b781f0df600660009054906101000a900460ff16604051808215151515815260200191505060405180910390a1565b6000806000600460008773ffffffffffffffffffffffffffffffffffffffff1673ffffffffffffffffffffffffffffffffffffffff168152602001908152602001600020549250600083141561168a57600380548091906001016116439190611db2565b925082600460008873ffffffffffffffffffffffffffffffffffffffff1673ffffffffffffffffffffffffffffffffffffffff168152602001908152602001600020819055505b841561185f57600160009054906101000a900473ffffffffffffffffffffffffffffffffffffffff1673ffffffffffffffffffffffffffffffffffffffff16631137729d876040518263ffffffff167c0100000000000000000000000000000000000000000000000000000000028152600401808273ffffffffffffffffffffffffffffffffffffffff1673ffffffffffffffffffffffffffffffffffffffff168152602001915050602060405180830381600087803b15801561174d57600080fd5b505af1158015611761573d6000803e3d6000fd5b505050506040513d602081101561177757600080fd5b810190808051906020019092919050505091508160038481548110151561179a57fe5b9060005260206000200160006101000a81548173ffffffffffffffffffffffffffffffffffffffff021916908373ffffffffffffffffffffffffffffffffffffffff1602179055507f88002c8a3d903e0b9ca6d4d478f00f4936fd2c9a081e9b47a0360112029d037683876001604051808481526020018373ffffffffffffffffffffffffffffffffffffffff1673ffffffffffffffffffffffffffffffffffffffff16815260200182151515158152602001935050505060405180910390a1611a32565b600160009054906101000a900473ffffffffffffffffffffffffffffffffffffffff1673ffffffffffffffffffffffffffffffffffffffff16630233820e87866040518363ffffffff167c0100000000000000000000000000000000000000000000000000000000028152600401808373ffffffffffffffffffffffffffffffffffffffff1673ffffffffffffffffffffffffffffffffffffffff16815260200182815260200192505050602060405180830381600087803b15801561192457600080fd5b505af1158015611938573d6000803e3d6000fd5b505050506040513d602081101561194e57600080fd5b810190808051906020019092919050505090508060038481548110151561197157fe5b9060005260206000200160006101000a81548173ffffffffffffffffffffffffffffffffffffffff021916908373ffffffffffffffffffffffffffffffffffffffff1602179055507f88002c8a3d903e0b9ca6d4d478f00f4936fd2c9a081e9b47a0360112029d037683876000604051808481526020018373ffffffffffffffffffffffffffffffffffffffff1673ffffffffffffffffffffffffffffffffffffffff16815260200182151515158152602001935050505060405180910390a15b600260008154809291906001019190505550505050505050565b600a8054600181600116156101000203166002900480601f016020809104026020016040519081016040528092919081815260200182805460018160011615610100020316600290048015611ae25780601f10611ab757610100808354040283529160200191611ae2565b820191906000526020600020905b815481529060010190602001808311611ac557829003601f168201915b505050505081565b6000809054906101000a900473ffffffffffffffffffffffffffffffffffffffff1681565b6060803373ffffffffffffffffffffffffffffffffffffffff166000809054906101000a900473ffffffffffffffffffffffffffffffffffffffff1673ffffffffffffffffffffffffffffffffffffffff16141515611b6d57600080fd5b600b600c818054600181600116156101000203166002900480601f016020809104026020016040519081016040528092919081815260200182805460018160011615610100020316600290048015611c065780601f10611bdb57610100808354040283529160200191611c06565b820191906000526020600020905b815481529060010190602001808311611be957829003601f168201915b50505050509150808054600181600116156101000203166002900480601f016020809104026020016040519081016040528092919081815260200182805460018160011615610100020316600290048015611ca25780601f10611c7757610100808354040283529160200191611ca2565b820191906000526020600020905b815481529060010190602001808311611c8557829003601f168201915b50505050509050915091509091565b3373ffffffffffffffffffffffffffffffffffffffff166000809054906101000a900473ffffffffffffffffffffffffffffffffffffffff1673ffffffffffffffffffffffffffffffffffffffff16141515611d0c57600080fd5b806000806101000a81548173ffffffffffffffffffffffffffffffffffffffff021916908373ffffffffffffffffffffffffffffffffffffffff1602179055507fb657493ed7a3f8cc1a47fef0396b4999d226d66c0c45ef4e7df62e72f7b7b79581604051808273ffffffffffffffffffffffffffffffffffffffff1673ffffffffffffffffffffffffffffffffffffffff16815260200191505060405180910390a150565b815481835581811115611dd957818360005260206000209182019101611dd89190611dde565b5b505050565b611e0091905b80821115611dfc576000816000905550600101611de4565b5090565b905600a165627a7a72305820755b680d80f8ff042c84fc1928d8fa87024673bd6f8d408b74100d76f410bcd40029608060405234801561001057600080fd5b50613ad3806100206000396000f300608060405260043610620000af576000357c0100000000000000000000000000000000000000000000000000000000900463ffffffff168063013cf08b14620000b45780630233820e146200025e5780631137729d14620002ee5780634289cefe1462000374578063493da75314620003c4578063806c0860146200041e578063c366c56c146200052a578063c505e83614620005a0578063c7f758a81462000620578063d328e84d14620007ca575b600080fd5b348015620000c157600080fd5b50620000e260048036038101908080359060200190929190505050620007f8565b604051808881526020018060200180602001806020018715151515815260200186815260200185815260200184810384528a818151815260200191508051906020019080838360005b83811015620001485780820151818401526020810190506200012b565b50505050905090810190601f168015620001765780820380516001836020036101000a031916815260200191505b50848103835289818151815260200191508051906020019080838360005b83811015620001b157808201518184015260208101905062000194565b50505050905090810190601f168015620001df5780820380516001836020036101000a031916815260200191505b50848103825288818151815260200191508051906020019080838360005b838110156200021a578082015181840152602081019050620001fd565b50505050905090810190601f168015620002485780820380516001836020036101000a031916815260200191505b509a505050505050505050505060405180910390f35b3480156200026b57600080fd5b50620002ac600480360381019080803573ffffffffffffffffffffffffffffffffffffffff1690602001909291908035906020019092919050505062000a2b565b604051808273ffffffffffffffffffffffffffffffffffffffff1673ffffffffffffffffffffffffffffffffffffffff16815260200191505060405180910390f35b348015620002fb57600080fd5b5062000332600480360381019080803573ffffffffffffffffffffffffffffffffffffffff16906020019092919050505062000ad0565b604051808273ffffffffffffffffffffffffffffffffffffffff1673ffffffffffffffffffffffffffffffffffffffff16815260200191505060405180910390f35b3480156200038157600080fd5b50620003c2600480360381019080803573ffffffffffffffffffffffffffffffffffffffff1690602001909291908035906020019092919050505062000b37565b005b348015620003d157600080fd5b5062000408600480360381019080803573ffffffffffffffffffffffffffffffffffffffff16906020019092919050505062000b7f565b6040518082815260200191505060405180910390f35b3480156200042b57600080fd5b5062000514600480360381019080803590602001908201803590602001908080601f0160208091040260200160405190810160405280939291908181526020018383808284378201915050505050509192919290803590602001908201803590602001908080601f0160208091040260200160405190810160405280939291908181526020018383808284378201915050505050509192919290803590602001908201803590602001908080601f016020809104026020016040519081016040528093929190818152602001838380828437820191505050505050919291929050505062000b97565b6040518082815260200191505060405180910390f35b3480156200053757600080fd5b506200059e60048036038101908080359060200190929190803590602001908201803590602001908080601f016020809104026020016040519081016040528093929190818152602001838380828437820191505050505050919291929050505062000c65565b005b348015620005ad57600080fd5b506200060a600480360381019080803590602001908201803590602001908080601f016020809104026020016040519081016040528093929190818152602001838380828437820191505050505050919291929050505062000e06565b6040518082815260200191505060405180910390f35b3480156200062d57600080fd5b506200064e6004803603810190808035906020019092919050505062000f3b565b604051808881526020018060200180602001806020018715151515815260200186815260200185815260200184810384528a818151815260200191508051906020019080838360005b83811015620006b457808201518184015260208101905062000697565b50505050905090810190601f168015620006e25780820380516001836020036101000a031916815260200191505b50848103835289818151815260200191508051906020019080838360005b838110156200071d57808201518184015260208101905062000700565b50505050905090810190601f1680156200074b5780820380516001836020036101000a031916815260200191505b50848103825288818151815260200191508051906020019080838360005b838110156200078657808201518184015260208101905062000769565b50505050905090810190601f168015620007b45780820380516001836020036101000a031916815260200191505b509a505050505050505050505060405180910390f35b348015620007d757600080fd5b50620007e26200118f565b6040518082815260200191505060405180910390f35b6000818154811015156200080857fe5b9060005260206000209060090201600091509050806000015490806001018054600181600116156101000203166002900480601f016020809104026020016040519081016040528092919081815260200182805460018160011615610100020316600290048015620008be5780601f106200089257610100808354040283529160200191620008be565b820191906000526020600020905b815481529060010190602001808311620008a057829003601f168201915b505050505090806002018054600181600116156101000203166002900480601f016020809104026020016040519081016040528092919081815260200182805460018160011615610100020316600290048015620009605780601f10620009345761010080835404028352916020019162000960565b820191906000526020600020905b8154815290600101906020018083116200094257829003601f168201915b505050505090806003018054600181600116156101000203166002900480601f01602080910402602001604051908101604052809291908181526020018280546001816001161561010002031660029004801562000a025780601f10620009d65761010080835404028352916020019162000a02565b820191906000526020600020905b815481529060010190602001808311620009e457829003601f168201915b5050505050908060040160009054906101000a900460ff16908060050154908060060154905087565b600082823062000a3a6200119b565b808473ffffffffffffffffffffffffffffffffffffffff1673ffffffffffffffffffffffffffffffffffffffff1681526020018381526020018273ffffffffffffffffffffffffffffffffffffffff1673ffffffffffffffffffffffffffffffffffffffff1681526020019350505050604051809103906000f08015801562000ac7573d6000803e3d6000fd5b50905092915050565b60008162000add620011ac565b808273ffffffffffffffffffffffffffffffffffffffff1673ffffffffffffffffffffffffffffffffffffffff168152602001915050604051809103906000f08015801562000b30573d6000803e3d6000fd5b5050919050565b80600160008473ffffffffffffffffffffffffffffffffffffffff1673ffffffffffffffffffffffffffffffffffffffff168152602001908152602001600020819055505050565b60016020528060005260406000206000915090505481565b6000806000805480919060010162000bb09190620011bd565b915060008281548110151562000bc257fe5b906000526020600020906009020190508181600001819055508481600101908051906020019062000bf5929190620011f2565b508381600201908051906020019062000c10929190620011f2565b508281600301908051906020019062000c2b929190620011f2565b5060008160040160006101000a81548160ff0219169083151502179055506000816005018190555060008160060181905550509392505050565b60008060008481548110151562000c7857fe5b9060005260206000209060090201915081600701805480919060010162000ca0919062001279565b90506060604051908101604052803373ffffffffffffffffffffffffffffffffffffffff168152602001848152602001600160003373ffffffffffffffffffffffffffffffffffffffff1673ffffffffffffffffffffffffffffffffffffffff16815260200190815260200160002054815250826007018281548110151562000d2557fe5b906000526020600020906003020160008201518160000160006101000a81548173ffffffffffffffffffffffffffffffffffffffff021916908373ffffffffffffffffffffffffffffffffffffffff160217905550602082015181600101908051906020019062000d98929190620012ae565b506040820151816002015590505060018260080160003373ffffffffffffffffffffffffffffffffffffffff1673ffffffffffffffffffffffffffffffffffffffff16815260200190815260200160002060006101000a81548160ff02191690831515021790555050505050565b600080600090505b60008054905081101562000f345760008181548110151562000e2c57fe5b9060005260206000209060090201600101604051808280546001816001161561010002031660029004801562000e9c5780601f1062000e7957610100808354040283529182019162000e9c565b820191906000526020600020905b81548152906001019060200180831162000e87575b5050915050604051809103902060001916836040518082805190602001908083835b60208310151562000ee5578051825260208201915060208101905060208303925062000ebe565b6001836020036101000a038019825116818451168082178552505050505050905001915050604051809103902060001916141562000f265780915062000f35565b808060010191505062000e0e565b5b50919050565b6000606080606060008060008060008981548110151562000f5857fe5b9060005260206000209060090201905080600001548160010182600201836003018460040160009054906101000a900460ff1685600501548660060154858054600181600116156101000203166002900480601f0160208091040260200160405190810160405280929190818152602001828054600181600116156101000203166002900480156200102e5780601f1062001002576101008083540402835291602001916200102e565b820191906000526020600020905b8154815290600101906020018083116200101057829003601f168201915b50505050509550848054600181600116156101000203166002900480601f016020809104026020016040519081016040528092919081815260200182805460018160011615610100020316600290048015620010ce5780601f10620010a257610100808354040283529160200191620010ce565b820191906000526020600020905b815481529060010190602001808311620010b057829003601f168201915b50505050509450838054600181600116156101000203166002900480601f0160208091040260200160405190810160405280929190818152602001828054600181600116156101000203166002900480156200116e5780601f1062001142576101008083540402835291602001916200116e565b820191906000526020600020905b8154815290600101906020018083116200115057829003601f168201915b50505050509350975097509750975097509750975050919395979092949650565b60008080549050905090565b604051611bd280620014c983390190565b604051610a0d806200309b83390190565b815481835581811115620011ed57600902816009028360005260206000209182019101620011ec919062001335565b5b505050565b828054600181600116156101000203166002900490600052602060002090601f016020900481019282601f106200123557805160ff191683800117855562001266565b8280016001018555821562001266579182015b828111156200126557825182559160200191906001019062001248565b5b509050620012759190620013cb565b5090565b815481835581811115620012a957600302816003028360005260206000209182019101620012a89190620013f3565b5b505050565b828054600181600116156101000203166002900490600052602060002090601f016020900481019282601f10620012f157805160ff191683800117855562001322565b8280016001018555821562001322579182015b828111156200132157825182559160200191906001019062001304565b5b509050620013319190620013cb565b5090565b620013c891905b80821115620013c45760008082016000905560018201600062001360919062001456565b60028201600062001372919062001456565b60038201600062001384919062001456565b6004820160006101000a81549060ff021916905560058201600090556006820160009055600782016000620013ba9190620014a2565b506009016200133c565b5090565b90565b620013f091905b80821115620013ec576000816000905550600101620013d2565b5090565b90565b6200145391905b808211156200144f57600080820160006101000a81549073ffffffffffffffffffffffffffffffffffffffff02191690556001820160006200143d919062001456565b600282016000905550600301620013fa565b5090565b90565b50805460018160011615610100020316600290046000825580601f106200147e57506200149f565b601f0160209004906000526020600020908101906200149e9190620013cb565b5b50565b5080546000825560030290600052602060002090810190620014c59190620013f3565b505600608060405234801561001057600080fd5b50604051606080611bd2833981018060405281019080805190602001909291908051906020019092919080519060200190929190505050826000816000806101000a81548173ffffffffffffffffffffffffffffffffffffffff021916908373ffffffffffffffffffffffffffffffffffffffff16021790555080600060146101000a81548160ff0219169083151502179055505050600160009054906101000a900473ffffffffffffffffffffffffffffffffffffffff1673ffffffffffffffffffffffffffffffffffffffff16634289cefe84846040518363ffffffff167c0100000000000000000000000000000000000000000000000000000000028152600401808373ffffffffffffffffffffffffffffffffffffffff1673ffffffffffffffffffffffffffffffffffffffff16815260200182815260200192505050600060405180830381600087803b15801561016b57600080fd5b505af115801561017f573d6000803e3d6000fd5b505050506000600260006101000a81548173ffffffffffffffffffffffffffffffffffffffff021916908373ffffffffffffffffffffffffffffffffffffffff16021790555080600160006101000a81548173ffffffffffffffffffffffffffffffffffffffff021916908373ffffffffffffffffffffffffffffffffffffffff1602179055505050506119ba806102186000396000f3006080604052600436106100c5576000357c0100000000000000000000000000000000000000000000000000000000900463ffffffff1680631ad8af8d146100ca57806324108475146100f957806331b1b9781461016c5780633ecb486a146102615780636ccb5d021461028c578063ab377daa14610337578063b3580c1e146103a4578063c89e436114610421578063c8caf9e514610478578063d85c91ae146104a3578063db88176f146104fa578063e4128fb3146105ef578063f1c7cfb314610646575b600080fd5b3480156100d657600080fd5b506100df610680565b604051808215151515815260200191505060405180910390f35b34801561010557600080fd5b5061016a60048036038101908080359060200190929190803590602001908201803590602001908080601f0160208091040260200160405190810160405280939291908181526020018383808284378201915050505050509192919290505050610693565b005b34801561017857600080fd5b50610197600480360381019080803590602001909291905050506108a6565b604051808773ffffffffffffffffffffffffffffffffffffffff1673ffffffffffffffffffffffffffffffffffffffff16815260200186815260200180602001858152602001848152602001838152602001828103825286818151815260200191508051906020019080838360005b83811015610221578082015181840152602081019050610206565b50505050905090810190601f16801561024e5780820380516001836020036101000a031916815260200191505b5097505050505050505060405180910390f35b34801561026d57600080fd5b506102766109a9565b6040518082815260200191505060405180910390f35b34801561029857600080fd5b506102b7600480360381019080803590602001909291905050506109b6565b604051808473ffffffffffffffffffffffffffffffffffffffff1673ffffffffffffffffffffffffffffffffffffffff168152602001831515151581526020018273ffffffffffffffffffffffffffffffffffffffff1673ffffffffffffffffffffffffffffffffffffffff168152602001935050505060405180910390f35b34801561034357600080fd5b5061036260048036038101908080359060200190929190505050610be3565b604051808273ffffffffffffffffffffffffffffffffffffffff1673ffffffffffffffffffffffffffffffffffffffff16815260200191505060405180910390f35b3480156103b057600080fd5b5061040b600480360381019080803590602001908201803590602001908080601f0160208091040260200160405190810160405280939291908181526020018383808284378201915050505050509192919290505050610c21565b6040518082815260200191505060405180910390f35b34801561042d57600080fd5b50610436610d4c565b604051808273ffffffffffffffffffffffffffffffffffffffff1673ffffffffffffffffffffffffffffffffffffffff16815260200191505060405180910390f35b34801561048457600080fd5b5061048d610d72565b6040518082815260200191505060405180910390f35b3480156104af57600080fd5b506104e4600480360381019080803573ffffffffffffffffffffffffffffffffffffffff169060200190929190505050610d7f565b6040518082815260200191505060405180910390f35b34801561050657600080fd5b50610525600480360381019080803590602001909291905050506114e3565b604051808773ffffffffffffffffffffffffffffffffffffffff1673ffffffffffffffffffffffffffffffffffffffff16815260200186815260200180602001858152602001848152602001838152602001828103825286818151815260200191508051906020019080838360005b838110156105af578082015181840152602081019050610594565b50505050905090810190601f1680156105dc5780820380516001836020036101000a031916815260200191505b5097505050505050505060405180910390f35b3480156105fb57600080fd5b506106046115fc565b604051808273ffffffffffffffffffffffffffffffffffffffff1673ffffffffffffffffffffffffffffffffffffffff16815260200191505060405180910390f35b34801561065257600080fd5b5061067e60048036038101908080359060200190929190803560ff169060200190929190505050611621565b005b600060149054906101000a900460ff1681565b600160009054906101000a900473ffffffffffffffffffffffffffffffffffffffff1673ffffffffffffffffffffffffffffffffffffffff1663c366c56c83836040518363ffffffff167c01000000000000000000000000000000000000000000000000000000000281526004018083815260200180602001828103825283818151815260200191508051906020019080838360005b83811015610744578082015181840152602081019050610729565b50505050905090810190601f1680156107715780820380516001836020036101000a031916815260200191505b509350505050600060405180830381600087803b15801561079157600080fd5b505af11580156107a5573d6000803e3d6000fd5b505050507f497ac9c2d8b6e7ea7204365157d9642f36d2b6125352bfa6d0a73328142d0bd96000809054906101000a900473ffffffffffffffffffffffffffffffffffffffff168383604051808473ffffffffffffffffffffffffffffffffffffffff1673ffffffffffffffffffffffffffffffffffffffff16815260200183815260200180602001828103825283818151815260200191508051906020019080838360005b8381101561086657808201518184015260208101905061084b565b50505050905090810190601f1680156108935780820380516001836020036101000a031916815260200191505b5094505050505060405180910390a15050565b6003818154811015156108b557fe5b90600052602060002090600602016000915090508060000160009054906101000a900473ffffffffffffffffffffffffffffffffffffffff1690806001015490806002018054600181600116156101000203166002900480601f01602080910402602001604051908101604052809291908181526020018280546001816001161561010002031660029004801561098d5780601f106109625761010080835404028352916020019161098d565b820191906000526020600020905b81548152906001019060200180831161097057829003601f168201915b5050505050908060030154908060040154908060050154905086565b6000600380549050905090565b6000806000806004858154811015156109cb57fe5b9060005260206000200160009054906101000a900473ffffffffffffffffffffffffffffffffffffffff1690508073ffffffffffffffffffffffffffffffffffffffff1663e4128fb36040518163ffffffff167c0100000000000000000000000000000000000000000000000000000000028152600401602060405180830381600087803b158015610a5c57600080fd5b505af1158015610a70573d6000803e3d6000fd5b505050506040513d6020811015610a8657600080fd5b81019080805190602001909291905050508173ffffffffffffffffffffffffffffffffffffffff16631ad8af8d6040518163ffffffff167c0100000000000000000000000000000000000000000000000000000000028152600401602060405180830381600087803b158015610afb57600080fd5b505af1158015610b0f573d6000803e3d6000fd5b505050506040513d6020811015610b2557600080fd5b81019080805190602001909291905050508273ffffffffffffffffffffffffffffffffffffffff1663c89e43616040518163ffffffff167c0100000000000000000000000000000000000000000000000000000000028152600401602060405180830381600087803b158015610b9a57600080fd5b505af1158015610bae573d6000803e3d6000fd5b505050506040513d6020811015610bc457600080fd5b8101908080519060200190929190505050935093509350509193909250565b600481815481101515610bf257fe5b906000526020600020016000915054906101000a900473ffffffffffffffffffffffffffffffffffffffff1681565b60008060038054809190600101610c3891906117f9565b9150600382815481101515610c4957fe5b90600052602060002090600602019050818160010181905550338160000160006101000a81548173ffffffffffffffffffffffffffffffffffffffff021916908373ffffffffffffffffffffffffffffffffffffffff16021790555082816002019080519060200190610cbd92919061182b565b5042816003018190555060008160040181905550600081600501819055507fe507074282a0f805a6f370a3dfca4b5578056337d6fe37524243a02ca7a3cae18233604051808381526020018273ffffffffffffffffffffffffffffffffffffffff1673ffffffffffffffffffffffffffffffffffffffff1681526020019250505060405180910390a150919050565b600260009054906101000a900473ffffffffffffffffffffffffffffffffffffffff1681565b6000600480549050905090565b60008060009150600090505b600480549050811015611472578273ffffffffffffffffffffffffffffffffffffffff16600482815481101515610dbe57fe5b9060005260206000200160009054906101000a900473ffffffffffffffffffffffffffffffffffffffff1673ffffffffffffffffffffffffffffffffffffffff1663c89e43616040518163ffffffff167c0100000000000000000000000000000000000000000000000000000000028152600401602060405180830381600087803b158015610e4c57600080fd5b505af1158015610e60573d6000803e3d6000fd5b505050506040513d6020811015610e7657600080fd5b810190808051906020019092919050505073ffffffffffffffffffffffffffffffffffffffff16141561107757600160009054906101000a900473ffffffffffffffffffffffffffffffffffffffff1673ffffffffffffffffffffffffffffffffffffffff1663493da753600483815481101515610ef057fe5b9060005260206000200160009054906101000a900473ffffffffffffffffffffffffffffffffffffffff1673ffffffffffffffffffffffffffffffffffffffff1663e4128fb36040518163ffffffff167c0100000000000000000000000000000000000000000000000000000000028152600401602060405180830381600087803b158015610f7e57600080fd5b505af1158015610f92573d6000803e3d6000fd5b505050506040513d6020811015610fa857600080fd5b81019080805190602001909291905050506040518263ffffffff167c0100000000000000000000000000000000000000000000000000000000028152600401808273ffffffffffffffffffffffffffffffffffffffff1673ffffffffffffffffffffffffffffffffffffffff168152602001915050602060405180830381600087803b15801561103757600080fd5b505af115801561104b573d6000803e3d6000fd5b505050506040513d602081101561106157600080fd5b8101908080519060200190929190505050820191505b8273ffffffffffffffffffffffffffffffffffffffff1660048281548110151561109d57fe5b9060005260206000200160009054906101000a900473ffffffffffffffffffffffffffffffffffffffff1673ffffffffffffffffffffffffffffffffffffffff1663e4128fb36040518163ffffffff167c0100000000000000000000000000000000000000000000000000000000028152600401602060405180830381600087803b15801561112b57600080fd5b505af115801561113f573d6000803e3d6000fd5b505050506040513d602081101561115557600080fd5b810190808051906020019092919050505073ffffffffffffffffffffffffffffffffffffffff1614801561128c5750600073ffffffffffffffffffffffffffffffffffffffff166004828154811015156111ab57fe5b9060005260206000200160009054906101000a900473ffffffffffffffffffffffffffffffffffffffff1673ffffffffffffffffffffffffffffffffffffffff1663c89e43616040518163ffffffff167c0100000000000000000000000000000000000000000000000000000000028152600401602060405180830381600087803b15801561123957600080fd5b505af115801561124d573d6000803e3d6000fd5b505050506040513d602081101561126357600080fd5b810190808051906020019092919050505073ffffffffffffffffffffffffffffffffffffffff16145b1561146557600160009054906101000a900473ffffffffffffffffffffffffffffffffffffffff1673ffffffffffffffffffffffffffffffffffffffff1663493da7536004838154811015156112de57fe5b9060005260206000200160009054906101000a900473ffffffffffffffffffffffffffffffffffffffff1673ffffffffffffffffffffffffffffffffffffffff1663e4128fb36040518163ffffffff167c0100000000000000000000000000000000000000000000000000000000028152600401602060405180830381600087803b15801561136c57600080fd5b505af1158015611380573d6000803e3d6000fd5b505050506040513d602081101561139657600080fd5b81019080805190602001909291905050506040518263ffffffff167c0100000000000000000000000000000000000000000000000000000000028152600401808273ffffffffffffffffffffffffffffffffffffffff1673ffffffffffffffffffffffffffffffffffffffff168152602001915050602060405180830381600087803b15801561142557600080fd5b505af1158015611439573d6000803e3d6000fd5b505050506040513d602081101561144f57600080fd5b8101908080519060200190929190505050820191505b8080600101915050610d8b565b7ffdbe8f945bf97c075bba2c511a72a7d17c00fdc75ce28126f7da85da4f4648948383604051808373ffffffffffffffffffffffffffffffffffffffff1673ffffffffffffffffffffffffffffffffffffffff1681526020018281526020019250505060405180910390a150919050565b60008060606000806000806003888154811015156114fd57fe5b906000526020600020906006020190508060000160009054906101000a900473ffffffffffffffffffffffffffffffffffffffff16816001015482600201836003015484600401548560050154838054600181600116156101000203166002900480601f0160208091040260200160405190810160405280929190818152602001828054600181600116156101000203166002900480156115df5780601f106115b4576101008083540402835291602001916115df565b820191906000526020600020905b8154815290600101906020018083116115c257829003601f168201915b505050505093509650965096509650965096505091939550919395565b6000809054906101000a900473ffffffffffffffffffffffffffffffffffffffff1681565b600060038381548110151561163257fe5b9060005260206000209060060201905060018081111561164e57fe5b82600181111561165a57fe5b14156116e85780600401600081548092919060010191905055507f54a8ca358ef57f5199692f9accebf1cea9c3b6a6351db8b1976a3283f3c7caa5338260040154604051808373ffffffffffffffffffffffffffffffffffffffff1673ffffffffffffffffffffffffffffffffffffffff1681526020018281526020019250505060405180910390a16117f4565b600060018111156116f557fe5b82600181111561170157fe5b141561178f5780600501600081548092919060010191905055507fb0f1a350a68ca81aea495057b739a0ab46613ea46337a4ecf18a0e5891b22423338260050154604051808373ffffffffffffffffffffffffffffffffffffffff1673ffffffffffffffffffffffffffffffffffffffff1681526020018281526020019250505060405180910390a16117f3565b7f7c153d1a9d147fafdf065d15a62aca5b9ae7c237b3f61826022605c14aa265fb33604051808273ffffffffffffffffffffffffffffffffffffffff1673ffffffffffffffffffffffffffffffffffffffff16815260200191505060405180910390a15b5b505050565b8154818355818111156118265760060281600602836000526020600020918201910161182591906118ab565b5b505050565b828054600181600116156101000203166002900490600052602060002090601f016020900481019282601f1061186c57805160ff191683800117855561189a565b8280016001018555821561189a579182015b8281111561189957825182559160200191906001019061187e565b5b5090506118a79190611921565b5090565b61191e91905b8082111561191a57600080820160006101000a81549073ffffffffffffffffffffffffffffffffffffffff021916905560018201600090556002820160006118f99190611946565b600382016000905560048201600090556005820160009055506006016118b1565b5090565b90565b61194391905b8082111561193f576000816000905550600101611927565b5090565b90565b50805460018160011615610100020316600290046000825580601f1061196c575061198b565b601f01602090049060005260206000209081019061198a9190611921565b5b505600a165627a7a72305820cb2cb6ecf014fefc98e089d583f5ca56d03b747f5bbae97cff996fa5ca89967a0029608060405234801561001057600080fd5b50604051602080610a0d83398101806040528101908080519060200190929190505050806001816000806101000a81548173ffffffffffffffffffffffffffffffffffffffff021916908373ffffffffffffffffffffffffffffffffffffffff16021790555080600060146101000a81548160ff02191690831515021790555050505061096b806100a26000396000f300608060405260043610610078576000357c0100000000000000000000000000000000000000000000000000000000900463ffffffff16806317599cc51461007d5780631ad8af8d1461016b5780633d3e528d1461019a5780634fec390c146101c5578063b5ab58dc1461024c578063e4128fb31461033a575b600080fd5b34801561008957600080fd5b506100a860048036038101908080359060200190929190505050610391565b604051808681526020018581526020018473ffffffffffffffffffffffffffffffffffffffff1673ffffffffffffffffffffffffffffffffffffffff16815260200180602001838152602001828103825284818151815260200191508051906020019080838360005b8381101561012c578082015181840152602081019050610111565b50505050905090810190601f1680156101595780820380516001836020036101000a031916815260200191505b50965050505050505060405180910390f35b34801561017757600080fd5b5061018061048e565b604051808215151515815260200191505060405180910390f35b3480156101a657600080fd5b506101af6104a1565b6040518082815260200191505060405180910390f35b3480156101d157600080fd5b5061023660048036038101908080359060200190929190803590602001908201803590602001908080601f01602080910402602001604051908101604052809392919081815260200183838082843782019150505050505091929192905050506104ae565b6040518082815260200191505060405180910390f35b34801561025857600080fd5b506102776004803603810190808035906020019092919050505061067c565b604051808681526020018581526020018473ffffffffffffffffffffffffffffffffffffffff1673ffffffffffffffffffffffffffffffffffffffff16815260200180602001838152602001828103825284818151815260200191508051906020019080838360005b838110156102fb5780820151818401526020810190506102e0565b50505050905090810190601f1680156103285780820380516001836020036101000a031916815260200191505b50965050505050505060405180910390f35b34801561034657600080fd5b5061034f61078d565b604051808273ffffffffffffffffffffffffffffffffffffffff1673ffffffffffffffffffffffffffffffffffffffff16815260200191505060405180910390f35b6001818154811015156103a057fe5b90600052602060002090600502016000915090508060000154908060010154908060020160009054906101000a900473ffffffffffffffffffffffffffffffffffffffff1690806003018054600181600116156101000203166002900480601f01602080910402602001604051908101604052809291908181526020018280546001816001161561010002031660029004801561047e5780601f106104535761010080835404028352916020019161047e565b820191906000526020600020905b81548152906001019060200180831161046157829003601f168201915b5050505050908060040154905085565b600060149054906101000a900460ff1681565b6000600180549050905090565b60008060003073ffffffffffffffffffffffffffffffffffffffff16631ad8af8d6040518163ffffffff167c0100000000000000000000000000000000000000000000000000000000028152600401602060405180830381600087803b15801561051757600080fd5b505af115801561052b573d6000803e3d6000fd5b505050506040513d602081101561054157600080fd5b8101908080519060200190929190505050151561055d57600080fd5b6001805480919060010161057191906107b2565b915060018281548110151561058257fe5b90600052602060002090600502019050818160000181905550848160010181905550338160020160006101000a81548173ffffffffffffffffffffffffffffffffffffffff021916908373ffffffffffffffffffffffffffffffffffffffff160217905550838160030190805190602001906105ff9291906107e4565b504281600401819055507f1cce31feeb8b658498dbd740f9f2893f5950824526d859d079df34984d412d898333604051808381526020018273ffffffffffffffffffffffffffffffffffffffff1673ffffffffffffffffffffffffffffffffffffffff1681526020019250505060405180910390a1505092915050565b6000806000606060008060018781548110151561069557fe5b90600052602060002090600502019050806000015481600101548260020160009054906101000a900473ffffffffffffffffffffffffffffffffffffffff16836003018460040154818054600181600116156101000203166002900480601f0160208091040260200160405190810160405280929190818152602001828054600181600116156101000203166002900480156107725780601f1061074757610100808354040283529160200191610772565b820191906000526020600020905b81548152906001019060200180831161075557829003601f168201915b50505050509150955095509550955095505091939590929450565b6000809054906101000a900473ffffffffffffffffffffffffffffffffffffffff1681565b8154818355818111156107df576005028160050283600052602060002091820191016107de9190610864565b5b505050565b828054600181600116156101000203166002900490600052602060002090601f016020900481019282601f1061082557805160ff1916838001178555610853565b82800160010185558215610853579182015b82811115610852578251825591602001919060010190610837565b5b50905061086091906108d2565b5090565b6108cf91905b808211156108cb5760008082016000905560018201600090556002820160006101000a81549073ffffffffffffffffffffffffffffffffffffffff02191690556003820160006108ba91906108f7565b60048201600090555060050161086a565b5090565b90565b6108f491905b808211156108f05760008160009055506001016108d8565b5090565b90565b50805460018160011615610100020316600290046000825580601f1061091d575061093c565b601f01602090049060005260206000209081019061093b91906108d2565b5b505600a165627a7a72305820a58bfe60dc91ef4b09672cbbce6a190585e4c2813308271ced3dd508d99b526b0029a165627a7a7230582046f5633fd2bcdfdaa6592eef6baafe3ab5f1b96234167987a1fb9897301ebb440029",
  "source": "pragma solidity ^0.4.23;\r\n\r\nimport \"./User.sol\";\r\nimport \"./Shareholder.sol\";\r\nimport \"./Director.sol\";\r\nimport \"./Factory.sol\";\r\n\r\ncontract AgmOwner is User {\r\n\r\n    Factory fac = new Factory();\r\n    // total number of users\r\n    uint public numberOfUsers;\r\n    // stores all users\r\n    User[] public users;\r\n    // stores user's address with corresponding id\r\n    mapping(address => uint) public userId;\r\n\r\n    // store options to every proposal\r\n    VotingOption[] public votingOptions;\r\n\r\n    bool public isFinished = false;\r\n\r\n    uint public minimumVotingQuorum;\r\n    uint public marginOfVotesForMajority;\r\n    string public meetingName;\r\n    string public meetingDescription;\r\n    string public meetingDate;\r\n    string public meetingPlace;\r\n    uint public meetingStartTime;\r\n    uint public meetingEndTime;\r\n\r\n    struct VotingOption {\r\n        string optionName;\r\n        uint optionCount;\r\n    }\r\n\r\n    modifier onlyOwner {\r\n        require(userAddress == msg.sender);\r\n        _;\r\n    }\r\n\r\n    event ProposalCreated(uint propId, address creator);\r\n    event Voted(address userAddress, uint proposalId, string votingOption);\r\n    event AgmFinished(bool isFinished);\r\n    event ProposalExecuted(uint proposalId, bool proposalPassed, uint passedPercentage, VotingOption[] options);\r\n    event OwnershipTransferedTo(address newOwner);\r\n    event UserCreated(uint userId, address userAddress, bool isDirector);\r\n    event UserRemoved(uint userId, address userAddress, bool isDirector);\r\n\r\n    constructor(\r\n        uint _minimumVotingQuorum,\r\n        uint _marginOfVotesForMajority,\r\n        string _meetingName,\r\n        string _meetingDescription,\r\n        string _meetingDate,\r\n        string _meetingPlace,\r\n        uint _meetingStartTime,\r\n        uint _meetingEndTime) \r\n            \r\n            User(msg.sender, true) public {\r\n        \r\n        minimumVotingQuorum = _minimumVotingQuorum;\r\n        marginOfVotesForMajority = _marginOfVotesForMajority;\r\n        meetingName = _meetingName;\r\n        meetingDescription = _meetingDescription;\r\n        meetingDate = _meetingDate;\r\n        meetingPlace = _meetingPlace;\r\n        meetingStartTime = _meetingStartTime;\r\n        meetingEndTime = _meetingEndTime;\r\n    }\r\n\r\n    // transfer contract ownership to another director\r\n    function transferOwnership(address _owner) onlyOwner public {\r\n        userAddress = _owner;\r\n\r\n        emit OwnershipTransferedTo(_owner);\r\n    }\r\n\r\n    function addUser(address _userAddress, bool isDirector, uint votingTok) public {\r\n        uint id = userId[_userAddress];\r\n        if (id == 0) {\r\n            id = users.length++;\r\n            userId[_userAddress] = id;\r\n        }\r\n\r\n        if (isDirector) {\r\n            Director d = fac.createNewDirector(_userAddress);\r\n            users[id] = d;\r\n            \r\n            emit UserCreated(id, _userAddress, true);\r\n        \r\n        } else {\r\n            Shareholder s = fac.createNewShareholder(_userAddress, votingTok);\r\n            users[id] = s;\r\n            \r\n            emit UserCreated(id, _userAddress, false);\r\n        }\r\n        numberOfUsers++;\r\n    }\r\n\r\n    function removeUser(address _userAddress) public {\r\n        //require(userId[_userAddress] != 0, \"User does not exist\");\r\n\r\n        uint i = userId[_userAddress];\r\n        User remUser = users[i];\r\n        delete users[i];\r\n\r\n        for (; i < users.length - 1; i++) {\r\n            users[i] = users[i+1];\r\n            userId[users[i].userAddress()] = i;\r\n        }\r\n        \r\n        users.length--;\r\n        numberOfUsers--;\r\n\r\n        emit UserRemoved(i, _userAddress, remUser.isDirector());\r\n    }\r\n\r\n    function getNumOfUsers() public view returns (uint length) {\r\n        return users.length;\r\n    }\r\n\r\n    function getUser(address _userAddress) public view returns (User u) {\r\n        return users[userId[_userAddress]];\r\n    }\r\n\r\n    function finishAGM() onlyOwner public {\r\n        require(!isFinished, \"AGM has already been finished\");\r\n        isFinished = true;\r\n\r\n        emit AgmFinished(isFinished);\r\n\r\n    }\r\n\r\n    function announceAGM() onlyOwner public view returns (string recordDate, string recordPlace) {\r\n        return (meetingDate, meetingPlace);\r\n    }\r\n\r\n    // only director is allowed to create a proposal\r\n    function createProposal(string _name, string _description, string _options) \r\n        onlyOwner public returns(uint propId) {\r\n\r\n        propId = fac.createNewProposal(_name, _description, _options);\r\n        emit ProposalCreated(propId, msg.sender);\r\n\r\n        return propId;\r\n    }\r\n\r\n    // executes the pending proposal\r\n    /*function executeProposal(uint proposalId) public {\r\n        \r\n        Proposal storage prop = proposals[proposalId];\r\n        var optionString = proposals[proposalId].options.toSlice();\r\n        var delim = \";\".toSlice();\r\n        var options = new string[](optionString.count(delim) + 1);\r\n        for (uint l = 0; l < options.length; l++) {\r\n            options[l] = optionString.split(delim).toString();\r\n        }\r\n\r\n        require(now > meetingEndTime, \"meeting has not finished yet\");\r\n\r\n        \r\n        // iterate over all options to store default options in the map\r\n        for (uint k = 0; k < options.length; k++) {\r\n            uint id = votingOptions.length++;\r\n            votingOptions[id] = VotingOption({optionName: options[k], optionCount: 0});\r\n\r\n            // iterate over all votes to check which voter voted for option k\r\n            for (uint i = 0; i < prop.votes.length; i++) {\r\n                \r\n                Vote storage v = prop.votes[i];\r\n                if (keccak256(v.voterDecision) == keccak256(options[k])) {\r\n                    votingOptions[k].optionCount++; \r\n                } \r\n            }\r\n        }\r\n        uint winningOptionCount = 0;\r\n        uint countSum = 0;\r\n        \r\n        for (uint j = 0; j < votingOptions.length; j++) {\r\n            countSum += votingOptions[j].optionCount;\r\n            if (winningOptionCount < votingOptions[j].optionCount) {\r\n                winningOptionCount = votingOptions[j].optionCount;\r\n            }\r\n        }\r\n\r\n        if (winningOptionCount > minimumVotingQuorum \r\n            && (winningOptionCount * 100 / countSum) > marginOfVotesForMajority) {\r\n            prop.proposalPassed = true;\r\n        } else {\r\n            prop.proposalPassed = false;\r\n        }\r\n\r\n        prop.passedPercent = winningOptionCount * 100 / countSum;\r\n\r\n        delete votingOptions;\r\n\r\n        emit ProposalExecuted(proposalId, prop.proposalPassed, prop.passedPercent, votingOptions);\r\n    }*/\r\n}",
  "sourcePath": "D:\\Git\\repo\\ShareholderMeeting\\solidity\\contracts\\AgmOwner.sol",
  "compiler": {
    "name": "solc",
    "version": "0.4.24+commit.e67f0147.Emscripten.clang"
  },
  "schemaVersion": "2.0.1",
  "updatedAt": "2018-07-31T10:26:21.223Z"
}