{
  "contractName": "Director",
  "abi": [
    {
      "constant": true,
      "inputs": [
        {
          "name": "",
          "type": "uint256"
        }
      ],
      "name": "answers",
      "outputs": [
        {
          "name": "answerId",
          "type": "uint256"
        },
        {
          "name": "questionId",
          "type": "uint256"
        },
        {
          "name": "answerCreator",
          "type": "address"
        },
        {
          "name": "content",
          "type": "string"
        },
        {
          "name": "timestamp",
          "type": "uint256"
        }
      ],
      "payable": false,
      "stateMutability": "view",
      "type": "function"
    },
    {
      "constant": true,
      "inputs": [],
      "name": "isDirector",
      "outputs": [
        {
          "name": "",
          "type": "bool"
        }
      ],
      "payable": false,
      "stateMutability": "view",
      "type": "function"
    },
    {
      "constant": true,
      "inputs": [],
      "name": "userAddress",
      "outputs": [
        {
          "name": "",
          "type": "address"
        }
      ],
      "payable": false,
      "stateMutability": "view",
      "type": "function"
    },
    {
      "inputs": [
        {
          "name": "userAddress",
          "type": "address"
        }
      ],
      "payable": false,
      "stateMutability": "nonpayable",
      "type": "constructor"
    },
    {
      "anonymous": false,
      "inputs": [
        {
          "indexed": false,
          "name": "ansId",
          "type": "uint256"
        },
        {
          "indexed": false,
          "name": "creator",
          "type": "address"
        }
      ],
      "name": "AnswerCreated",
      "type": "event"
    },
    {
      "anonymous": false,
      "inputs": [
        {
          "indexed": false,
          "name": "exists",
          "type": "bool"
        }
      ],
      "name": "UserExists",
      "type": "event"
    },
    {
      "constant": false,
      "inputs": [
        {
          "name": "_questionId",
          "type": "uint256"
        },
        {
          "name": "_content",
          "type": "string"
        }
      ],
      "name": "createAnswer",
      "outputs": [
        {
          "name": "answerId",
          "type": "uint256"
        }
      ],
      "payable": false,
      "stateMutability": "nonpayable",
      "type": "function"
    },
    {
      "constant": true,
      "inputs": [],
      "name": "getNumOfAnswers",
      "outputs": [
        {
          "name": "length",
          "type": "uint256"
        }
      ],
      "payable": false,
      "stateMutability": "view",
      "type": "function"
    },
    {
      "constant": true,
      "inputs": [
        {
          "name": "answerId",
          "type": "uint256"
        }
      ],
      "name": "getAnswer",
      "outputs": [
        {
          "name": "_answerId",
          "type": "uint256"
        },
        {
          "name": "_questionId",
          "type": "uint256"
        },
        {
          "name": "_answerCreator",
          "type": "address"
        },
        {
          "name": "_content",
          "type": "string"
        },
        {
          "name": "_timestamp",
          "type": "uint256"
        }
      ],
      "payable": false,
      "stateMutability": "view",
      "type": "function"
    }
  ],
  "bytecode": "0x608060405234801561001057600080fd5b50604051602080610a0d83398101806040528101908080519060200190929190505050806001816000806101000a81548173ffffffffffffffffffffffffffffffffffffffff021916908373ffffffffffffffffffffffffffffffffffffffff16021790555080600060146101000a81548160ff02191690831515021790555050505061096b806100a26000396000f300608060405260043610610078576000357c0100000000000000000000000000000000000000000000000000000000900463ffffffff16806317599cc51461007d5780631ad8af8d1461016b5780633d3e528d1461019a5780634fec390c146101c5578063b5ab58dc1461024c578063e4128fb31461033a575b600080fd5b34801561008957600080fd5b506100a860048036038101908080359060200190929190505050610391565b604051808681526020018581526020018473ffffffffffffffffffffffffffffffffffffffff1673ffffffffffffffffffffffffffffffffffffffff16815260200180602001838152602001828103825284818151815260200191508051906020019080838360005b8381101561012c578082015181840152602081019050610111565b50505050905090810190601f1680156101595780820380516001836020036101000a031916815260200191505b50965050505050505060405180910390f35b34801561017757600080fd5b5061018061048e565b604051808215151515815260200191505060405180910390f35b3480156101a657600080fd5b506101af6104a1565b6040518082815260200191505060405180910390f35b3480156101d157600080fd5b5061023660048036038101908080359060200190929190803590602001908201803590602001908080601f01602080910402602001604051908101604052809392919081815260200183838082843782019150505050505091929192905050506104ae565b6040518082815260200191505060405180910390f35b34801561025857600080fd5b506102776004803603810190808035906020019092919050505061067c565b604051808681526020018581526020018473ffffffffffffffffffffffffffffffffffffffff1673ffffffffffffffffffffffffffffffffffffffff16815260200180602001838152602001828103825284818151815260200191508051906020019080838360005b838110156102fb5780820151818401526020810190506102e0565b50505050905090810190601f1680156103285780820380516001836020036101000a031916815260200191505b50965050505050505060405180910390f35b34801561034657600080fd5b5061034f61078d565b604051808273ffffffffffffffffffffffffffffffffffffffff1673ffffffffffffffffffffffffffffffffffffffff16815260200191505060405180910390f35b6001818154811015156103a057fe5b90600052602060002090600502016000915090508060000154908060010154908060020160009054906101000a900473ffffffffffffffffffffffffffffffffffffffff1690806003018054600181600116156101000203166002900480601f01602080910402602001604051908101604052809291908181526020018280546001816001161561010002031660029004801561047e5780601f106104535761010080835404028352916020019161047e565b820191906000526020600020905b81548152906001019060200180831161046157829003601f168201915b5050505050908060040154905085565b600060149054906101000a900460ff1681565b6000600180549050905090565b60008060003073ffffffffffffffffffffffffffffffffffffffff16631ad8af8d6040518163ffffffff167c0100000000000000000000000000000000000000000000000000000000028152600401602060405180830381600087803b15801561051757600080fd5b505af115801561052b573d6000803e3d6000fd5b505050506040513d602081101561054157600080fd5b8101908080519060200190929190505050151561055d57600080fd5b6001805480919060010161057191906107b2565b915060018281548110151561058257fe5b90600052602060002090600502019050818160000181905550848160010181905550338160020160006101000a81548173ffffffffffffffffffffffffffffffffffffffff021916908373ffffffffffffffffffffffffffffffffffffffff160217905550838160030190805190602001906105ff9291906107e4565b504281600401819055507f1cce31feeb8b658498dbd740f9f2893f5950824526d859d079df34984d412d898333604051808381526020018273ffffffffffffffffffffffffffffffffffffffff1673ffffffffffffffffffffffffffffffffffffffff1681526020019250505060405180910390a1505092915050565b6000806000606060008060018781548110151561069557fe5b90600052602060002090600502019050806000015481600101548260020160009054906101000a900473ffffffffffffffffffffffffffffffffffffffff16836003018460040154818054600181600116156101000203166002900480601f0160208091040260200160405190810160405280929190818152602001828054600181600116156101000203166002900480156107725780601f1061074757610100808354040283529160200191610772565b820191906000526020600020905b81548152906001019060200180831161075557829003601f168201915b50505050509150955095509550955095505091939590929450565b6000809054906101000a900473ffffffffffffffffffffffffffffffffffffffff1681565b8154818355818111156107df576005028160050283600052602060002091820191016107de9190610864565b5b505050565b828054600181600116156101000203166002900490600052602060002090601f016020900481019282601f1061082557805160ff1916838001178555610853565b82800160010185558215610853579182015b82811115610852578251825591602001919060010190610837565b5b50905061086091906108d2565b5090565b6108cf91905b808211156108cb5760008082016000905560018201600090556002820160006101000a81549073ffffffffffffffffffffffffffffffffffffffff02191690556003820160006108ba91906108f7565b60048201600090555060050161086a565b5090565b90565b6108f491905b808211156108f05760008160009055506001016108d8565b5090565b90565b50805460018160011615610100020316600290046000825580601f1061091d575061093c565b601f01602090049060005260206000209081019061093b91906108d2565b5b505600a165627a7a72305820a58bfe60dc91ef4b09672cbbce6a190585e4c2813308271ced3dd508d99b526b0029",
  "source": "pragma solidity ^0.4.23;\r\n\r\nimport \"./VotingStatistic.sol\";\r\nimport \"./User.sol\";\r\n\r\ncontract Director is User {\r\n\r\n    // storing the answers of directors\r\n    Answer[] public answers;\r\n   \r\n\r\n    // answer object used by the director\r\n    struct Answer {\r\n        uint answerId;\r\n        uint questionId;\r\n        address answerCreator;\r\n        string content;\r\n        uint timestamp; \r\n    }\r\n\r\n    event AnswerCreated(uint ansId, address creator);\r\n\r\n    modifier onlyDirector {\r\n        require(this.isDirector());\r\n        _;\r\n\r\n    }\r\n \r\n    constructor(address userAddress) \r\n        User(userAddress, true) public {\r\n    }\r\n\r\n    // only director is allowed to create an answer\r\n    function createAnswer(uint _questionId, string _content) \r\n        onlyDirector public returns (uint answerId)  {\r\n\r\n        uint id = answers.length++;\r\n        Answer storage answer = answers[id];\r\n        answer.answerId = id;\r\n        answer.questionId = _questionId;\r\n        answer.answerCreator = msg.sender;\r\n        answer.content = _content;\r\n        answer.timestamp = now;\r\n\r\n        emit AnswerCreated(answerId, msg.sender);\r\n    }\r\n\r\n    function getNumOfAnswers() public view returns (uint length) {\r\n        return answers.length;\r\n    }\r\n\r\n    function getAnswer(uint answerId) public view returns (\r\n        uint _answerId,\r\n        uint _questionId,\r\n        address _answerCreator,\r\n        string _content,\r\n        uint _timestamp\r\n    ) {\r\n\r\n        Answer storage answer = answers[answerId];\r\n        return \r\n            (answer.answerId, answer.questionId, answer.answerCreator, answer.content, answer.timestamp);\r\n    }\r\n}",
  "sourcePath": "D:\\Git\\repo\\ShareholderMeeting\\solidity\\contracts\\Director.sol",
  "compiler": {
    "name": "solc",
    "version": "0.4.24+commit.e67f0147.Emscripten.clang"
  },
  "schemaVersion": "2.0.1",
  "updatedAt": "2018-07-31T10:26:21.225Z"
}