{
  "contractName": "Factory",
  "abi": [
    {
      "constant": true,
      "inputs": [
        {
          "name": "",
          "type": "uint256"
        }
      ],
      "name": "proposals",
      "outputs": [
        {
          "name": "proposalId",
          "type": "uint256"
        },
        {
          "name": "name",
          "type": "string"
        },
        {
          "name": "description",
          "type": "string"
        },
        {
          "name": "options",
          "type": "string"
        },
        {
          "name": "proposalPassed",
          "type": "bool"
        },
        {
          "name": "passedPercent",
          "type": "uint256"
        },
        {
          "name": "voteCount",
          "type": "uint256"
        }
      ],
      "payable": false,
      "stateMutability": "view",
      "type": "function"
    },
    {
      "constant": true,
      "inputs": [
        {
          "name": "",
          "type": "address"
        }
      ],
      "name": "votingWeights",
      "outputs": [
        {
          "name": "",
          "type": "uint256"
        }
      ],
      "payable": false,
      "stateMutability": "view",
      "type": "function"
    },
    {
      "constant": true,
      "inputs": [
        {
          "name": "",
          "type": "uint256"
        }
      ],
      "name": "shareholders",
      "outputs": [
        {
          "name": "",
          "type": "address"
        }
      ],
      "payable": false,
      "stateMutability": "view",
      "type": "function"
    },
    {
      "anonymous": false,
      "inputs": [],
      "name": "Log",
      "type": "event"
    },
    {
      "anonymous": false,
      "inputs": [],
      "name": "Test",
      "type": "event"
    },
    {
      "constant": false,
      "inputs": [
        {
          "name": "_userAddress",
          "type": "address"
        },
        {
          "name": "votingTok",
          "type": "uint256"
        },
        {
          "name": "qa",
          "type": "address"
        }
      ],
      "name": "createNewShareholder",
      "outputs": [
        {
          "name": "",
          "type": "address"
        }
      ],
      "payable": false,
      "stateMutability": "nonpayable",
      "type": "function"
    },
    {
      "constant": false,
      "inputs": [
        {
          "name": "_userAddress",
          "type": "address"
        },
        {
          "name": "qa",
          "type": "address"
        }
      ],
      "name": "createNewDirector",
      "outputs": [
        {
          "name": "",
          "type": "address"
        }
      ],
      "payable": false,
      "stateMutability": "nonpayable",
      "type": "function"
    },
    {
      "constant": false,
      "inputs": [
        {
          "name": "_name",
          "type": "string"
        },
        {
          "name": "_description",
          "type": "string"
        },
        {
          "name": "_options",
          "type": "string"
        }
      ],
      "name": "createNewProposal",
      "outputs": [
        {
          "name": "propId",
          "type": "uint256"
        }
      ],
      "payable": false,
      "stateMutability": "nonpayable",
      "type": "function"
    },
    {
      "constant": true,
      "inputs": [],
      "name": "getNumOfProposals",
      "outputs": [
        {
          "name": "length",
          "type": "uint256"
        }
      ],
      "payable": false,
      "stateMutability": "view",
      "type": "function"
    },
    {
      "constant": true,
      "inputs": [
        {
          "name": "name",
          "type": "string"
        }
      ],
      "name": "getProposalIdByName",
      "outputs": [
        {
          "name": "proposalId",
          "type": "uint256"
        }
      ],
      "payable": false,
      "stateMutability": "view",
      "type": "function"
    },
    {
      "constant": true,
      "inputs": [
        {
          "name": "proposalId",
          "type": "uint256"
        }
      ],
      "name": "getProposal",
      "outputs": [
        {
          "name": "_proposalId",
          "type": "uint256"
        },
        {
          "name": "_name",
          "type": "string"
        },
        {
          "name": "_description",
          "type": "string"
        },
        {
          "name": "_options",
          "type": "string"
        },
        {
          "name": "_proposalPassed",
          "type": "bool"
        },
        {
          "name": "_passedPercent",
          "type": "uint256"
        },
        {
          "name": "_voteCount",
          "type": "uint256"
        }
      ],
      "payable": false,
      "stateMutability": "view",
      "type": "function"
    },
    {
      "constant": false,
      "inputs": [
        {
          "name": "proposalId",
          "type": "uint256"
        },
        {
          "name": "votingOption",
          "type": "string"
        }
      ],
      "name": "setVote",
      "outputs": [],
      "payable": false,
      "stateMutability": "nonpayable",
      "type": "function"
    },
    {
      "constant": true,
      "inputs": [
        {
          "name": "proposalID",
          "type": "uint256"
        },
        {
          "name": "voter",
          "type": "address"
        }
      ],
      "name": "getVote",
      "outputs": [
        {
          "name": "user",
          "type": "address"
        },
        {
          "name": "option",
          "type": "string"
        },
        {
          "name": "weight",
          "type": "uint256"
        }
      ],
      "payable": false,
      "stateMutability": "view",
      "type": "function"
    },
    {
      "constant": true,
      "inputs": [
        {
          "name": "proposalId",
          "type": "uint256"
        }
      ],
      "name": "getNumOfVotes",
      "outputs": [
        {
          "name": "length",
          "type": "uint256"
        }
      ],
      "payable": false,
      "stateMutability": "view",
      "type": "function"
    },
    {
      "constant": false,
      "inputs": [
        {
          "name": "userAddress",
          "type": "address"
        },
        {
          "name": "weight",
          "type": "uint256"
        }
      ],
      "name": "setVotingWeight",
      "outputs": [],
      "payable": false,
      "stateMutability": "nonpayable",
      "type": "function"
    },
    {
      "constant": true,
      "inputs": [
        {
          "name": "shareholderId",
          "type": "uint256"
        }
      ],
      "name": "getShareholder",
      "outputs": [
        {
          "name": "_userAddress",
          "type": "address"
        },
        {
          "name": "_isDirector",
          "type": "bool"
        },
        {
          "name": "_delegate",
          "type": "address"
        }
      ],
      "payable": false,
      "stateMutability": "view",
      "type": "function"
    },
    {
      "constant": true,
      "inputs": [],
      "name": "getNumOfShareholders",
      "outputs": [
        {
          "name": "length",
          "type": "uint256"
        }
      ],
      "payable": false,
      "stateMutability": "view",
      "type": "function"
    },
    {
      "constant": true,
      "inputs": [],
      "name": "getShareholderList",
      "outputs": [
        {
          "name": "",
          "type": "address[]"
        }
      ],
      "payable": false,
      "stateMutability": "view",
      "type": "function"
    }
  ],
  "bytecode": "0x608060405234801561001057600080fd5b50613e2e806100206000396000f300608060405260043610620000f7576000357c0100000000000000000000000000000000000000000000000000000000900463ffffffff168063013cf08b14620000fc5780634289cefe14620002a6578063493da75314620002f657806365625cef14620003505780636ccb5d0214620003f6578063806c086014620004a45780638c8e54fb14620005b05780639731631814620005f4578063a29339fd14620006a4578063ab377daa1462000715578063bc3f931f1462000785578063c366c56c146200088b578063c505e8361462000901578063c7f758a81462000981578063c8caf9e51462000b2b578063d328e84d1462000b59575b600080fd5b3480156200010957600080fd5b506200012a6004803603810190808035906020019092919050505062000b87565b604051808881526020018060200180602001806020018715151515815260200186815260200185815260200184810384528a818151815260200191508051906020019080838360005b838110156200019057808201518184015260208101905062000173565b50505050905090810190601f168015620001be5780820380516001836020036101000a031916815260200191505b50848103835289818151815260200191508051906020019080838360005b83811015620001f9578082015181840152602081019050620001dc565b50505050905090810190601f168015620002275780820380516001836020036101000a031916815260200191505b50848103825288818151815260200191508051906020019080838360005b838110156200026257808201518184015260208101905062000245565b50505050905090810190601f168015620002905780820380516001836020036101000a031916815260200191505b509a505050505050505050505060405180910390f35b348015620002b357600080fd5b50620002f4600480360381019080803573ffffffffffffffffffffffffffffffffffffffff1690602001909291908035906020019092919050505062000dba565b005b3480156200030357600080fd5b506200033a600480360381019080803573ffffffffffffffffffffffffffffffffffffffff16906020019092919050505062000e02565b6040518082815260200191505060405180910390f35b3480156200035d57600080fd5b50620003b4600480360381019080803573ffffffffffffffffffffffffffffffffffffffff169060200190929190803573ffffffffffffffffffffffffffffffffffffffff16906020019092919050505062000e1a565b604051808273ffffffffffffffffffffffffffffffffffffffff1673ffffffffffffffffffffffffffffffffffffffff16815260200191505060405180910390f35b3480156200040357600080fd5b50620004246004803603810190808035906020019092919050505062000eb7565b604051808473ffffffffffffffffffffffffffffffffffffffff1673ffffffffffffffffffffffffffffffffffffffff168152602001831515151581526020018273ffffffffffffffffffffffffffffffffffffffff1673ffffffffffffffffffffffffffffffffffffffff168152602001935050505060405180910390f35b348015620004b157600080fd5b506200059a600480360381019080803590602001908201803590602001908080601f0160208091040260200160405190810160405280939291908181526020018383808284378201915050505050509192919290803590602001908201803590602001908080601f0160208091040260200160405190810160405280939291908181526020018383808284378201915050505050509192919290803590602001908201803590602001908080601f0160208091040260200160405190810160405280939291908181526020018383808284378201915050505050509192919290505050620010ee565b6040518082815260200191505060405180910390f35b348015620005bd57600080fd5b50620005de60048036038101908080359060200190929190505050620011bc565b6040518082815260200191505060405180910390f35b3480156200060157600080fd5b5062000662600480360381019080803573ffffffffffffffffffffffffffffffffffffffff16906020019092919080359060200190929190803573ffffffffffffffffffffffffffffffffffffffff169060200190929190505050620011ef565b604051808273ffffffffffffffffffffffffffffffffffffffff1673ffffffffffffffffffffffffffffffffffffffff16815260200191505060405180910390f35b348015620006b157600080fd5b50620006bc62001334565b6040518080602001828103825283818151815260200191508051906020019060200280838360005b8381101562000701578082015181840152602081019050620006e4565b505050509050019250505060405180910390f35b3480156200072257600080fd5b506200074360048036038101908080359060200190929190505050620013c4565b604051808273ffffffffffffffffffffffffffffffffffffffff1673ffffffffffffffffffffffffffffffffffffffff16815260200191505060405180910390f35b3480156200079257600080fd5b50620007d360048036038101908080359060200190929190803573ffffffffffffffffffffffffffffffffffffffff16906020019092919050505062001403565b604051808473ffffffffffffffffffffffffffffffffffffffff1673ffffffffffffffffffffffffffffffffffffffff16815260200180602001838152602001828103825284818151815260200191508051906020019080838360005b838110156200084d57808201518184015260208101905062000830565b50505050905090810190601f1680156200087b5780820380516001836020036101000a031916815260200191505b5094505050505060405180910390f35b3480156200089857600080fd5b50620008ff60048036038101908080359060200190929190803590602001908201803590602001908080601f01602080910402602001604051908101604052809392919081815260200183838082843782019150505050505091929192905050506200157d565b005b3480156200090e57600080fd5b506200096b600480360381019080803590602001908201803590602001908080601f016020809104026020016040519081016040528093929190818152602001838380828437820191505050505050919291929050505062001732565b6040518082815260200191505060405180910390f35b3480156200098e57600080fd5b50620009af6004803603810190808035906020019092919050505062001867565b604051808881526020018060200180602001806020018715151515815260200186815260200185815260200184810384528a818151815260200191508051906020019080838360005b8381101562000a15578082015181840152602081019050620009f8565b50505050905090810190601f16801562000a435780820380516001836020036101000a031916815260200191505b50848103835289818151815260200191508051906020019080838360005b8381101562000a7e57808201518184015260208101905062000a61565b50505050905090810190601f16801562000aac5780820380516001836020036101000a031916815260200191505b50848103825288818151815260200191508051906020019080838360005b8381101562000ae757808201518184015260208101905062000aca565b50505050905090810190601f16801562000b155780820380516001836020036101000a031916815260200191505b509a505050505050505050505060405180910390f35b34801562000b3857600080fd5b5062000b4362001abb565b6040518082815260200191505060405180910390f35b34801562000b6657600080fd5b5062000b7162001ac7565b6040518082815260200191505060405180910390f35b60018181548110151562000b9757fe5b9060005260206000209060090201600091509050806000015490806001018054600181600116156101000203166002900480601f01602080910402602001604051908101604052809291908181526020018280546001816001161561010002031660029004801562000c4d5780601f1062000c215761010080835404028352916020019162000c4d565b820191906000526020600020905b81548152906001019060200180831162000c2f57829003601f168201915b505050505090806002018054600181600116156101000203166002900480601f01602080910402602001604051908101604052809291908181526020018280546001816001161561010002031660029004801562000cef5780601f1062000cc35761010080835404028352916020019162000cef565b820191906000526020600020905b81548152906001019060200180831162000cd157829003601f168201915b505050505090806003018054600181600116156101000203166002900480601f01602080910402602001604051908101604052809291908181526020018280546001816001161561010002031660029004801562000d915780601f1062000d655761010080835404028352916020019162000d91565b820191906000526020600020905b81548152906001019060200180831162000d7357829003601f168201915b5050505050908060040160009054906101000a900460ff16908060050154908060060154905087565b80600260008473ffffffffffffffffffffffffffffffffffffffff1673ffffffffffffffffffffffffffffffffffffffff168152602001908152602001600020819055505050565b60026020528060005260406000206000915090505481565b6000828262000e2862001ad4565b808373ffffffffffffffffffffffffffffffffffffffff1673ffffffffffffffffffffffffffffffffffffffff1681526020018273ffffffffffffffffffffffffffffffffffffffff1673ffffffffffffffffffffffffffffffffffffffff16815260200192505050604051809103906000f08015801562000eae573d6000803e3d6000fd5b50905092915050565b60008060008060008581548110151562000ecd57fe5b9060005260206000200160009054906101000a900473ffffffffffffffffffffffffffffffffffffffff1690508073ffffffffffffffffffffffffffffffffffffffff1663e4128fb36040518163ffffffff167c0100000000000000000000000000000000000000000000000000000000028152600401602060405180830381600087803b15801562000f5f57600080fd5b505af115801562000f74573d6000803e3d6000fd5b505050506040513d602081101562000f8b57600080fd5b81019080805190602001909291905050508173ffffffffffffffffffffffffffffffffffffffff16631ad8af8d6040518163ffffffff167c0100000000000000000000000000000000000000000000000000000000028152600401602060405180830381600087803b1580156200100157600080fd5b505af115801562001016573d6000803e3d6000fd5b505050506040513d60208110156200102d57600080fd5b81019080805190602001909291905050508273ffffffffffffffffffffffffffffffffffffffff1663c89e43616040518163ffffffff167c0100000000000000000000000000000000000000000000000000000000028152600401602060405180830381600087803b158015620010a357600080fd5b505af1158015620010b8573d6000803e3d6000fd5b505050506040513d6020811015620010cf57600080fd5b8101908080519060200190929190505050935093509350509193909250565b6000806001805480919060010162001107919062001ae5565b91506001828154811015156200111957fe5b90600052602060002090600902019050818160000181905550848160010190805190602001906200114c92919062001b1a565b50838160020190805190602001906200116792919062001b1a565b50828160030190805190602001906200118292919062001b1a565b5060008160040160006101000a81548160ff0219169083151502179055506000816005018190555060008160060181905550509392505050565b600080600183815481101515620011cf57fe5b906000526020600020906009020190508060070180549050915050919050565b600080848430856200120062001ba1565b808573ffffffffffffffffffffffffffffffffffffffff1673ffffffffffffffffffffffffffffffffffffffff1681526020018481526020018373ffffffffffffffffffffffffffffffffffffffff1673ffffffffffffffffffffffffffffffffffffffff1681526020018273ffffffffffffffffffffffffffffffffffffffff1673ffffffffffffffffffffffffffffffffffffffff168152602001945050505050604051809103906000f080158015620012c0573d6000803e3d6000fd5b50905060008190806001815401808255809150509060018203906000526020600020016000909192909190916101000a81548173ffffffffffffffffffffffffffffffffffffffff021916908373ffffffffffffffffffffffffffffffffffffffff16021790555050809150509392505050565b60606000805480602002602001604051908101604052809291908181526020018280548015620013ba57602002820191906000526020600020905b8160009054906101000a900473ffffffffffffffffffffffffffffffffffffffff1673ffffffffffffffffffffffffffffffffffffffff16815260200190600101908083116200136f575b5050505050905090565b600081815481101515620013d457fe5b906000526020600020016000915054906101000a900473ffffffffffffffffffffffffffffffffffffffff1681565b600060606000806000806001888154811015156200141d57fe5b90600052602060002090600902019250600091505b8260070180549050821015620015545782600701828154811015156200145457fe5b9060005260206000209060030201905060011562001546578060000160009054906101000a900473ffffffffffffffffffffffffffffffffffffffff16816001018260020154818054600181600116156101000203166002900480601f016020809104026020016040519081016040528092919081815260200182805460018160011615610100020316600290048015620015335780601f10620015075761010080835404028352916020019162001533565b820191906000526020600020905b8154815290600101906020018083116200151557829003601f168201915b5050505050915095509550955062001573565b818060010192505062001432565b6000806020604051908101604052806000815250908090509550955095505b5050509250925092565b6000806001848154811015156200159057fe5b90600052602060002090600902019150816007018054809190600101620015b8919062001bb2565b90506060604051908101604052803373ffffffffffffffffffffffffffffffffffffffff168152602001848152602001600260003373ffffffffffffffffffffffffffffffffffffffff1673ffffffffffffffffffffffffffffffffffffffff1681526020019081526020016000205481525082600701828154811015156200163d57fe5b906000526020600020906003020160008201518160000160006101000a81548173ffffffffffffffffffffffffffffffffffffffff021916908373ffffffffffffffffffffffffffffffffffffffff1602179055506020820151816001019080519060200190620016b092919062001be7565b506040820151816002015590505060018260080160003373ffffffffffffffffffffffffffffffffffffffff1673ffffffffffffffffffffffffffffffffffffffff16815260200190815260200160002060006101000a81548160ff021916908315150217905550816006016000815480929190600101919050555050505050565b600080600090505b60018054905081101562001860576001818154811015156200175857fe5b90600052602060002090600902016001016040518082805460018160011615610100020316600290048015620017c85780601f10620017a5576101008083540402835291820191620017c8565b820191906000526020600020905b815481529060010190602001808311620017b3575b5050915050604051809103902060001916836040518082805190602001908083835b602083101515620018115780518252602082019150602081019050602083039250620017ea565b6001836020036101000a0380198251168184511680821785525050505050509050019150506040518091039020600019161415620018525780915062001861565b80806001019150506200173a565b5b50919050565b600060608060606000806000806001898154811015156200188457fe5b9060005260206000209060090201905080600001548160010182600201836003018460040160009054906101000a900460ff1685600501548660060154858054600181600116156101000203166002900480601f0160208091040260200160405190810160405280929190818152602001828054600181600116156101000203166002900480156200195a5780601f106200192e576101008083540402835291602001916200195a565b820191906000526020600020905b8154815290600101906020018083116200193c57829003601f168201915b50505050509550848054600181600116156101000203166002900480601f016020809104026020016040519081016040528092919081815260200182805460018160011615610100020316600290048015620019fa5780601f10620019ce57610100808354040283529160200191620019fa565b820191906000526020600020905b815481529060010190602001808311620019dc57829003601f168201915b50505050509450838054600181600116156101000203166002900480601f01602080910402602001604051908101604052809291908181526020018280546001816001161561010002031660029004801562001a9a5780601f1062001a6e5761010080835404028352916020019162001a9a565b820191906000526020600020905b81548152906001019060200180831162001a7c57829003601f168201915b50505050509350975097509750975097509750975050919395979092949650565b60008080549050905090565b6000600180549050905090565b6040516105cf8062001e0283390190565b81548183558181111562001b155760090281600902836000526020600020918201910162001b14919062001c6e565b5b505050565b828054600181600116156101000203166002900490600052602060002090601f016020900481019282601f1062001b5d57805160ff191683800117855562001b8e565b8280016001018555821562001b8e579182015b8281111562001b8d57825182559160200191906001019062001b70565b5b50905062001b9d919062001d04565b5090565b604051611a3280620023d183390190565b81548183558181111562001be25760030281600302836000526020600020918201910162001be1919062001d2c565b5b505050565b828054600181600116156101000203166002900490600052602060002090601f016020900481019282601f1062001c2a57805160ff191683800117855562001c5b565b8280016001018555821562001c5b579182015b8281111562001c5a57825182559160200191906001019062001c3d565b5b50905062001c6a919062001d04565b5090565b62001d0191905b8082111562001cfd5760008082016000905560018201600062001c99919062001d8f565b60028201600062001cab919062001d8f565b60038201600062001cbd919062001d8f565b6004820160006101000a81549060ff02191690556005820160009055600682016000905560078201600062001cf3919062001ddb565b5060090162001c75565b5090565b90565b62001d2991905b8082111562001d2557600081600090555060010162001d0b565b5090565b90565b62001d8c91905b8082111562001d8857600080820160006101000a81549073ffffffffffffffffffffffffffffffffffffffff021916905560018201600062001d76919062001d8f565b60028201600090555060030162001d33565b5090565b90565b50805460018160011615610100020316600290046000825580601f1062001db7575062001dd8565b601f01602090049060005260206000209081019062001dd7919062001d04565b5b50565b508054600082556003029060005260206000209081019062001dfe919062001d2c565b505600608060405234801561001057600080fd5b506040516040806105cf8339810180604052810190808051906020019092919080519060200190929190505050816001816000806101000a81548173ffffffffffffffffffffffffffffffffffffffff021916908373ffffffffffffffffffffffffffffffffffffffff16021790555080600060146101000a81548160ff021916908315150217905550505080600160006101000a81548173ffffffffffffffffffffffffffffffffffffffff021916908373ffffffffffffffffffffffffffffffffffffffff16021790555050506104e1806100ee6000396000f300608060405260043610610062576000357c0100000000000000000000000000000000000000000000000000000000900463ffffffff1680631ad8af8d146100675780634fec390c146100965780638af3fddf1461011d578063e4128fb314610174575b600080fd5b34801561007357600080fd5b5061007c6101cb565b604051808215151515815260200191505060405180910390f35b3480156100a257600080fd5b5061010760048036038101908080359060200190929190803590602001908201803590602001908080601f01602080910402602001604051908101604052809392919081815260200183838082843782019150505050505091929192905050506101de565b6040518082815260200191505060405180910390f35b34801561012957600080fd5b5061013261046a565b604051808273ffffffffffffffffffffffffffffffffffffffff1673ffffffffffffffffffffffffffffffffffffffff16815260200191505060405180910390f35b34801561018057600080fd5b50610189610490565b604051808273ffffffffffffffffffffffffffffffffffffffff1673ffffffffffffffffffffffffffffffffffffffff16815260200191505060405180910390f35b600060149054906101000a900460ff1681565b60003073ffffffffffffffffffffffffffffffffffffffff16631ad8af8d6040518163ffffffff167c0100000000000000000000000000000000000000000000000000000000028152600401602060405180830381600087803b15801561024457600080fd5b505af1158015610258573d6000803e3d6000fd5b505050506040513d602081101561026e57600080fd5b8101908080519060200190929190505050151561028a57600080fd5b600160009054906101000a900473ffffffffffffffffffffffffffffffffffffffff1673ffffffffffffffffffffffffffffffffffffffff1663eb90eaf58484336040518463ffffffff167c010000000000000000000000000000000000000000000000000000000002815260040180848152602001806020018373ffffffffffffffffffffffffffffffffffffffff1673ffffffffffffffffffffffffffffffffffffffff168152602001828103825284818151815260200191508051906020019080838360005b8381101561036e578082015181840152602081019050610353565b50505050905090810190601f16801561039b5780820380516001836020036101000a031916815260200191505b50945050505050602060405180830381600087803b1580156103bc57600080fd5b505af11580156103d0573d6000803e3d6000fd5b505050506040513d60208110156103e657600080fd5b810190808051906020019092919050505090507f1cce31feeb8b658498dbd740f9f2893f5950824526d859d079df34984d412d898133604051808381526020018273ffffffffffffffffffffffffffffffffffffffff1673ffffffffffffffffffffffffffffffffffffffff1681526020019250505060405180910390a192915050565b600160009054906101000a900473ffffffffffffffffffffffffffffffffffffffff1681565b6000809054906101000a900473ffffffffffffffffffffffffffffffffffffffff16815600a165627a7a72305820936817ba7cffcd07c61791f4eb5cc9d336ee769ff66abecb73b296c96c714c760029608060405234801561001057600080fd5b50604051608080611a3283398101806040528101908080519060200190929190805190602001909291908051906020019092919080519060200190929190505050836000816000806101000a81548173ffffffffffffffffffffffffffffffffffffffff021916908373ffffffffffffffffffffffffffffffffffffffff16021790555080600060146101000a81548160ff021916908315150217905550505081600160006101000a81548173ffffffffffffffffffffffffffffffffffffffff021916908373ffffffffffffffffffffffffffffffffffffffff16021790555080600260006101000a81548173ffffffffffffffffffffffffffffffffffffffff021916908373ffffffffffffffffffffffffffffffffffffffff160217905550600160009054906101000a900473ffffffffffffffffffffffffffffffffffffffff1673ffffffffffffffffffffffffffffffffffffffff16634289cefe85856040518363ffffffff167c0100000000000000000000000000000000000000000000000000000000028152600401808373ffffffffffffffffffffffffffffffffffffffff1673ffffffffffffffffffffffffffffffffffffffff16815260200182815260200192505050600060405180830381600087803b1580156101f757600080fd5b505af115801561020b573d6000803e3d6000fd5b505050506000600360006101000a81548173ffffffffffffffffffffffffffffffffffffffff021916908373ffffffffffffffffffffffffffffffffffffffff1602179055507fa153d59e4a031d4d7c7e6d3d53ce799fa7d14c9f0307045650196d928186971584600160009054906101000a900473ffffffffffffffffffffffffffffffffffffffff1673ffffffffffffffffffffffffffffffffffffffff1663493da753876040518263ffffffff167c0100000000000000000000000000000000000000000000000000000000028152600401808273ffffffffffffffffffffffffffffffffffffffff1673ffffffffffffffffffffffffffffffffffffffff168152602001915050602060405180830381600087803b15801561033057600080fd5b505af1158015610344573d6000803e3d6000fd5b505050506040513d602081101561035a57600080fd5b8101908080519060200190929190505050600360009054906101000a900473ffffffffffffffffffffffffffffffffffffffff16604051808473ffffffffffffffffffffffffffffffffffffffff1673ffffffffffffffffffffffffffffffffffffffff1681526020018381526020018273ffffffffffffffffffffffffffffffffffffffff1673ffffffffffffffffffffffffffffffffffffffff168152602001935050505060405180910390a1505050506116168061041c6000396000f3006080604052600436106100a4576000357c0100000000000000000000000000000000000000000000000000000000900463ffffffff1680631ad8af8d146100a957806324108475146100d85780638af3fddf1461014b578063b3580c1e146101a2578063b49542851461021f578063c3b3147214610262578063c89e4361146102b9578063d85c91ae14610310578063e4128fb314610367578063f1c7cfb3146103be575b600080fd5b3480156100b557600080fd5b506100be6103f8565b604051808215151515815260200191505060405180910390f35b3480156100e457600080fd5b5061014960048036038101908080359060200190929190803590602001908201803590602001908080601f016020809104026020016040519081016040528093929190818152602001838380828437820191505050505050919291929050505061040b565b005b34801561015757600080fd5b5061016061061e565b604051808273ffffffffffffffffffffffffffffffffffffffff1673ffffffffffffffffffffffffffffffffffffffff16815260200191505060405180910390f35b3480156101ae57600080fd5b50610209600480360381019080803590602001908201803590602001908080601f0160208091040260200160405190810160405280939291908181526020018383808284378201915050505050509192919290505050610644565b6040518082815260200191505060405180910390f35b34801561022b57600080fd5b50610260600480360381019080803573ffffffffffffffffffffffffffffffffffffffff16906020019092919050505061081d565b005b34801561026e57600080fd5b50610277610fe3565b604051808273ffffffffffffffffffffffffffffffffffffffff1673ffffffffffffffffffffffffffffffffffffffff16815260200191505060405180910390f35b3480156102c557600080fd5b506102ce611009565b604051808273ffffffffffffffffffffffffffffffffffffffff1673ffffffffffffffffffffffffffffffffffffffff16815260200191505060405180910390f35b34801561031c57600080fd5b50610351600480360381019080803573ffffffffffffffffffffffffffffffffffffffff16906020019092919050505061102f565b6040518082815260200191505060405180910390f35b34801561037357600080fd5b5061037c611505565b604051808273ffffffffffffffffffffffffffffffffffffffff1673ffffffffffffffffffffffffffffffffffffffff16815260200191505060405180910390f35b3480156103ca57600080fd5b506103f660048036038101908080359060200190929190803560ff16906020019092919050505061152a565b005b600060149054906101000a900460ff1681565b600160009054906101000a900473ffffffffffffffffffffffffffffffffffffffff1673ffffffffffffffffffffffffffffffffffffffff1663c366c56c83836040518363ffffffff167c01000000000000000000000000000000000000000000000000000000000281526004018083815260200180602001828103825283818151815260200191508051906020019080838360005b838110156104bc5780820151818401526020810190506104a1565b50505050905090810190601f1680156104e95780820380516001836020036101000a031916815260200191505b509350505050600060405180830381600087803b15801561050957600080fd5b505af115801561051d573d6000803e3d6000fd5b505050507f497ac9c2d8b6e7ea7204365157d9642f36d2b6125352bfa6d0a73328142d0bd96000809054906101000a900473ffffffffffffffffffffffffffffffffffffffff168383604051808473ffffffffffffffffffffffffffffffffffffffff1673ffffffffffffffffffffffffffffffffffffffff16815260200183815260200180602001828103825283818151815260200191508051906020019080838360005b838110156105de5780820151818401526020810190506105c3565b50505050905090810190601f16801561060b5780820380516001836020036101000a031916815260200191505b5094505050505060405180910390a15050565b600260009054906101000a900473ffffffffffffffffffffffffffffffffffffffff1681565b6000600260009054906101000a900473ffffffffffffffffffffffffffffffffffffffff1673ffffffffffffffffffffffffffffffffffffffff16633a465a2b83336040518363ffffffff167c010000000000000000000000000000000000000000000000000000000002815260040180806020018373ffffffffffffffffffffffffffffffffffffffff1673ffffffffffffffffffffffffffffffffffffffff168152602001828103825284818151815260200191508051906020019080838360005b83811015610723578082015181840152602081019050610708565b50505050905090810190601f1680156107505780820380516001836020036101000a031916815260200191505b509350505050602060405180830381600087803b15801561077057600080fd5b505af1158015610784573d6000803e3d6000fd5b505050506040513d602081101561079a57600080fd5b810190808051906020019092919050505090507fe507074282a0f805a6f370a3dfca4b5578056337d6fe37524243a02ca7a3cae18133604051808381526020018273ffffffffffffffffffffffffffffffffffffffff1673ffffffffffffffffffffffffffffffffffffffff1681526020019250505060405180910390a1919050565b6000806000600160009054906101000a900473ffffffffffffffffffffffffffffffffffffffff1673ffffffffffffffffffffffffffffffffffffffff1663493da753336040518263ffffffff167c0100000000000000000000000000000000000000000000000000000000028152600401808273ffffffffffffffffffffffffffffffffffffffff1673ffffffffffffffffffffffffffffffffffffffff168152602001915050602060405180830381600087803b1580156108df57600080fd5b505af11580156108f3573d6000803e3d6000fd5b505050506040513d602081101561090957600080fd5b81019080805190602001909291905050501115156109b5576040517f08c379a00000000000000000000000000000000000000000000000000000000081526004018080602001828103825260288152602001807f53656e64657220646f6573206e6f74206f776e20656e6f75676820766f74696e81526020017f6720746f6b656e7300000000000000000000000000000000000000000000000081525060400191505060405180910390fd5b3373ffffffffffffffffffffffffffffffffffffffff168373ffffffffffffffffffffffffffffffffffffffff1614151515610a59576040517f08c379a000000000000000000000000000000000000000000000000000000000815260040180806020018281038252601e8152602001807f53656c662d64656c65676174696f6e206973206e6f7420616c6c6f776564000081525060200191505060405180910390fd5b600073ffffffffffffffffffffffffffffffffffffffff16600360009054906101000a900473ffffffffffffffffffffffffffffffffffffffff1673ffffffffffffffffffffffffffffffffffffffff16141515610b45576040517f08c379a000000000000000000000000000000000000000000000000000000000815260040180806020018281038252602b8152602001807f7573657220616c7265616479206861732064656c65676174656420746f20616e81526020017f6f746865722070726f787900000000000000000000000000000000000000000081525060400191505060405180910390fd5b600160009054906101000a900473ffffffffffffffffffffffffffffffffffffffff1673ffffffffffffffffffffffffffffffffffffffff1663493da753336040518263ffffffff167c0100000000000000000000000000000000000000000000000000000000028152600401808273ffffffffffffffffffffffffffffffffffffffff1673ffffffffffffffffffffffffffffffffffffffff168152602001915050602060405180830381600087803b158015610c0257600080fd5b505af1158015610c16573d6000803e3d6000fd5b505050506040513d6020811015610c2c57600080fd5b81019080805190602001909291905050509150600160009054906101000a900473ffffffffffffffffffffffffffffffffffffffff1673ffffffffffffffffffffffffffffffffffffffff16634289cefe3360006040518363ffffffff167c0100000000000000000000000000000000000000000000000000000000028152600401808373ffffffffffffffffffffffffffffffffffffffff1673ffffffffffffffffffffffffffffffffffffffff16815260200182815260200192505050600060405180830381600087803b158015610d0557600080fd5b505af1158015610d19573d6000803e3d6000fd5b5050505081600160009054906101000a900473ffffffffffffffffffffffffffffffffffffffff1673ffffffffffffffffffffffffffffffffffffffff1663493da753856040518263ffffffff167c0100000000000000000000000000000000000000000000000000000000028152600401808273ffffffffffffffffffffffffffffffffffffffff1673ffffffffffffffffffffffffffffffffffffffff168152602001915050602060405180830381600087803b158015610ddb57600080fd5b505af1158015610def573d6000803e3d6000fd5b505050506040513d6020811015610e0557600080fd5b8101908080519060200190929190505050019050600160009054906101000a900473ffffffffffffffffffffffffffffffffffffffff1673ffffffffffffffffffffffffffffffffffffffff16634289cefe84836040518363ffffffff167c0100000000000000000000000000000000000000000000000000000000028152600401808373ffffffffffffffffffffffffffffffffffffffff1673ffffffffffffffffffffffffffffffffffffffff16815260200182815260200192505050600060405180830381600087803b158015610ede57600080fd5b505af1158015610ef2573d6000803e3d6000fd5b5050505082600360006101000a81548173ffffffffffffffffffffffffffffffffffffffff021916908373ffffffffffffffffffffffffffffffffffffffff1602179055507f5383211110d78b2363249bd41ba0b25f4d40dc9994359ca96466fcb665a716a633838584604051808573ffffffffffffffffffffffffffffffffffffffff1673ffffffffffffffffffffffffffffffffffffffff1681526020018481526020018373ffffffffffffffffffffffffffffffffffffffff1673ffffffffffffffffffffffffffffffffffffffff16815260200182815260200194505050505060405180910390a1505050565b600160009054906101000a900473ffffffffffffffffffffffffffffffffffffffff1681565b600360009054906101000a900473ffffffffffffffffffffffffffffffffffffffff1681565b60008060008060009350600092505b600160009054906101000a900473ffffffffffffffffffffffffffffffffffffffff1673ffffffffffffffffffffffffffffffffffffffff1663c8caf9e56040518163ffffffff167c0100000000000000000000000000000000000000000000000000000000028152600401602060405180830381600087803b1580156110c457600080fd5b505af11580156110d8573d6000803e3d6000fd5b505050506040513d60208110156110ee57600080fd5b810190808051906020019092919050505083101561149257600160009054906101000a900473ffffffffffffffffffffffffffffffffffffffff1673ffffffffffffffffffffffffffffffffffffffff16636ccb5d02846040518263ffffffff167c010000000000000000000000000000000000000000000000000000000002815260040180828152602001915050606060405180830381600087803b15801561119757600080fd5b505af11580156111ab573d6000803e3d6000fd5b505050506040513d60608110156111c157600080fd5b8101908080519060200190929190805190602001909291908051906020019092919050505092505091508473ffffffffffffffffffffffffffffffffffffffff168173ffffffffffffffffffffffffffffffffffffffff16141561131c57600160009054906101000a900473ffffffffffffffffffffffffffffffffffffffff1673ffffffffffffffffffffffffffffffffffffffff1663493da753836040518263ffffffff167c0100000000000000000000000000000000000000000000000000000000028152600401808273ffffffffffffffffffffffffffffffffffffffff1673ffffffffffffffffffffffffffffffffffffffff168152602001915050602060405180830381600087803b1580156112dc57600080fd5b505af11580156112f0573d6000803e3d6000fd5b505050506040513d602081101561130657600080fd5b8101908080519060200190929190505050840193505b8473ffffffffffffffffffffffffffffffffffffffff168273ffffffffffffffffffffffffffffffffffffffff161480156113835750600073ffffffffffffffffffffffffffffffffffffffff168173ffffffffffffffffffffffffffffffffffffffff16145b1561148557600160009054906101000a900473ffffffffffffffffffffffffffffffffffffffff1673ffffffffffffffffffffffffffffffffffffffff1663493da753836040518263ffffffff167c0100000000000000000000000000000000000000000000000000000000028152600401808273ffffffffffffffffffffffffffffffffffffffff1673ffffffffffffffffffffffffffffffffffffffff168152602001915050602060405180830381600087803b15801561144557600080fd5b505af1158015611459573d6000803e3d6000fd5b505050506040513d602081101561146f57600080fd5b8101908080519060200190929190505050840193505b828060010193505061103e565b7ffdbe8f945bf97c075bba2c511a72a7d17c00fdc75ce28126f7da85da4f4648948585604051808373ffffffffffffffffffffffffffffffffffffffff1673ffffffffffffffffffffffffffffffffffffffff1681526020018281526020019250505060405180910390a1505050919050565b6000809054906101000a900473ffffffffffffffffffffffffffffffffffffffff1681565b600260009054906101000a900473ffffffffffffffffffffffffffffffffffffffff1673ffffffffffffffffffffffffffffffffffffffff16634792c36c8383600181111561157557fe5b6040518363ffffffff167c01000000000000000000000000000000000000000000000000000000000281526004018083815260200182815260200192505050600060405180830381600087803b1580156115ce57600080fd5b505af11580156115e2573d6000803e3d6000fd5b5050505050505600a165627a7a7230582075e61aab6c2c24e1bba8004af83106c3fcdabede7535c5812c7ad9bc666ecedc0029a165627a7a723058200fc83c5f0196ba2c37fa7d951a98af6d43a4939c67310d510fc8ffaaf86298330029",
  "source": "pragma solidity^ 0.4.23;\r\n\r\nimport \"./User.sol\";\r\nimport \"./Director.sol\";\r\nimport \"./Shareholder.sol\";\r\nimport \"./ProposalData.sol\";\r\nimport \"./QandA.sol\";\r\n\r\ncontract Factory is ProposalData {\r\n\r\n    Shareholder[] public shareholders;\r\n    Proposal[] public proposals;\r\n    mapping(address => uint) public votingWeights;\r\n\r\n    event Log();\r\n    event Test();\r\n\r\n    function createNewShareholder(address _userAddress, uint votingTok, QandA qa) public returns (Shareholder) {\r\n        Shareholder sh = new Shareholder(_userAddress, votingTok, this, qa);\r\n        shareholders.push(sh);\r\n        return sh;\r\n    }\r\n\r\n    function createNewDirector(address _userAddress, QandA qa) public returns (Director) {\r\n        return new Director(_userAddress, qa);\r\n    }\r\n\r\n    function createNewProposal(string _name, string _description, string _options) public returns (uint propId) {\r\n        propId = proposals.length++;\r\n        Proposal storage proposal = proposals[propId];\r\n        proposal.proposalId = propId;\r\n        proposal.name = _name;\r\n        proposal.description = _description;\r\n        proposal.options = _options;\r\n        proposal.proposalPassed = false;\r\n        proposal.passedPercent = 0;\r\n        proposal.voteCount = 0;\r\n    }\r\n\r\n    function getNumOfProposals() public view returns (uint length) {\r\n        return proposals.length;\r\n    }\r\n\r\n    function getProposalIdByName(string name) public view returns(uint proposalId) {\r\n        for (uint i = 0; i < proposals.length; i++) {\r\n            if (keccak256(name) == keccak256(proposals[i].name)) {\r\n                return i;\r\n            }\r\n        }\r\n    }\r\n\r\n    function getProposal(uint proposalId) public view returns (\r\n        uint _proposalId,\r\n        string _name,\r\n        string _description,\r\n        string _options,\r\n        bool _proposalPassed,\r\n        uint _passedPercent,\r\n        uint _voteCount\r\n    ) {\r\n        Proposal storage proposal = proposals[proposalId];\r\n        return\r\n        (proposal.proposalId, proposal.name, proposal.description, proposal.options, proposal.proposalPassed,\r\n        proposal.passedPercent, proposal.voteCount);\r\n    }\r\n\r\n    function setVote(uint proposalId, string votingOption) public {\r\n        Proposal storage prop = proposals[proposalId];\r\n        \r\n        /*require(!prop.votedOnProposal[msg.sender], \"The shareholder already voted\");\r\n        require(delegate == address(0), \"Proxy is not allowed to vote\");*/\r\n\r\n        uint voteId = prop.votes.length++;\r\n        prop.votes[voteId] = Vote({\r\n            voterAddress: msg.sender, \r\n            voterDecision: votingOption, \r\n            voterWeight: votingWeights[msg.sender]}\r\n        );\r\n        prop.votedOnProposal[msg.sender] = true;\r\n        prop.voteCount++;\r\n    }\r\n\r\n    function getVote(uint proposalID, address voter) public view returns (address user, string option, uint weight) {\r\n        Proposal storage proposal = proposals[proposalID];\r\n\r\n        for (uint i = 0; i < proposal.votes.length; i++) {\r\n            Vote storage v = proposal.votes[i];\r\n\r\n            if (true) {\r\n                //emit Log();\r\n                return (v.voterAddress, v.voterDecision, v.voterWeight);\r\n            }\r\n        }\r\n        //emit Test();\r\n        return (address(0), \"\", 0);\r\n    }\r\n\r\n    function getNumOfVotes(uint proposalId) public view returns (uint length) {\r\n        Proposal storage proposal = proposals[proposalId];\r\n        return proposal.votes.length;\r\n    }\r\n\r\n    function setVotingWeight(address userAddress, uint weight) public {\r\n        votingWeights[userAddress] = weight;\r\n    }\r\n\r\n    function getShareholder(uint shareholderId) public view returns (\r\n        address _userAddress,\r\n        bool _isDirector,\r\n        address _delegate\r\n    ) {\r\n        Shareholder sh = shareholders[shareholderId];\r\n        return\r\n            (sh.userAddress(), sh.isDirector(), sh.delegate());\r\n    }\r\n\r\n    function getNumOfShareholders() public view returns (uint length) {\r\n        return shareholders.length;\r\n    }\r\n\r\n    function getShareholderList() public view returns (Shareholder[]) {  \r\n        return shareholders;\r\n    }\r\n}",
  "sourcePath": "D:\\Git\\repo\\ShareholderMeeting\\solidity\\contracts\\Factory.sol",
  "compiler": {
    "name": "solc",
    "version": "0.4.24+commit.e67f0147.Emscripten.clang"
  },
  "schemaVersion": "2.0.1",
  "updatedAt": "2018-08-03T12:13:34.680Z"
}