{
  "contractName": "Factory",
  "abi": [
    {
      "constant": true,
      "inputs": [
        {
          "name": "",
          "type": "uint256"
        }
      ],
      "name": "proposals",
      "outputs": [
        {
          "name": "proposalId",
          "type": "uint256"
        },
        {
          "name": "name",
          "type": "string"
        },
        {
          "name": "description",
          "type": "string"
        },
        {
          "name": "options",
          "type": "string"
        },
        {
          "name": "proposalPassed",
          "type": "bool"
        },
        {
          "name": "passedPercent",
          "type": "uint256"
        },
        {
          "name": "voteCount",
          "type": "uint256"
        }
      ],
      "payable": false,
      "stateMutability": "view",
      "type": "function"
    },
    {
      "constant": true,
      "inputs": [
        {
          "name": "",
          "type": "address"
        }
      ],
      "name": "votingWeights",
      "outputs": [
        {
          "name": "",
          "type": "uint256"
        }
      ],
      "payable": false,
      "stateMutability": "view",
      "type": "function"
    },
    {
      "constant": true,
      "inputs": [
        {
          "name": "",
          "type": "uint256"
        }
      ],
      "name": "shareholders",
      "outputs": [
        {
          "name": "",
          "type": "address"
        }
      ],
      "payable": false,
      "stateMutability": "view",
      "type": "function"
    },
    {
      "anonymous": false,
      "inputs": [],
      "name": "Log",
      "type": "event"
    },
    {
      "anonymous": false,
      "inputs": [],
      "name": "Test",
      "type": "event"
    },
    {
      "constant": false,
      "inputs": [
        {
          "name": "_userAddress",
          "type": "address"
        },
        {
          "name": "votingTok",
          "type": "uint256"
        },
        {
          "name": "qa",
          "type": "address"
        }
      ],
      "name": "createNewShareholder",
      "outputs": [
        {
          "name": "",
          "type": "address"
        }
      ],
      "payable": false,
      "stateMutability": "nonpayable",
      "type": "function"
    },
    {
      "constant": false,
      "inputs": [
        {
          "name": "_userAddress",
          "type": "address"
        },
        {
          "name": "qa",
          "type": "address"
        }
      ],
      "name": "createNewDirector",
      "outputs": [
        {
          "name": "",
          "type": "address"
        }
      ],
      "payable": false,
      "stateMutability": "nonpayable",
      "type": "function"
    },
    {
      "constant": false,
      "inputs": [
        {
          "name": "_name",
          "type": "string"
        },
        {
          "name": "_description",
          "type": "string"
        },
        {
          "name": "_options",
          "type": "string"
        }
      ],
      "name": "createNewProposal",
      "outputs": [
        {
          "name": "propId",
          "type": "uint256"
        }
      ],
      "payable": false,
      "stateMutability": "nonpayable",
      "type": "function"
    },
    {
      "constant": true,
      "inputs": [],
      "name": "getNumOfProposals",
      "outputs": [
        {
          "name": "length",
          "type": "uint256"
        }
      ],
      "payable": false,
      "stateMutability": "view",
      "type": "function"
    },
    {
      "constant": true,
      "inputs": [
        {
          "name": "proposalId",
          "type": "uint256"
        }
      ],
      "name": "getProposal",
      "outputs": [
        {
          "name": "_proposalId",
          "type": "uint256"
        },
        {
          "name": "_name",
          "type": "string"
        },
        {
          "name": "_description",
          "type": "string"
        },
        {
          "name": "_options",
          "type": "string"
        },
        {
          "name": "_proposalPassed",
          "type": "bool"
        },
        {
          "name": "_passedPercent",
          "type": "uint256"
        },
        {
          "name": "_voteCount",
          "type": "uint256"
        }
      ],
      "payable": false,
      "stateMutability": "view",
      "type": "function"
    },
    {
      "constant": false,
      "inputs": [
        {
          "name": "proposalId",
          "type": "uint256"
        },
        {
          "name": "votingOption",
          "type": "string"
        }
      ],
      "name": "setVote",
      "outputs": [],
      "payable": false,
      "stateMutability": "nonpayable",
      "type": "function"
    },
    {
      "constant": true,
      "inputs": [
        {
          "name": "proposalID",
          "type": "uint256"
        },
        {
          "name": "voter",
          "type": "address"
        }
      ],
      "name": "getVote",
      "outputs": [
        {
          "name": "user",
          "type": "address"
        },
        {
          "name": "option",
          "type": "string"
        },
        {
          "name": "weight",
          "type": "uint256"
        }
      ],
      "payable": false,
      "stateMutability": "view",
      "type": "function"
    },
    {
      "constant": true,
      "inputs": [
        {
          "name": "proposalId",
          "type": "uint256"
        }
      ],
      "name": "getNumOfVotes",
      "outputs": [
        {
          "name": "length",
          "type": "uint256"
        }
      ],
      "payable": false,
      "stateMutability": "view",
      "type": "function"
    },
    {
      "constant": false,
      "inputs": [
        {
          "name": "userAddress",
          "type": "address"
        },
        {
          "name": "weight",
          "type": "uint256"
        }
      ],
      "name": "setVotingWeight",
      "outputs": [],
      "payable": false,
      "stateMutability": "nonpayable",
      "type": "function"
    },
    {
      "constant": true,
      "inputs": [
        {
          "name": "shareholderId",
          "type": "uint256"
        }
      ],
      "name": "getShareholder",
      "outputs": [
        {
          "name": "_userAddress",
          "type": "address"
        },
        {
          "name": "_isDirector",
          "type": "bool"
        },
        {
          "name": "_delegate",
          "type": "address"
        }
      ],
      "payable": false,
      "stateMutability": "view",
      "type": "function"
    },
    {
      "constant": true,
      "inputs": [],
      "name": "getNumOfShareholders",
      "outputs": [
        {
          "name": "length",
          "type": "uint256"
        }
      ],
      "payable": false,
      "stateMutability": "view",
      "type": "function"
    },
    {
      "constant": true,
      "inputs": [],
      "name": "getShareholderList",
      "outputs": [
        {
          "name": "",
          "type": "address[]"
        }
      ],
      "payable": false,
      "stateMutability": "view",
      "type": "function"
    }
  ],
  "bytecode": "0x608060405234801561001057600080fd5b5061464a806100206000396000f300608060405260043610620000eb576000357c0100000000000000000000000000000000000000000000000000000000900463ffffffff168063013cf08b14620000f05780634289cefe146200029a578063493da75314620002ea57806365625cef14620003445780636ccb5d0214620003ea578063806c086014620004985780638c8e54fb14620005a45780639731631814620005e8578063a29339fd1462000698578063ab377daa1462000709578063bc3f931f1462000779578063c366c56c146200087f578063c7f758a814620008f5578063c8caf9e51462000a9f578063d328e84d1462000acd575b600080fd5b348015620000fd57600080fd5b506200011e6004803603810190808035906020019092919050505062000afb565b604051808881526020018060200180602001806020018715151515815260200186815260200185815260200184810384528a818151815260200191508051906020019080838360005b838110156200018457808201518184015260208101905062000167565b50505050905090810190601f168015620001b25780820380516001836020036101000a031916815260200191505b50848103835289818151815260200191508051906020019080838360005b83811015620001ed578082015181840152602081019050620001d0565b50505050905090810190601f1680156200021b5780820380516001836020036101000a031916815260200191505b50848103825288818151815260200191508051906020019080838360005b838110156200025657808201518184015260208101905062000239565b50505050905090810190601f168015620002845780820380516001836020036101000a031916815260200191505b509a505050505050505050505060405180910390f35b348015620002a757600080fd5b50620002e8600480360381019080803573ffffffffffffffffffffffffffffffffffffffff1690602001909291908035906020019092919050505062000d2e565b005b348015620002f757600080fd5b506200032e600480360381019080803573ffffffffffffffffffffffffffffffffffffffff16906020019092919050505062000d76565b6040518082815260200191505060405180910390f35b3480156200035157600080fd5b50620003a8600480360381019080803573ffffffffffffffffffffffffffffffffffffffff169060200190929190803573ffffffffffffffffffffffffffffffffffffffff16906020019092919050505062000d8e565b604051808273ffffffffffffffffffffffffffffffffffffffff1673ffffffffffffffffffffffffffffffffffffffff16815260200191505060405180910390f35b348015620003f757600080fd5b50620004186004803603810190808035906020019092919050505062000e2b565b604051808473ffffffffffffffffffffffffffffffffffffffff1673ffffffffffffffffffffffffffffffffffffffff168152602001831515151581526020018273ffffffffffffffffffffffffffffffffffffffff1673ffffffffffffffffffffffffffffffffffffffff168152602001935050505060405180910390f35b348015620004a557600080fd5b506200058e600480360381019080803590602001908201803590602001908080601f0160208091040260200160405190810160405280939291908181526020018383808284378201915050505050509192919290803590602001908201803590602001908080601f0160208091040260200160405190810160405280939291908181526020018383808284378201915050505050509192919290803590602001908201803590602001908080601f016020809104026020016040519081016040528093929190818152602001838380828437820191505050505050919291929050505062001062565b6040518082815260200191505060405180910390f35b348015620005b157600080fd5b50620005d26004803603810190808035906020019092919050505062001130565b6040518082815260200191505060405180910390f35b348015620005f557600080fd5b5062000656600480360381019080803573ffffffffffffffffffffffffffffffffffffffff16906020019092919080359060200190929190803573ffffffffffffffffffffffffffffffffffffffff16906020019092919050505062001163565b604051808273ffffffffffffffffffffffffffffffffffffffff1673ffffffffffffffffffffffffffffffffffffffff16815260200191505060405180910390f35b348015620006a557600080fd5b50620006b0620012a8565b6040518080602001828103825283818151815260200191508051906020019060200280838360005b83811015620006f5578082015181840152602081019050620006d8565b505050509050019250505060405180910390f35b3480156200071657600080fd5b50620007376004803603810190808035906020019092919050505062001338565b604051808273ffffffffffffffffffffffffffffffffffffffff1673ffffffffffffffffffffffffffffffffffffffff16815260200191505060405180910390f35b3480156200078657600080fd5b50620007c760048036038101908080359060200190929190803573ffffffffffffffffffffffffffffffffffffffff16906020019092919050505062001377565b604051808473ffffffffffffffffffffffffffffffffffffffff1673ffffffffffffffffffffffffffffffffffffffff16815260200180602001838152602001828103825284818151815260200191508051906020019080838360005b838110156200084157808201518184015260208101905062000824565b50505050905090810190601f1680156200086f5780820380516001836020036101000a031916815260200191505b5094505050505060405180910390f35b3480156200088c57600080fd5b50620008f360048036038101908080359060200190929190803590602001908201803590602001908080601f0160208091040260200160405190810160405280939291908181526020018383808284378201915050505050509192919290505050620014f1565b005b3480156200090257600080fd5b506200092360048036038101908080359060200190929190505050620016a6565b604051808881526020018060200180602001806020018715151515815260200186815260200185815260200184810384528a818151815260200191508051906020019080838360005b83811015620009895780820151818401526020810190506200096c565b50505050905090810190601f168015620009b75780820380516001836020036101000a031916815260200191505b50848103835289818151815260200191508051906020019080838360005b83811015620009f2578082015181840152602081019050620009d5565b50505050905090810190601f16801562000a205780820380516001836020036101000a031916815260200191505b50848103825288818151815260200191508051906020019080838360005b8381101562000a5b57808201518184015260208101905062000a3e565b50505050905090810190601f16801562000a895780820380516001836020036101000a031916815260200191505b509a505050505050505050505060405180910390f35b34801562000aac57600080fd5b5062000ab7620018fa565b6040518082815260200191505060405180910390f35b34801562000ada57600080fd5b5062000ae562001906565b6040518082815260200191505060405180910390f35b60018181548110151562000b0b57fe5b9060005260206000209060090201600091509050806000015490806001018054600181600116156101000203166002900480601f01602080910402602001604051908101604052809291908181526020018280546001816001161561010002031660029004801562000bc15780601f1062000b955761010080835404028352916020019162000bc1565b820191906000526020600020905b81548152906001019060200180831162000ba357829003601f168201915b505050505090806002018054600181600116156101000203166002900480601f01602080910402602001604051908101604052809291908181526020018280546001816001161561010002031660029004801562000c635780601f1062000c375761010080835404028352916020019162000c63565b820191906000526020600020905b81548152906001019060200180831162000c4557829003601f168201915b505050505090806003018054600181600116156101000203166002900480601f01602080910402602001604051908101604052809291908181526020018280546001816001161561010002031660029004801562000d055780601f1062000cd95761010080835404028352916020019162000d05565b820191906000526020600020905b81548152906001019060200180831162000ce757829003601f168201915b5050505050908060040160009054906101000a900460ff16908060050154908060060154905087565b80600260008473ffffffffffffffffffffffffffffffffffffffff1673ffffffffffffffffffffffffffffffffffffffff168152602001908152602001600020819055505050565b60026020528060005260406000206000915090505481565b6000828262000d9c62001913565b808373ffffffffffffffffffffffffffffffffffffffff1673ffffffffffffffffffffffffffffffffffffffff1681526020018273ffffffffffffffffffffffffffffffffffffffff1673ffffffffffffffffffffffffffffffffffffffff16815260200192505050604051809103906000f08015801562000e22573d6000803e3d6000fd5b50905092915050565b60008060008060008581548110151562000e4157fe5b9060005260206000200160009054906101000a900473ffffffffffffffffffffffffffffffffffffffff1690508073ffffffffffffffffffffffffffffffffffffffff1663e4128fb36040518163ffffffff167c0100000000000000000000000000000000000000000000000000000000028152600401602060405180830381600087803b15801562000ed357600080fd5b505af115801562000ee8573d6000803e3d6000fd5b505050506040513d602081101562000eff57600080fd5b81019080805190602001909291905050508173ffffffffffffffffffffffffffffffffffffffff16631ad8af8d6040518163ffffffff167c0100000000000000000000000000000000000000000000000000000000028152600401602060405180830381600087803b15801562000f7557600080fd5b505af115801562000f8a573d6000803e3d6000fd5b505050506040513d602081101562000fa157600080fd5b81019080805190602001909291905050508273ffffffffffffffffffffffffffffffffffffffff1663c89e43616040518163ffffffff167c0100000000000000000000000000000000000000000000000000000000028152600401602060405180830381600087803b1580156200101757600080fd5b505af11580156200102c573d6000803e3d6000fd5b505050506040513d60208110156200104357600080fd5b8101908080519060200190929190505050935093509350509193909250565b600080600180548091906001016200107b919062001924565b91506001828154811015156200108d57fe5b9060005260206000209060090201905081816000018190555084816001019080519060200190620010c092919062001959565b5083816002019080519060200190620010db92919062001959565b5082816003019080519060200190620010f692919062001959565b5060008160040160006101000a81548160ff0219169083151502179055506000816005018190555060008160060181905550509392505050565b6000806001838154811015156200114357fe5b906000526020600020906009020190508060070180549050915050919050565b6000808484308562001174620019e0565b808573ffffffffffffffffffffffffffffffffffffffff1673ffffffffffffffffffffffffffffffffffffffff1681526020018481526020018373ffffffffffffffffffffffffffffffffffffffff1673ffffffffffffffffffffffffffffffffffffffff1681526020018273ffffffffffffffffffffffffffffffffffffffff1673ffffffffffffffffffffffffffffffffffffffff168152602001945050505050604051809103906000f08015801562001234573d6000803e3d6000fd5b50905060008190806001815401808255809150509060018203906000526020600020016000909192909190916101000a81548173ffffffffffffffffffffffffffffffffffffffff021916908373ffffffffffffffffffffffffffffffffffffffff16021790555050809150509392505050565b606060008054806020026020016040519081016040528092919081815260200182805480156200132e57602002820191906000526020600020905b8160009054906101000a900473ffffffffffffffffffffffffffffffffffffffff1673ffffffffffffffffffffffffffffffffffffffff1681526020019060010190808311620012e3575b5050505050905090565b6000818154811015156200134857fe5b906000526020600020016000915054906101000a900473ffffffffffffffffffffffffffffffffffffffff1681565b600060606000806000806001888154811015156200139157fe5b90600052602060002090600902019250600091505b8260070180549050821015620014c8578260070182815481101515620013c857fe5b90600052602060002090600302019050600115620014ba578060000160009054906101000a900473ffffffffffffffffffffffffffffffffffffffff16816001018260020154818054600181600116156101000203166002900480601f016020809104026020016040519081016040528092919081815260200182805460018160011615610100020316600290048015620014a75780601f106200147b57610100808354040283529160200191620014a7565b820191906000526020600020905b8154815290600101906020018083116200148957829003601f168201915b50505050509150955095509550620014e7565b8180600101925050620013a6565b6000806020604051908101604052806000815250908090509550955095505b5050509250925092565b6000806001848154811015156200150457fe5b906000526020600020906009020191508160070180548091906001016200152c9190620019f1565b90506060604051908101604052803373ffffffffffffffffffffffffffffffffffffffff168152602001848152602001600260003373ffffffffffffffffffffffffffffffffffffffff1673ffffffffffffffffffffffffffffffffffffffff168152602001908152602001600020548152508260070182815481101515620015b157fe5b906000526020600020906003020160008201518160000160006101000a81548173ffffffffffffffffffffffffffffffffffffffff021916908373ffffffffffffffffffffffffffffffffffffffff16021790555060208201518160010190805190602001906200162492919062001a26565b506040820151816002015590505060018260080160003373ffffffffffffffffffffffffffffffffffffffff1673ffffffffffffffffffffffffffffffffffffffff16815260200190815260200160002060006101000a81548160ff021916908315150217905550816006016000815480929190600101919050555050505050565b60006060806060600080600080600189815481101515620016c357fe5b9060005260206000209060090201905080600001548160010182600201836003018460040160009054906101000a900460ff1685600501548660060154858054600181600116156101000203166002900480601f016020809104026020016040519081016040528092919081815260200182805460018160011615610100020316600290048015620017995780601f106200176d5761010080835404028352916020019162001799565b820191906000526020600020905b8154815290600101906020018083116200177b57829003601f168201915b50505050509550848054600181600116156101000203166002900480601f016020809104026020016040519081016040528092919081815260200182805460018160011615610100020316600290048015620018395780601f106200180d5761010080835404028352916020019162001839565b820191906000526020600020905b8154815290600101906020018083116200181b57829003601f168201915b50505050509450838054600181600116156101000203166002900480601f016020809104026020016040519081016040528092919081815260200182805460018160011615610100020316600290048015620018d95780601f10620018ad57610100808354040283529160200191620018d9565b820191906000526020600020905b815481529060010190602001808311620018bb57829003601f168201915b50505050509350975097509750975097509750975050919395979092949650565b60008080549050905090565b6000600180549050905090565b6040516105cf8062001c4183390190565b815481835581811115620019545760090281600902836000526020600020918201910162001953919062001aad565b5b505050565b828054600181600116156101000203166002900490600052602060002090601f016020900481019282601f106200199c57805160ff1916838001178555620019cd565b82800160010185558215620019cd579182015b82811115620019cc578251825591602001919060010190620019af565b5b509050620019dc919062001b43565b5090565b60405161240f806200221083390190565b81548183558181111562001a215760030281600302836000526020600020918201910162001a20919062001b6b565b5b505050565b828054600181600116156101000203166002900490600052602060002090601f016020900481019282601f1062001a6957805160ff191683800117855562001a9a565b8280016001018555821562001a9a579182015b8281111562001a9957825182559160200191906001019062001a7c565b5b50905062001aa9919062001b43565b5090565b62001b4091905b8082111562001b3c5760008082016000905560018201600062001ad8919062001bce565b60028201600062001aea919062001bce565b60038201600062001afc919062001bce565b6004820160006101000a81549060ff02191690556005820160009055600682016000905560078201600062001b32919062001c1a565b5060090162001ab4565b5090565b90565b62001b6891905b8082111562001b6457600081600090555060010162001b4a565b5090565b90565b62001bcb91905b8082111562001bc757600080820160006101000a81549073ffffffffffffffffffffffffffffffffffffffff021916905560018201600062001bb5919062001bce565b60028201600090555060030162001b72565b5090565b90565b50805460018160011615610100020316600290046000825580601f1062001bf6575062001c17565b601f01602090049060005260206000209081019062001c16919062001b43565b5b50565b508054600082556003029060005260206000209081019062001c3d919062001b6b565b505600608060405234801561001057600080fd5b506040516040806105cf8339810180604052810190808051906020019092919080519060200190929190505050816001816000806101000a81548173ffffffffffffffffffffffffffffffffffffffff021916908373ffffffffffffffffffffffffffffffffffffffff16021790555080600060146101000a81548160ff021916908315150217905550505080600160006101000a81548173ffffffffffffffffffffffffffffffffffffffff021916908373ffffffffffffffffffffffffffffffffffffffff16021790555050506104e1806100ee6000396000f300608060405260043610610062576000357c0100000000000000000000000000000000000000000000000000000000900463ffffffff1680631ad8af8d146100675780634fec390c146100965780638af3fddf1461011d578063e4128fb314610174575b600080fd5b34801561007357600080fd5b5061007c6101cb565b604051808215151515815260200191505060405180910390f35b3480156100a257600080fd5b5061010760048036038101908080359060200190929190803590602001908201803590602001908080601f01602080910402602001604051908101604052809392919081815260200183838082843782019150505050505091929192905050506101de565b6040518082815260200191505060405180910390f35b34801561012957600080fd5b5061013261046a565b604051808273ffffffffffffffffffffffffffffffffffffffff1673ffffffffffffffffffffffffffffffffffffffff16815260200191505060405180910390f35b34801561018057600080fd5b50610189610490565b604051808273ffffffffffffffffffffffffffffffffffffffff1673ffffffffffffffffffffffffffffffffffffffff16815260200191505060405180910390f35b600060149054906101000a900460ff1681565b60003073ffffffffffffffffffffffffffffffffffffffff16631ad8af8d6040518163ffffffff167c0100000000000000000000000000000000000000000000000000000000028152600401602060405180830381600087803b15801561024457600080fd5b505af1158015610258573d6000803e3d6000fd5b505050506040513d602081101561026e57600080fd5b8101908080519060200190929190505050151561028a57600080fd5b600160009054906101000a900473ffffffffffffffffffffffffffffffffffffffff1673ffffffffffffffffffffffffffffffffffffffff1663eb90eaf58484336040518463ffffffff167c010000000000000000000000000000000000000000000000000000000002815260040180848152602001806020018373ffffffffffffffffffffffffffffffffffffffff1673ffffffffffffffffffffffffffffffffffffffff168152602001828103825284818151815260200191508051906020019080838360005b8381101561036e578082015181840152602081019050610353565b50505050905090810190601f16801561039b5780820380516001836020036101000a031916815260200191505b50945050505050602060405180830381600087803b1580156103bc57600080fd5b505af11580156103d0573d6000803e3d6000fd5b505050506040513d60208110156103e657600080fd5b810190808051906020019092919050505090507f1cce31feeb8b658498dbd740f9f2893f5950824526d859d079df34984d412d898133604051808381526020018273ffffffffffffffffffffffffffffffffffffffff1673ffffffffffffffffffffffffffffffffffffffff1681526020019250505060405180910390a192915050565b600160009054906101000a900473ffffffffffffffffffffffffffffffffffffffff1681565b6000809054906101000a900473ffffffffffffffffffffffffffffffffffffffff16815600a165627a7a723058207f7a574e698ced362dd3008a1eb48c4bdfdb9fec49ac50eab9815228a28e90b40029608060405234801561001057600080fd5b506040516080806200240f83398101806040528101908080519060200190929190805190602001909291908051906020019092919080519060200190929190505050836000816000806101000a81548173ffffffffffffffffffffffffffffffffffffffff021916908373ffffffffffffffffffffffffffffffffffffffff16021790555080600060146101000a81548160ff021916908315150217905550505081600160006101000a81548173ffffffffffffffffffffffffffffffffffffffff021916908373ffffffffffffffffffffffffffffffffffffffff16021790555080600260006101000a81548173ffffffffffffffffffffffffffffffffffffffff021916908373ffffffffffffffffffffffffffffffffffffffff160217905550600160009054906101000a900473ffffffffffffffffffffffffffffffffffffffff1673ffffffffffffffffffffffffffffffffffffffff16634289cefe85856040518363ffffffff167c0100000000000000000000000000000000000000000000000000000000028152600401808373ffffffffffffffffffffffffffffffffffffffff1673ffffffffffffffffffffffffffffffffffffffff16815260200182815260200192505050600060405180830381600087803b1580156101f857600080fd5b505af115801561020c573d6000803e3d6000fd5b505050506000600360006101000a81548173ffffffffffffffffffffffffffffffffffffffff021916908373ffffffffffffffffffffffffffffffffffffffff1602179055507fa153d59e4a031d4d7c7e6d3d53ce799fa7d14c9f0307045650196d928186971584600160009054906101000a900473ffffffffffffffffffffffffffffffffffffffff1673ffffffffffffffffffffffffffffffffffffffff1663493da753876040518263ffffffff167c0100000000000000000000000000000000000000000000000000000000028152600401808273ffffffffffffffffffffffffffffffffffffffff1673ffffffffffffffffffffffffffffffffffffffff168152602001915050602060405180830381600087803b15801561033157600080fd5b505af1158015610345573d6000803e3d6000fd5b505050506040513d602081101561035b57600080fd5b8101908080519060200190929190505050600360009054906101000a900473ffffffffffffffffffffffffffffffffffffffff16604051808473ffffffffffffffffffffffffffffffffffffffff1673ffffffffffffffffffffffffffffffffffffffff1681526020018381526020018273ffffffffffffffffffffffffffffffffffffffff1673ffffffffffffffffffffffffffffffffffffffff168152602001935050505060405180910390a150505050611ff1806200041e6000396000f3006080604052600436106100d0576000357c0100000000000000000000000000000000000000000000000000000000900463ffffffff1680631ad8af8d146100d55780632410847514610104578063520313fe146101775780635d30e84d146101b85780638af3fddf14610225578063ab4239451461027c578063b3580c1e146102d5578063c0358d9814610352578063c3b3147214610389578063c4336c1c146103e0578063c89e436114610454578063d85c91ae146104ab578063e4128fb314610502578063f1c7cfb314610559575b600080fd5b3480156100e157600080fd5b506100ea610593565b604051808215151515815260200191505060405180910390f35b34801561011057600080fd5b5061017560048036038101908080359060200190929190803590602001908201803590602001908080601f01602080910402602001604051908101604052809392919081815260200183838082843782019150505050505091929192905050506105a6565b005b34801561018357600080fd5b506101a2600480360381019080803590602001909291905050506107b9565b6040518082815260200191505060405180910390f35b3480156101c457600080fd5b506101e3600480360381019080803590602001909291905050506107dc565b604051808273ffffffffffffffffffffffffffffffffffffffff1673ffffffffffffffffffffffffffffffffffffffff16815260200191505060405180910390f35b34801561023157600080fd5b5061023a61080f565b604051808273ffffffffffffffffffffffffffffffffffffffff1673ffffffffffffffffffffffffffffffffffffffff16815260200191505060405180910390f35b34801561028857600080fd5b506102d3600480360381019080803573ffffffffffffffffffffffffffffffffffffffff16906020019092919080351515906020019092919080359060200190929190505050610835565b005b3480156102e157600080fd5b5061033c600480360381019080803590602001908201803590602001908080601f016020809104026020016040519081016040528093929190818152602001838380828437820191505050505050919291929050505061143f565b6040518082815260200191505060405180910390f35b34801561035e57600080fd5b506103876004803603810190808035906020019092919080359060200190929190505050611618565b005b34801561039557600080fd5b5061039e6117cb565b604051808273ffffffffffffffffffffffffffffffffffffffff1673ffffffffffffffffffffffffffffffffffffffff16815260200191505060405180910390f35b3480156103ec57600080fd5b5061040b600480360381019080803590602001909291905050506117f1565b604051808373ffffffffffffffffffffffffffffffffffffffff1673ffffffffffffffffffffffffffffffffffffffff1681526020018281526020019250505060405180910390f35b34801561046057600080fd5b50610469611844565b604051808273ffffffffffffffffffffffffffffffffffffffff1673ffffffffffffffffffffffffffffffffffffffff16815260200191505060405180910390f35b3480156104b757600080fd5b506104ec600480360381019080803573ffffffffffffffffffffffffffffffffffffffff16906020019092919050505061186a565b6040518082815260200191505060405180910390f35b34801561050e57600080fd5b50610517611d40565b604051808273ffffffffffffffffffffffffffffffffffffffff1673ffffffffffffffffffffffffffffffffffffffff16815260200191505060405180910390f35b34801561056557600080fd5b5061059160048036038101908080359060200190929190803560ff169060200190929190505050611d65565b005b600060149054906101000a900460ff1681565b600160009054906101000a900473ffffffffffffffffffffffffffffffffffffffff1673ffffffffffffffffffffffffffffffffffffffff1663c366c56c83836040518363ffffffff167c01000000000000000000000000000000000000000000000000000000000281526004018083815260200180602001828103825283818151815260200191508051906020019080838360005b8381101561065757808201518184015260208101905061063c565b50505050905090810190601f1680156106845780820380516001836020036101000a031916815260200191505b509350505050600060405180830381600087803b1580156106a457600080fd5b505af11580156106b8573d6000803e3d6000fd5b505050507f497ac9c2d8b6e7ea7204365157d9642f36d2b6125352bfa6d0a73328142d0bd96000809054906101000a900473ffffffffffffffffffffffffffffffffffffffff168383604051808473ffffffffffffffffffffffffffffffffffffffff1673ffffffffffffffffffffffffffffffffffffffff16815260200183815260200180602001828103825283818151815260200191508051906020019080838360005b8381101561077957808201518184015260208101905061075e565b50505050905090810190601f1680156107a65780820380516001836020036101000a031916815260200191505b5094505050505060405180910390a15050565b6004818154811015156107c857fe5b906000526020600020016000915090505481565b60066020528060005260406000206000915054906101000a900473ffffffffffffffffffffffffffffffffffffffff1681565b600260009054906101000a900473ffffffffffffffffffffffffffffffffffffffff1681565b6000806000806000600160009054906101000a900473ffffffffffffffffffffffffffffffffffffffff1673ffffffffffffffffffffffffffffffffffffffff1663493da753336040518263ffffffff167c0100000000000000000000000000000000000000000000000000000000028152600401808273ffffffffffffffffffffffffffffffffffffffff1673ffffffffffffffffffffffffffffffffffffffff168152602001915050602060405180830381600087803b1580156108fa57600080fd5b505af115801561090e573d6000803e3d6000fd5b505050506040513d602081101561092457600080fd5b81019080805190602001909291905050501115156109d0576040517f08c379a00000000000000000000000000000000000000000000000000000000081526004018080602001828103825260288152602001807f53656e64657220646f6573206e6f74206f776e20656e6f75676820766f74696e81526020017f6720746f6b656e7300000000000000000000000000000000000000000000000081525060400191505060405180910390fd5b3373ffffffffffffffffffffffffffffffffffffffff168773ffffffffffffffffffffffffffffffffffffffff1614151515610a74576040517f08c379a000000000000000000000000000000000000000000000000000000000815260040180806020018281038252601e8152602001807f53656c662d64656c65676174696f6e206973206e6f7420616c6c6f776564000081525060200191505060405180910390fd5b600160009054906101000a900473ffffffffffffffffffffffffffffffffffffffff1673ffffffffffffffffffffffffffffffffffffffff1663493da753336040518263ffffffff167c0100000000000000000000000000000000000000000000000000000000028152600401808273ffffffffffffffffffffffffffffffffffffffff1673ffffffffffffffffffffffffffffffffffffffff168152602001915050602060405180830381600087803b158015610b3157600080fd5b505af1158015610b45573d6000803e3d6000fd5b505050506040513d6020811015610b5b57600080fd5b81019080805190602001909291905050509350851561102b57600485815481101515610b8357fe5b90600052602060002001549250600485815481101515610b9f57fe5b90600052602060002001600090555b600160048054905003851015610c0557600460018601815481101515610bd057fe5b9060005260206000200154600486815481101515610bea57fe5b90600052602060002001819055508480600101955050610bae565b6004805480919060019003610c1a9190611f74565b50600160009054906101000a900473ffffffffffffffffffffffffffffffffffffffff1673ffffffffffffffffffffffffffffffffffffffff16634289cefe338587036040518363ffffffff167c0100000000000000000000000000000000000000000000000000000000028152600401808373ffffffffffffffffffffffffffffffffffffffff1673ffffffffffffffffffffffffffffffffffffffff16815260200182815260200192505050600060405180830381600087803b158015610ce257600080fd5b505af1158015610cf6573d6000803e3d6000fd5b5050505082600160009054906101000a900473ffffffffffffffffffffffffffffffffffffffff1673ffffffffffffffffffffffffffffffffffffffff1663493da753896040518263ffffffff167c0100000000000000000000000000000000000000000000000000000000028152600401808273ffffffffffffffffffffffffffffffffffffffff1673ffffffffffffffffffffffffffffffffffffffff168152602001915050602060405180830381600087803b158015610db857600080fd5b505af1158015610dcc573d6000803e3d6000fd5b505050506040513d6020811015610de257600080fd5b8101908080519060200190929190505050019150600160009054906101000a900473ffffffffffffffffffffffffffffffffffffffff1673ffffffffffffffffffffffffffffffffffffffff16634289cefe88846040518363ffffffff167c0100000000000000000000000000000000000000000000000000000000028152600401808373ffffffffffffffffffffffffffffffffffffffff1673ffffffffffffffffffffffffffffffffffffffff16815260200182815260200192505050600060405180830381600087803b158015610ebb57600080fd5b505af1158015610ecf573d6000803e3d6000fd5b50505050600560408051908101604052808973ffffffffffffffffffffffffffffffffffffffff168152602001858152509080600181540180825580915050906001820390600052602060002090600202016000909192909190915060008201518160000160006101000a81548173ffffffffffffffffffffffffffffffffffffffff021916908373ffffffffffffffffffffffffffffffffffffffff160217905550602082015181600101555050507fcddcdb1cb6bb8ba24e33ffa13f7edb9820fa7dd105013832e025fd94362e252033858986604051808573ffffffffffffffffffffffffffffffffffffffff1673ffffffffffffffffffffffffffffffffffffffff1681526020018481526020018373ffffffffffffffffffffffffffffffffffffffff1673ffffffffffffffffffffffffffffffffffffffff16815260200182815260200194505050505060405180910390a1611436565b600160009054906101000a900473ffffffffffffffffffffffffffffffffffffffff1673ffffffffffffffffffffffffffffffffffffffff16634289cefe3360006040518363ffffffff167c0100000000000000000000000000000000000000000000000000000000028152600401808373ffffffffffffffffffffffffffffffffffffffff1673ffffffffffffffffffffffffffffffffffffffff16815260200182815260200192505050600060405180830381600087803b1580156110f157600080fd5b505af1158015611105573d6000803e3d6000fd5b5050505083600160009054906101000a900473ffffffffffffffffffffffffffffffffffffffff1673ffffffffffffffffffffffffffffffffffffffff1663493da753896040518263ffffffff167c0100000000000000000000000000000000000000000000000000000000028152600401808273ffffffffffffffffffffffffffffffffffffffff1673ffffffffffffffffffffffffffffffffffffffff168152602001915050602060405180830381600087803b1580156111c757600080fd5b505af11580156111db573d6000803e3d6000fd5b505050506040513d60208110156111f157600080fd5b8101908080519060200190929190505050019050600160009054906101000a900473ffffffffffffffffffffffffffffffffffffffff1673ffffffffffffffffffffffffffffffffffffffff16634289cefe88836040518363ffffffff167c0100000000000000000000000000000000000000000000000000000000028152600401808373ffffffffffffffffffffffffffffffffffffffff1673ffffffffffffffffffffffffffffffffffffffff16815260200182815260200192505050600060405180830381600087803b1580156112ca57600080fd5b505af11580156112de573d6000803e3d6000fd5b50505050600560408051908101604052808973ffffffffffffffffffffffffffffffffffffffff168152602001868152509080600181540180825580915050906001820390600052602060002090600202016000909192909190915060008201518160000160006101000a81548173ffffffffffffffffffffffffffffffffffffffff021916908373ffffffffffffffffffffffffffffffffffffffff160217905550602082015181600101555050507f125eca0cb4389ce77b3681b7aa6850ee18cd61799d301a94730a3624042fbb8e33858984604051808573ffffffffffffffffffffffffffffffffffffffff1673ffffffffffffffffffffffffffffffffffffffff1681526020018481526020018373ffffffffffffffffffffffffffffffffffffffff1673ffffffffffffffffffffffffffffffffffffffff16815260200182815260200194505050505060405180910390a15b50505050505050565b6000600260009054906101000a900473ffffffffffffffffffffffffffffffffffffffff1673ffffffffffffffffffffffffffffffffffffffff16633a465a2b83336040518363ffffffff167c010000000000000000000000000000000000000000000000000000000002815260040180806020018373ffffffffffffffffffffffffffffffffffffffff1673ffffffffffffffffffffffffffffffffffffffff168152602001828103825284818151815260200191508051906020019080838360005b8381101561151e578082015181840152602081019050611503565b50505050905090810190601f16801561154b5780820380516001836020036101000a031916815260200191505b509350505050602060405180830381600087803b15801561156b57600080fd5b505af115801561157f573d6000803e3d6000fd5b505050506040513d602081101561159557600080fd5b810190808051906020019092919050505090507fe507074282a0f805a6f370a3dfca4b5578056337d6fe37524243a02ca7a3cae18133604051808381526020018273ffffffffffffffffffffffffffffffffffffffff1673ffffffffffffffffffffffffffffffffffffffff1681526020019250505060405180910390a1919050565b600080600080600160009054906101000a900473ffffffffffffffffffffffffffffffffffffffff1673ffffffffffffffffffffffffffffffffffffffff1663493da753336040518263ffffffff167c0100000000000000000000000000000000000000000000000000000000028152600401808273ffffffffffffffffffffffffffffffffffffffff1673ffffffffffffffffffffffffffffffffffffffff168152602001915050602060405180830381600087803b1580156116db57600080fd5b505af11580156116ef573d6000803e3d6000fd5b505050506040513d602081101561170557600080fd5b81019080805190602001909291905050509350600085141561176e57600092505b858310156117695760046103e890806001815401808255809150509060018203906000526020600020016000909192909190915055508280600101935050611726565b6117c3565b848481151561177957fe5b049150600090505b848110156117c25760048290806001815401808255809150509060018203906000526020600020016000909192909190915055508080600101915050611781565b5b505050505050565b600160009054906101000a900473ffffffffffffffffffffffffffffffffffffffff1681565b60058181548110151561180057fe5b90600052602060002090600202016000915090508060000160009054906101000a900473ffffffffffffffffffffffffffffffffffffffff16908060010154905082565b600360009054906101000a900473ffffffffffffffffffffffffffffffffffffffff1681565b60008060008060009350600092505b600160009054906101000a900473ffffffffffffffffffffffffffffffffffffffff1673ffffffffffffffffffffffffffffffffffffffff1663c8caf9e56040518163ffffffff167c0100000000000000000000000000000000000000000000000000000000028152600401602060405180830381600087803b1580156118ff57600080fd5b505af1158015611913573d6000803e3d6000fd5b505050506040513d602081101561192957600080fd5b8101908080519060200190929190505050831015611ccd57600160009054906101000a900473ffffffffffffffffffffffffffffffffffffffff1673ffffffffffffffffffffffffffffffffffffffff16636ccb5d02846040518263ffffffff167c010000000000000000000000000000000000000000000000000000000002815260040180828152602001915050606060405180830381600087803b1580156119d257600080fd5b505af11580156119e6573d6000803e3d6000fd5b505050506040513d60608110156119fc57600080fd5b8101908080519060200190929190805190602001909291908051906020019092919050505092505091508473ffffffffffffffffffffffffffffffffffffffff168173ffffffffffffffffffffffffffffffffffffffff161415611b5757600160009054906101000a900473ffffffffffffffffffffffffffffffffffffffff1673ffffffffffffffffffffffffffffffffffffffff1663493da753836040518263ffffffff167c0100000000000000000000000000000000000000000000000000000000028152600401808273ffffffffffffffffffffffffffffffffffffffff1673ffffffffffffffffffffffffffffffffffffffff168152602001915050602060405180830381600087803b158015611b1757600080fd5b505af1158015611b2b573d6000803e3d6000fd5b505050506040513d6020811015611b4157600080fd5b8101908080519060200190929190505050840193505b8473ffffffffffffffffffffffffffffffffffffffff168273ffffffffffffffffffffffffffffffffffffffff16148015611bbe5750600073ffffffffffffffffffffffffffffffffffffffff168173ffffffffffffffffffffffffffffffffffffffff16145b15611cc057600160009054906101000a900473ffffffffffffffffffffffffffffffffffffffff1673ffffffffffffffffffffffffffffffffffffffff1663493da753836040518263ffffffff167c0100000000000000000000000000000000000000000000000000000000028152600401808273ffffffffffffffffffffffffffffffffffffffff1673ffffffffffffffffffffffffffffffffffffffff168152602001915050602060405180830381600087803b158015611c8057600080fd5b505af1158015611c94573d6000803e3d6000fd5b505050506040513d6020811015611caa57600080fd5b8101908080519060200190929190505050840193505b8280600101935050611879565b7ffdbe8f945bf97c075bba2c511a72a7d17c00fdc75ce28126f7da85da4f4648948585604051808373ffffffffffffffffffffffffffffffffffffffff1673ffffffffffffffffffffffffffffffffffffffff1681526020018281526020019250505060405180910390a1505050919050565b6000809054906101000a900473ffffffffffffffffffffffffffffffffffffffff1681565b3373ffffffffffffffffffffffffffffffffffffffff166006600084815260200190815260200160002060009054906101000a900473ffffffffffffffffffffffffffffffffffffffff1673ffffffffffffffffffffffffffffffffffffffff1614151515611e62576040517f08c379a00000000000000000000000000000000000000000000000000000000081526004018080602001828103825260268152602001807f73656e6465722068617320616c7265616479207261746564207468697320717581526020017f657374696f6e000000000000000000000000000000000000000000000000000081525060400191505060405180910390fd5b600260009054906101000a900473ffffffffffffffffffffffffffffffffffffffff1673ffffffffffffffffffffffffffffffffffffffff16634792c36c83836001811115611ead57fe5b6040518363ffffffff167c01000000000000000000000000000000000000000000000000000000000281526004018083815260200182815260200192505050600060405180830381600087803b158015611f0657600080fd5b505af1158015611f1a573d6000803e3d6000fd5b50505050336006600084815260200190815260200160002060006101000a81548173ffffffffffffffffffffffffffffffffffffffff021916908373ffffffffffffffffffffffffffffffffffffffff1602179055505050565b815481835581811115611f9b57818360005260206000209182019101611f9a9190611fa0565b5b505050565b611fc291905b80821115611fbe576000816000905550600101611fa6565b5090565b905600a165627a7a72305820cf4c42aff6353134b784d004265404ae5f1dd791f47832c3032d8f5693608af80029a165627a7a72305820ba78e596dec138a7382b17004ec831609fb6f486113a321b7b65df49647cb7220029",
  "source": "pragma solidity^ 0.4.23;\r\n\r\nimport \"./User.sol\";\r\nimport \"./Director.sol\";\r\nimport \"./Shareholder.sol\";\r\nimport \"./ProposalData.sol\";\r\nimport \"./QandA.sol\";\r\n\r\ncontract Factory is ProposalData {\r\n\r\n    Shareholder[] public shareholders;\r\n    Proposal[] public proposals;\r\n    mapping(address => uint) public votingWeights;\r\n\r\n    event Log();\r\n    event Test();\r\n\r\n    function createNewShareholder(address _userAddress, uint votingTok, QandA qa) public returns (Shareholder) {\r\n        Shareholder sh = new Shareholder(_userAddress, votingTok, this, qa);\r\n        shareholders.push(sh);\r\n        return sh;\r\n    }\r\n\r\n    function createNewDirector(address _userAddress, QandA qa) public returns (Director) {\r\n        return new Director(_userAddress, qa);\r\n    }\r\n\r\n    function createNewProposal(string _name, string _description, string _options) public returns (uint propId) {\r\n        propId = proposals.length++;\r\n        Proposal storage proposal = proposals[propId];\r\n        proposal.proposalId = propId;\r\n        proposal.name = _name;\r\n        proposal.description = _description;\r\n        proposal.options = _options;\r\n        proposal.proposalPassed = false;\r\n        proposal.passedPercent = 0;\r\n        proposal.voteCount = 0;\r\n    }\r\n\r\n    function getNumOfProposals() public view returns (uint length) {\r\n        return proposals.length;\r\n    }\r\n\r\n    function getProposal(uint proposalId) public view returns (\r\n        uint _proposalId,\r\n        string _name,\r\n        string _description,\r\n        string _options,\r\n        bool _proposalPassed,\r\n        uint _passedPercent,\r\n        uint _voteCount\r\n    ) {\r\n        Proposal storage proposal = proposals[proposalId];\r\n        return\r\n        (proposal.proposalId, proposal.name, proposal.description, proposal.options, proposal.proposalPassed,\r\n        proposal.passedPercent, proposal.voteCount);\r\n    }\r\n\r\n    function setVote(uint proposalId, string votingOption) public {\r\n        Proposal storage prop = proposals[proposalId];\r\n        \r\n        /*require(!prop.votedOnProposal[msg.sender], \"The shareholder already voted\");\r\n        require(delegate == address(0), \"Proxy is not allowed to vote\");*/\r\n\r\n        uint voteId = prop.votes.length++;\r\n        prop.votes[voteId] = Vote({\r\n            voterAddress: msg.sender, \r\n            voterDecision: votingOption, \r\n            voterWeight: votingWeights[msg.sender]}\r\n        );\r\n        prop.votedOnProposal[msg.sender] = true;\r\n        prop.voteCount++;\r\n    }\r\n\r\n    function getVote(uint proposalID, address voter) public view returns (address user, string option, uint weight) {\r\n        Proposal storage proposal = proposals[proposalID];\r\n\r\n        for (uint i = 0; i < proposal.votes.length; i++) {\r\n            Vote storage v = proposal.votes[i];\r\n\r\n            if (true) {\r\n                //emit Log();\r\n                return (v.voterAddress, v.voterDecision, v.voterWeight);\r\n            }\r\n        }\r\n        //emit Test();\r\n        return (address(0), \"\", 0);\r\n    }\r\n\r\n    function getNumOfVotes(uint proposalId) public view returns (uint length) {\r\n        Proposal storage proposal = proposals[proposalId];\r\n        return proposal.votes.length;\r\n    }\r\n\r\n    function setVotingWeight(address userAddress, uint weight) public {\r\n        votingWeights[userAddress] = weight;\r\n    }\r\n\r\n    function getShareholder(uint shareholderId) public view returns (\r\n        address _userAddress,\r\n        bool _isDirector,\r\n        address _delegate\r\n    ) {\r\n        Shareholder sh = shareholders[shareholderId];\r\n        return\r\n            (sh.userAddress(), sh.isDirector(), sh.delegate());\r\n    }\r\n\r\n    function getNumOfShareholders() public view returns (uint length) {\r\n        return shareholders.length;\r\n    }\r\n\r\n    function getShareholderList() public view returns (Shareholder[]) {  \r\n        return shareholders;\r\n    }\r\n}",
  "sourcePath": "D:\\Git\\repo\\ShareholderMeeting\\solidity\\contracts\\Factory.sol",
  "compiler": {
    "name": "solc",
    "version": "0.4.24+commit.e67f0147.Emscripten.clang"
  },
  "schemaVersion": "2.0.1",
  "updatedAt": "2018-08-04T09:57:57.194Z"
}