{
  "contractName": "QandA",
  "abi": [
    {
      "constant": true,
      "inputs": [
        {
          "name": "",
          "type": "uint256"
        }
      ],
      "name": "answers",
      "outputs": [
        {
          "name": "answerId",
          "type": "uint256"
        },
        {
          "name": "questionId",
          "type": "uint256"
        },
        {
          "name": "answerCreator",
          "type": "address"
        },
        {
          "name": "content",
          "type": "string"
        },
        {
          "name": "timestamp",
          "type": "uint256"
        }
      ],
      "payable": false,
      "stateMutability": "view",
      "type": "function"
    },
    {
      "constant": true,
      "inputs": [
        {
          "name": "",
          "type": "uint256"
        }
      ],
      "name": "questions",
      "outputs": [
        {
          "name": "creator",
          "type": "address"
        },
        {
          "name": "questionId",
          "type": "uint256"
        },
        {
          "name": "content",
          "type": "string"
        },
        {
          "name": "timestamp",
          "type": "uint256"
        },
        {
          "name": "upvotes",
          "type": "uint256"
        },
        {
          "name": "downvotes",
          "type": "uint256"
        }
      ],
      "payable": false,
      "stateMutability": "view",
      "type": "function"
    },
    {
      "anonymous": false,
      "inputs": [
        {
          "indexed": false,
          "name": "invoker",
          "type": "address"
        }
      ],
      "name": "InvalidRatingOption",
      "type": "event"
    },
    {
      "anonymous": false,
      "inputs": [
        {
          "indexed": false,
          "name": "invoker",
          "type": "address"
        },
        {
          "indexed": false,
          "name": "numUpvotes",
          "type": "uint256"
        }
      ],
      "name": "QuestionUpvote",
      "type": "event"
    },
    {
      "anonymous": false,
      "inputs": [
        {
          "indexed": false,
          "name": "invoker",
          "type": "address"
        },
        {
          "indexed": false,
          "name": "numDownvotes",
          "type": "uint256"
        }
      ],
      "name": "QuestionDownvote",
      "type": "event"
    },
    {
      "constant": true,
      "inputs": [
        {
          "name": "answerId",
          "type": "uint256"
        }
      ],
      "name": "getAnswer",
      "outputs": [
        {
          "name": "_answerId",
          "type": "uint256"
        },
        {
          "name": "_questionId",
          "type": "uint256"
        },
        {
          "name": "_answerCreator",
          "type": "address"
        },
        {
          "name": "_content",
          "type": "string"
        },
        {
          "name": "_timestamp",
          "type": "uint256"
        }
      ],
      "payable": false,
      "stateMutability": "view",
      "type": "function"
    },
    {
      "constant": true,
      "inputs": [],
      "name": "getNumOfAnswers",
      "outputs": [
        {
          "name": "length",
          "type": "uint256"
        }
      ],
      "payable": false,
      "stateMutability": "view",
      "type": "function"
    },
    {
      "constant": false,
      "inputs": [
        {
          "name": "_questionId",
          "type": "uint256"
        },
        {
          "name": "_content",
          "type": "string"
        },
        {
          "name": "sender",
          "type": "address"
        }
      ],
      "name": "createNewAnswer",
      "outputs": [
        {
          "name": "answId",
          "type": "uint256"
        }
      ],
      "payable": false,
      "stateMutability": "nonpayable",
      "type": "function"
    },
    {
      "constant": false,
      "inputs": [
        {
          "name": "_content",
          "type": "string"
        },
        {
          "name": "sender",
          "type": "address"
        }
      ],
      "name": "createNewQuestion",
      "outputs": [
        {
          "name": "questId",
          "type": "uint256"
        }
      ],
      "payable": false,
      "stateMutability": "nonpayable",
      "type": "function"
    },
    {
      "constant": true,
      "inputs": [],
      "name": "getNumOfQuestions",
      "outputs": [
        {
          "name": "length",
          "type": "uint256"
        }
      ],
      "payable": false,
      "stateMutability": "view",
      "type": "function"
    },
    {
      "constant": true,
      "inputs": [
        {
          "name": "questionId",
          "type": "uint256"
        }
      ],
      "name": "getQuestion",
      "outputs": [
        {
          "name": "_creator",
          "type": "address"
        },
        {
          "name": "_questionId",
          "type": "uint256"
        },
        {
          "name": "_content",
          "type": "string"
        },
        {
          "name": "_timestamp",
          "type": "uint256"
        },
        {
          "name": "_upvotes",
          "type": "uint256"
        },
        {
          "name": "_downvotes",
          "type": "uint256"
        }
      ],
      "payable": false,
      "stateMutability": "view",
      "type": "function"
    },
    {
      "constant": false,
      "inputs": [
        {
          "name": "questionId",
          "type": "uint256"
        },
        {
          "name": "ratingOpt",
          "type": "uint256"
        }
      ],
      "name": "setRating",
      "outputs": [],
      "payable": false,
      "stateMutability": "nonpayable",
      "type": "function"
    }
  ],
  "bytecode": "0x608060405234801561001057600080fd5b50610ffe806100206000396000f300608060405260043610610099576000357c0100000000000000000000000000000000000000000000000000000000900463ffffffff16806317599cc51461009e57806331b1b9781461018c5780633a465a2b146102815780633d3e528d1461031e5780633ecb486a146103495780634792c36c14610374578063b5ab58dc146103ab578063db88176f14610499578063eb90eaf51461058e575b600080fd5b3480156100aa57600080fd5b506100c960048036038101908080359060200190929190505050610635565b604051808681526020018581526020018473ffffffffffffffffffffffffffffffffffffffff1673ffffffffffffffffffffffffffffffffffffffff16815260200180602001838152602001828103825284818151815260200191508051906020019080838360005b8381101561014d578082015181840152602081019050610132565b50505050905090810190601f16801561017a5780820380516001836020036101000a031916815260200191505b50965050505050505060405180910390f35b34801561019857600080fd5b506101b760048036038101908080359060200190929190505050610732565b604051808773ffffffffffffffffffffffffffffffffffffffff1673ffffffffffffffffffffffffffffffffffffffff16815260200186815260200180602001858152602001848152602001838152602001828103825286818151815260200191508051906020019080838360005b83811015610241578082015181840152602081019050610226565b50505050905090810190601f16801561026e5780820380516001836020036101000a031916815260200191505b5097505050505050505060405180910390f35b34801561028d57600080fd5b50610308600480360381019080803590602001908201803590602001908080601f0160208091040260200160405190810160405280939291908181526020018383808284378201915050505050509192919290803573ffffffffffffffffffffffffffffffffffffffff169060200190929190505050610835565b6040518082815260200191505060405180910390f35b34801561032a57600080fd5b506103336108f6565b6040518082815260200191505060405180910390f35b34801561035557600080fd5b5061035e610902565b6040518082815260200191505060405180910390f35b34801561038057600080fd5b506103a9600480360381019080803590602001909291908035906020019092919050505061090f565b005b3480156103b757600080fd5b506103d660048036038101908080359060200190929190505050610abc565b604051808681526020018581526020018473ffffffffffffffffffffffffffffffffffffffff1673ffffffffffffffffffffffffffffffffffffffff16815260200180602001838152602001828103825284818151815260200191508051906020019080838360005b8381101561045a57808201518184015260208101905061043f565b50505050905090810190601f1680156104875780820380516001836020036101000a031916815260200191505b50965050505050505060405180910390f35b3480156104a557600080fd5b506104c460048036038101908080359060200190929190505050610bcd565b604051808773ffffffffffffffffffffffffffffffffffffffff1673ffffffffffffffffffffffffffffffffffffffff16815260200186815260200180602001858152602001848152602001838152602001828103825286818151815260200191508051906020019080838360005b8381101561054e578082015181840152602081019050610533565b50505050905090810190601f16801561057b5780820380516001836020036101000a031916815260200191505b5097505050505050505060405180910390f35b34801561059a57600080fd5b5061061f60048036038101908080359060200190929190803590602001908201803590602001908080601f0160208091040260200160405190810160405280939291908181526020018383808284378201915050505050509192919290803573ffffffffffffffffffffffffffffffffffffffff169060200190929190505050610ce6565b6040518082815260200191505060405180910390f35b60008181548110151561064457fe5b90600052602060002090600502016000915090508060000154908060010154908060020160009054906101000a900473ffffffffffffffffffffffffffffffffffffffff1690806003018054600181600116156101000203166002900480601f0160208091040260200160405190810160405280929190818152602001828054600181600116156101000203166002900480156107225780601f106106f757610100808354040283529160200191610722565b820191906000526020600020905b81548152906001019060200180831161070557829003601f168201915b5050505050908060040154905085565b60018181548110151561074157fe5b90600052602060002090600602016000915090508060000160009054906101000a900473ffffffffffffffffffffffffffffffffffffffff1690806001015490806002018054600181600116156101000203166002900480601f0160208091040260200160405190810160405280929190818152602001828054600181600116156101000203166002900480156108195780601f106107ee57610100808354040283529160200191610819565b820191906000526020600020905b8154815290600101906020018083116107fc57829003601f168201915b5050505050908060030154908060040154908060050154905086565b6000806001805480919060010161084c9190610d9d565b915060018281548110151561085d57fe5b90600052602060002090600602019050818160010181905550828160000160006101000a81548173ffffffffffffffffffffffffffffffffffffffff021916908373ffffffffffffffffffffffffffffffffffffffff160217905550838160020190805190602001906108d1929190610dcf565b5042816003018190555060008160040181905550600081600501819055505092915050565b60008080549050905090565b6000600180549050905090565b600060018381548110151561092057fe5b9060005260206000209060060201905060018214156109c15780600401600081548092919060010191905055507f54a8ca358ef57f5199692f9accebf1cea9c3b6a6351db8b1976a3283f3c7caa5338260040154604051808373ffffffffffffffffffffffffffffffffffffffff1673ffffffffffffffffffffffffffffffffffffffff1681526020018281526020019250505060405180910390a1610ab7565b6000821415610a525780600501600081548092919060010191905055507fb0f1a350a68ca81aea495057b739a0ab46613ea46337a4ecf18a0e5891b22423338260050154604051808373ffffffffffffffffffffffffffffffffffffffff1673ffffffffffffffffffffffffffffffffffffffff1681526020018281526020019250505060405180910390a1610ab6565b7f7c153d1a9d147fafdf065d15a62aca5b9ae7c237b3f61826022605c14aa265fb33604051808273ffffffffffffffffffffffffffffffffffffffff1673ffffffffffffffffffffffffffffffffffffffff16815260200191505060405180910390a15b5b505050565b60008060006060600080600087815481101515610ad557fe5b90600052602060002090600502019050806000015481600101548260020160009054906101000a900473ffffffffffffffffffffffffffffffffffffffff16836003018460040154818054600181600116156101000203166002900480601f016020809104026020016040519081016040528092919081815260200182805460018160011615610100020316600290048015610bb25780601f10610b8757610100808354040283529160200191610bb2565b820191906000526020600020905b815481529060010190602001808311610b9557829003601f168201915b50505050509150955095509550955095505091939590929450565b6000806060600080600080600188815481101515610be757fe5b906000526020600020906006020190508060000160009054906101000a900473ffffffffffffffffffffffffffffffffffffffff16816001015482600201836003015484600401548560050154838054600181600116156101000203166002900480601f016020809104026020016040519081016040528092919081815260200182805460018160011615610100020316600290048015610cc95780601f10610c9e57610100808354040283529160200191610cc9565b820191906000526020600020905b815481529060010190602001808311610cac57829003601f168201915b505050505093509650965096509650965096505091939550919395565b60008060008054809190600101610cfd9190610e4f565b9150600082815481101515610d0e57fe5b90600052602060002090600502019050818160000181905550848160010181905550828160020160006101000a81548173ffffffffffffffffffffffffffffffffffffffff021916908373ffffffffffffffffffffffffffffffffffffffff16021790555083816003019080519060200190610d8b929190610dcf565b50428160040181905550509392505050565b815481835581811115610dca57600602816006028360005260206000209182019101610dc99190610e81565b5b505050565b828054600181600116156101000203166002900490600052602060002090601f016020900481019282601f10610e1057805160ff1916838001178555610e3e565b82800160010185558215610e3e579182015b82811115610e3d578251825591602001919060010190610e22565b5b509050610e4b9190610ef7565b5090565b815481835581811115610e7c57600502816005028360005260206000209182019101610e7b9190610f1c565b5b505050565b610ef491905b80821115610ef057600080820160006101000a81549073ffffffffffffffffffffffffffffffffffffffff02191690556001820160009055600282016000610ecf9190610f8a565b60038201600090556004820160009055600582016000905550600601610e87565b5090565b90565b610f1991905b80821115610f15576000816000905550600101610efd565b5090565b90565b610f8791905b80821115610f835760008082016000905560018201600090556002820160006101000a81549073ffffffffffffffffffffffffffffffffffffffff0219169055600382016000610f729190610f8a565b600482016000905550600501610f22565b5090565b90565b50805460018160011615610100020316600290046000825580601f10610fb05750610fcf565b601f016020900490600052602060002090810190610fce9190610ef7565b5b505600a165627a7a72305820e623b5acf6dfdb3fa7e0b59942dd3ab74920b61698952a8756d3a74ed84bad140029",
  "source": "pragma solidity^ 0.4.23;\r\n\r\nimport \"./Shareholder.sol\";\r\n\r\ncontract QandA {\r\n\r\n    // answer object used by the director\r\n    struct Answer {\r\n        uint answerId;\r\n        uint questionId;\r\n        address answerCreator;\r\n        string content;\r\n        uint timestamp;\r\n        //string ipfs_hash; \r\n    }\r\n\r\n    struct Question {\r\n        address creator;\r\n        uint questionId;\r\n        string content;\r\n        uint timestamp;\r\n        uint upvotes;\r\n        uint downvotes;\r\n        //string ipfs_hash;\r\n    }\r\n\r\n    // storing the answers of directors\r\n    Answer[] public answers;\r\n    // storing the questions of shareholders\r\n    Question[] public questions;\r\n\r\n    event InvalidRatingOption(address invoker);\r\n    event QuestionUpvote(address invoker, uint numUpvotes);\r\n    event QuestionDownvote(address invoker, uint numDownvotes);\r\n\r\n    function getAnswer(uint answerId) public view returns (\r\n        uint _answerId,\r\n        uint _questionId,\r\n        address _answerCreator,\r\n        string _content,\r\n        uint _timestamp\r\n    ) {\r\n\r\n        Answer storage answer = answers[answerId];\r\n        return \r\n            (answer.answerId, answer.questionId, answer.answerCreator, answer.content, answer.timestamp);\r\n    }\r\n\r\n    function getNumOfAnswers() public view returns (uint length) {\r\n        return answers.length;\r\n    }\r\n\r\n    function createNewAnswer(uint _questionId, string _content, address sender) public returns(uint answId) {\r\n\r\n        answId = answers.length++;\r\n        Answer storage answer = answers[answId];\r\n        answer.answerId = answId;\r\n        answer.questionId = _questionId;\r\n        answer.answerCreator = sender;\r\n        answer.content = _content;\r\n        answer.timestamp = now;\r\n    }\r\n\r\n    function createNewQuestion(string _content, address sender) public returns (uint questId) {\r\n\r\n        questId = questions.length++;\r\n        Question storage question = questions[questId];\r\n        question.questionId = questId;\r\n        question.creator = sender;\r\n        question.content = _content;\r\n        question.timestamp = now;\r\n        question.upvotes = 0;\r\n        question.downvotes = 0;\r\n    }\r\n\r\n    function getNumOfQuestions() public view returns (uint length) {\r\n        return questions.length;\r\n    }\r\n\r\n    function getQuestion(uint questionId) public view returns (\r\n        address _creator,\r\n        uint _questionId,\r\n        string _content,\r\n        uint _timestamp,\r\n        uint _upvotes,\r\n        uint _downvotes\r\n    ) {\r\n        Question storage question = questions[questionId];\r\n        return\r\n            (question.creator, question.questionId, question.content, question.timestamp, question.upvotes, question.downvotes);\r\n    }\r\n\r\n    function setRating(uint questionId, uint ratingOpt) public {\r\n\r\n        Question storage question = questions[questionId];\r\n        if (ratingOpt == 1) {\r\n            question.upvotes++;\r\n            emit QuestionUpvote(msg.sender, question.upvotes);\r\n        } else if (ratingOpt == 0) {\r\n            question.downvotes++;\r\n            emit QuestionDownvote(msg.sender, question.downvotes);\r\n        } else {\r\n            emit InvalidRatingOption(msg.sender);\r\n        }\r\n    }\r\n\r\n}",
  "sourcePath": "D:\\Git\\repo\\ShareholderMeeting\\solidity\\contracts\\QandA.sol",
  "compiler": {
    "name": "solc",
    "version": "0.4.24+commit.e67f0147.Emscripten.clang"
  },
  "schemaVersion": "2.0.1",
  "updatedAt": "2018-08-04T09:57:57.185Z"
}