{
  "contractName": "QandA",
  "abi": [
    {
      "constant": true,
      "inputs": [
        {
          "name": "",
          "type": "uint256"
        }
      ],
      "name": "answers",
      "outputs": [
        {
          "name": "answerId",
          "type": "uint256"
        },
        {
          "name": "questionId",
          "type": "uint256"
        },
        {
          "name": "answerCreator",
          "type": "address"
        },
        {
          "name": "content",
          "type": "string"
        },
        {
          "name": "timestamp",
          "type": "uint256"
        },
        {
          "name": "ipfs_hash",
          "type": "string"
        }
      ],
      "payable": false,
      "stateMutability": "view",
      "type": "function"
    },
    {
      "constant": true,
      "inputs": [
        {
          "name": "",
          "type": "uint256"
        }
      ],
      "name": "questions",
      "outputs": [
        {
          "name": "creator",
          "type": "address"
        },
        {
          "name": "questionId",
          "type": "uint256"
        },
        {
          "name": "content",
          "type": "string"
        },
        {
          "name": "timestamp",
          "type": "uint256"
        },
        {
          "name": "upvotes",
          "type": "uint256"
        },
        {
          "name": "downvotes",
          "type": "uint256"
        },
        {
          "name": "ipfs_hash",
          "type": "string"
        }
      ],
      "payable": false,
      "stateMutability": "view",
      "type": "function"
    },
    {
      "anonymous": false,
      "inputs": [
        {
          "indexed": false,
          "name": "invoker",
          "type": "address"
        }
      ],
      "name": "InvalidRatingOption",
      "type": "event"
    },
    {
      "anonymous": false,
      "inputs": [
        {
          "indexed": false,
          "name": "invoker",
          "type": "address"
        },
        {
          "indexed": false,
          "name": "numUpvotes",
          "type": "uint256"
        }
      ],
      "name": "QuestionUpvote",
      "type": "event"
    },
    {
      "anonymous": false,
      "inputs": [
        {
          "indexed": false,
          "name": "invoker",
          "type": "address"
        },
        {
          "indexed": false,
          "name": "numDownvotes",
          "type": "uint256"
        }
      ],
      "name": "QuestionDownvote",
      "type": "event"
    },
    {
      "constant": true,
      "inputs": [
        {
          "name": "answerId",
          "type": "uint256"
        }
      ],
      "name": "getAnswer",
      "outputs": [
        {
          "name": "_answerId",
          "type": "uint256"
        },
        {
          "name": "_questionId",
          "type": "uint256"
        },
        {
          "name": "_answerCreator",
          "type": "address"
        },
        {
          "name": "_content",
          "type": "string"
        },
        {
          "name": "_timestamp",
          "type": "uint256"
        }
      ],
      "payable": false,
      "stateMutability": "view",
      "type": "function"
    },
    {
      "constant": true,
      "inputs": [],
      "name": "getNumOfAnswers",
      "outputs": [
        {
          "name": "length",
          "type": "uint256"
        }
      ],
      "payable": false,
      "stateMutability": "view",
      "type": "function"
    },
    {
      "constant": false,
      "inputs": [
        {
          "name": "_questionId",
          "type": "uint256"
        },
        {
          "name": "_content",
          "type": "string"
        },
        {
          "name": "sender",
          "type": "address"
        }
      ],
      "name": "createNewAnswer",
      "outputs": [
        {
          "name": "answId",
          "type": "uint256"
        }
      ],
      "payable": false,
      "stateMutability": "nonpayable",
      "type": "function"
    },
    {
      "constant": false,
      "inputs": [
        {
          "name": "_content",
          "type": "string"
        },
        {
          "name": "sender",
          "type": "address"
        }
      ],
      "name": "createNewQuestion",
      "outputs": [
        {
          "name": "questId",
          "type": "uint256"
        }
      ],
      "payable": false,
      "stateMutability": "nonpayable",
      "type": "function"
    },
    {
      "constant": true,
      "inputs": [],
      "name": "getNumOfQuestions",
      "outputs": [
        {
          "name": "length",
          "type": "uint256"
        }
      ],
      "payable": false,
      "stateMutability": "view",
      "type": "function"
    },
    {
      "constant": true,
      "inputs": [
        {
          "name": "questionId",
          "type": "uint256"
        }
      ],
      "name": "getQuestion",
      "outputs": [
        {
          "name": "_creator",
          "type": "address"
        },
        {
          "name": "_questionId",
          "type": "uint256"
        },
        {
          "name": "_content",
          "type": "string"
        },
        {
          "name": "_timestamp",
          "type": "uint256"
        },
        {
          "name": "_upvotes",
          "type": "uint256"
        },
        {
          "name": "_downvotes",
          "type": "uint256"
        }
      ],
      "payable": false,
      "stateMutability": "view",
      "type": "function"
    },
    {
      "constant": false,
      "inputs": [
        {
          "name": "questionId",
          "type": "uint256"
        },
        {
          "name": "ratingOpt",
          "type": "uint256"
        }
      ],
      "name": "setRating",
      "outputs": [],
      "payable": false,
      "stateMutability": "nonpayable",
      "type": "function"
    }
  ],
  "bytecode": "0x608060405234801561001057600080fd5b50611232806100206000396000f300608060405260043610610099576000357c0100000000000000000000000000000000000000000000000000000000900463ffffffff16806317599cc51461009e57806331b1b978146101f85780633a465a2b146103595780633d3e528d146103f65780633ecb486a146104215780634792c36c1461044c578063b5ab58dc14610483578063db88176f14610571578063eb90eaf514610666575b600080fd5b3480156100aa57600080fd5b506100c96004803603810190808035906020019092919050505061070d565b604051808781526020018681526020018573ffffffffffffffffffffffffffffffffffffffff1673ffffffffffffffffffffffffffffffffffffffff1681526020018060200184815260200180602001838103835286818151815260200191508051906020019080838360005b83811015610151578082015181840152602081019050610136565b50505050905090810190601f16801561017e5780820380516001836020036101000a031916815260200191505b50838103825284818151815260200191508051906020019080838360005b838110156101b757808201518184015260208101905061019c565b50505050905090810190601f1680156101e45780820380516001836020036101000a031916815260200191505b509850505050505050505060405180910390f35b34801561020457600080fd5b50610223600480360381019080803590602001909291905050506108a8565b604051808873ffffffffffffffffffffffffffffffffffffffff1673ffffffffffffffffffffffffffffffffffffffff1681526020018781526020018060200186815260200185815260200184815260200180602001838103835288818151815260200191508051906020019080838360005b838110156102b1578082015181840152602081019050610296565b50505050905090810190601f1680156102de5780820380516001836020036101000a031916815260200191505b50838103825284818151815260200191508051906020019080838360005b838110156103175780820151818401526020810190506102fc565b50505050905090810190601f1680156103445780820380516001836020036101000a031916815260200191505b50995050505050505050505060405180910390f35b34801561036557600080fd5b506103e0600480360381019080803590602001908201803590602001908080601f0160208091040260200160405190810160405280939291908181526020018383808284378201915050505050509192919290803573ffffffffffffffffffffffffffffffffffffffff169060200190929190505050610a49565b6040518082815260200191505060405180910390f35b34801561040257600080fd5b5061040b610b0a565b6040518082815260200191505060405180910390f35b34801561042d57600080fd5b50610436610b16565b6040518082815260200191505060405180910390f35b34801561045857600080fd5b506104816004803603810190808035906020019092919080359060200190929190505050610b23565b005b34801561048f57600080fd5b506104ae60048036038101908080359060200190929190505050610cd0565b604051808681526020018581526020018473ffffffffffffffffffffffffffffffffffffffff1673ffffffffffffffffffffffffffffffffffffffff16815260200180602001838152602001828103825284818151815260200191508051906020019080838360005b83811015610532578082015181840152602081019050610517565b50505050905090810190601f16801561055f5780820380516001836020036101000a031916815260200191505b50965050505050505060405180910390f35b34801561057d57600080fd5b5061059c60048036038101908080359060200190929190505050610de1565b604051808773ffffffffffffffffffffffffffffffffffffffff1673ffffffffffffffffffffffffffffffffffffffff16815260200186815260200180602001858152602001848152602001838152602001828103825286818151815260200191508051906020019080838360005b8381101561062657808201518184015260208101905061060b565b50505050905090810190601f1680156106535780820380516001836020036101000a031916815260200191505b5097505050505050505060405180910390f35b34801561067257600080fd5b506106f760048036038101908080359060200190929190803590602001908201803590602001908080601f0160208091040260200160405190810160405280939291908181526020018383808284378201915050505050509192919290803573ffffffffffffffffffffffffffffffffffffffff169060200190929190505050610efa565b6040518082815260200191505060405180910390f35b60008181548110151561071c57fe5b90600052602060002090600602016000915090508060000154908060010154908060020160009054906101000a900473ffffffffffffffffffffffffffffffffffffffff1690806003018054600181600116156101000203166002900480601f0160208091040260200160405190810160405280929190818152602001828054600181600116156101000203166002900480156107fa5780601f106107cf576101008083540402835291602001916107fa565b820191906000526020600020905b8154815290600101906020018083116107dd57829003601f168201915b505050505090806004015490806005018054600181600116156101000203166002900480601f01602080910402602001604051908101604052809291908181526020018280546001816001161561010002031660029004801561089e5780601f106108735761010080835404028352916020019161089e565b820191906000526020600020905b81548152906001019060200180831161088157829003601f168201915b5050505050905086565b6001818154811015156108b757fe5b90600052602060002090600702016000915090508060000160009054906101000a900473ffffffffffffffffffffffffffffffffffffffff1690806001015490806002018054600181600116156101000203166002900480601f01602080910402602001604051908101604052809291908181526020018280546001816001161561010002031660029004801561098f5780601f106109645761010080835404028352916020019161098f565b820191906000526020600020905b81548152906001019060200180831161097257829003601f168201915b505050505090806003015490806004015490806005015490806006018054600181600116156101000203166002900480601f016020809104026020016040519081016040528092919081815260200182805460018160011615610100020316600290048015610a3f5780601f10610a1457610100808354040283529160200191610a3f565b820191906000526020600020905b815481529060010190602001808311610a2257829003601f168201915b5050505050905087565b60008060018054809190600101610a609190610fb1565b9150600182815481101515610a7157fe5b90600052602060002090600702019050818160010181905550828160000160006101000a81548173ffffffffffffffffffffffffffffffffffffffff021916908373ffffffffffffffffffffffffffffffffffffffff16021790555083816002019080519060200190610ae5929190610fe3565b5042816003018190555060008160040181905550600081600501819055505092915050565b60008080549050905090565b6000600180549050905090565b6000600183815481101515610b3457fe5b906000526020600020906007020190506001821415610bd55780600401600081548092919060010191905055507f54a8ca358ef57f5199692f9accebf1cea9c3b6a6351db8b1976a3283f3c7caa5338260040154604051808373ffffffffffffffffffffffffffffffffffffffff1673ffffffffffffffffffffffffffffffffffffffff1681526020018281526020019250505060405180910390a1610ccb565b6000821415610c665780600501600081548092919060010191905055507fb0f1a350a68ca81aea495057b739a0ab46613ea46337a4ecf18a0e5891b22423338260050154604051808373ffffffffffffffffffffffffffffffffffffffff1673ffffffffffffffffffffffffffffffffffffffff1681526020018281526020019250505060405180910390a1610cca565b7f7c153d1a9d147fafdf065d15a62aca5b9ae7c237b3f61826022605c14aa265fb33604051808273ffffffffffffffffffffffffffffffffffffffff1673ffffffffffffffffffffffffffffffffffffffff16815260200191505060405180910390a15b5b505050565b60008060006060600080600087815481101515610ce957fe5b90600052602060002090600602019050806000015481600101548260020160009054906101000a900473ffffffffffffffffffffffffffffffffffffffff16836003018460040154818054600181600116156101000203166002900480601f016020809104026020016040519081016040528092919081815260200182805460018160011615610100020316600290048015610dc65780601f10610d9b57610100808354040283529160200191610dc6565b820191906000526020600020905b815481529060010190602001808311610da957829003601f168201915b50505050509150955095509550955095505091939590929450565b6000806060600080600080600188815481101515610dfb57fe5b906000526020600020906007020190508060000160009054906101000a900473ffffffffffffffffffffffffffffffffffffffff16816001015482600201836003015484600401548560050154838054600181600116156101000203166002900480601f016020809104026020016040519081016040528092919081815260200182805460018160011615610100020316600290048015610edd5780601f10610eb257610100808354040283529160200191610edd565b820191906000526020600020905b815481529060010190602001808311610ec057829003601f168201915b505050505093509650965096509650965096505091939550919395565b60008060008054809190600101610f119190611063565b9150600082815481101515610f2257fe5b90600052602060002090600602019050818160000181905550848160010181905550828160020160006101000a81548173ffffffffffffffffffffffffffffffffffffffff021916908373ffffffffffffffffffffffffffffffffffffffff16021790555083816003019080519060200190610f9f929190610fe3565b50428160040181905550509392505050565b815481835581811115610fde57600702816007028360005260206000209182019101610fdd9190611095565b5b505050565b828054600181600116156101000203166002900490600052602060002090601f016020900481019282601f1061102457805160ff1916838001178555611052565b82800160010185558215611052579182015b82811115611051578251825591602001919060010190611036565b5b50905061105f919061111b565b5090565b8154818355818111156110905760060281600602836000526020600020918201910161108f9190611140565b5b505050565b61111891905b8082111561111457600080820160006101000a81549073ffffffffffffffffffffffffffffffffffffffff021916905560018201600090556002820160006110e391906111be565b60038201600090556004820160009055600582016000905560068201600061110b91906111be565b5060070161109b565b5090565b90565b61113d91905b80821115611139576000816000905550600101611121565b5090565b90565b6111bb91905b808211156111b75760008082016000905560018201600090556002820160006101000a81549073ffffffffffffffffffffffffffffffffffffffff021916905560038201600061119691906111be565b60048201600090556005820160006111ae91906111be565b50600601611146565b5090565b90565b50805460018160011615610100020316600290046000825580601f106111e45750611203565b601f016020900490600052602060002090810190611202919061111b565b5b505600a165627a7a7230582035d6b56e424ab8e0bde80a8613df5096412708f791db67a201727a447b006dde0029",
  "source": "pragma solidity^ 0.4.23;\r\n\r\nimport \"./Shareholder.sol\";\r\n\r\ncontract QandA {\r\n\r\n    // answer object used by the director\r\n    struct Answer {\r\n        uint answerId;\r\n        uint questionId;\r\n        address answerCreator;\r\n        string content;\r\n        uint timestamp;\r\n        string ipfs_hash; \r\n    }\r\n\r\n    struct Question {\r\n        address creator;\r\n        uint questionId;\r\n        string content;\r\n        uint timestamp;\r\n        uint upvotes;\r\n        uint downvotes;\r\n        string ipfs_hash;\r\n    }\r\n\r\n    // storing the answers of directors\r\n    Answer[] public answers;\r\n    // storing the questions of shareholders\r\n    Question[] public questions;\r\n\r\n    event InvalidRatingOption(address invoker);\r\n    event QuestionUpvote(address invoker, uint numUpvotes);\r\n    event QuestionDownvote(address invoker, uint numDownvotes);\r\n\r\n    function getAnswer(uint answerId) public view returns (\r\n        uint _answerId,\r\n        uint _questionId,\r\n        address _answerCreator,\r\n        string _content,\r\n        uint _timestamp\r\n    ) {\r\n\r\n        Answer storage answer = answers[answerId];\r\n        return \r\n            (answer.answerId, answer.questionId, answer.answerCreator, answer.content, answer.timestamp);\r\n    }\r\n\r\n    function getNumOfAnswers() public view returns (uint length) {\r\n        return answers.length;\r\n    }\r\n\r\n    function createNewAnswer(uint _questionId, string _content, address sender) public returns(uint answId) {\r\n\r\n        answId = answers.length++;\r\n        Answer storage answer = answers[answId];\r\n        answer.answerId = answId;\r\n        answer.questionId = _questionId;\r\n        answer.answerCreator = sender;\r\n        answer.content = _content;\r\n        answer.timestamp = now;\r\n    }\r\n\r\n    function createNewQuestion(string _content, address sender) public returns (uint questId) {\r\n\r\n        questId = questions.length++;\r\n        Question storage question = questions[questId];\r\n        question.questionId = questId;\r\n        question.creator = sender;\r\n        question.content = _content;\r\n        question.timestamp = now;\r\n        question.upvotes = 0;\r\n        question.downvotes = 0;\r\n    }\r\n\r\n    function getNumOfQuestions() public view returns (uint length) {\r\n        return questions.length;\r\n    }\r\n\r\n    function getQuestion(uint questionId) public view returns (\r\n        address _creator,\r\n        uint _questionId,\r\n        string _content,\r\n        uint _timestamp,\r\n        uint _upvotes,\r\n        uint _downvotes\r\n    ) {\r\n        Question storage question = questions[questionId];\r\n        return\r\n            (question.creator, question.questionId, question.content, question.timestamp, question.upvotes, question.downvotes);\r\n    }\r\n\r\n    function setRating(uint questionId, uint ratingOpt) public {\r\n\r\n        Question storage question = questions[questionId];\r\n        if (ratingOpt == 1) {\r\n            question.upvotes++;\r\n            emit QuestionUpvote(msg.sender, question.upvotes);\r\n        } else if (ratingOpt == 0) {\r\n            question.downvotes++;\r\n            emit QuestionDownvote(msg.sender, question.downvotes);\r\n        } else {\r\n            emit InvalidRatingOption(msg.sender);\r\n        }\r\n    }\r\n\r\n}",
  "sourcePath": "D:\\Git\\repo\\ShareholderMeeting\\solidity\\contracts\\QandA.sol",
  "compiler": {
    "name": "solc",
    "version": "0.4.24+commit.e67f0147.Emscripten.clang"
  },
  "schemaVersion": "2.0.1",
  "updatedAt": "2018-08-03T12:13:34.681Z"
}