{
  "contractName": "Shareholder",
  "abi": [
    {
      "constant": true,
      "inputs": [
        {
          "name": "",
          "type": "uint256"
        }
      ],
      "name": "proposals",
      "outputs": [
        {
          "name": "proposalId",
          "type": "uint256"
        },
        {
          "name": "name",
          "type": "string"
        },
        {
          "name": "description",
          "type": "string"
        },
        {
          "name": "options",
          "type": "string"
        },
        {
          "name": "proposalPassed",
          "type": "bool"
        },
        {
          "name": "passedPercent",
          "type": "uint256"
        },
        {
          "name": "voteCount",
          "type": "uint256"
        }
      ],
      "payable": false,
      "stateMutability": "view",
      "type": "function"
    },
    {
      "constant": true,
      "inputs": [],
      "name": "isDirector",
      "outputs": [
        {
          "name": "",
          "type": "bool"
        }
      ],
      "payable": false,
      "stateMutability": "view",
      "type": "function"
    },
    {
      "constant": true,
      "inputs": [
        {
          "name": "",
          "type": "uint256"
        }
      ],
      "name": "questions",
      "outputs": [
        {
          "name": "creator",
          "type": "address"
        },
        {
          "name": "questionId",
          "type": "uint256"
        },
        {
          "name": "content",
          "type": "string"
        },
        {
          "name": "timestamp",
          "type": "uint256"
        },
        {
          "name": "upvotes",
          "type": "uint256"
        },
        {
          "name": "downvotes",
          "type": "uint256"
        }
      ],
      "payable": false,
      "stateMutability": "view",
      "type": "function"
    },
    {
      "constant": true,
      "inputs": [
        {
          "name": "",
          "type": "uint256"
        }
      ],
      "name": "shareholders",
      "outputs": [
        {
          "name": "",
          "type": "address"
        }
      ],
      "payable": false,
      "stateMutability": "view",
      "type": "function"
    },
    {
      "constant": true,
      "inputs": [],
      "name": "state",
      "outputs": [
        {
          "name": "",
          "type": "address"
        }
      ],
      "payable": false,
      "stateMutability": "view",
      "type": "function"
    },
    {
      "constant": true,
      "inputs": [
        {
          "name": "name",
          "type": "string"
        }
      ],
      "name": "getProposalIdByName",
      "outputs": [
        {
          "name": "proposalId",
          "type": "uint256"
        }
      ],
      "payable": false,
      "stateMutability": "view",
      "type": "function"
    },
    {
      "constant": true,
      "inputs": [
        {
          "name": "proposalId",
          "type": "uint256"
        }
      ],
      "name": "getProposal",
      "outputs": [
        {
          "name": "_proposalId",
          "type": "uint256"
        },
        {
          "name": "_name",
          "type": "string"
        },
        {
          "name": "_description",
          "type": "string"
        },
        {
          "name": "_options",
          "type": "string"
        },
        {
          "name": "_proposalPassed",
          "type": "bool"
        },
        {
          "name": "_passedPercent",
          "type": "uint256"
        },
        {
          "name": "_voteCount",
          "type": "uint256"
        }
      ],
      "payable": false,
      "stateMutability": "view",
      "type": "function"
    },
    {
      "constant": true,
      "inputs": [],
      "name": "delegate",
      "outputs": [
        {
          "name": "",
          "type": "address"
        }
      ],
      "payable": false,
      "stateMutability": "view",
      "type": "function"
    },
    {
      "constant": true,
      "inputs": [],
      "name": "getNumOfProposals",
      "outputs": [
        {
          "name": "length",
          "type": "uint256"
        }
      ],
      "payable": false,
      "stateMutability": "view",
      "type": "function"
    },
    {
      "constant": true,
      "inputs": [],
      "name": "userAddress",
      "outputs": [
        {
          "name": "",
          "type": "address"
        }
      ],
      "payable": false,
      "stateMutability": "view",
      "type": "function"
    },
    {
      "constant": true,
      "inputs": [
        {
          "name": "",
          "type": "address"
        }
      ],
      "name": "votingTokens",
      "outputs": [
        {
          "name": "",
          "type": "uint256"
        }
      ],
      "payable": false,
      "stateMutability": "view",
      "type": "function"
    },
    {
      "inputs": [
        {
          "name": "userAddress",
          "type": "address"
        },
        {
          "name": "_votingTokens",
          "type": "uint256"
        }
      ],
      "payable": false,
      "stateMutability": "nonpayable",
      "type": "constructor"
    },
    {
      "anonymous": false,
      "inputs": [
        {
          "indexed": false,
          "name": "invoker",
          "type": "address"
        }
      ],
      "name": "InvalidRatingOption",
      "type": "event"
    },
    {
      "anonymous": false,
      "inputs": [
        {
          "indexed": false,
          "name": "invoker",
          "type": "address"
        },
        {
          "indexed": false,
          "name": "numUpvotes",
          "type": "uint256"
        }
      ],
      "name": "QuestionUpvote",
      "type": "event"
    },
    {
      "anonymous": false,
      "inputs": [
        {
          "indexed": false,
          "name": "invoker",
          "type": "address"
        },
        {
          "indexed": false,
          "name": "numDownvotes",
          "type": "uint256"
        }
      ],
      "name": "QuestionDownvote",
      "type": "event"
    },
    {
      "anonymous": false,
      "inputs": [
        {
          "indexed": false,
          "name": "questionId",
          "type": "uint256"
        },
        {
          "indexed": false,
          "name": "creator",
          "type": "address"
        }
      ],
      "name": "QuestionCreated",
      "type": "event"
    },
    {
      "anonymous": false,
      "inputs": [
        {
          "indexed": false,
          "name": "invoker",
          "type": "address"
        },
        {
          "indexed": false,
          "name": "proposalId",
          "type": "uint256"
        },
        {
          "indexed": false,
          "name": "votingOption",
          "type": "string"
        }
      ],
      "name": "Voted",
      "type": "event"
    },
    {
      "anonymous": false,
      "inputs": [
        {
          "indexed": false,
          "name": "userAddress",
          "type": "address"
        },
        {
          "indexed": false,
          "name": "weight",
          "type": "uint256"
        }
      ],
      "name": "VoterWeight",
      "type": "event"
    },
    {
      "anonymous": false,
      "inputs": [
        {
          "indexed": false,
          "name": "sender",
          "type": "address"
        },
        {
          "indexed": false,
          "name": "votingTokens",
          "type": "uint256"
        },
        {
          "indexed": false,
          "name": "proxy",
          "type": "address"
        }
      ],
      "name": "DelegatedFrom",
      "type": "event"
    },
    {
      "anonymous": false,
      "inputs": [],
      "name": "Log",
      "type": "event"
    },
    {
      "anonymous": false,
      "inputs": [
        {
          "indexed": false,
          "name": "exists",
          "type": "bool"
        }
      ],
      "name": "UserExists",
      "type": "event"
    },
    {
      "constant": false,
      "inputs": [
        {
          "name": "proposalId",
          "type": "uint256"
        },
        {
          "name": "votingOption",
          "type": "string"
        }
      ],
      "name": "vote",
      "outputs": [],
      "payable": false,
      "stateMutability": "nonpayable",
      "type": "function"
    },
    {
      "constant": false,
      "inputs": [
        {
          "name": "_content",
          "type": "string"
        }
      ],
      "name": "createQuestion",
      "outputs": [
        {
          "name": "id",
          "type": "uint256"
        }
      ],
      "payable": false,
      "stateMutability": "nonpayable",
      "type": "function"
    },
    {
      "constant": false,
      "inputs": [
        {
          "name": "questionId",
          "type": "uint256"
        },
        {
          "name": "ratingOpt",
          "type": "uint8"
        }
      ],
      "name": "rateQuestion",
      "outputs": [],
      "payable": false,
      "stateMutability": "nonpayable",
      "type": "function"
    },
    {
      "constant": true,
      "inputs": [],
      "name": "getNumOfQuestions",
      "outputs": [
        {
          "name": "length",
          "type": "uint256"
        }
      ],
      "payable": false,
      "stateMutability": "view",
      "type": "function"
    },
    {
      "constant": true,
      "inputs": [
        {
          "name": "questionId",
          "type": "uint256"
        }
      ],
      "name": "getQuestion",
      "outputs": [
        {
          "name": "_creator",
          "type": "address"
        },
        {
          "name": "_questionId",
          "type": "uint256"
        },
        {
          "name": "_content",
          "type": "string"
        },
        {
          "name": "_timestamp",
          "type": "uint256"
        },
        {
          "name": "_upvotes",
          "type": "uint256"
        },
        {
          "name": "_downvotes",
          "type": "uint256"
        }
      ],
      "payable": false,
      "stateMutability": "view",
      "type": "function"
    },
    {
      "constant": false,
      "inputs": [
        {
          "name": "_userAddress",
          "type": "address"
        }
      ],
      "name": "getVoterWeight",
      "outputs": [
        {
          "name": "weight",
          "type": "uint256"
        }
      ],
      "payable": false,
      "stateMutability": "nonpayable",
      "type": "function"
    },
    {
      "constant": true,
      "inputs": [
        {
          "name": "shareholderId",
          "type": "uint256"
        }
      ],
      "name": "getShareholder",
      "outputs": [
        {
          "name": "_userAddress",
          "type": "address"
        },
        {
          "name": "_isDirector",
          "type": "bool"
        },
        {
          "name": "_delegate",
          "type": "address"
        }
      ],
      "payable": false,
      "stateMutability": "view",
      "type": "function"
    },
    {
      "constant": true,
      "inputs": [],
      "name": "getNumOfShareholders",
      "outputs": [
        {
          "name": "length",
          "type": "uint256"
        }
      ],
      "payable": false,
      "stateMutability": "view",
      "type": "function"
    },
    {
      "constant": true,
      "inputs": [
        {
          "name": "_userAddress",
          "type": "address"
        }
      ],
      "name": "isShareholder",
      "outputs": [
        {
          "name": "isSharehold",
          "type": "bool"
        }
      ],
      "payable": false,
      "stateMutability": "view",
      "type": "function"
    }
  ],
  "bytecode": "0x608060405234801561001057600080fd5b506040516040806125b98339810180604052810190808051906020019092919080519060200190929190505050816000816000806101000a81548173ffffffffffffffffffffffffffffffffffffffff021916908373ffffffffffffffffffffffffffffffffffffffff16021790555080600060146101000a81548160ff021916908315150217905550505080600260008473ffffffffffffffffffffffffffffffffffffffff1673ffffffffffffffffffffffffffffffffffffffff168152602001908152602001600020819055506000600360006101000a81548173ffffffffffffffffffffffffffffffffffffffff021916908373ffffffffffffffffffffffffffffffffffffffff1602179055505050612486806101336000396000f300608060405260043610610112576000357c0100000000000000000000000000000000000000000000000000000000900463ffffffff168063013cf08b146101175780631ad8af8d146102b557806324108475146102e457806331b1b978146103575780633ecb486a1461044c5780636ccb5d0214610477578063ab377daa14610522578063b3580c1e1461058f578063b89a73cb1461060c578063c19d93fb14610667578063c505e836146106be578063c7f758a81461073b578063c89e4361146108d9578063c8caf9e514610930578063d328e84d1461095b578063d85c91ae14610986578063db88176f146109dd578063e4128fb314610ad2578063eca964e314610b29578063f1c7cfb314610b80575b600080fd5b34801561012357600080fd5b5061014260048036038101908080359060200190929190505050610bba565b604051808881526020018060200180602001806020018715151515815260200186815260200185815260200184810384528a818151815260200191508051906020019080838360005b838110156101a657808201518184015260208101905061018b565b50505050905090810190601f1680156101d35780820380516001836020036101000a031916815260200191505b50848103835289818151815260200191508051906020019080838360005b8381101561020c5780820151818401526020810190506101f1565b50505050905090810190601f1680156102395780820380516001836020036101000a031916815260200191505b50848103825288818151815260200191508051906020019080838360005b83811015610272578082015181840152602081019050610257565b50505050905090810190601f16801561029f5780820380516001836020036101000a031916815260200191505b509a505050505050505050505060405180910390f35b3480156102c157600080fd5b506102ca610de0565b604051808215151515815260200191505060405180910390f35b3480156102f057600080fd5b5061035560048036038101908080359060200190929190803590602001908201803590602001908080601f0160208091040260200160405190810160405280939291908181526020018383808284378201915050505050509192919290505050610df3565b005b34801561036357600080fd5b5061038260048036038101908080359060200190929190505050611037565b604051808773ffffffffffffffffffffffffffffffffffffffff1673ffffffffffffffffffffffffffffffffffffffff16815260200186815260200180602001858152602001848152602001838152602001828103825286818151815260200191508051906020019080838360005b8381101561040c5780820151818401526020810190506103f1565b50505050905090810190601f1680156104395780820380516001836020036101000a031916815260200191505b5097505050505050505060405180910390f35b34801561045857600080fd5b5061046161113a565b6040518082815260200191505060405180910390f35b34801561048357600080fd5b506104a260048036038101908080359060200190929190505050611147565b604051808473ffffffffffffffffffffffffffffffffffffffff1673ffffffffffffffffffffffffffffffffffffffff168152602001831515151581526020018273ffffffffffffffffffffffffffffffffffffffff1673ffffffffffffffffffffffffffffffffffffffff168152602001935050505060405180910390f35b34801561052e57600080fd5b5061054d60048036038101908080359060200190929190505050611374565b604051808273ffffffffffffffffffffffffffffffffffffffff1673ffffffffffffffffffffffffffffffffffffffff16815260200191505060405180910390f35b34801561059b57600080fd5b506105f6600480360381019080803590602001908201803590602001908080601f01602080910402602001604051908101604052809392919081815260200183838082843782019150505050505091929192905050506113b2565b6040518082815260200191505060405180910390f35b34801561061857600080fd5b5061064d600480360381019080803573ffffffffffffffffffffffffffffffffffffffff1690602001909291905050506114dd565b604051808215151515815260200191505060405180910390f35b34801561067357600080fd5b5061067c61167d565b604051808273ffffffffffffffffffffffffffffffffffffffff1673ffffffffffffffffffffffffffffffffffffffff16815260200191505060405180910390f35b3480156106ca57600080fd5b50610725600480360381019080803590602001908201803590602001908080601f01602080910402602001604051908101604052809392919081815260200183838082843782019150505050505091929192905050506116a3565b6040518082815260200191505060405180910390f35b34801561074757600080fd5b50610766600480360381019080803590602001909291905050506117cd565b604051808881526020018060200180602001806020018715151515815260200186815260200185815260200184810384528a818151815260200191508051906020019080838360005b838110156107ca5780820151818401526020810190506107af565b50505050905090810190601f1680156107f75780820380516001836020036101000a031916815260200191505b50848103835289818151815260200191508051906020019080838360005b83811015610830578082015181840152602081019050610815565b50505050905090810190601f16801561085d5780820380516001836020036101000a031916815260200191505b50848103825288818151815260200191508051906020019080838360005b8381101561089657808201518184015260208101905061087b565b50505050905090810190601f1680156108c35780820380516001836020036101000a031916815260200191505b509a505050505050505050505060405180910390f35b3480156108e557600080fd5b506108ee611a14565b604051808273ffffffffffffffffffffffffffffffffffffffff1673ffffffffffffffffffffffffffffffffffffffff16815260200191505060405180910390f35b34801561093c57600080fd5b50610945611a3a565b6040518082815260200191505060405180910390f35b34801561096757600080fd5b50610970611a47565b6040518082815260200191505060405180910390f35b34801561099257600080fd5b506109c7600480360381019080803573ffffffffffffffffffffffffffffffffffffffff169060200190929190505050611a54565b6040518082815260200191505060405180910390f35b3480156109e957600080fd5b50610a0860048036038101908080359060200190929190505050611e8f565b604051808773ffffffffffffffffffffffffffffffffffffffff1673ffffffffffffffffffffffffffffffffffffffff16815260200186815260200180602001858152602001848152602001838152602001828103825286818151815260200191508051906020019080838360005b83811015610a92578082015181840152602081019050610a77565b50505050905090810190601f168015610abf5780820380516001836020036101000a031916815260200191505b5097505050505050505060405180910390f35b348015610ade57600080fd5b50610ae7611fa8565b604051808273ffffffffffffffffffffffffffffffffffffffff1673ffffffffffffffffffffffffffffffffffffffff16815260200191505060405180910390f35b348015610b3557600080fd5b50610b6a600480360381019080803573ffffffffffffffffffffffffffffffffffffffff169060200190929190505050611fcd565b6040518082815260200191505060405180910390f35b348015610b8c57600080fd5b50610bb860048036038101908080359060200190929190803560ff169060200190929190505050611fe5565b005b600181815481101515610bc957fe5b9060005260206000209060090201600091509050806000015490806001018054600181600116156101000203166002900480601f016020809104026020016040519081016040528092919081815260200182805460018160011615610100020316600290048015610c7b5780601f10610c5057610100808354040283529160200191610c7b565b820191906000526020600020905b815481529060010190602001808311610c5e57829003601f168201915b505050505090806002018054600181600116156101000203166002900480601f016020809104026020016040519081016040528092919081815260200182805460018160011615610100020316600290048015610d195780601f10610cee57610100808354040283529160200191610d19565b820191906000526020600020905b815481529060010190602001808311610cfc57829003601f168201915b505050505090806003018054600181600116156101000203166002900480601f016020809104026020016040519081016040528092919081815260200182805460018160011615610100020316600290048015610db75780601f10610d8c57610100808354040283529160200191610db7565b820191906000526020600020905b815481529060010190602001808311610d9a57829003601f168201915b5050505050908060040160009054906101000a900460ff16908060050154908060060154905087565b600060149054906101000a900460ff1681565b600080600184815481101515610e0557fe5b90600052602060002090600902019150816007018054809190600101610e2b91906121bd565b905060408051908101604052803373ffffffffffffffffffffffffffffffffffffffff168152602001848152508260070182815481101515610e6957fe5b906000526020600020906002020160008201518160000160006101000a81548173ffffffffffffffffffffffffffffffffffffffff021916908373ffffffffffffffffffffffffffffffffffffffff1602179055506020820151816001019080519060200190610eda9291906121ef565b5090505060018260080160003373ffffffffffffffffffffffffffffffffffffffff1673ffffffffffffffffffffffffffffffffffffffff16815260200190815260200160002060006101000a81548160ff0219169083151502179055507f497ac9c2d8b6e7ea7204365157d9642f36d2b6125352bfa6d0a73328142d0bd96000809054906101000a900473ffffffffffffffffffffffffffffffffffffffff168585604051808473ffffffffffffffffffffffffffffffffffffffff1673ffffffffffffffffffffffffffffffffffffffff16815260200183815260200180602001828103825283818151815260200191508051906020019080838360005b83811015610ff5578082015181840152602081019050610fda565b50505050905090810190601f1680156110225780820380516001836020036101000a031916815260200191505b5094505050505060405180910390a150505050565b60058181548110151561104657fe5b90600052602060002090600602016000915090508060000160009054906101000a900473ffffffffffffffffffffffffffffffffffffffff1690806001015490806002018054600181600116156101000203166002900480601f01602080910402602001604051908101604052809291908181526020018280546001816001161561010002031660029004801561111e5780601f106110f35761010080835404028352916020019161111e565b820191906000526020600020905b81548152906001019060200180831161110157829003601f168201915b5050505050908060030154908060040154908060050154905086565b6000600580549050905090565b60008060008060068581548110151561115c57fe5b9060005260206000200160009054906101000a900473ffffffffffffffffffffffffffffffffffffffff1690508073ffffffffffffffffffffffffffffffffffffffff1663e4128fb36040518163ffffffff167c0100000000000000000000000000000000000000000000000000000000028152600401602060405180830381600087803b1580156111ed57600080fd5b505af1158015611201573d6000803e3d6000fd5b505050506040513d602081101561121757600080fd5b81019080805190602001909291905050508173ffffffffffffffffffffffffffffffffffffffff16631ad8af8d6040518163ffffffff167c0100000000000000000000000000000000000000000000000000000000028152600401602060405180830381600087803b15801561128c57600080fd5b505af11580156112a0573d6000803e3d6000fd5b505050506040513d60208110156112b657600080fd5b81019080805190602001909291905050508273ffffffffffffffffffffffffffffffffffffffff1663c89e43616040518163ffffffff167c0100000000000000000000000000000000000000000000000000000000028152600401602060405180830381600087803b15801561132b57600080fd5b505af115801561133f573d6000803e3d6000fd5b505050506040513d602081101561135557600080fd5b8101908080519060200190929190505050935093509350509193909250565b60068181548110151561138357fe5b906000526020600020016000915054906101000a900473ffffffffffffffffffffffffffffffffffffffff1681565b600080600580548091906001016113c9919061226f565b91506005828154811015156113da57fe5b90600052602060002090600602019050818160010181905550338160000160006101000a81548173ffffffffffffffffffffffffffffffffffffffff021916908373ffffffffffffffffffffffffffffffffffffffff1602179055508281600201908051906020019061144e9291906122a1565b5042816003018190555060008160040181905550600081600501819055507fe507074282a0f805a6f370a3dfca4b5578056337d6fe37524243a02ca7a3cae18233604051808381526020018273ffffffffffffffffffffffffffffffffffffffff1673ffffffffffffffffffffffffffffffffffffffff1681526020019250505060405180910390a150919050565b6000600460009054906101000a900473ffffffffffffffffffffffffffffffffffffffff1673ffffffffffffffffffffffffffffffffffffffff16636f77926b836040518263ffffffff167c0100000000000000000000000000000000000000000000000000000000028152600401808273ffffffffffffffffffffffffffffffffffffffff1673ffffffffffffffffffffffffffffffffffffffff168152602001915050602060405180830381600087803b15801561159c57600080fd5b505af11580156115b0573d6000803e3d6000fd5b505050506040513d60208110156115c657600080fd5b810190808051906020019092919050505073ffffffffffffffffffffffffffffffffffffffff16631ad8af8d6040518163ffffffff167c0100000000000000000000000000000000000000000000000000000000028152600401602060405180830381600087803b15801561163a57600080fd5b505af115801561164e573d6000803e3d6000fd5b505050506040513d602081101561166457600080fd5b8101908080519060200190929190505050159050919050565b600460009054906101000a900473ffffffffffffffffffffffffffffffffffffffff1681565b600080600090505b6001805490508110156117c6576001818154811015156116c757fe5b906000526020600020906009020160010160405180828054600181600116156101000203166002900480156117335780601f10611711576101008083540402835291820191611733565b820191906000526020600020905b81548152906001019060200180831161171f575b5050915050604051809103902060001916836040518082805190602001908083835b60208310151561177a5780518252602082019150602081019050602083039250611755565b6001836020036101000a03801982511681845116808217855250505050505090500191505060405180910390206000191614156117b9578091506117c7565b80806001019150506116ab565b5b50919050565b600060608060606000806000806001898154811015156117e957fe5b9060005260206000209060090201905080600001548160010182600201836003018460040160009054906101000a900460ff1685600501548660060154858054600181600116156101000203166002900480601f0160208091040260200160405190810160405280929190818152602001828054600181600116156101000203166002900480156118bb5780601f10611890576101008083540402835291602001916118bb565b820191906000526020600020905b81548152906001019060200180831161189e57829003601f168201915b50505050509550848054600181600116156101000203166002900480601f0160208091040260200160405190810160405280929190818152602001828054600181600116156101000203166002900480156119575780601f1061192c57610100808354040283529160200191611957565b820191906000526020600020905b81548152906001019060200180831161193a57829003601f168201915b50505050509450838054600181600116156101000203166002900480601f0160208091040260200160405190810160405280929190818152602001828054600181600116156101000203166002900480156119f35780601f106119c8576101008083540402835291602001916119f3565b820191906000526020600020905b8154815290600101906020018083116119d657829003601f168201915b50505050509350975097509750975097509750975050919395979092949650565b600360009054906101000a900473ffffffffffffffffffffffffffffffffffffffff1681565b6000600680549050905090565b6000600180549050905090565b60008060009150600090505b600680549050811015611e1e578273ffffffffffffffffffffffffffffffffffffffff16600682815481101515611a9357fe5b9060005260206000200160009054906101000a900473ffffffffffffffffffffffffffffffffffffffff1673ffffffffffffffffffffffffffffffffffffffff1663c89e43616040518163ffffffff167c0100000000000000000000000000000000000000000000000000000000028152600401602060405180830381600087803b158015611b2157600080fd5b505af1158015611b35573d6000803e3d6000fd5b505050506040513d6020811015611b4b57600080fd5b810190808051906020019092919050505073ffffffffffffffffffffffffffffffffffffffff161415611c945760026000600683815481101515611b8b57fe5b9060005260206000200160009054906101000a900473ffffffffffffffffffffffffffffffffffffffff1673ffffffffffffffffffffffffffffffffffffffff1663e4128fb36040518163ffffffff167c0100000000000000000000000000000000000000000000000000000000028152600401602060405180830381600087803b158015611c1957600080fd5b505af1158015611c2d573d6000803e3d6000fd5b505050506040513d6020811015611c4357600080fd5b810190808051906020019092919050505073ffffffffffffffffffffffffffffffffffffffff1673ffffffffffffffffffffffffffffffffffffffff16815260200190815260200160002054820191505b600073ffffffffffffffffffffffffffffffffffffffff16600682815481101515611cbb57fe5b9060005260206000200160009054906101000a900473ffffffffffffffffffffffffffffffffffffffff1673ffffffffffffffffffffffffffffffffffffffff1663c89e43616040518163ffffffff167c0100000000000000000000000000000000000000000000000000000000028152600401602060405180830381600087803b158015611d4957600080fd5b505af1158015611d5d573d6000803e3d6000fd5b505050506040513d6020811015611d7357600080fd5b810190808051906020019092919050505073ffffffffffffffffffffffffffffffffffffffff161415611e11577f5e7df75d54e493185612379c616118a4c9ac802de621b010c96f74d22df4b30a60405160405180910390a1600260008473ffffffffffffffffffffffffffffffffffffffff1673ffffffffffffffffffffffffffffffffffffffff16815260200190815260200160002054820191505b8080600101915050611a60565b7ffdbe8f945bf97c075bba2c511a72a7d17c00fdc75ce28126f7da85da4f4648948383604051808373ffffffffffffffffffffffffffffffffffffffff1673ffffffffffffffffffffffffffffffffffffffff1681526020018281526020019250505060405180910390a150919050565b6000806060600080600080600588815481101515611ea957fe5b906000526020600020906006020190508060000160009054906101000a900473ffffffffffffffffffffffffffffffffffffffff16816001015482600201836003015484600401548560050154838054600181600116156101000203166002900480601f016020809104026020016040519081016040528092919081815260200182805460018160011615610100020316600290048015611f8b5780601f10611f6057610100808354040283529160200191611f8b565b820191906000526020600020905b815481529060010190602001808311611f6e57829003601f168201915b505050505093509650965096509650965096505091939550919395565b6000809054906101000a900473ffffffffffffffffffffffffffffffffffffffff1681565b60026020528060005260406000206000915090505481565b6000600583815481101515611ff657fe5b9060005260206000209060060201905060018081111561201257fe5b82600181111561201e57fe5b14156120ac5780600401600081548092919060010191905055507f54a8ca358ef57f5199692f9accebf1cea9c3b6a6351db8b1976a3283f3c7caa5338260040154604051808373ffffffffffffffffffffffffffffffffffffffff1673ffffffffffffffffffffffffffffffffffffffff1681526020018281526020019250505060405180910390a16121b8565b600060018111156120b957fe5b8260018111156120c557fe5b14156121535780600501600081548092919060010191905055507fb0f1a350a68ca81aea495057b739a0ab46613ea46337a4ecf18a0e5891b22423338260050154604051808373ffffffffffffffffffffffffffffffffffffffff1673ffffffffffffffffffffffffffffffffffffffff1681526020018281526020019250505060405180910390a16121b7565b7f7c153d1a9d147fafdf065d15a62aca5b9ae7c237b3f61826022605c14aa265fb33604051808273ffffffffffffffffffffffffffffffffffffffff1673ffffffffffffffffffffffffffffffffffffffff16815260200191505060405180910390a15b5b505050565b8154818355818111156121ea576002028160020283600052602060002091820191016121e99190612321565b5b505050565b828054600181600116156101000203166002900490600052602060002090601f016020900481019282601f1061223057805160ff191683800117855561225e565b8280016001018555821561225e579182015b8281111561225d578251825591602001919060010190612242565b5b50905061226b9190612377565b5090565b81548183558181111561229c5760060281600602836000526020600020918201910161229b919061239c565b5b505050565b828054600181600116156101000203166002900490600052602060002090601f016020900481019282601f106122e257805160ff1916838001178555612310565b82800160010185558215612310579182015b8281111561230f5782518255916020019190600101906122f4565b5b50905061231d9190612377565b5090565b61237491905b8082111561237057600080820160006101000a81549073ffffffffffffffffffffffffffffffffffffffff02191690556001820160006123679190612412565b50600201612327565b5090565b90565b61239991905b8082111561239557600081600090555060010161237d565b5090565b90565b61240f91905b8082111561240b57600080820160006101000a81549073ffffffffffffffffffffffffffffffffffffffff021916905560018201600090556002820160006123ea9190612412565b600382016000905560048201600090556005820160009055506006016123a2565b5090565b90565b50805460018160011615610100020316600290046000825580601f106124385750612457565b601f0160209004906000526020600020908101906124569190612377565b5b505600a165627a7a723058200015204f642ac8d1dc51a531c393b4eaff0cd288829ea10d8cac6552f102871a0029",
  "source": "pragma solidity ^0.4.23;\r\n\r\nimport \"./User.sol\";\r\nimport \"./AgmOwner.sol\";\r\nimport \"./Voter.sol\";\r\nimport \"./State.sol\";\r\n\r\ncontract Shareholder is User, Voter {\r\n\r\n    address public delegate;\r\n    State public state;\r\n\r\n    //mapping(address => Delegate[]) delegations;\r\n    Question[] public questions;\r\n    Shareholder[] public shareholders;\r\n\r\n    enum RatingOption {DOWNVOTE, UPVOTE}\r\n\r\n    struct Question {\r\n        address creator;\r\n        uint questionId;\r\n        string content;\r\n        uint timestamp;\r\n        uint upvotes;\r\n        uint downvotes;\r\n    }\r\n\r\n    /*struct Delegate {\r\n        address proxy;\r\n        uint votingTok;\r\n    }*/\r\n\r\n    modifier onlyShareholder {\r\n        require((!this.isDirector()) && (votingTokens[msg.sender] > 0));\r\n        _;\r\n    }\r\n\r\n    constructor(address userAddress, uint _votingTokens) \r\n        User(userAddress, false) public {\r\n        \r\n        votingTokens[userAddress] = _votingTokens;\r\n        delegate = address(0);\r\n    }\r\n    \r\n    event InvalidRatingOption(address invoker);\r\n    event QuestionUpvote(address invoker, uint numUpvotes);\r\n    event QuestionDownvote(address invoker, uint numDownvotes);\r\n    event QuestionCreated(uint questionId, address creator);\r\n    event Voted(address invoker, uint proposalId, string votingOption);\r\n    event VoterWeight(address userAddress, uint weight);\r\n    event DelegatedFrom(address sender, uint votingTokens, address proxy);\r\n    event Log();\r\n\r\n    function vote(uint proposalId, string votingOption) public {\r\n        Proposal storage prop = proposals[proposalId];\r\n        \r\n        /*require(!prop.votedOnProposal[msg.sender], \"The shareholder already voted\");\r\n        require(delegate == address(0), \"Proxy is not allowed to vote\");*/\r\n\r\n        uint voteId = prop.votes.length++;\r\n        prop.votes[voteId] = Vote({voterAddress: msg.sender, voterDecision: votingOption});\r\n        prop.votedOnProposal[msg.sender] = true;    \r\n        \r\n        emit Voted(userAddress, proposalId, votingOption);\r\n    }\r\n\r\n    function createQuestion(string _content) public returns (uint id) {\r\n        id = questions.length++;\r\n        Question storage question = questions[id];\r\n        question.questionId = id;\r\n        question.creator = msg.sender;\r\n        question.content = _content;\r\n        question.timestamp = now;\r\n        question.upvotes = 0;\r\n        question.downvotes = 0;\r\n\r\n        emit QuestionCreated(id, msg.sender);\r\n    }\r\n\r\n    function rateQuestion(uint questionId, RatingOption ratingOpt) public {\r\n        Question storage question = questions[questionId];\r\n        if (ratingOpt == RatingOption.UPVOTE) {\r\n            question.upvotes++;\r\n            emit QuestionUpvote(msg.sender, question.upvotes);\r\n        } else if (ratingOpt == RatingOption.DOWNVOTE) {\r\n            question.downvotes++;\r\n            emit QuestionDownvote(msg.sender, question.downvotes);\r\n        } else {\r\n            emit InvalidRatingOption(msg.sender);\r\n        }\r\n    }\r\n\r\n    function getNumOfQuestions() public view returns (uint length) {\r\n        return questions.length;\r\n    }\r\n\r\n    function getQuestion(uint questionId) public view returns (\r\n        address _creator,\r\n        uint _questionId,\r\n        string _content,\r\n        uint _timestamp,\r\n        uint _upvotes,\r\n        uint _downvotes\r\n    ) {\r\n        Question storage question = questions[questionId];\r\n        return\r\n            (question.creator, question.questionId, question.content, question.timestamp, question.upvotes, question.downvotes);\r\n    }\r\n\r\n    /*function denominateVotingTokens() public view {\r\n\r\n    }*/\r\n\r\n    function getVoterWeight(address _userAddress) public returns (uint weight) {\r\n        weight = 0;\r\n        for (uint i = 0; i < shareholders.length; i++) {\r\n            if (shareholders[i].delegate() == _userAddress) {\r\n                weight += votingTokens[shareholders[i].userAddress()];\r\n            }\r\n\r\n            if (shareholders[i].delegate() == address(0)) {\r\n                emit Log();\r\n                weight += votingTokens[_userAddress];\r\n            }\r\n        }\r\n\r\n        emit VoterWeight(_userAddress, weight);     \r\n    }\r\n\r\n    function getShareholder(uint shareholderId) public view returns (\r\n        address _userAddress,\r\n        bool _isDirector,\r\n        address _delegate\r\n    ) {\r\n        Shareholder sh = shareholders[shareholderId];\r\n        return\r\n            (sh.userAddress(), sh.isDirector(), sh.delegate());\r\n    }\r\n\r\n    function getNumOfShareholders() public view returns (uint length) {\r\n        return shareholders.length;\r\n    }\r\n\r\n    function isShareholder(address _userAddress) public view returns (bool isSharehold) {\r\n        return !state.getUser(_userAddress).isDirector(); \r\n    }\r\n\r\n    /*function getShareholderList() public returns (Shareholder[]) {  \r\n        User[] storage users = owner.users;\r\n        for (uint i = 0; i < users.length; i++) {\r\n            if (isShareholder(owner.users[i].userAddress())) {\r\n                shareholders.push(Shareholder(owner.users[i]));\r\n            }\r\n        }\r\n    }*/\r\n\r\n    // if shareholder voted on any proposal he cannot delegate his VP to a proxy anymore\r\n    function delegateToProxy(address proxyAddress, bool partialDelegation) private {\r\n        require(votingTokens[msg.sender] > 0, \"Sender does not own enough voting tokens\");\r\n        require(proxyAddress != msg.sender, \"Self-delegation is not allowed\");\r\n        //require(userExists(proxyAddress), \"Proxy is not a registered user\");\r\n        //require(userExists(msg.sender), \"the user account is not registered\");\r\n        require(delegate == address(0), \"user already has delegated to another proxy\");\r\n        // partial voting, delegate a part of his token to multiple proxies\r\n        // so far it's simple delegation: only whole number of voting token can be delegated to one proxy\r\n\r\n        // subtract tokens from sender and add them to proxy\r\n        uint tokens = votingTokens[msg.sender];\r\n        votingTokens[msg.sender] = 0;\r\n        votingTokens[proxyAddress] += tokens;\r\n\r\n        delegate = proxyAddress; \r\n\r\n        emit DelegatedFrom(msg.sender, tokens, proxyAddress);  \r\n    }\r\n\r\n\r\n}\r\n\r\n\r\n\r\n\r\n",
  "sourcePath": "D:\\Git\\repo\\ShareholderMeeting\\solidity\\contracts\\Shareholder.sol",
  "compiler": {
    "name": "solc",
    "version": "0.4.24+commit.e67f0147.Emscripten.clang"
  },
  "schemaVersion": "2.0.1",
  "updatedAt": "2018-07-30T14:19:47.965Z"
}