{
  "contractName": "Shareholder",
  "abi": [
    {
      "constant": true,
      "inputs": [],
      "name": "isDirector",
      "outputs": [
        {
          "name": "",
          "type": "bool"
        }
      ],
      "payable": false,
      "stateMutability": "view",
      "type": "function"
    },
    {
      "constant": true,
      "inputs": [
        {
          "name": "",
          "type": "uint256"
        }
      ],
      "name": "questions",
      "outputs": [
        {
          "name": "creator",
          "type": "address"
        },
        {
          "name": "questionId",
          "type": "uint256"
        },
        {
          "name": "content",
          "type": "string"
        },
        {
          "name": "timestamp",
          "type": "uint256"
        },
        {
          "name": "upvotes",
          "type": "uint256"
        },
        {
          "name": "downvotes",
          "type": "uint256"
        }
      ],
      "payable": false,
      "stateMutability": "view",
      "type": "function"
    },
    {
      "constant": true,
      "inputs": [
        {
          "name": "",
          "type": "uint256"
        }
      ],
      "name": "shareholders",
      "outputs": [
        {
          "name": "",
          "type": "address"
        }
      ],
      "payable": false,
      "stateMutability": "view",
      "type": "function"
    },
    {
      "constant": true,
      "inputs": [],
      "name": "delegate",
      "outputs": [
        {
          "name": "",
          "type": "address"
        }
      ],
      "payable": false,
      "stateMutability": "view",
      "type": "function"
    },
    {
      "constant": true,
      "inputs": [],
      "name": "userAddress",
      "outputs": [
        {
          "name": "",
          "type": "address"
        }
      ],
      "payable": false,
      "stateMutability": "view",
      "type": "function"
    },
    {
      "inputs": [
        {
          "name": "userAddress",
          "type": "address"
        },
        {
          "name": "_votingWeight",
          "type": "uint256"
        },
        {
          "name": "_fac",
          "type": "address"
        }
      ],
      "payable": false,
      "stateMutability": "nonpayable",
      "type": "constructor"
    },
    {
      "anonymous": false,
      "inputs": [
        {
          "indexed": false,
          "name": "invoker",
          "type": "address"
        }
      ],
      "name": "InvalidRatingOption",
      "type": "event"
    },
    {
      "anonymous": false,
      "inputs": [
        {
          "indexed": false,
          "name": "invoker",
          "type": "address"
        },
        {
          "indexed": false,
          "name": "numUpvotes",
          "type": "uint256"
        }
      ],
      "name": "QuestionUpvote",
      "type": "event"
    },
    {
      "anonymous": false,
      "inputs": [
        {
          "indexed": false,
          "name": "invoker",
          "type": "address"
        },
        {
          "indexed": false,
          "name": "numDownvotes",
          "type": "uint256"
        }
      ],
      "name": "QuestionDownvote",
      "type": "event"
    },
    {
      "anonymous": false,
      "inputs": [
        {
          "indexed": false,
          "name": "questionId",
          "type": "uint256"
        },
        {
          "indexed": false,
          "name": "creator",
          "type": "address"
        }
      ],
      "name": "QuestionCreated",
      "type": "event"
    },
    {
      "anonymous": false,
      "inputs": [
        {
          "indexed": false,
          "name": "invoker",
          "type": "address"
        },
        {
          "indexed": false,
          "name": "proposalId",
          "type": "uint256"
        },
        {
          "indexed": false,
          "name": "votingOption",
          "type": "string"
        }
      ],
      "name": "Voted",
      "type": "event"
    },
    {
      "anonymous": false,
      "inputs": [
        {
          "indexed": false,
          "name": "userAddress",
          "type": "address"
        },
        {
          "indexed": false,
          "name": "weight",
          "type": "uint256"
        }
      ],
      "name": "VoterWeight",
      "type": "event"
    },
    {
      "anonymous": false,
      "inputs": [
        {
          "indexed": false,
          "name": "sender",
          "type": "address"
        },
        {
          "indexed": false,
          "name": "votingTokens",
          "type": "uint256"
        },
        {
          "indexed": false,
          "name": "proxy",
          "type": "address"
        }
      ],
      "name": "DelegatedFrom",
      "type": "event"
    },
    {
      "anonymous": false,
      "inputs": [],
      "name": "Log",
      "type": "event"
    },
    {
      "anonymous": false,
      "inputs": [
        {
          "indexed": false,
          "name": "exists",
          "type": "bool"
        }
      ],
      "name": "UserExists",
      "type": "event"
    },
    {
      "constant": false,
      "inputs": [
        {
          "name": "proposalId",
          "type": "uint256"
        },
        {
          "name": "votingOption",
          "type": "string"
        }
      ],
      "name": "vote",
      "outputs": [],
      "payable": false,
      "stateMutability": "nonpayable",
      "type": "function"
    },
    {
      "constant": false,
      "inputs": [
        {
          "name": "_content",
          "type": "string"
        }
      ],
      "name": "createQuestion",
      "outputs": [
        {
          "name": "id",
          "type": "uint256"
        }
      ],
      "payable": false,
      "stateMutability": "nonpayable",
      "type": "function"
    },
    {
      "constant": false,
      "inputs": [
        {
          "name": "questionId",
          "type": "uint256"
        },
        {
          "name": "ratingOpt",
          "type": "uint8"
        }
      ],
      "name": "rateQuestion",
      "outputs": [],
      "payable": false,
      "stateMutability": "nonpayable",
      "type": "function"
    },
    {
      "constant": true,
      "inputs": [],
      "name": "getNumOfQuestions",
      "outputs": [
        {
          "name": "length",
          "type": "uint256"
        }
      ],
      "payable": false,
      "stateMutability": "view",
      "type": "function"
    },
    {
      "constant": true,
      "inputs": [
        {
          "name": "questionId",
          "type": "uint256"
        }
      ],
      "name": "getQuestion",
      "outputs": [
        {
          "name": "_creator",
          "type": "address"
        },
        {
          "name": "_questionId",
          "type": "uint256"
        },
        {
          "name": "_content",
          "type": "string"
        },
        {
          "name": "_timestamp",
          "type": "uint256"
        },
        {
          "name": "_upvotes",
          "type": "uint256"
        },
        {
          "name": "_downvotes",
          "type": "uint256"
        }
      ],
      "payable": false,
      "stateMutability": "view",
      "type": "function"
    },
    {
      "constant": false,
      "inputs": [
        {
          "name": "_userAddress",
          "type": "address"
        }
      ],
      "name": "getVoterWeight",
      "outputs": [
        {
          "name": "weight",
          "type": "uint256"
        }
      ],
      "payable": false,
      "stateMutability": "nonpayable",
      "type": "function"
    },
    {
      "constant": true,
      "inputs": [
        {
          "name": "shareholderId",
          "type": "uint256"
        }
      ],
      "name": "getShareholder",
      "outputs": [
        {
          "name": "_userAddress",
          "type": "address"
        },
        {
          "name": "_isDirector",
          "type": "bool"
        },
        {
          "name": "_delegate",
          "type": "address"
        }
      ],
      "payable": false,
      "stateMutability": "view",
      "type": "function"
    },
    {
      "constant": true,
      "inputs": [],
      "name": "getNumOfShareholders",
      "outputs": [
        {
          "name": "length",
          "type": "uint256"
        }
      ],
      "payable": false,
      "stateMutability": "view",
      "type": "function"
    }
  ],
  "bytecode": "0x608060405234801561001057600080fd5b50604051606080611bd2833981018060405281019080805190602001909291908051906020019092919080519060200190929190505050826000816000806101000a81548173ffffffffffffffffffffffffffffffffffffffff021916908373ffffffffffffffffffffffffffffffffffffffff16021790555080600060146101000a81548160ff0219169083151502179055505050600160009054906101000a900473ffffffffffffffffffffffffffffffffffffffff1673ffffffffffffffffffffffffffffffffffffffff16634289cefe84846040518363ffffffff167c0100000000000000000000000000000000000000000000000000000000028152600401808373ffffffffffffffffffffffffffffffffffffffff1673ffffffffffffffffffffffffffffffffffffffff16815260200182815260200192505050600060405180830381600087803b15801561016b57600080fd5b505af115801561017f573d6000803e3d6000fd5b505050506000600260006101000a81548173ffffffffffffffffffffffffffffffffffffffff021916908373ffffffffffffffffffffffffffffffffffffffff16021790555080600160006101000a81548173ffffffffffffffffffffffffffffffffffffffff021916908373ffffffffffffffffffffffffffffffffffffffff1602179055505050506119ba806102186000396000f3006080604052600436106100c5576000357c0100000000000000000000000000000000000000000000000000000000900463ffffffff1680631ad8af8d146100ca57806324108475146100f957806331b1b9781461016c5780633ecb486a146102615780636ccb5d021461028c578063ab377daa14610337578063b3580c1e146103a4578063c89e436114610421578063c8caf9e514610478578063d85c91ae146104a3578063db88176f146104fa578063e4128fb3146105ef578063f1c7cfb314610646575b600080fd5b3480156100d657600080fd5b506100df610680565b604051808215151515815260200191505060405180910390f35b34801561010557600080fd5b5061016a60048036038101908080359060200190929190803590602001908201803590602001908080601f0160208091040260200160405190810160405280939291908181526020018383808284378201915050505050509192919290505050610693565b005b34801561017857600080fd5b50610197600480360381019080803590602001909291905050506108a6565b604051808773ffffffffffffffffffffffffffffffffffffffff1673ffffffffffffffffffffffffffffffffffffffff16815260200186815260200180602001858152602001848152602001838152602001828103825286818151815260200191508051906020019080838360005b83811015610221578082015181840152602081019050610206565b50505050905090810190601f16801561024e5780820380516001836020036101000a031916815260200191505b5097505050505050505060405180910390f35b34801561026d57600080fd5b506102766109a9565b6040518082815260200191505060405180910390f35b34801561029857600080fd5b506102b7600480360381019080803590602001909291905050506109b6565b604051808473ffffffffffffffffffffffffffffffffffffffff1673ffffffffffffffffffffffffffffffffffffffff168152602001831515151581526020018273ffffffffffffffffffffffffffffffffffffffff1673ffffffffffffffffffffffffffffffffffffffff168152602001935050505060405180910390f35b34801561034357600080fd5b5061036260048036038101908080359060200190929190505050610be3565b604051808273ffffffffffffffffffffffffffffffffffffffff1673ffffffffffffffffffffffffffffffffffffffff16815260200191505060405180910390f35b3480156103b057600080fd5b5061040b600480360381019080803590602001908201803590602001908080601f0160208091040260200160405190810160405280939291908181526020018383808284378201915050505050509192919290505050610c21565b6040518082815260200191505060405180910390f35b34801561042d57600080fd5b50610436610d4c565b604051808273ffffffffffffffffffffffffffffffffffffffff1673ffffffffffffffffffffffffffffffffffffffff16815260200191505060405180910390f35b34801561048457600080fd5b5061048d610d72565b6040518082815260200191505060405180910390f35b3480156104af57600080fd5b506104e4600480360381019080803573ffffffffffffffffffffffffffffffffffffffff169060200190929190505050610d7f565b6040518082815260200191505060405180910390f35b34801561050657600080fd5b50610525600480360381019080803590602001909291905050506114e3565b604051808773ffffffffffffffffffffffffffffffffffffffff1673ffffffffffffffffffffffffffffffffffffffff16815260200186815260200180602001858152602001848152602001838152602001828103825286818151815260200191508051906020019080838360005b838110156105af578082015181840152602081019050610594565b50505050905090810190601f1680156105dc5780820380516001836020036101000a031916815260200191505b5097505050505050505060405180910390f35b3480156105fb57600080fd5b506106046115fc565b604051808273ffffffffffffffffffffffffffffffffffffffff1673ffffffffffffffffffffffffffffffffffffffff16815260200191505060405180910390f35b34801561065257600080fd5b5061067e60048036038101908080359060200190929190803560ff169060200190929190505050611621565b005b600060149054906101000a900460ff1681565b600160009054906101000a900473ffffffffffffffffffffffffffffffffffffffff1673ffffffffffffffffffffffffffffffffffffffff1663c366c56c83836040518363ffffffff167c01000000000000000000000000000000000000000000000000000000000281526004018083815260200180602001828103825283818151815260200191508051906020019080838360005b83811015610744578082015181840152602081019050610729565b50505050905090810190601f1680156107715780820380516001836020036101000a031916815260200191505b509350505050600060405180830381600087803b15801561079157600080fd5b505af11580156107a5573d6000803e3d6000fd5b505050507f497ac9c2d8b6e7ea7204365157d9642f36d2b6125352bfa6d0a73328142d0bd96000809054906101000a900473ffffffffffffffffffffffffffffffffffffffff168383604051808473ffffffffffffffffffffffffffffffffffffffff1673ffffffffffffffffffffffffffffffffffffffff16815260200183815260200180602001828103825283818151815260200191508051906020019080838360005b8381101561086657808201518184015260208101905061084b565b50505050905090810190601f1680156108935780820380516001836020036101000a031916815260200191505b5094505050505060405180910390a15050565b6003818154811015156108b557fe5b90600052602060002090600602016000915090508060000160009054906101000a900473ffffffffffffffffffffffffffffffffffffffff1690806001015490806002018054600181600116156101000203166002900480601f01602080910402602001604051908101604052809291908181526020018280546001816001161561010002031660029004801561098d5780601f106109625761010080835404028352916020019161098d565b820191906000526020600020905b81548152906001019060200180831161097057829003601f168201915b5050505050908060030154908060040154908060050154905086565b6000600380549050905090565b6000806000806004858154811015156109cb57fe5b9060005260206000200160009054906101000a900473ffffffffffffffffffffffffffffffffffffffff1690508073ffffffffffffffffffffffffffffffffffffffff1663e4128fb36040518163ffffffff167c0100000000000000000000000000000000000000000000000000000000028152600401602060405180830381600087803b158015610a5c57600080fd5b505af1158015610a70573d6000803e3d6000fd5b505050506040513d6020811015610a8657600080fd5b81019080805190602001909291905050508173ffffffffffffffffffffffffffffffffffffffff16631ad8af8d6040518163ffffffff167c0100000000000000000000000000000000000000000000000000000000028152600401602060405180830381600087803b158015610afb57600080fd5b505af1158015610b0f573d6000803e3d6000fd5b505050506040513d6020811015610b2557600080fd5b81019080805190602001909291905050508273ffffffffffffffffffffffffffffffffffffffff1663c89e43616040518163ffffffff167c0100000000000000000000000000000000000000000000000000000000028152600401602060405180830381600087803b158015610b9a57600080fd5b505af1158015610bae573d6000803e3d6000fd5b505050506040513d6020811015610bc457600080fd5b8101908080519060200190929190505050935093509350509193909250565b600481815481101515610bf257fe5b906000526020600020016000915054906101000a900473ffffffffffffffffffffffffffffffffffffffff1681565b60008060038054809190600101610c3891906117f9565b9150600382815481101515610c4957fe5b90600052602060002090600602019050818160010181905550338160000160006101000a81548173ffffffffffffffffffffffffffffffffffffffff021916908373ffffffffffffffffffffffffffffffffffffffff16021790555082816002019080519060200190610cbd92919061182b565b5042816003018190555060008160040181905550600081600501819055507fe507074282a0f805a6f370a3dfca4b5578056337d6fe37524243a02ca7a3cae18233604051808381526020018273ffffffffffffffffffffffffffffffffffffffff1673ffffffffffffffffffffffffffffffffffffffff1681526020019250505060405180910390a150919050565b600260009054906101000a900473ffffffffffffffffffffffffffffffffffffffff1681565b6000600480549050905090565b60008060009150600090505b600480549050811015611472578273ffffffffffffffffffffffffffffffffffffffff16600482815481101515610dbe57fe5b9060005260206000200160009054906101000a900473ffffffffffffffffffffffffffffffffffffffff1673ffffffffffffffffffffffffffffffffffffffff1663c89e43616040518163ffffffff167c0100000000000000000000000000000000000000000000000000000000028152600401602060405180830381600087803b158015610e4c57600080fd5b505af1158015610e60573d6000803e3d6000fd5b505050506040513d6020811015610e7657600080fd5b810190808051906020019092919050505073ffffffffffffffffffffffffffffffffffffffff16141561107757600160009054906101000a900473ffffffffffffffffffffffffffffffffffffffff1673ffffffffffffffffffffffffffffffffffffffff1663493da753600483815481101515610ef057fe5b9060005260206000200160009054906101000a900473ffffffffffffffffffffffffffffffffffffffff1673ffffffffffffffffffffffffffffffffffffffff1663e4128fb36040518163ffffffff167c0100000000000000000000000000000000000000000000000000000000028152600401602060405180830381600087803b158015610f7e57600080fd5b505af1158015610f92573d6000803e3d6000fd5b505050506040513d6020811015610fa857600080fd5b81019080805190602001909291905050506040518263ffffffff167c0100000000000000000000000000000000000000000000000000000000028152600401808273ffffffffffffffffffffffffffffffffffffffff1673ffffffffffffffffffffffffffffffffffffffff168152602001915050602060405180830381600087803b15801561103757600080fd5b505af115801561104b573d6000803e3d6000fd5b505050506040513d602081101561106157600080fd5b8101908080519060200190929190505050820191505b8273ffffffffffffffffffffffffffffffffffffffff1660048281548110151561109d57fe5b9060005260206000200160009054906101000a900473ffffffffffffffffffffffffffffffffffffffff1673ffffffffffffffffffffffffffffffffffffffff1663e4128fb36040518163ffffffff167c0100000000000000000000000000000000000000000000000000000000028152600401602060405180830381600087803b15801561112b57600080fd5b505af115801561113f573d6000803e3d6000fd5b505050506040513d602081101561115557600080fd5b810190808051906020019092919050505073ffffffffffffffffffffffffffffffffffffffff1614801561128c5750600073ffffffffffffffffffffffffffffffffffffffff166004828154811015156111ab57fe5b9060005260206000200160009054906101000a900473ffffffffffffffffffffffffffffffffffffffff1673ffffffffffffffffffffffffffffffffffffffff1663c89e43616040518163ffffffff167c0100000000000000000000000000000000000000000000000000000000028152600401602060405180830381600087803b15801561123957600080fd5b505af115801561124d573d6000803e3d6000fd5b505050506040513d602081101561126357600080fd5b810190808051906020019092919050505073ffffffffffffffffffffffffffffffffffffffff16145b1561146557600160009054906101000a900473ffffffffffffffffffffffffffffffffffffffff1673ffffffffffffffffffffffffffffffffffffffff1663493da7536004838154811015156112de57fe5b9060005260206000200160009054906101000a900473ffffffffffffffffffffffffffffffffffffffff1673ffffffffffffffffffffffffffffffffffffffff1663e4128fb36040518163ffffffff167c0100000000000000000000000000000000000000000000000000000000028152600401602060405180830381600087803b15801561136c57600080fd5b505af1158015611380573d6000803e3d6000fd5b505050506040513d602081101561139657600080fd5b81019080805190602001909291905050506040518263ffffffff167c0100000000000000000000000000000000000000000000000000000000028152600401808273ffffffffffffffffffffffffffffffffffffffff1673ffffffffffffffffffffffffffffffffffffffff168152602001915050602060405180830381600087803b15801561142557600080fd5b505af1158015611439573d6000803e3d6000fd5b505050506040513d602081101561144f57600080fd5b8101908080519060200190929190505050820191505b8080600101915050610d8b565b7ffdbe8f945bf97c075bba2c511a72a7d17c00fdc75ce28126f7da85da4f4648948383604051808373ffffffffffffffffffffffffffffffffffffffff1673ffffffffffffffffffffffffffffffffffffffff1681526020018281526020019250505060405180910390a150919050565b60008060606000806000806003888154811015156114fd57fe5b906000526020600020906006020190508060000160009054906101000a900473ffffffffffffffffffffffffffffffffffffffff16816001015482600201836003015484600401548560050154838054600181600116156101000203166002900480601f0160208091040260200160405190810160405280929190818152602001828054600181600116156101000203166002900480156115df5780601f106115b4576101008083540402835291602001916115df565b820191906000526020600020905b8154815290600101906020018083116115c257829003601f168201915b505050505093509650965096509650965096505091939550919395565b6000809054906101000a900473ffffffffffffffffffffffffffffffffffffffff1681565b600060038381548110151561163257fe5b9060005260206000209060060201905060018081111561164e57fe5b82600181111561165a57fe5b14156116e85780600401600081548092919060010191905055507f54a8ca358ef57f5199692f9accebf1cea9c3b6a6351db8b1976a3283f3c7caa5338260040154604051808373ffffffffffffffffffffffffffffffffffffffff1673ffffffffffffffffffffffffffffffffffffffff1681526020018281526020019250505060405180910390a16117f4565b600060018111156116f557fe5b82600181111561170157fe5b141561178f5780600501600081548092919060010191905055507fb0f1a350a68ca81aea495057b739a0ab46613ea46337a4ecf18a0e5891b22423338260050154604051808373ffffffffffffffffffffffffffffffffffffffff1673ffffffffffffffffffffffffffffffffffffffff1681526020018281526020019250505060405180910390a16117f3565b7f7c153d1a9d147fafdf065d15a62aca5b9ae7c237b3f61826022605c14aa265fb33604051808273ffffffffffffffffffffffffffffffffffffffff1673ffffffffffffffffffffffffffffffffffffffff16815260200191505060405180910390a15b5b505050565b8154818355818111156118265760060281600602836000526020600020918201910161182591906118ab565b5b505050565b828054600181600116156101000203166002900490600052602060002090601f016020900481019282601f1061186c57805160ff191683800117855561189a565b8280016001018555821561189a579182015b8281111561189957825182559160200191906001019061187e565b5b5090506118a79190611921565b5090565b61191e91905b8082111561191a57600080820160006101000a81549073ffffffffffffffffffffffffffffffffffffffff021916905560018201600090556002820160006118f99190611946565b600382016000905560048201600090556005820160009055506006016118b1565b5090565b90565b61194391905b8082111561193f576000816000905550600101611927565b5090565b90565b50805460018160011615610100020316600290046000825580601f1061196c575061198b565b601f01602090049060005260206000209081019061198a9190611921565b5b505600a165627a7a72305820cb2cb6ecf014fefc98e089d583f5ca56d03b747f5bbae97cff996fa5ca89967a0029",
  "source": "pragma solidity ^0.4.23;\r\n\r\nimport \"./User.sol\";\r\nimport \"./AgmOwner.sol\";\r\nimport \"./Factory.sol\";\r\nimport \"./ProposalData.sol\";\r\n\r\ncontract Shareholder is User, ProposalData {\r\n\r\n    Factory fac;\r\n\r\n    address public delegate;\r\n    \r\n\r\n    //mapping(address => Delegate[]) delegations;\r\n    Question[] public questions;\r\n    Shareholder[] public shareholders;\r\n\r\n    enum RatingOption {DOWNVOTE, UPVOTE}\r\n\r\n    struct Question {\r\n        address creator;\r\n        uint questionId;\r\n        string content;\r\n        uint timestamp;\r\n        uint upvotes;\r\n        uint downvotes;\r\n    }\r\n\r\n    /*struct Delegate {\r\n        address proxy;\r\n        uint votingTok;\r\n    }*/\r\n\r\n    modifier onlyShareholder {\r\n        require((!this.isDirector()) && (fac.votingWeights(msg.sender) > 0));\r\n        _;\r\n    }\r\n\r\n    constructor(address userAddress, uint _votingWeight, Factory _fac) \r\n        User(userAddress, false) public {\r\n        \r\n        fac.setVotingWeight(userAddress, _votingWeight);\r\n        delegate = address(0);\r\n        fac = _fac;\r\n    }\r\n    \r\n    event InvalidRatingOption(address invoker);\r\n    event QuestionUpvote(address invoker, uint numUpvotes);\r\n    event QuestionDownvote(address invoker, uint numDownvotes);\r\n    event QuestionCreated(uint questionId, address creator);\r\n    event Voted(address invoker, uint proposalId, string votingOption);\r\n    event VoterWeight(address userAddress, uint weight);\r\n    event DelegatedFrom(address sender, uint votingTokens, address proxy);\r\n    event Log();\r\n\r\n    function vote(uint proposalId, string votingOption) public {\r\n        fac.setVote(proposalId, votingOption);\r\n        \r\n        emit Voted(userAddress, proposalId, votingOption);\r\n    }\r\n\r\n    function createQuestion(string _content) public returns (uint id) {\r\n        id = questions.length++;\r\n        Question storage question = questions[id];\r\n        question.questionId = id;\r\n        question.creator = msg.sender;\r\n        question.content = _content;\r\n        question.timestamp = now;\r\n        question.upvotes = 0;\r\n        question.downvotes = 0;\r\n\r\n        emit QuestionCreated(id, msg.sender);\r\n    }\r\n\r\n    function rateQuestion(uint questionId, RatingOption ratingOpt) public {\r\n        Question storage question = questions[questionId];\r\n        if (ratingOpt == RatingOption.UPVOTE) {\r\n            question.upvotes++;\r\n            emit QuestionUpvote(msg.sender, question.upvotes);\r\n        } else if (ratingOpt == RatingOption.DOWNVOTE) {\r\n            question.downvotes++;\r\n            emit QuestionDownvote(msg.sender, question.downvotes);\r\n        } else {\r\n            emit InvalidRatingOption(msg.sender);\r\n        }\r\n    }\r\n\r\n    function getNumOfQuestions() public view returns (uint length) {\r\n        return questions.length;\r\n    }\r\n\r\n    function getQuestion(uint questionId) public view returns (\r\n        address _creator,\r\n        uint _questionId,\r\n        string _content,\r\n        uint _timestamp,\r\n        uint _upvotes,\r\n        uint _downvotes\r\n    ) {\r\n        Question storage question = questions[questionId];\r\n        return\r\n            (question.creator, question.questionId, question.content, question.timestamp, question.upvotes, question.downvotes);\r\n    }\r\n\r\n    /*function denominateVotingTokens() public view {\r\n\r\n    }*/\r\n\r\n    function getVoterWeight(address _userAddress) public returns (uint weight) {\r\n        weight = 0;\r\n        for (uint i = 0; i < shareholders.length; i++) {\r\n            if (shareholders[i].delegate() == _userAddress) {\r\n                weight += fac.votingWeights(shareholders[i].userAddress());\r\n            }\r\n\r\n            if (shareholders[i].userAddress() == _userAddress && shareholders[i].delegate() == address(0)) {\r\n                weight += fac.votingWeights(shareholders[i].userAddress());\r\n            }\r\n        }\r\n\r\n        emit VoterWeight(_userAddress, weight);     \r\n    }\r\n\r\n    function getShareholder(uint shareholderId) public view returns (\r\n        address _userAddress,\r\n        bool _isDirector,\r\n        address _delegate\r\n    ) {\r\n        Shareholder sh = shareholders[shareholderId];\r\n        return\r\n            (sh.userAddress(), sh.isDirector(), sh.delegate());\r\n    }\r\n\r\n    function getNumOfShareholders() public view returns (uint length) {\r\n        return shareholders.length;\r\n    }\r\n\r\n    /*function isShareholder(address _userAddress) public view returns (bool isSharehold) {\r\n        return !owner.users[_userAddress].isDirector(); \r\n    }*/\r\n\r\n    /*function getShareholderList() public returns (Shareholder[]) {  \r\n        User[] storage users = owner.users;\r\n        for (uint i = 0; i < users.length; i++) {\r\n            if (isShareholder(owner.users[i].userAddress())) {\r\n                shareholders.push(Shareholder(owner.users[i]));\r\n            }\r\n        }\r\n    }*/\r\n\r\n    // if shareholder voted on any proposal he cannot delegate his VP to a proxy anymore\r\n    function delegateToProxy(address proxyAddress, bool partialDelegation) private {\r\n        require(fac.votingWeights(msg.sender) > 0, \"Sender does not own enough voting tokens\");\r\n        require(proxyAddress != msg.sender, \"Self-delegation is not allowed\");\r\n        //require(userExists(proxyAddress), \"Proxy is not a registered user\");\r\n        //require(userExists(msg.sender), \"the user account is not registered\");\r\n        require(delegate == address(0), \"user already has delegated to another proxy\");\r\n        // partial voting, delegate a part of his token to multiple proxies\r\n        // so far it's simple delegation: only whole number of voting token can be delegated to one proxy\r\n\r\n        // subtract tokens from sender and add them to proxy\r\n        uint tokens = fac.votingWeights(msg.sender);\r\n        fac.setVotingWeight(msg.sender, 0);\r\n        fac.setVotingWeight(proxyAddress, fac.votingWeights(proxyAddress) + tokens);\r\n\r\n        delegate = proxyAddress; \r\n\r\n        emit DelegatedFrom(msg.sender, tokens, proxyAddress);  \r\n    }\r\n\r\n\r\n}\r\n\r\n\r\n\r\n\r\n",
  "sourcePath": "D:\\Git\\repo\\ShareholderMeeting\\solidity\\contracts\\Shareholder.sol",
  "compiler": {
    "name": "solc",
    "version": "0.4.24+commit.e67f0147.Emscripten.clang"
  },
  "schemaVersion": "2.0.1",
  "updatedAt": "2018-07-31T10:26:21.227Z"
}