{
  "contractName": "Shareholder",
  "abi": [
    {
      "constant": true,
      "inputs": [],
      "name": "isDirector",
      "outputs": [
        {
          "name": "",
          "type": "bool"
        }
      ],
      "payable": false,
      "stateMutability": "view",
      "type": "function"
    },
    {
      "constant": true,
      "inputs": [
        {
          "name": "",
          "type": "uint256"
        }
      ],
      "name": "votingDenominations",
      "outputs": [
        {
          "name": "",
          "type": "uint256"
        }
      ],
      "payable": false,
      "stateMutability": "view",
      "type": "function"
    },
    {
      "constant": true,
      "inputs": [
        {
          "name": "",
          "type": "uint256"
        }
      ],
      "name": "ratings",
      "outputs": [
        {
          "name": "",
          "type": "address"
        }
      ],
      "payable": false,
      "stateMutability": "view",
      "type": "function"
    },
    {
      "constant": true,
      "inputs": [],
      "name": "qa",
      "outputs": [
        {
          "name": "",
          "type": "address"
        }
      ],
      "payable": false,
      "stateMutability": "view",
      "type": "function"
    },
    {
      "constant": true,
      "inputs": [],
      "name": "fac",
      "outputs": [
        {
          "name": "",
          "type": "address"
        }
      ],
      "payable": false,
      "stateMutability": "view",
      "type": "function"
    },
    {
      "constant": true,
      "inputs": [
        {
          "name": "",
          "type": "uint256"
        }
      ],
      "name": "delegations",
      "outputs": [
        {
          "name": "proxy",
          "type": "address"
        },
        {
          "name": "votingWeight",
          "type": "uint256"
        }
      ],
      "payable": false,
      "stateMutability": "view",
      "type": "function"
    },
    {
      "constant": true,
      "inputs": [],
      "name": "delegate",
      "outputs": [
        {
          "name": "",
          "type": "address"
        }
      ],
      "payable": false,
      "stateMutability": "view",
      "type": "function"
    },
    {
      "constant": true,
      "inputs": [],
      "name": "userAddress",
      "outputs": [
        {
          "name": "",
          "type": "address"
        }
      ],
      "payable": false,
      "stateMutability": "view",
      "type": "function"
    },
    {
      "inputs": [
        {
          "name": "userAddress",
          "type": "address"
        },
        {
          "name": "_votingWeight",
          "type": "uint256"
        },
        {
          "name": "_fac",
          "type": "address"
        },
        {
          "name": "_qa",
          "type": "address"
        }
      ],
      "payable": false,
      "stateMutability": "nonpayable",
      "type": "constructor"
    },
    {
      "anonymous": false,
      "inputs": [
        {
          "indexed": false,
          "name": "questionId",
          "type": "uint256"
        },
        {
          "indexed": false,
          "name": "creator",
          "type": "address"
        }
      ],
      "name": "QuestionCreated",
      "type": "event"
    },
    {
      "anonymous": false,
      "inputs": [
        {
          "indexed": false,
          "name": "invoker",
          "type": "address"
        },
        {
          "indexed": false,
          "name": "proposalId",
          "type": "uint256"
        },
        {
          "indexed": false,
          "name": "votingOption",
          "type": "string"
        }
      ],
      "name": "Voted",
      "type": "event"
    },
    {
      "anonymous": false,
      "inputs": [
        {
          "indexed": false,
          "name": "userAddress",
          "type": "address"
        },
        {
          "indexed": false,
          "name": "weight",
          "type": "uint256"
        }
      ],
      "name": "VoterWeight",
      "type": "event"
    },
    {
      "anonymous": false,
      "inputs": [
        {
          "indexed": false,
          "name": "sender",
          "type": "address"
        },
        {
          "indexed": false,
          "name": "senderWeight",
          "type": "uint256"
        },
        {
          "indexed": false,
          "name": "proxy",
          "type": "address"
        },
        {
          "indexed": false,
          "name": "proxyWeight",
          "type": "uint256"
        }
      ],
      "name": "PartialDelegationFrom",
      "type": "event"
    },
    {
      "anonymous": false,
      "inputs": [
        {
          "indexed": false,
          "name": "sender",
          "type": "address"
        },
        {
          "indexed": false,
          "name": "senderWeight",
          "type": "uint256"
        },
        {
          "indexed": false,
          "name": "proxy",
          "type": "address"
        },
        {
          "indexed": false,
          "name": "proxyWeight",
          "type": "uint256"
        }
      ],
      "name": "SimpleDelegationFrom",
      "type": "event"
    },
    {
      "anonymous": false,
      "inputs": [
        {
          "indexed": false,
          "name": "userAddress",
          "type": "address"
        },
        {
          "indexed": false,
          "name": "votingWeight",
          "type": "uint256"
        },
        {
          "indexed": false,
          "name": "delegate",
          "type": "address"
        }
      ],
      "name": "ShareholderCreated",
      "type": "event"
    },
    {
      "anonymous": false,
      "inputs": [
        {
          "indexed": false,
          "name": "exists",
          "type": "bool"
        }
      ],
      "name": "UserExists",
      "type": "event"
    },
    {
      "constant": false,
      "inputs": [
        {
          "name": "proposalId",
          "type": "uint256"
        },
        {
          "name": "votingOption",
          "type": "string"
        }
      ],
      "name": "vote",
      "outputs": [],
      "payable": false,
      "stateMutability": "nonpayable",
      "type": "function"
    },
    {
      "constant": false,
      "inputs": [
        {
          "name": "_content",
          "type": "string"
        }
      ],
      "name": "createQuestion",
      "outputs": [
        {
          "name": "questId",
          "type": "uint256"
        }
      ],
      "payable": false,
      "stateMutability": "nonpayable",
      "type": "function"
    },
    {
      "constant": false,
      "inputs": [
        {
          "name": "questionId",
          "type": "uint256"
        },
        {
          "name": "ratingOpt",
          "type": "uint8"
        }
      ],
      "name": "rateQuestion",
      "outputs": [],
      "payable": false,
      "stateMutability": "nonpayable",
      "type": "function"
    },
    {
      "constant": false,
      "inputs": [
        {
          "name": "numOfThousandWeights",
          "type": "uint256"
        },
        {
          "name": "divider",
          "type": "uint256"
        }
      ],
      "name": "denominateVotingTokens",
      "outputs": [],
      "payable": false,
      "stateMutability": "nonpayable",
      "type": "function"
    },
    {
      "constant": false,
      "inputs": [
        {
          "name": "_userAddress",
          "type": "address"
        }
      ],
      "name": "getVoterWeight",
      "outputs": [
        {
          "name": "weight",
          "type": "uint256"
        }
      ],
      "payable": false,
      "stateMutability": "nonpayable",
      "type": "function"
    },
    {
      "constant": false,
      "inputs": [
        {
          "name": "proxyAddress",
          "type": "address"
        },
        {
          "name": "partialDelegation",
          "type": "bool"
        },
        {
          "name": "voteBlockIndex",
          "type": "uint256"
        }
      ],
      "name": "delegateToProxy",
      "outputs": [],
      "payable": false,
      "stateMutability": "nonpayable",
      "type": "function"
    }
  ],
  "bytecode": "0x608060405234801561001057600080fd5b506040516080806200240f83398101806040528101908080519060200190929190805190602001909291908051906020019092919080519060200190929190505050836000816000806101000a81548173ffffffffffffffffffffffffffffffffffffffff021916908373ffffffffffffffffffffffffffffffffffffffff16021790555080600060146101000a81548160ff021916908315150217905550505081600160006101000a81548173ffffffffffffffffffffffffffffffffffffffff021916908373ffffffffffffffffffffffffffffffffffffffff16021790555080600260006101000a81548173ffffffffffffffffffffffffffffffffffffffff021916908373ffffffffffffffffffffffffffffffffffffffff160217905550600160009054906101000a900473ffffffffffffffffffffffffffffffffffffffff1673ffffffffffffffffffffffffffffffffffffffff16634289cefe85856040518363ffffffff167c0100000000000000000000000000000000000000000000000000000000028152600401808373ffffffffffffffffffffffffffffffffffffffff1673ffffffffffffffffffffffffffffffffffffffff16815260200182815260200192505050600060405180830381600087803b1580156101f857600080fd5b505af115801561020c573d6000803e3d6000fd5b505050506000600360006101000a81548173ffffffffffffffffffffffffffffffffffffffff021916908373ffffffffffffffffffffffffffffffffffffffff1602179055507fa153d59e4a031d4d7c7e6d3d53ce799fa7d14c9f0307045650196d928186971584600160009054906101000a900473ffffffffffffffffffffffffffffffffffffffff1673ffffffffffffffffffffffffffffffffffffffff1663493da753876040518263ffffffff167c0100000000000000000000000000000000000000000000000000000000028152600401808273ffffffffffffffffffffffffffffffffffffffff1673ffffffffffffffffffffffffffffffffffffffff168152602001915050602060405180830381600087803b15801561033157600080fd5b505af1158015610345573d6000803e3d6000fd5b505050506040513d602081101561035b57600080fd5b8101908080519060200190929190505050600360009054906101000a900473ffffffffffffffffffffffffffffffffffffffff16604051808473ffffffffffffffffffffffffffffffffffffffff1673ffffffffffffffffffffffffffffffffffffffff1681526020018381526020018273ffffffffffffffffffffffffffffffffffffffff1673ffffffffffffffffffffffffffffffffffffffff168152602001935050505060405180910390a150505050611ff1806200041e6000396000f3006080604052600436106100d0576000357c0100000000000000000000000000000000000000000000000000000000900463ffffffff1680631ad8af8d146100d55780632410847514610104578063520313fe146101775780635d30e84d146101b85780638af3fddf14610225578063ab4239451461027c578063b3580c1e146102d5578063c0358d9814610352578063c3b3147214610389578063c4336c1c146103e0578063c89e436114610454578063d85c91ae146104ab578063e4128fb314610502578063f1c7cfb314610559575b600080fd5b3480156100e157600080fd5b506100ea610593565b604051808215151515815260200191505060405180910390f35b34801561011057600080fd5b5061017560048036038101908080359060200190929190803590602001908201803590602001908080601f01602080910402602001604051908101604052809392919081815260200183838082843782019150505050505091929192905050506105a6565b005b34801561018357600080fd5b506101a2600480360381019080803590602001909291905050506107b9565b6040518082815260200191505060405180910390f35b3480156101c457600080fd5b506101e3600480360381019080803590602001909291905050506107dc565b604051808273ffffffffffffffffffffffffffffffffffffffff1673ffffffffffffffffffffffffffffffffffffffff16815260200191505060405180910390f35b34801561023157600080fd5b5061023a61080f565b604051808273ffffffffffffffffffffffffffffffffffffffff1673ffffffffffffffffffffffffffffffffffffffff16815260200191505060405180910390f35b34801561028857600080fd5b506102d3600480360381019080803573ffffffffffffffffffffffffffffffffffffffff16906020019092919080351515906020019092919080359060200190929190505050610835565b005b3480156102e157600080fd5b5061033c600480360381019080803590602001908201803590602001908080601f016020809104026020016040519081016040528093929190818152602001838380828437820191505050505050919291929050505061143f565b6040518082815260200191505060405180910390f35b34801561035e57600080fd5b506103876004803603810190808035906020019092919080359060200190929190505050611618565b005b34801561039557600080fd5b5061039e6117cb565b604051808273ffffffffffffffffffffffffffffffffffffffff1673ffffffffffffffffffffffffffffffffffffffff16815260200191505060405180910390f35b3480156103ec57600080fd5b5061040b600480360381019080803590602001909291905050506117f1565b604051808373ffffffffffffffffffffffffffffffffffffffff1673ffffffffffffffffffffffffffffffffffffffff1681526020018281526020019250505060405180910390f35b34801561046057600080fd5b50610469611844565b604051808273ffffffffffffffffffffffffffffffffffffffff1673ffffffffffffffffffffffffffffffffffffffff16815260200191505060405180910390f35b3480156104b757600080fd5b506104ec600480360381019080803573ffffffffffffffffffffffffffffffffffffffff16906020019092919050505061186a565b6040518082815260200191505060405180910390f35b34801561050e57600080fd5b50610517611d40565b604051808273ffffffffffffffffffffffffffffffffffffffff1673ffffffffffffffffffffffffffffffffffffffff16815260200191505060405180910390f35b34801561056557600080fd5b5061059160048036038101908080359060200190929190803560ff169060200190929190505050611d65565b005b600060149054906101000a900460ff1681565b600160009054906101000a900473ffffffffffffffffffffffffffffffffffffffff1673ffffffffffffffffffffffffffffffffffffffff1663c366c56c83836040518363ffffffff167c01000000000000000000000000000000000000000000000000000000000281526004018083815260200180602001828103825283818151815260200191508051906020019080838360005b8381101561065757808201518184015260208101905061063c565b50505050905090810190601f1680156106845780820380516001836020036101000a031916815260200191505b509350505050600060405180830381600087803b1580156106a457600080fd5b505af11580156106b8573d6000803e3d6000fd5b505050507f497ac9c2d8b6e7ea7204365157d9642f36d2b6125352bfa6d0a73328142d0bd96000809054906101000a900473ffffffffffffffffffffffffffffffffffffffff168383604051808473ffffffffffffffffffffffffffffffffffffffff1673ffffffffffffffffffffffffffffffffffffffff16815260200183815260200180602001828103825283818151815260200191508051906020019080838360005b8381101561077957808201518184015260208101905061075e565b50505050905090810190601f1680156107a65780820380516001836020036101000a031916815260200191505b5094505050505060405180910390a15050565b6004818154811015156107c857fe5b906000526020600020016000915090505481565b60066020528060005260406000206000915054906101000a900473ffffffffffffffffffffffffffffffffffffffff1681565b600260009054906101000a900473ffffffffffffffffffffffffffffffffffffffff1681565b6000806000806000600160009054906101000a900473ffffffffffffffffffffffffffffffffffffffff1673ffffffffffffffffffffffffffffffffffffffff1663493da753336040518263ffffffff167c0100000000000000000000000000000000000000000000000000000000028152600401808273ffffffffffffffffffffffffffffffffffffffff1673ffffffffffffffffffffffffffffffffffffffff168152602001915050602060405180830381600087803b1580156108fa57600080fd5b505af115801561090e573d6000803e3d6000fd5b505050506040513d602081101561092457600080fd5b81019080805190602001909291905050501115156109d0576040517f08c379a00000000000000000000000000000000000000000000000000000000081526004018080602001828103825260288152602001807f53656e64657220646f6573206e6f74206f776e20656e6f75676820766f74696e81526020017f6720746f6b656e7300000000000000000000000000000000000000000000000081525060400191505060405180910390fd5b3373ffffffffffffffffffffffffffffffffffffffff168773ffffffffffffffffffffffffffffffffffffffff1614151515610a74576040517f08c379a000000000000000000000000000000000000000000000000000000000815260040180806020018281038252601e8152602001807f53656c662d64656c65676174696f6e206973206e6f7420616c6c6f776564000081525060200191505060405180910390fd5b600160009054906101000a900473ffffffffffffffffffffffffffffffffffffffff1673ffffffffffffffffffffffffffffffffffffffff1663493da753336040518263ffffffff167c0100000000000000000000000000000000000000000000000000000000028152600401808273ffffffffffffffffffffffffffffffffffffffff1673ffffffffffffffffffffffffffffffffffffffff168152602001915050602060405180830381600087803b158015610b3157600080fd5b505af1158015610b45573d6000803e3d6000fd5b505050506040513d6020811015610b5b57600080fd5b81019080805190602001909291905050509350851561102b57600485815481101515610b8357fe5b90600052602060002001549250600485815481101515610b9f57fe5b90600052602060002001600090555b600160048054905003851015610c0557600460018601815481101515610bd057fe5b9060005260206000200154600486815481101515610bea57fe5b90600052602060002001819055508480600101955050610bae565b6004805480919060019003610c1a9190611f74565b50600160009054906101000a900473ffffffffffffffffffffffffffffffffffffffff1673ffffffffffffffffffffffffffffffffffffffff16634289cefe338587036040518363ffffffff167c0100000000000000000000000000000000000000000000000000000000028152600401808373ffffffffffffffffffffffffffffffffffffffff1673ffffffffffffffffffffffffffffffffffffffff16815260200182815260200192505050600060405180830381600087803b158015610ce257600080fd5b505af1158015610cf6573d6000803e3d6000fd5b5050505082600160009054906101000a900473ffffffffffffffffffffffffffffffffffffffff1673ffffffffffffffffffffffffffffffffffffffff1663493da753896040518263ffffffff167c0100000000000000000000000000000000000000000000000000000000028152600401808273ffffffffffffffffffffffffffffffffffffffff1673ffffffffffffffffffffffffffffffffffffffff168152602001915050602060405180830381600087803b158015610db857600080fd5b505af1158015610dcc573d6000803e3d6000fd5b505050506040513d6020811015610de257600080fd5b8101908080519060200190929190505050019150600160009054906101000a900473ffffffffffffffffffffffffffffffffffffffff1673ffffffffffffffffffffffffffffffffffffffff16634289cefe88846040518363ffffffff167c0100000000000000000000000000000000000000000000000000000000028152600401808373ffffffffffffffffffffffffffffffffffffffff1673ffffffffffffffffffffffffffffffffffffffff16815260200182815260200192505050600060405180830381600087803b158015610ebb57600080fd5b505af1158015610ecf573d6000803e3d6000fd5b50505050600560408051908101604052808973ffffffffffffffffffffffffffffffffffffffff168152602001858152509080600181540180825580915050906001820390600052602060002090600202016000909192909190915060008201518160000160006101000a81548173ffffffffffffffffffffffffffffffffffffffff021916908373ffffffffffffffffffffffffffffffffffffffff160217905550602082015181600101555050507fcddcdb1cb6bb8ba24e33ffa13f7edb9820fa7dd105013832e025fd94362e252033858986604051808573ffffffffffffffffffffffffffffffffffffffff1673ffffffffffffffffffffffffffffffffffffffff1681526020018481526020018373ffffffffffffffffffffffffffffffffffffffff1673ffffffffffffffffffffffffffffffffffffffff16815260200182815260200194505050505060405180910390a1611436565b600160009054906101000a900473ffffffffffffffffffffffffffffffffffffffff1673ffffffffffffffffffffffffffffffffffffffff16634289cefe3360006040518363ffffffff167c0100000000000000000000000000000000000000000000000000000000028152600401808373ffffffffffffffffffffffffffffffffffffffff1673ffffffffffffffffffffffffffffffffffffffff16815260200182815260200192505050600060405180830381600087803b1580156110f157600080fd5b505af1158015611105573d6000803e3d6000fd5b5050505083600160009054906101000a900473ffffffffffffffffffffffffffffffffffffffff1673ffffffffffffffffffffffffffffffffffffffff1663493da753896040518263ffffffff167c0100000000000000000000000000000000000000000000000000000000028152600401808273ffffffffffffffffffffffffffffffffffffffff1673ffffffffffffffffffffffffffffffffffffffff168152602001915050602060405180830381600087803b1580156111c757600080fd5b505af11580156111db573d6000803e3d6000fd5b505050506040513d60208110156111f157600080fd5b8101908080519060200190929190505050019050600160009054906101000a900473ffffffffffffffffffffffffffffffffffffffff1673ffffffffffffffffffffffffffffffffffffffff16634289cefe88836040518363ffffffff167c0100000000000000000000000000000000000000000000000000000000028152600401808373ffffffffffffffffffffffffffffffffffffffff1673ffffffffffffffffffffffffffffffffffffffff16815260200182815260200192505050600060405180830381600087803b1580156112ca57600080fd5b505af11580156112de573d6000803e3d6000fd5b50505050600560408051908101604052808973ffffffffffffffffffffffffffffffffffffffff168152602001868152509080600181540180825580915050906001820390600052602060002090600202016000909192909190915060008201518160000160006101000a81548173ffffffffffffffffffffffffffffffffffffffff021916908373ffffffffffffffffffffffffffffffffffffffff160217905550602082015181600101555050507f125eca0cb4389ce77b3681b7aa6850ee18cd61799d301a94730a3624042fbb8e33858984604051808573ffffffffffffffffffffffffffffffffffffffff1673ffffffffffffffffffffffffffffffffffffffff1681526020018481526020018373ffffffffffffffffffffffffffffffffffffffff1673ffffffffffffffffffffffffffffffffffffffff16815260200182815260200194505050505060405180910390a15b50505050505050565b6000600260009054906101000a900473ffffffffffffffffffffffffffffffffffffffff1673ffffffffffffffffffffffffffffffffffffffff16633a465a2b83336040518363ffffffff167c010000000000000000000000000000000000000000000000000000000002815260040180806020018373ffffffffffffffffffffffffffffffffffffffff1673ffffffffffffffffffffffffffffffffffffffff168152602001828103825284818151815260200191508051906020019080838360005b8381101561151e578082015181840152602081019050611503565b50505050905090810190601f16801561154b5780820380516001836020036101000a031916815260200191505b509350505050602060405180830381600087803b15801561156b57600080fd5b505af115801561157f573d6000803e3d6000fd5b505050506040513d602081101561159557600080fd5b810190808051906020019092919050505090507fe507074282a0f805a6f370a3dfca4b5578056337d6fe37524243a02ca7a3cae18133604051808381526020018273ffffffffffffffffffffffffffffffffffffffff1673ffffffffffffffffffffffffffffffffffffffff1681526020019250505060405180910390a1919050565b600080600080600160009054906101000a900473ffffffffffffffffffffffffffffffffffffffff1673ffffffffffffffffffffffffffffffffffffffff1663493da753336040518263ffffffff167c0100000000000000000000000000000000000000000000000000000000028152600401808273ffffffffffffffffffffffffffffffffffffffff1673ffffffffffffffffffffffffffffffffffffffff168152602001915050602060405180830381600087803b1580156116db57600080fd5b505af11580156116ef573d6000803e3d6000fd5b505050506040513d602081101561170557600080fd5b81019080805190602001909291905050509350600085141561176e57600092505b858310156117695760046103e890806001815401808255809150509060018203906000526020600020016000909192909190915055508280600101935050611726565b6117c3565b848481151561177957fe5b049150600090505b848110156117c25760048290806001815401808255809150509060018203906000526020600020016000909192909190915055508080600101915050611781565b5b505050505050565b600160009054906101000a900473ffffffffffffffffffffffffffffffffffffffff1681565b60058181548110151561180057fe5b90600052602060002090600202016000915090508060000160009054906101000a900473ffffffffffffffffffffffffffffffffffffffff16908060010154905082565b600360009054906101000a900473ffffffffffffffffffffffffffffffffffffffff1681565b60008060008060009350600092505b600160009054906101000a900473ffffffffffffffffffffffffffffffffffffffff1673ffffffffffffffffffffffffffffffffffffffff1663c8caf9e56040518163ffffffff167c0100000000000000000000000000000000000000000000000000000000028152600401602060405180830381600087803b1580156118ff57600080fd5b505af1158015611913573d6000803e3d6000fd5b505050506040513d602081101561192957600080fd5b8101908080519060200190929190505050831015611ccd57600160009054906101000a900473ffffffffffffffffffffffffffffffffffffffff1673ffffffffffffffffffffffffffffffffffffffff16636ccb5d02846040518263ffffffff167c010000000000000000000000000000000000000000000000000000000002815260040180828152602001915050606060405180830381600087803b1580156119d257600080fd5b505af11580156119e6573d6000803e3d6000fd5b505050506040513d60608110156119fc57600080fd5b8101908080519060200190929190805190602001909291908051906020019092919050505092505091508473ffffffffffffffffffffffffffffffffffffffff168173ffffffffffffffffffffffffffffffffffffffff161415611b5757600160009054906101000a900473ffffffffffffffffffffffffffffffffffffffff1673ffffffffffffffffffffffffffffffffffffffff1663493da753836040518263ffffffff167c0100000000000000000000000000000000000000000000000000000000028152600401808273ffffffffffffffffffffffffffffffffffffffff1673ffffffffffffffffffffffffffffffffffffffff168152602001915050602060405180830381600087803b158015611b1757600080fd5b505af1158015611b2b573d6000803e3d6000fd5b505050506040513d6020811015611b4157600080fd5b8101908080519060200190929190505050840193505b8473ffffffffffffffffffffffffffffffffffffffff168273ffffffffffffffffffffffffffffffffffffffff16148015611bbe5750600073ffffffffffffffffffffffffffffffffffffffff168173ffffffffffffffffffffffffffffffffffffffff16145b15611cc057600160009054906101000a900473ffffffffffffffffffffffffffffffffffffffff1673ffffffffffffffffffffffffffffffffffffffff1663493da753836040518263ffffffff167c0100000000000000000000000000000000000000000000000000000000028152600401808273ffffffffffffffffffffffffffffffffffffffff1673ffffffffffffffffffffffffffffffffffffffff168152602001915050602060405180830381600087803b158015611c8057600080fd5b505af1158015611c94573d6000803e3d6000fd5b505050506040513d6020811015611caa57600080fd5b8101908080519060200190929190505050840193505b8280600101935050611879565b7ffdbe8f945bf97c075bba2c511a72a7d17c00fdc75ce28126f7da85da4f4648948585604051808373ffffffffffffffffffffffffffffffffffffffff1673ffffffffffffffffffffffffffffffffffffffff1681526020018281526020019250505060405180910390a1505050919050565b6000809054906101000a900473ffffffffffffffffffffffffffffffffffffffff1681565b3373ffffffffffffffffffffffffffffffffffffffff166006600084815260200190815260200160002060009054906101000a900473ffffffffffffffffffffffffffffffffffffffff1673ffffffffffffffffffffffffffffffffffffffff1614151515611e62576040517f08c379a00000000000000000000000000000000000000000000000000000000081526004018080602001828103825260268152602001807f73656e6465722068617320616c7265616479207261746564207468697320717581526020017f657374696f6e000000000000000000000000000000000000000000000000000081525060400191505060405180910390fd5b600260009054906101000a900473ffffffffffffffffffffffffffffffffffffffff1673ffffffffffffffffffffffffffffffffffffffff16634792c36c83836001811115611ead57fe5b6040518363ffffffff167c01000000000000000000000000000000000000000000000000000000000281526004018083815260200182815260200192505050600060405180830381600087803b158015611f0657600080fd5b505af1158015611f1a573d6000803e3d6000fd5b50505050336006600084815260200190815260200160002060006101000a81548173ffffffffffffffffffffffffffffffffffffffff021916908373ffffffffffffffffffffffffffffffffffffffff1602179055505050565b815481835581811115611f9b57818360005260206000209182019101611f9a9190611fa0565b5b505050565b611fc291905b80821115611fbe576000816000905550600101611fa6565b5090565b905600a165627a7a72305820cf4c42aff6353134b784d004265404ae5f1dd791f47832c3032d8f5693608af80029",
  "source": "pragma solidity ^0.4.23;\r\n\r\nimport \"./User.sol\";\r\nimport \"./AgmOwner.sol\";\r\nimport \"./Factory.sol\";\r\nimport \"./ProposalData.sol\";\r\n\r\ncontract Shareholder is User, ProposalData {\r\n\r\n    Factory public fac;\r\n    QandA public qa;\r\n\r\n    address public delegate;\r\n    uint[] public votingDenominations;\r\n    Delegate[] public delegations;\r\n    mapping (uint => address) public ratings;\r\n\r\n    enum RatingOption {DOWNVOTE, UPVOTE}\r\n\r\n    struct Delegate {\r\n        address proxy;\r\n        uint votingWeight;\r\n    }\r\n\r\n    modifier onlyShareholder {\r\n        require((!this.isDirector()) && (fac.votingWeights(msg.sender) > 0));\r\n        _;\r\n    }\r\n\r\n    event QuestionCreated(uint questionId, address creator);\r\n    event Voted(address invoker, uint proposalId, string votingOption);\r\n    event VoterWeight(address userAddress, uint weight);\r\n    event PartialDelegationFrom(address sender, uint senderWeight, address proxy, uint proxyWeight);\r\n    event SimpleDelegationFrom(address sender, uint senderWeight, address proxy, uint proxyWeight);\r\n    event ShareholderCreated(address userAddress, uint votingWeight, address delegate);\r\n    \r\n    constructor(address userAddress, uint _votingWeight, Factory _fac, QandA _qa) \r\n        User(userAddress, false) public {\r\n        \r\n        fac = _fac;\r\n        qa = _qa;\r\n        fac.setVotingWeight(userAddress, _votingWeight);\r\n        delegate = address(0);\r\n\r\n        emit ShareholderCreated(userAddress, fac.votingWeights(userAddress), delegate);\r\n    }\r\n\r\n    function vote(uint proposalId, string votingOption) public {\r\n        fac.setVote(proposalId, votingOption);\r\n        \r\n        emit Voted(userAddress, proposalId, votingOption);\r\n    }\r\n\r\n    function createQuestion(string _content) public returns (uint questId) {\r\n\r\n        questId = qa.createNewQuestion(_content, msg.sender);\r\n\r\n        emit QuestionCreated(questId, msg.sender);\r\n    }\r\n\r\n    function rateQuestion(uint questionId, RatingOption ratingOpt) public {\r\n        require(ratings[questionId] != msg.sender, \"sender has already rated this question\");\r\n        qa.setRating(questionId, uint(ratingOpt));\r\n        ratings[questionId] = msg.sender;\r\n    }\r\n\r\n    function denominateVotingTokens(uint numOfThousandWeights, uint divider) public {\r\n        uint voterWeight = fac.votingWeights(msg.sender);\r\n        if (divider == 0) {\r\n            for (uint i = 0; i < numOfThousandWeights; i++) {\r\n                votingDenominations.push(1000);\r\n            }\r\n        } else {\r\n            uint dividedWeight = voterWeight / divider;\r\n            for (uint j = 0; j < divider; j++) {\r\n                votingDenominations.push(dividedWeight);\r\n            }\r\n        }\r\n    }\r\n\r\n    function getVoterWeight(address _userAddress) public returns (uint weight) {\r\n        weight = 0;\r\n        for (uint i = 0; i < fac.getNumOfShareholders(); i++) {\r\n            \r\n            (address currAddress,,address _delegate) = fac.getShareholder(i);\r\n            if (_delegate == _userAddress) {\r\n                weight += fac.votingWeights(currAddress);\r\n            }\r\n\r\n            if (currAddress == _userAddress && _delegate == address(0)) {\r\n                weight += fac.votingWeights(currAddress);\r\n            }\r\n        }\r\n\r\n        emit VoterWeight(_userAddress, weight);     \r\n    }\r\n\r\n    // if shareholder voted on any proposal he cannot delegate his VP to a proxy anymore\r\n    function delegateToProxy(address proxyAddress, bool partialDelegation, uint voteBlockIndex) public {\r\n        require(fac.votingWeights(msg.sender) > 0, \"Sender does not own enough voting tokens\");\r\n        require(proxyAddress != msg.sender, \"Self-delegation is not allowed\");\r\n        //require(userExists(proxyAddress), \"Proxy is not a registered user\");\r\n        //require(userExists(msg.sender), \"the user account is not registered\");\r\n        //require(delegate == address(0), \"user already has delegated to another proxy\");\r\n\r\n        uint senderWeight = fac.votingWeights(msg.sender);\r\n        if (partialDelegation) {\r\n            // partial voting, delegate a voting weight block of his total voting weight to one proxy\r\n            uint targetVoteWeight = votingDenominations[voteBlockIndex];\r\n            // deletes voting weight block in the weight array and deletes the entry with swapping elements if required\r\n            delete votingDenominations[voteBlockIndex];\r\n\r\n            for (; voteBlockIndex < votingDenominations.length - 1; voteBlockIndex++) {\r\n                votingDenominations[voteBlockIndex] = votingDenominations[voteBlockIndex+1];\r\n            }\r\n        \r\n            votingDenominations.length--; \r\n\r\n            fac.setVotingWeight(msg.sender, senderWeight - targetVoteWeight);\r\n            uint newWeightWithPartDeleg = fac.votingWeights(proxyAddress) + targetVoteWeight;\r\n            fac.setVotingWeight(proxyAddress, newWeightWithPartDeleg);\r\n            \r\n            delegations.push(Delegate(proxyAddress, targetVoteWeight));\r\n\r\n            emit PartialDelegationFrom(msg.sender, senderWeight, proxyAddress, targetVoteWeight);\r\n        } else {\r\n\r\n            // subtract tokens from sender and add them to proxy\r\n            fac.setVotingWeight(msg.sender, 0);\r\n            uint newWeight = fac.votingWeights(proxyAddress) + senderWeight;\r\n            fac.setVotingWeight(proxyAddress, newWeight);\r\n\r\n            delegations.push(Delegate(proxyAddress, senderWeight)); \r\n\r\n            emit SimpleDelegationFrom(msg.sender, senderWeight, proxyAddress, newWeight);\r\n        }  \r\n    }\r\n\r\n\r\n}\r\n\r\n\r\n\r\n\r\n",
  "sourcePath": "D:\\Git\\repo\\ShareholderMeeting\\solidity\\contracts\\Shareholder.sol",
  "compiler": {
    "name": "solc",
    "version": "0.4.24+commit.e67f0147.Emscripten.clang"
  },
  "schemaVersion": "2.0.1",
  "updatedAt": "2018-08-04T09:57:57.187Z"
}