{
  "contractName": "State",
  "abi": [
    {
      "constant": true,
      "inputs": [
        {
          "name": "",
          "type": "uint256"
        }
      ],
      "name": "users",
      "outputs": [
        {
          "name": "",
          "type": "address"
        }
      ],
      "payable": false,
      "stateMutability": "view",
      "type": "function"
    },
    {
      "constant": true,
      "inputs": [
        {
          "name": "",
          "type": "address"
        }
      ],
      "name": "userId",
      "outputs": [
        {
          "name": "",
          "type": "uint256"
        }
      ],
      "payable": false,
      "stateMutability": "view",
      "type": "function"
    },
    {
      "constant": true,
      "inputs": [],
      "name": "numberOfUsers",
      "outputs": [
        {
          "name": "",
          "type": "uint256"
        }
      ],
      "payable": false,
      "stateMutability": "view",
      "type": "function"
    },
    {
      "anonymous": false,
      "inputs": [
        {
          "indexed": false,
          "name": "userId",
          "type": "uint256"
        },
        {
          "indexed": false,
          "name": "userAddress",
          "type": "address"
        },
        {
          "indexed": false,
          "name": "isDirector",
          "type": "bool"
        }
      ],
      "name": "UserCreated",
      "type": "event"
    },
    {
      "anonymous": false,
      "inputs": [
        {
          "indexed": false,
          "name": "userId",
          "type": "uint256"
        },
        {
          "indexed": false,
          "name": "userAddress",
          "type": "address"
        },
        {
          "indexed": false,
          "name": "isDirector",
          "type": "bool"
        }
      ],
      "name": "UserRemoved",
      "type": "event"
    },
    {
      "constant": true,
      "inputs": [],
      "name": "getNumOfUsers",
      "outputs": [
        {
          "name": "length",
          "type": "uint256"
        }
      ],
      "payable": false,
      "stateMutability": "view",
      "type": "function"
    },
    {
      "constant": true,
      "inputs": [
        {
          "name": "_userAddress",
          "type": "address"
        }
      ],
      "name": "getUser",
      "outputs": [
        {
          "name": "u",
          "type": "address"
        }
      ],
      "payable": false,
      "stateMutability": "view",
      "type": "function"
    },
    {
      "constant": false,
      "inputs": [
        {
          "name": "_userAddress",
          "type": "address"
        },
        {
          "name": "isDirector",
          "type": "bool"
        },
        {
          "name": "votingTok",
          "type": "uint256"
        },
        {
          "name": "_state",
          "type": "address"
        }
      ],
      "name": "addUser",
      "outputs": [],
      "payable": false,
      "stateMutability": "nonpayable",
      "type": "function"
    },
    {
      "constant": false,
      "inputs": [
        {
          "name": "_userAddress",
          "type": "address"
        }
      ],
      "name": "removeUser",
      "outputs": [],
      "payable": false,
      "stateMutability": "nonpayable",
      "type": "function"
    }
  ],
  "bytecode": "0x608060405234801561001057600080fd5b5061149f806100206000396000f300608060405260043610610083576000357c0100000000000000000000000000000000000000000000000000000000900463ffffffff168063365b98b214610088578063376fe102146100f55780636f77926b1461014c57806375ce46a7146101cf578063880e97a0146101fa5780638dde277a14610225578063985751881461029e575b600080fd5b34801561009457600080fd5b506100b3600480360381019080803590602001909291905050506102e1565b604051808273ffffffffffffffffffffffffffffffffffffffff1673ffffffffffffffffffffffffffffffffffffffff16815260200191505060405180910390f35b34801561010157600080fd5b50610136600480360381019080803573ffffffffffffffffffffffffffffffffffffffff16906020019092919050505061031f565b6040518082815260200191505060405180910390f35b34801561015857600080fd5b5061018d600480360381019080803573ffffffffffffffffffffffffffffffffffffffff169060200190929190505050610337565b604051808273ffffffffffffffffffffffffffffffffffffffff1673ffffffffffffffffffffffffffffffffffffffff16815260200191505060405180910390f35b3480156101db57600080fd5b506101e46103b9565b6040518082815260200191505060405180910390f35b34801561020657600080fd5b5061020f6103bf565b6040518082815260200191505060405180910390f35b34801561023157600080fd5b5061029c600480360381019080803573ffffffffffffffffffffffffffffffffffffffff16906020019092919080351515906020019092919080359060200190929190803573ffffffffffffffffffffffffffffffffffffffff1690602001909291905050506103cc565b005b3480156102aa57600080fd5b506102df600480360381019080803573ffffffffffffffffffffffffffffffffffffffff16906020019092919050505061063b565b005b6001818154811015156102f057fe5b906000526020600020016000915054906101000a900473ffffffffffffffffffffffffffffffffffffffff1681565b60026020528060005260406000206000915090505481565b60006001600260008473ffffffffffffffffffffffffffffffffffffffff1673ffffffffffffffffffffffffffffffffffffffff1681526020019081526020016000205481548110151561038757fe5b9060005260206000200160009054906101000a900473ffffffffffffffffffffffffffffffffffffffff169050919050565b60005481565b6000600180549050905090565b6000600260008673ffffffffffffffffffffffffffffffffffffffff1673ffffffffffffffffffffffffffffffffffffffff1681526020019081526020016000205490506000811415610474576001805480919060010161042d9190610a05565b905080600260008773ffffffffffffffffffffffffffffffffffffffff1673ffffffffffffffffffffffffffffffffffffffff168152602001908152602001600020819055505b83156105aa5784610483610a31565b808273ffffffffffffffffffffffffffffffffffffffff1673ffffffffffffffffffffffffffffffffffffffff168152602001915050604051809103906000f0801580156104d5573d6000803e3d6000fd5b506001828154811015156104e557fe5b9060005260206000200160006101000a81548173ffffffffffffffffffffffffffffffffffffffff021916908373ffffffffffffffffffffffffffffffffffffffff1602179055507f88002c8a3d903e0b9ca6d4d478f00f4936fd2c9a081e9b47a0360112029d037681866001604051808481526020018373ffffffffffffffffffffffffffffffffffffffff1673ffffffffffffffffffffffffffffffffffffffff16815260200182151515158152602001935050505060405180910390a1610623565b7f88002c8a3d903e0b9ca6d4d478f00f4936fd2c9a081e9b47a0360112029d037681866000604051808481526020018373ffffffffffffffffffffffffffffffffffffffff1673ffffffffffffffffffffffffffffffffffffffff16815260200182151515158152602001935050505060405180910390a15b60008081548092919060010191905055505050505050565b600080600260008473ffffffffffffffffffffffffffffffffffffffff1673ffffffffffffffffffffffffffffffffffffffff16815260200190815260200160002054915060018281548110151561068f57fe5b9060005260206000200160009054906101000a900473ffffffffffffffffffffffffffffffffffffffff1690506001828154811015156106cb57fe5b9060005260206000200160006101000a81549073ffffffffffffffffffffffffffffffffffffffff02191690555b60018080549050038210156108c357600180830181548110151561071957fe5b9060005260206000200160009054906101000a900473ffffffffffffffffffffffffffffffffffffffff1660018381548110151561075357fe5b9060005260206000200160006101000a81548173ffffffffffffffffffffffffffffffffffffffff021916908373ffffffffffffffffffffffffffffffffffffffff16021790555081600260006001858154811015156107af57fe5b9060005260206000200160009054906101000a900473ffffffffffffffffffffffffffffffffffffffff1673ffffffffffffffffffffffffffffffffffffffff1663e4128fb36040518163ffffffff167c0100000000000000000000000000000000000000000000000000000000028152600401602060405180830381600087803b15801561083d57600080fd5b505af1158015610851573d6000803e3d6000fd5b505050506040513d602081101561086757600080fd5b810190808051906020019092919050505073ffffffffffffffffffffffffffffffffffffffff1673ffffffffffffffffffffffffffffffffffffffff1681526020019081526020016000208190555081806001019250506106f9565b60018054809190600190036108d89190610a05565b506000808154809291906001900391905055507fd601b36399eed8ab2ff764ce20c6c255752ea37b345e4f857027ff4d1f1bdbc682848373ffffffffffffffffffffffffffffffffffffffff16631ad8af8d6040518163ffffffff167c0100000000000000000000000000000000000000000000000000000000028152600401602060405180830381600087803b15801561097257600080fd5b505af1158015610986573d6000803e3d6000fd5b505050506040513d602081101561099c57600080fd5b8101908080519060200190929190505050604051808481526020018373ffffffffffffffffffffffffffffffffffffffff1673ffffffffffffffffffffffffffffffffffffffff16815260200182151515158152602001935050505060405180910390a1505050565b815481835581811115610a2c57818360005260206000209182019101610a2b9190610a41565b5b505050565b604051610a0d80610a6783390190565b610a6391905b80821115610a5f576000816000905550600101610a47565b5090565b905600608060405234801561001057600080fd5b50604051602080610a0d83398101806040528101908080519060200190929190505050806001816000806101000a81548173ffffffffffffffffffffffffffffffffffffffff021916908373ffffffffffffffffffffffffffffffffffffffff16021790555080600060146101000a81548160ff02191690831515021790555050505061096b806100a26000396000f300608060405260043610610078576000357c0100000000000000000000000000000000000000000000000000000000900463ffffffff16806317599cc51461007d5780631ad8af8d1461016b5780633d3e528d1461019a5780634fec390c146101c5578063b5ab58dc1461024c578063e4128fb31461033a575b600080fd5b34801561008957600080fd5b506100a860048036038101908080359060200190929190505050610391565b604051808681526020018581526020018473ffffffffffffffffffffffffffffffffffffffff1673ffffffffffffffffffffffffffffffffffffffff16815260200180602001838152602001828103825284818151815260200191508051906020019080838360005b8381101561012c578082015181840152602081019050610111565b50505050905090810190601f1680156101595780820380516001836020036101000a031916815260200191505b50965050505050505060405180910390f35b34801561017757600080fd5b5061018061048e565b604051808215151515815260200191505060405180910390f35b3480156101a657600080fd5b506101af6104a1565b6040518082815260200191505060405180910390f35b3480156101d157600080fd5b5061023660048036038101908080359060200190929190803590602001908201803590602001908080601f01602080910402602001604051908101604052809392919081815260200183838082843782019150505050505091929192905050506104ae565b6040518082815260200191505060405180910390f35b34801561025857600080fd5b506102776004803603810190808035906020019092919050505061067c565b604051808681526020018581526020018473ffffffffffffffffffffffffffffffffffffffff1673ffffffffffffffffffffffffffffffffffffffff16815260200180602001838152602001828103825284818151815260200191508051906020019080838360005b838110156102fb5780820151818401526020810190506102e0565b50505050905090810190601f1680156103285780820380516001836020036101000a031916815260200191505b50965050505050505060405180910390f35b34801561034657600080fd5b5061034f61078d565b604051808273ffffffffffffffffffffffffffffffffffffffff1673ffffffffffffffffffffffffffffffffffffffff16815260200191505060405180910390f35b6001818154811015156103a057fe5b90600052602060002090600502016000915090508060000154908060010154908060020160009054906101000a900473ffffffffffffffffffffffffffffffffffffffff1690806003018054600181600116156101000203166002900480601f01602080910402602001604051908101604052809291908181526020018280546001816001161561010002031660029004801561047e5780601f106104535761010080835404028352916020019161047e565b820191906000526020600020905b81548152906001019060200180831161046157829003601f168201915b5050505050908060040154905085565b600060149054906101000a900460ff1681565b6000600180549050905090565b60008060003073ffffffffffffffffffffffffffffffffffffffff16631ad8af8d6040518163ffffffff167c0100000000000000000000000000000000000000000000000000000000028152600401602060405180830381600087803b15801561051757600080fd5b505af115801561052b573d6000803e3d6000fd5b505050506040513d602081101561054157600080fd5b8101908080519060200190929190505050151561055d57600080fd5b6001805480919060010161057191906107b2565b915060018281548110151561058257fe5b90600052602060002090600502019050818160000181905550848160010181905550338160020160006101000a81548173ffffffffffffffffffffffffffffffffffffffff021916908373ffffffffffffffffffffffffffffffffffffffff160217905550838160030190805190602001906105ff9291906107e4565b504281600401819055507f1cce31feeb8b658498dbd740f9f2893f5950824526d859d079df34984d412d898333604051808381526020018273ffffffffffffffffffffffffffffffffffffffff1673ffffffffffffffffffffffffffffffffffffffff1681526020019250505060405180910390a1505092915050565b6000806000606060008060018781548110151561069557fe5b90600052602060002090600502019050806000015481600101548260020160009054906101000a900473ffffffffffffffffffffffffffffffffffffffff16836003018460040154818054600181600116156101000203166002900480601f0160208091040260200160405190810160405280929190818152602001828054600181600116156101000203166002900480156107725780601f1061074757610100808354040283529160200191610772565b820191906000526020600020905b81548152906001019060200180831161075557829003601f168201915b50505050509150955095509550955095505091939590929450565b6000809054906101000a900473ffffffffffffffffffffffffffffffffffffffff1681565b8154818355818111156107df576005028160050283600052602060002091820191016107de9190610864565b5b505050565b828054600181600116156101000203166002900490600052602060002090601f016020900481019282601f1061082557805160ff1916838001178555610853565b82800160010185558215610853579182015b82811115610852578251825591602001919060010190610837565b5b50905061086091906108d2565b5090565b6108cf91905b808211156108cb5760008082016000905560018201600090556002820160006101000a81549073ffffffffffffffffffffffffffffffffffffffff02191690556003820160006108ba91906108f7565b60048201600090555060050161086a565b5090565b90565b6108f491905b808211156108f05760008160009055506001016108d8565b5090565b90565b50805460018160011615610100020316600290046000825580601f1061091d575061093c565b601f01602090049060005260206000209081019061093b91906108d2565b5b505600a165627a7a723058209174b88602861f585f3e61f0c39fa968439ccb8b26f74b46ad74d009c424fe840029a165627a7a723058204cf4449f6a2e9b7bc62aab26b07be13b26984c5a6aa6335a9b3ec1df9a9444610029",
  "source": "pragma solidity^ 0.4.23;\r\n\r\nimport \"./User.sol\";\r\nimport \"./Director.sol\";\r\nimport \"./Shareholder.sol\";\r\n\r\ncontract State {\r\n\r\n    // total number of users\r\n    uint public numberOfUsers;\r\n    // stores all users\r\n    User[] public users;\r\n    // stores user's address with corresponding id\r\n    mapping(address => uint) public userId;\r\n\r\n    event UserCreated(uint userId, address userAddress, bool isDirector);\r\n    event UserRemoved(uint userId, address userAddress, bool isDirector);\r\n\r\n    function getNumOfUsers() public view returns (uint length) {\r\n        return users.length;\r\n    }\r\n\r\n    function getUser(address _userAddress) public view returns (User u) {\r\n        return users[userId[_userAddress]];\r\n    }\r\n\r\n    function addUser(address _userAddress, bool isDirector, uint votingTok, State _state) public {\r\n        uint id = userId[_userAddress];\r\n        if (id == 0) {\r\n            id = users.length++;\r\n            userId[_userAddress] = id;\r\n        }\r\n\r\n        if (isDirector) {\r\n            users[id] = new Director({userAddress: _userAddress});\r\n            emit UserCreated(id, _userAddress, true);\r\n        } else {\r\n            //users[id] = new Shareholder({userAddress: _userAddress, _votingTokens: votingTok, state: _state});\r\n            emit UserCreated(id, _userAddress, false);\r\n        }\r\n        numberOfUsers++;\r\n    }\r\n\r\n    function removeUser(address _userAddress) public {\r\n        //require(userId[_userAddress] != 0, \"User does not exist\");\r\n\r\n        uint i = userId[_userAddress];\r\n        User remUser = users[i];\r\n        delete users[i];\r\n\r\n        for (; i < users.length - 1; i++) {\r\n            users[i] = users[i+1];\r\n            userId[users[i].userAddress()] = i;\r\n        }\r\n        \r\n        users.length--;\r\n        numberOfUsers--;\r\n\r\n        emit UserRemoved(i, _userAddress, remUser.isDirector());\r\n    }\r\n}",
  "sourcePath": "D:\\Git\\repo\\ShareholderMeeting\\solidity\\contracts\\State.sol",
  "compiler": {
    "name": "solc",
    "version": "0.4.24+commit.e67f0147.Emscripten.clang"
  },
  "schemaVersion": "2.0.1",
  "updatedAt": "2018-07-30T14:19:47.967Z"
}