{
  "contractName": "User",
  "abi": [
    {
      "constant": true,
      "inputs": [],
      "name": "isDirector",
      "outputs": [
        {
          "name": "",
          "type": "bool"
        }
      ],
      "payable": false,
      "stateMutability": "view",
      "type": "function"
    },
    {
      "constant": true,
      "inputs": [],
      "name": "userAddress",
      "outputs": [
        {
          "name": "",
          "type": "address"
        }
      ],
      "payable": false,
      "stateMutability": "view",
      "type": "function"
    },
    {
      "inputs": [
        {
          "name": "_userAddress",
          "type": "address"
        },
        {
          "name": "_isDirector",
          "type": "bool"
        }
      ],
      "payable": false,
      "stateMutability": "nonpayable",
      "type": "constructor"
    },
    {
      "anonymous": false,
      "inputs": [
        {
          "indexed": false,
          "name": "exists",
          "type": "bool"
        }
      ],
      "name": "UserExists",
      "type": "event"
    }
  ],
  "bytecode": "0x608060405234801561001057600080fd5b506040516040806101e38339810180604052810190808051906020019092919080519060200190929190505050816000806101000a81548173ffffffffffffffffffffffffffffffffffffffff021916908373ffffffffffffffffffffffffffffffffffffffff16021790555080600060146101000a81548160ff021916908315150217905550505061013b806100a86000396000f30060806040526004361061004c576000357c0100000000000000000000000000000000000000000000000000000000900463ffffffff1680631ad8af8d14610051578063e4128fb314610080575b600080fd5b34801561005d57600080fd5b506100666100d7565b604051808215151515815260200191505060405180910390f35b34801561008c57600080fd5b506100956100ea565b604051808273ffffffffffffffffffffffffffffffffffffffff1673ffffffffffffffffffffffffffffffffffffffff16815260200191505060405180910390f35b600060149054906101000a900460ff1681565b6000809054906101000a900473ffffffffffffffffffffffffffffffffffffffff16815600a165627a7a72305820b6808b2247ebbbf74d40c2d1c840de493eddd646f85c2fffa18b2a5b64902eee0029",
  "source": "pragma solidity ^0.4.23;\r\n\r\ncontract User {\r\n\r\n    address public userAddress;\r\n    bool public isDirector;\r\n\r\n    event UserExists(bool exists);\r\n\r\n    constructor(address _userAddress, bool _isDirector) public {\r\n        userAddress = _userAddress;\r\n        isDirector = _isDirector;\r\n    }\r\n\r\n    /*function userExists(address _userAddress) public returns (bool exists) {\r\n        exists = userId[_userAddress] != 0;\r\n\r\n        emit UserExists(exists); \r\n        return exists;\r\n    }*/\r\n}",
  "sourcePath": "D:\\Git\\repo\\ShareholderMeeting\\solidity\\contracts\\User.sol",
  "compiler": {
    "name": "solc",
    "version": "0.4.24+commit.e67f0147.Emscripten.clang"
  },
  "schemaVersion": "2.0.1",
  "updatedAt": "2018-07-31T10:26:21.229Z"
}