{
  "contractName": "Voter",
  "abi": [
    {
      "constant": true,
      "inputs": [
        {
          "name": "",
          "type": "uint256"
        }
      ],
      "name": "proposals",
      "outputs": [
        {
          "name": "proposalId",
          "type": "uint256"
        },
        {
          "name": "name",
          "type": "string"
        },
        {
          "name": "description",
          "type": "string"
        },
        {
          "name": "options",
          "type": "string"
        },
        {
          "name": "proposalPassed",
          "type": "bool"
        },
        {
          "name": "passedPercent",
          "type": "uint256"
        },
        {
          "name": "voteCount",
          "type": "uint256"
        }
      ],
      "payable": false,
      "stateMutability": "view",
      "type": "function"
    },
    {
      "constant": true,
      "inputs": [
        {
          "name": "",
          "type": "address"
        }
      ],
      "name": "votingTokens",
      "outputs": [
        {
          "name": "",
          "type": "uint256"
        }
      ],
      "payable": false,
      "stateMutability": "view",
      "type": "function"
    },
    {
      "constant": true,
      "inputs": [],
      "name": "getNumOfProposals",
      "outputs": [
        {
          "name": "length",
          "type": "uint256"
        }
      ],
      "payable": false,
      "stateMutability": "view",
      "type": "function"
    },
    {
      "constant": true,
      "inputs": [
        {
          "name": "name",
          "type": "string"
        }
      ],
      "name": "getProposalIdByName",
      "outputs": [
        {
          "name": "proposalId",
          "type": "uint256"
        }
      ],
      "payable": false,
      "stateMutability": "view",
      "type": "function"
    },
    {
      "constant": true,
      "inputs": [
        {
          "name": "proposalId",
          "type": "uint256"
        }
      ],
      "name": "getProposal",
      "outputs": [
        {
          "name": "_proposalId",
          "type": "uint256"
        },
        {
          "name": "_name",
          "type": "string"
        },
        {
          "name": "_description",
          "type": "string"
        },
        {
          "name": "_options",
          "type": "string"
        },
        {
          "name": "_proposalPassed",
          "type": "bool"
        },
        {
          "name": "_passedPercent",
          "type": "uint256"
        },
        {
          "name": "_voteCount",
          "type": "uint256"
        }
      ],
      "payable": false,
      "stateMutability": "view",
      "type": "function"
    }
  ],
  "bytecode": "0x608060405234801561001057600080fd5b50610a94806100206000396000f30060806040526004361061006d576000357c0100000000000000000000000000000000000000000000000000000000900463ffffffff168063013cf08b14610072578063c505e83614610210578063c7f758a81461028d578063d328e84d1461042b578063eca964e314610456575b600080fd5b34801561007e57600080fd5b5061009d600480360381019080803590602001909291905050506104ad565b604051808881526020018060200180602001806020018715151515815260200186815260200185815260200184810384528a818151815260200191508051906020019080838360005b838110156101015780820151818401526020810190506100e6565b50505050905090810190601f16801561012e5780820380516001836020036101000a031916815260200191505b50848103835289818151815260200191508051906020019080838360005b8381101561016757808201518184015260208101905061014c565b50505050905090810190601f1680156101945780820380516001836020036101000a031916815260200191505b50848103825288818151815260200191508051906020019080838360005b838110156101cd5780820151818401526020810190506101b2565b50505050905090810190601f1680156101fa5780820380516001836020036101000a031916815260200191505b509a505050505050505050505060405180910390f35b34801561021c57600080fd5b50610277600480360381019080803590602001908201803590602001908080601f01602080910402602001604051908101604052809392919081815260200183838082843782019150505050505091929192905050506106d3565b6040518082815260200191505060405180910390f35b34801561029957600080fd5b506102b8600480360381019080803590602001909291905050506107fd565b604051808881526020018060200180602001806020018715151515815260200186815260200185815260200184810384528a818151815260200191508051906020019080838360005b8381101561031c578082015181840152602081019050610301565b50505050905090810190601f1680156103495780820380516001836020036101000a031916815260200191505b50848103835289818151815260200191508051906020019080838360005b83811015610382578082015181840152602081019050610367565b50505050905090810190601f1680156103af5780820380516001836020036101000a031916815260200191505b50848103825288818151815260200191508051906020019080838360005b838110156103e85780820151818401526020810190506103cd565b50505050905090810190601f1680156104155780820380516001836020036101000a031916815260200191505b509a505050505050505050505060405180910390f35b34801561043757600080fd5b50610440610a44565b6040518082815260200191505060405180910390f35b34801561046257600080fd5b50610497600480360381019080803573ffffffffffffffffffffffffffffffffffffffff169060200190929190505050610a50565b6040518082815260200191505060405180910390f35b6000818154811015156104bc57fe5b9060005260206000209060090201600091509050806000015490806001018054600181600116156101000203166002900480601f01602080910402602001604051908101604052809291908181526020018280546001816001161561010002031660029004801561056e5780601f106105435761010080835404028352916020019161056e565b820191906000526020600020905b81548152906001019060200180831161055157829003601f168201915b505050505090806002018054600181600116156101000203166002900480601f01602080910402602001604051908101604052809291908181526020018280546001816001161561010002031660029004801561060c5780601f106105e15761010080835404028352916020019161060c565b820191906000526020600020905b8154815290600101906020018083116105ef57829003601f168201915b505050505090806003018054600181600116156101000203166002900480601f0160208091040260200160405190810160405280929190818152602001828054600181600116156101000203166002900480156106aa5780601f1061067f576101008083540402835291602001916106aa565b820191906000526020600020905b81548152906001019060200180831161068d57829003601f168201915b5050505050908060040160009054906101000a900460ff16908060050154908060060154905087565b600080600090505b6000805490508110156107f6576000818154811015156106f757fe5b906000526020600020906009020160010160405180828054600181600116156101000203166002900480156107635780601f10610741576101008083540402835291820191610763565b820191906000526020600020905b81548152906001019060200180831161074f575b5050915050604051809103902060001916836040518082805190602001908083835b6020831015156107aa5780518252602082019150602081019050602083039250610785565b6001836020036101000a03801982511681845116808217855250505050505090500191505060405180910390206000191614156107e9578091506107f7565b80806001019150506106db565b5b50919050565b6000606080606060008060008060008981548110151561081957fe5b9060005260206000209060090201905080600001548160010182600201836003018460040160009054906101000a900460ff1685600501548660060154858054600181600116156101000203166002900480601f0160208091040260200160405190810160405280929190818152602001828054600181600116156101000203166002900480156108eb5780601f106108c0576101008083540402835291602001916108eb565b820191906000526020600020905b8154815290600101906020018083116108ce57829003601f168201915b50505050509550848054600181600116156101000203166002900480601f0160208091040260200160405190810160405280929190818152602001828054600181600116156101000203166002900480156109875780601f1061095c57610100808354040283529160200191610987565b820191906000526020600020905b81548152906001019060200180831161096a57829003601f168201915b50505050509450838054600181600116156101000203166002900480601f016020809104026020016040519081016040528092919081815260200182805460018160011615610100020316600290048015610a235780601f106109f857610100808354040283529160200191610a23565b820191906000526020600020905b815481529060010190602001808311610a0657829003601f168201915b50505050509350975097509750975097509750975050919395979092949650565b60008080549050905090565b600160205280600052604060002060009150905054815600a165627a7a72305820937946782c88fd33cbb2d67e5538274fb12f642e9461eae3ead27389f5fe409f0029",
  "source": "pragma solidity ^0.4.23;\r\n\r\ncontract Voter {\r\n\r\n    Proposal[] public proposals;\r\n    mapping(address => uint) public votingTokens;\r\n    \r\n    struct Proposal {\r\n        uint proposalId;\r\n        string name;\r\n        string description;\r\n        string options;\r\n        bool proposalPassed;\r\n        uint passedPercent;\r\n        uint voteCount;\r\n        Vote[] votes;\r\n        mapping(address => bool) votedOnProposal;\r\n    }\r\n\r\n    struct Vote {\r\n        address voterAddress;\r\n        string voterDecision;\r\n    }\r\n\r\n    function getNumOfProposals() public view returns (uint length) {\r\n        return proposals.length;\r\n    }\r\n\r\n    function getProposalIdByName(string name) public view returns(uint proposalId) {\r\n        for (uint i = 0; i < proposals.length; i++) {\r\n            if (keccak256(name) == keccak256(proposals[i].name)) {\r\n                return i;\r\n            }\r\n        }\r\n    }\r\n\r\n    function getProposal(uint proposalId) public view returns (\r\n        uint _proposalId,\r\n        string _name,\r\n        string _description,\r\n        string _options,\r\n        bool _proposalPassed,\r\n        uint _passedPercent,\r\n        uint _voteCount\r\n    ) {\r\n        Proposal storage proposal = proposals[proposalId];\r\n        return\r\n        (proposal.proposalId, proposal.name, proposal.description, proposal.options, proposal.proposalPassed,\r\n        proposal.passedPercent, proposal.voteCount);\r\n    }\r\n}",
  "sourcePath": "D:\\Git\\repo\\ShareholderMeeting\\solidity\\contracts\\Voter.sol",
  "compiler": {
    "name": "solc",
    "version": "0.4.24+commit.e67f0147.Emscripten.clang"
  },
  "schemaVersion": "2.0.1",
  "updatedAt": "2018-07-30T14:19:47.968Z"
}